{"abi":[{"type":"constructor","inputs":[{"name":"_defaultTreasureFee","type":"uint128","internalType":"uint128"},{"name":"_defaultLiquidationReward","type":"uint128","internalType":"uint128"}],"stateMutability":"nonpayable"},{"type":"function","name":"AVG_BLOCK_TIME","inputs":[],"outputs":[{"name":"","type":"uint256","internalType":"uint256"}],"stateMutability":"view"},{"type":"function","name":"customFees","inputs":[{"name":"","type":"address","internalType":"address"}],"outputs":[{"name":"treasureFee","type":"uint128","internalType":"uint128"},{"name":"liquidationReward","type":"uint128","internalType":"uint128"},{"name":"isCustom","type":"bool","internalType":"bool"}],"stateMutability":"view"},{"type":"function","name":"customLifeBlocks","inputs":[{"name":"","type":"address","internalType":"address"}],"outputs":[{"name":"","type":"uint64","internalType":"uint64"}],"stateMutability":"view"},{"type":"function","name":"customLifeTimes","inputs":[{"name":"","type":"address","internalType":"address"}],"outputs":[{"name":"","type":"uint64","internalType":"uint64"}],"stateMutability":"view"},{"type":"function","name":"defaultLiquidationReward","inputs":[],"outputs":[{"name":"","type":"uint128","internalType":"uint128"}],"stateMutability":"view"},{"type":"function","name":"defaultPositionLifeBlocks","inputs":[],"outputs":[{"name":"","type":"uint64","internalType":"uint64"}],"stateMutability":"view"},{"type":"function","name":"defaultPositionLifeTime","inputs":[],"outputs":[{"name":"","type":"uint64","internalType":"uint64"}],"stateMutability":"view"},{"type":"function","name":"defaultTreasureFee","inputs":[],"outputs":[{"name":"","type":"uint128","internalType":"uint128"}],"stateMutability":"view"},{"type":"function","name":"getFees","inputs":[{"name":"_trader","type":"address","internalType":"address"}],"outputs":[{"name":"treasureFee","type":"uint128","internalType":"uint128"},{"name":"liquidationReward","type":"uint128","internalType":"uint128"}],"stateMutability":"view"},{"type":"function","name":"getPositionLifeBlocks","inputs":[{"name":"_trader","type":"address","internalType":"address"}],"outputs":[{"name":"","type":"uint64","internalType":"uint64"}],"stateMutability":"view"},{"type":"function","name":"getPositionLifeTime","inputs":[{"name":"_trader","type":"address","internalType":"address"}],"outputs":[{"name":"","type":"uint64","internalType":"uint64"}],"stateMutability":"view"},{"type":"function","name":"owner","inputs":[],"outputs":[{"name":"","type":"address","internalType":"address"}],"stateMutability":"view"},{"type":"function","name":"removeCustomFees","inputs":[{"name":"_trader","type":"address","internalType":"address"}],"outputs":[],"stateMutability":"nonpayable"},{"type":"function","name":"removeCustomPositionLifeBlocks","inputs":[{"name":"_trader","type":"address","internalType":"address"}],"outputs":[],"stateMutability":"nonpayable"},{"type":"function","name":"removeCustomPositionLifeTime","inputs":[{"name":"_trader","type":"address","internalType":"address"}],"outputs":[],"stateMutability":"nonpayable"},{"type":"function","name":"renounceOwnership","inputs":[],"outputs":[],"stateMutability":"nonpayable"},{"type":"function","name":"setCustomFees","inputs":[{"name":"_trader","type":"address","internalType":"address"},{"name":"_treasureFee","type":"uint128","internalType":"uint128"},{"name":"_liquidationReward","type":"uint128","internalType":"uint128"}],"outputs":[],"stateMutability":"nonpayable"},{"type":"function","name":"setCustomPositionLifeBlocks","inputs":[{"name":"_trader","type":"address","internalType":"address"},{"name":"_lifeBlocks","type":"uint64","internalType":"uint64"}],"outputs":[],"stateMutability":"nonpayable"},{"type":"function","name":"setCustomPositionLifeTime","inputs":[{"name":"_trader","type":"address","internalType":"address"},{"name":"_lifeTime","type":"uint64","internalType":"uint64"}],"outputs":[],"stateMutability":"nonpayable"},{"type":"function","name":"setDefaultFees","inputs":[{"name":"_treasureFee","type":"uint128","internalType":"uint128"},{"name":"_liquidationReward","type":"uint128","internalType":"uint128"}],"outputs":[],"stateMutability":"nonpayable"},{"type":"function","name":"setDefaultPositionLifeBlocks","inputs":[{"name":"_defaultPositionLifeBlocks","type":"uint64","internalType":"uint64"}],"outputs":[],"stateMutability":"nonpayable"},{"type":"function","name":"setDefaultPositionLifeTime","inputs":[{"name":"_defaultPositionLifeTime","type":"uint64","internalType":"uint64"}],"outputs":[],"stateMutability":"nonpayable"},{"type":"function","name":"transferOwnership","inputs":[{"name":"newOwner","type":"address","internalType":"address"}],"outputs":[],"stateMutability":"nonpayable"},{"type":"event","name":"CustomFeeRemoved","inputs":[{"name":"trader","type":"address","indexed":true,"internalType":"address"}],"anonymous":false},{"type":"event","name":"CustomFeeSet","inputs":[{"name":"trader","type":"address","indexed":true,"internalType":"address"},{"name":"treasureFee","type":"uint128","indexed":false,"internalType":"uint128"},{"name":"liquidationReward","type":"uint128","indexed":false,"internalType":"uint128"}],"anonymous":false},{"type":"event","name":"DefaultFeesUpdated","inputs":[{"name":"treasureFee","type":"uint128","indexed":false,"internalType":"uint128"},{"name":"liquidationReward","type":"uint128","indexed":false,"internalType":"uint128"}],"anonymous":false},{"type":"event","name":"OwnershipTransferred","inputs":[{"name":"previousOwner","type":"address","indexed":true,"internalType":"address"},{"name":"newOwner","type":"address","indexed":true,"internalType":"address"}],"anonymous":false},{"type":"error","name":"OwnableInvalidOwner","inputs":[{"name":"owner","type":"address","internalType":"address"}]},{"type":"error","name":"OwnableUnauthorizedAccount","inputs":[{"name":"account","type":"address","internalType":"address"}]}],"bytecode":{"object":"0x60803461010b57601f610af638819003918201601f19168301916001600160401b0383118484101761010f57808492604094855283398101031261010b57610052602061004b83610123565b9201610123565b9033156100f3575f8054336001600160a01b0319821681178355604051949290916001600160a01b0316907f8be0079c531659141344cd1fd0a4f28419497f9722a3daafe3b4186f6b6457e09080a3600280546001600160401b031990811662278d00179091556004805490911662034bc01790556001600160801b039190911660809190911b6001600160801b031916176001556109be90816101388239f35b604051631e4fbdf760e01b81525f6004820152602490fd5b5f80fd5b634e487b7160e01b5f52604160045260245ffd5b51906001600160801b038216820361010b5756fe60406080815260049081361015610014575f80fd5b5f91823560e01c8063012c38801461080c57806312ba2566146107c55780632a1502a81461079e5780632c67be3714610743578063407aed1e146106df5780634c3acf8a146106a1578063657262171461067957806367058dad1461064b578063715018a6146105f1578063784c10eb1461059457806385ba0592146105785780638da5cb5b146105505780639af608c914610505578063a96376cc146104dd578063b61721d0146104bb578063bee88eed14610479578063bf7323261461041c578063c54c6e7214610302578063cff7ee8314610262578063d9a2347614610220578063e5535416146101de578063e71e9218146101a45763f2fde38b1461011b575f80fd5b346101a05760203660031901126101a057610134610853565b9061013d6108af565b6001600160a01b0391821692831561018a57505082546001600160a01b0319811683178455167f8be0079c531659141344cd1fd0a4f28419497f9722a3daafe3b4186f6b6457e08380a380f35b51631e4fbdf760e01b8152908101849052602490fd5b8280fd5b5050346101da5760203660031901126101da576020906001600160401b036101d26101cd610853565b6108da565b915191168152f35b5080fd5b5050346101da5760203660031901126101da576020916001600160401b039082906001600160a01b0361020f610853565b168152600585522054169051908152f35b833461025f57602036600319011261025f576001600160401b0361024261086d565b61024a6108af565b166001600160401b0319600254161760025580f35b80fd5b50346101a057816003193601126101a057356001600160801b038116908181036102fe576102f87f60ea463f4ecbed20d832b18ee66611c1af44beb43e4f074f09d8090d1696491b936102b3610899565b936102bc6108af565b608085901b6fffffffffffffffffffffffffffffffff191617600155516001600160801b03928316815292909116602083015281906040820190565b0390a180f35b8380fd5b509190346101da5760603660031901126101da5761031e610853565b90610327610899565b604435916001600160801b0393848416808503610418576103466108af565b825190606082018281106001600160401b038211176104055784926103ff94926001927ff36aa44a0a36f12fb4a2bffd1c1f4d7219f2de16365ab7099ecd4fe6f8e268b29998975289871682526020820190815284820193838552838060a01b0316998a8c526006602052858c20925116906001600160801b0319905160801b16178155019051151560ff8019835416911617905551928392839060209093929360408301946001600160801b03809216845216910152565b0390a280f35b634e487b7160e01b895260418a52602489fd5b8680fd5b5050346101da57806003193601126101da576001600160401b0361043e610853565b91610447610883565b926104506108af565b6001600160a01b0316845260036020528320805467ffffffffffffffff19169190921617905580f35b5050346101da5760203660031901126101da576020916001600160401b039082906001600160a01b036104aa610853565b168152600385522054169051908152f35b5050346101da57816003193601126101da5760209060015460801c9051908152f35b5050346101da57816003193601126101da576020906001600160801b03600154169051908152f35b5050346101da5760203660031901126101da5761054c9061052c610527610853565b61093d565b91516001600160801b039182168152911660208201529081906040820190565b0390f35b5050346101da57816003193601126101da57905490516001600160a01b039091168152602090f35b5050346101da57816003193601126101da5760209051600c8152f35b5050346101da57806003193601126101da576001600160401b036105b6610853565b916105bf610883565b926105c86108af565b6001600160a01b0316845260056020528320805467ffffffffffffffff19169190921617905580f35b833461025f578060031936011261025f5761060a6108af565b80546001600160a01b03198116825581906001600160a01b03167f8be0079c531659141344cd1fd0a4f28419497f9722a3daafe3b4186f6b6457e08280a380f35b5050346101da5760203660031901126101da576020906001600160401b036101d2610674610853565b61090e565b5050346101da57816003193601126101da576020906001600160401b03600254169051908152f35b8382346101da5760203660031901126101da576001600160401b036106c461086d565b6106cc6108af565b166001600160401b031982541617905580f35b5050346101da5760203660031901126101da578160016106fd610853565b6107056108af565b818060a01b0316928383526006602052822082815501557f51454f9794faf78c6081b7157bc8a28880d9b9caac3ff3b81d00fd2f59517f0d8280a280f35b5050346101da5760203660031901126101da5760609181906001600160a01b0361076b610853565b1681526006602052209060ff60018354930154168151926001600160801b038116845260801c6020840152151590820152f35b50913461025f578060031936011261025f57506001600160401b0360209254169051908152f35b5050346101da5760203660031901126101da576107e0610853565b6107e86108af565b6001600160a01b0316825260036020528120805467ffffffffffffffff1916905580f35b5050346101da5760203660031901126101da57610827610853565b61082f6108af565b6001600160a01b0316825260056020528120805467ffffffffffffffff1916905580f35b600435906001600160a01b038216820361086957565b5f80fd5b600435906001600160401b038216820361086957565b602435906001600160401b038216820361086957565b602435906001600160801b038216820361086957565b5f546001600160a01b031633036108c257565b60405163118cdaa760e01b8152336004820152602490fd5b6001600160a01b03165f908152600360205260409020546001600160401b039081168061090957506002541690565b905090565b6001600160a01b03165f908152600560205260409020546001600160401b039081168061090957506004541690565b6001600160a01b03165f908152600660205260409020600181015460ff166109755750600154906001600160801b0382169160801c90565b54906001600160801b0382169160801c9056fea2646970667358221220e2e813871799e04dc5841eaba044e19bc883b485d27c35990c74be31f49e6cde64736f6c63430008140033","linkReferences":{}},"methodIdentifiers":{"AVG_BLOCK_TIME()":"85ba0592","customFees(address)":"2c67be37","customLifeBlocks(address)":"e5535416","customLifeTimes(address)":"bee88eed","defaultLiquidationReward()":"b61721d0","defaultPositionLifeBlocks()":"2a1502a8","defaultPositionLifeTime()":"65726217","defaultTreasureFee()":"a96376cc","getFees(address)":"9af608c9","getPositionLifeBlocks(address)":"67058dad","getPositionLifeTime(address)":"e71e9218","owner()":"8da5cb5b","removeCustomFees(address)":"407aed1e","removeCustomPositionLifeBlocks(address)":"012c3880","removeCustomPositionLifeTime(address)":"12ba2566","renounceOwnership()":"715018a6","setCustomFees(address,uint128,uint128)":"c54c6e72","setCustomPositionLifeBlocks(address,uint64)":"784c10eb","setCustomPositionLifeTime(address,uint64)":"bf732326","setDefaultFees(uint128,uint128)":"cff7ee83","setDefaultPositionLifeBlocks(uint64)":"4c3acf8a","setDefaultPositionLifeTime(uint64)":"d9a23476","transferOwnership(address)":"f2fde38b"},"id":47}