{"abi":[{"type":"constructor","inputs":[],"stateMutability":"nonpayable"},{"type":"function","name":"addPositionsAddress","inputs":[{"name":"_positions","type":"address","internalType":"address"}],"outputs":[],"stateMutability":"nonpayable"},{"type":"function","name":"createLiquidityPool","inputs":[{"name":"_asset","type":"address","internalType":"address"}],"outputs":[{"name":"","type":"address","internalType":"address"}],"stateMutability":"nonpayable"},{"type":"function","name":"getTokenToLiquidityPools","inputs":[{"name":"_token","type":"address","internalType":"address"}],"outputs":[{"name":"","type":"address","internalType":"address"}],"stateMutability":"view"},{"type":"function","name":"owner","inputs":[],"outputs":[{"name":"","type":"address","internalType":"address"}],"stateMutability":"view"},{"type":"function","name":"positions","inputs":[],"outputs":[{"name":"","type":"address","internalType":"address"}],"stateMutability":"view"},{"type":"function","name":"renounceOwnership","inputs":[],"outputs":[],"stateMutability":"nonpayable"},{"type":"function","name":"transferOwnership","inputs":[{"name":"newOwner","type":"address","internalType":"address"}],"outputs":[],"stateMutability":"nonpayable"},{"type":"event","name":"OwnershipTransferred","inputs":[{"name":"previousOwner","type":"address","indexed":true,"internalType":"address"},{"name":"newOwner","type":"address","indexed":true,"internalType":"address"}],"anonymous":false},{"type":"error","name":"LiquidityPoolFactory__POOL_ALREADY_EXIST","inputs":[{"name":"pool","type":"address","internalType":"address"}]},{"type":"error","name":"LiquidityPoolFactory__POSITIONS_ALREADY_DEFINED","inputs":[]},{"type":"error","name":"OwnableInvalidOwner","inputs":[{"name":"owner","type":"address","internalType":"address"}]},{"type":"error","name":"OwnableUnauthorizedAccount","inputs":[{"name":"account","type":"address","internalType":"address"}]}],"bytecode":{"object":"0x60808060405234610078573315610063575f8054336001600160a01b03198216811783556040519290916001600160a01b0316907f8be0079c531659141344cd1fd0a4f28419497f9722a3daafe3b4186f6b6457e09080a3611e7a908161007d8239f35b631e4fbdf760e01b81525f6004820152602490fd5b5f80fdfe608060408181526004908136101562000016575f80fd5b5f92833560e01c9081633c3e613f146200045a57508063715018a614620003fc5780638da5cb5b14620003d2578063b40d8b331462000370578063ba5b79821462000341578063be3cafd2146200010c5763f2fde38b1462000076575f80fd5b346200010857602036600319011262000108576001600160a01b038235818116939192908490036200010457620000ac6200049c565b8315620000ee57505082546001600160a01b0319811683178455167f8be0079c531659141344cd1fd0a4f28419497f9722a3daafe3b4186f6b6457e08380a380f35b51631e4fbdf760e01b8152908101849052602490fd5b8480fd5b8280fd5b50346200010857602092836003193601126200033e576001600160a01b03833581811694908590036200010857620001436200049c565b848352600286528184842054168062000328575083516306fdde0360e01b81529083828281895afa9182156200031e578492620002fe575b50620001c0602d865180946c556e69737761704d61784c502d60981b8b830152620001af815180928d8686019101620004ff565b810103600d810185520183620004c8565b84516395d89b4160e01b8152848183818a5afa908115620002f4578591620002cd575b506200021e60228751809361756d60f01b8c8301526200020d8c82519283918686019101620004ff565b8101036002810184520182620004c8565b8360015416928651936118828086019486861067ffffffffffffffff871117620002ba57508594926200027e94926200026f92620005c388398b85528c85015260808a85015260808401906200059b565b9160608184039101526200059b565b039083f08015620002b057938252600285529082902080546001600160a01b0319169190931690811790925551908152f35b83513d84823e3d90fd5b634e487b7160e01b895260419052602488fd5b620002ed91503d8087833e620002e48183620004c8565b81019062000522565b5f620001e3565b86513d87823e3d90fd5b620003169192503d8086833e620002e48183620004c8565b905f6200017b565b85513d86823e3d90fd5b845163a0a49fdb60e01b81529182015260249150fd5b80fd5b8382346200036c57816003193601126200036c5760015490516001600160a01b039091168152602090f35b5080fd5b50346200010857602036600319011262000108576001600160a01b038235818116939192908490036200010457620003a76200049c565b600154928316620003c55750506001600160a01b0319161760015580f35b516308536de160e41b8152fd5b8382346200036c57816003193601126200036c57905490516001600160a01b039091168152602090f35b83346200033e57806003193601126200033e57620004196200049c565b80546001600160a01b03198116825581906001600160a01b03167f8be0079c531659141344cd1fd0a4f28419497f9722a3daafe3b4186f6b6457e08280a380f35b929050346200049857602036600319011262000498576001600160a01b03919035828116908190036200010457936020948152600285522054168152f35b8380fd5b5f546001600160a01b03163303620004b057565b60405163118cdaa760e01b8152336004820152602490fd5b90601f8019910116810190811067ffffffffffffffff821117620004eb57604052565b634e487b7160e01b5f52604160045260245ffd5b5f5b838110620005115750505f910152565b818101518382015260200162000501565b6020818303126200059757805167ffffffffffffffff918282116200059757019082601f8301121562000597578151908111620004eb576040519262000573601f8301601f191660200185620004c8565b818452602082840101116200059757620005949160208085019101620004ff565b90565b5f80fd5b90602091620005b681518092818552858086019101620004ff565b601f01601f191601019056fe60c08060405234620003e857620018828038038091620000208285620003ec565b8339810190608081830312620003e85780516001600160a01b0392908381168103620003e8576020918284015193858516809503620003e85760408101516001600160401b039190828111620003e857836200007e9183016200042c565b926060820151838111620003e8576200009892016200042c565b8251828111620002f3576003918254916001958684811c94168015620003dd575b89851014620003c9578190601f9485811162000376575b50899085831160011462000313575f9262000307575b50505f1982861b1c191690861b1783555b8051938411620002f35760049687548681811c91168015620002e8575b82821014620002d5578381116200028d575b50809285116001146200022357509383949184925f9562000217575b50501b925f19911b1c19161782555b6200015c8162000494565b90156200020e575b60a0526080528115620001f75750600580546001600160a01b03198116831790915560405192167f8be0079c531659141344cd1fd0a4f28419497f9722a3daafe3b4186f6b6457e05f80a3611f4060075561132890816200055a823960805181818161032b01528181610506015281816107bf01528181610e8301528181610fdb0152611252015260a051816108050152f35b6024905f60405191631e4fbdf760e01b8352820152fd5b50601262000164565b015193505f8062000142565b92919084601f198116895f52855f20955f905b8983831062000272575050501062000258575b50505050811b01825562000151565b01519060f8845f19921b161c191690555f80808062000249565b85870151895590970196948501948893509081019062000236565b885f52815f208480880160051c820192848910620002cb575b0160051c019087905b828110620002bf57505062000126565b5f8155018790620002af565b92508192620002a6565b602289634e487b7160e01b5f525260245ffd5b90607f169062000114565b634e487b7160e01b5f52604160045260245ffd5b015190505f80620000e6565b90889350601f19831691875f528b5f20925f5b8d8282106200035f575050841162000347575b505050811b018355620000f7565b01515f1983881b60f8161c191690555f808062000339565b8385015186558c9790950194938401930162000326565b909150855f52895f208580850160051c8201928c8610620003bf575b918a91869594930160051c01915b828110620003b0575050620000d0565b5f81558594508a9101620003a0565b9250819262000392565b634e487b7160e01b5f52602260045260245ffd5b93607f1693620000b9565b5f80fd5b601f909101601f19168101906001600160401b03821190821017620002f357604052565b6001600160401b038111620002f357601f01601f191660200190565b919080601f84011215620003e857825190620004488262000410565b91620004586040519384620003ec565b808352602091828287010111620003e8575f5b818110620004805750825f9394955001015290565b85810183015184820184015282016200046b565b6040805163313ce56760e01b60208201908152600482529293929181016001600160401b03811182821017620002f357604052515f9384928392916001600160a01b03165afa3d1562000550573d90620004ee8262000410565b91620004fe6040519384620003ec565b82523d84602084013e5b8062000543575b6200051a575b508190565b6020818051810103126200053f576020015160ff811162000515576001925060ff1690565b8280fd5b506020815110156200050f565b6060906200050856fe60406080815260049081361015610014575f80fd5b5f91823560e01c806301e1d11414610a4657806306fdde031461097057806307a2d13a146107a5578063095ea7b3146108c75780630a28a477146108a757806318160ddd1461088857806323b872dd1461084b578063313ce567146107ee57806338d52e0f146107aa578063402d267d146102e25780634cdad506146107a55780636e553f651461077157806370a0823114610267578063715018a614610714578063742a16ca146106f75780637b2dc244146106da5780637eeda7c8146106bb5780638da5cb5b1461069257806394bf804d1461065e57806395d89b4114610577578063a9059cbb14610546578063af191a0c146104a9578063b3d7f6b914610489578063b460af94146103fc578063ba08765214610370578063c5ebeaec146102e7578063c63d75b6146102e2578063c6e6f59214610215578063ce96cb77146102a9578063d905777e14610267578063dd62ed3e1461021a578063ef8b30f7146102155763f2fde38b14610189575f80fd5b34610211576020366003190112610211576101a2610ae0565b906101ab610b84565b6001600160a01b039182169283156101fb575050600580546001600160a01b031981168417909155167f8be0079c531659141344cd1fd0a4f28419497f9722a3daafe3b4186f6b6457e08380a380f35b51631e4fbdf760e01b8152908101849052602490fd5b8280fd5b610b66565b50503461026357806003193601126102635780602092610238610ae0565b610240610af6565b6001600160a01b0391821683526001865283832091168252845220549051908152f35b5080fd5b505034610263576020366003190112610263576020906102a2610288610ae0565b6001600160a01b03165f9081526020819052604090205490565b9051908152f35b505034610263576020366003190112610263576020916102a29082906001600160a01b036102d5610ae0565b1681528085522054610e40565b610b0c565b503461021157602036600319011261021157803591610304610b84565b61030c6112bb565b9081841161035b57846103588561032581600654610cc1565b600655337f00000000000000000000000000000000000000000000000000000000000000006001600160a01b0316611050565b80f35b5163d870857d60e01b81529182015260249150fd5b5082346103f957829061038236610b31565b6001600160a01b038116845260208490529590922054909493908086116103c4575050836103be916103b5602096610e40565b94859133610f2f565b51908152f35b9251632e52afbb60e21b81526001600160a01b0390941690840190815260208101949094525060408301529081906060010390fd5b80fd5b508290346102635761043291839161041336610b31565b6001600160a01b03811685526020859052969093205490959490610e40565b8086116104545750506103be908461044b602096610db3565b94859233610f2f565b9251633fa733bb60e21b81526001600160a01b0390941690840190815260208101949094525060408301529081906060010390fd5b5091346103f95760203660031901126103f957506102a260209235610e12565b838234610263576060366003190112610263578035906104c7610b84565b60065482810391908484128015828513169184121617610533575061035891610502916006556104fd6044359160243590610cc1565b61122a565b30337f00000000000000000000000000000000000000000000000000000000000000006001600160a01b03166110a2565b634e487b7160e01b845260119052602483fd5b505034610263578060031936011261026357602090610570610566610ae0565b6024359033610be6565b5160018152f35b50919034610263578160031936011261026357805191809380549160019083821c92828516948515610654575b60209586861081146106415785895290811561061d57506001146105e2575b6105de87876105d4828c0383610bb0565b5191829182610a6f565b0390f35b9080949750528583205b82841061060a57505050826105de946105d492820101945f806105c3565b80548685018801529286019281016105ec565b60ff19168887015250505050151560051b83010192506105d4826105de5f806105c3565b634e487b7160e01b845260228352602484fd5b93607f16936105a4565b50346102115781600319360112610211576020925035906103be610680610af6565b9261068a81610e12565b809433610e6e565b50503461026357816003193601126102635760055490516001600160a01b039091168152602090f35b5050346102635781600319360112610263576020906006549051908152f35b5050346102635781600319360112610263576020906102a2611237565b5050346102635781600319360112610263576020906102a26112bb565b83346103f957806003193601126103f95761072d610b84565b600580546001600160a01b0319811690915581906001600160a01b03167f8be0079c531659141344cd1fd0a4f28419497f9722a3daafe3b4186f6b6457e08280a380f35b50346102115781600319360112610211576020925035906103be610793610af6565b61079c84610de4565b93849133610e6e565b610ab6565b505034610263578160031936011261026357517f00000000000000000000000000000000000000000000000000000000000000006001600160a01b03168152602090f35b5091903461026357816003193601126102635760ff7f0000000000000000000000000000000000000000000000000000000000000000169160ff8311610838576020838351908152f35b634e487b7160e01b815260118452602490fd5b5050346102635760603660031901126102635760209061057061086c610ae0565b610874610af6565b60443591610883833383610ce2565b610be6565b5050346102635781600319360112610263576020906002549051908152f35b5091346103f95760203660031901126103f957506102a260209235610db3565b50346102115781600319360112610211576108e0610ae0565b602435903315610959576001600160a01b031691821561094257508083602095338152600187528181208582528752205582519081527f8c5be1e5ebec7d5bd14f71427d1e84f3dd0314c0f7b2291e5b200ac8c7c3b925843392a35160018152f35b8351634a1406b160e11b8152908101859052602490fd5b835163e602df0560e01b8152808401869052602490fd5b509034610211578260031936011261021157805191836003549060019082821c928281168015610a3c575b6020958686108214610a295750848852908115610a0757506001146109cc575b6105de86866105d4828b0383610bb0565b929550600383528583205b8284106109f457505050826105de946105d492820101945f6109bb565b80548685018801529286019281016109d7565b60ff191687860152505050151560051b83010192506105d4826105de5f6109bb565b634e487b7160e01b845260229052602483fd5b93607f169361099b565b5050346102635781600319360112610263576020906102a2610a66611237565b60065490610cc1565b602080825282518183018190529093925f5b828110610aa257505060409293505f838284010152601f8019910116010190565b818101860151848201604001528501610a81565b34610adc576020366003190112610adc576020610ad4600435610e40565b604051908152f35b5f80fd5b600435906001600160a01b0382168203610adc57565b602435906001600160a01b0382168203610adc57565b34610adc576020366003190112610adc57610b25610ae0565b5060206040515f198152f35b6060906003190112610adc57600435906001600160a01b03906024358281168103610adc57916044359081168103610adc5790565b34610adc576020366003190112610adc576020610ad4600435610de4565b6005546001600160a01b03163303610b9857565b60405163118cdaa760e01b8152336004820152602490fd5b90601f8019910116810190811067ffffffffffffffff821117610bd257604052565b634e487b7160e01b5f52604160045260245ffd5b916001600160a01b03808416928315610ca95716928315610c91575f9083825281602052604082205490838210610c5f575091604082827fddf252ad1be2c89b69c2b068fc378daa952ba7f163c4a11628f55a4df523b3ef958760209652828652038282205586815220818154019055604051908152a3565b60405163391434e360e21b81526001600160a01b03919091166004820152602481019190915260448101839052606490fd5b60405163ec442f0560e01b81525f6004820152602490fd5b604051634b637e8f60e11b81525f6004820152602490fd5b91908201809211610cce57565b634e487b7160e01b5f52601160045260245ffd5b9160018060a01b03809316915f9383855260016020526040938486209183169182875260205284862054925f198410610d1f575b50505050505050565b848410610d8357508015610d6b578115610d535785526001602052838520908552602052039120555f808080808080610d16565b8451634a1406b160e11b815260048101879052602490fd5b845163e602df0560e01b815260048101879052602490fd5b8551637dc7a0d960e11b81526001600160a01b039190911660048201526024810184905260448101859052606490fd5b60025460018101809111610cce57610dcc610a66611237565b9060018201809211610cce57610de19261115c565b90565b60025460018101809111610cce57610dfd610a66611237565b9060018201809211610cce57610de192611190565b610e1d610a66611237565b60018101809111610cce576002549060018201809211610cce57610de19261115c565b610e4b610a66611237565b60018101809111610cce576002549060018201809211610cce57610de192611190565b6001600160a01b039390918490610ea98530867f000000000000000000000000000000000000000000000000000000000000000086166110a2565b16938415610c91577fdcbc1c05240f31ff3ad067ef1ee35ce4997762752e3a095284754544f4c709d79282610ee2604094600254610cc1565b600255865f525f602052835f20818154019055865f7fddf252ad1be2c89b69c2b068fc378daa952ba7f163c4a11628f55a4df523b3ef60208751858152a3835195865260208601521692a3565b9194936001600160a01b03808716949381811693908387860361103f575b50508515610ca9575f92868452836020526040938481205499828b1061100f57508188999a7ffbde797d201c681b91056529119e0b02407c7bb96a4a2c75c01fc9667232c8db97989983528260205203858220558160025403600255887fddf252ad1be2c89b69c2b068fc378daa952ba7f163c4a11628f55a4df523b3ef60208751858152a36110008783857f000000000000000000000000000000000000000000000000000000000000000016611050565b835196875260208701521693a4565b855163391434e360e21b81526001600160a01b03919091166004820152602481018b905260448101839052606490fd5b611049918a610ce2565b5f83610f4d565b60405163a9059cbb60e01b60208201526001600160a01b039092166024830152604480830193909352918152608081019167ffffffffffffffff831182841017610bd2576110a0926040526110f7565b565b6040516323b872dd60e01b60208201526001600160a01b03928316602482015292909116604483015260648083019390935291815260a081019181831067ffffffffffffffff841117610bd2576110a0926040525b905f602091828151910182855af115611151575f513d61114857506001600160a01b0381163b155b6111265750565b604051635274afe760e01b81526001600160a01b039091166004820152602490fd5b6001141561111f565b6040513d5f823e3d90fd5b91611168818385611190565b91811561117c57610de19309151590610cc1565b634e487b7160e01b5f52601260045260245ffd5b90915f19838309928083029283808610950394808603951461121c57848311156112045790829109815f038216809204600280826003021880830282030280830282030280830282030280830282030280830282030280920290030293600183805f03040190848311900302920304170290565b82634e487b715f52156003026011186020526024601cfd5b50508092501561117c570490565b91908203918211610cce57565b6040516370a0823160e01b81523060048201526020816024817f00000000000000000000000000000000000000000000000000000000000000006001600160a01b03165afa908115611151575f9161128d575090565b906020823d82116112b3575b816112a660209383610bb0565b810103126103f957505190565b3d9150611299565b6112c3611237565b6112d06006548092610cc1565b9060075491828102928184041490151715610cce57612710610de1920461122a56fea2646970667358221220a1cbef1e72bb2dba825079c694b0795e31332adda4d1f98837e55a567ec48e8b64736f6c63430008140033a2646970667358221220b299f2c7d186b8bc9e9349aa1da24aed11a9326791376b11f3aaff7623e3349564736f6c63430008140033","linkReferences":{}},"methodIdentifiers":{"addPositionsAddress(address)":"b40d8b33","createLiquidityPool(address)":"be3cafd2","getTokenToLiquidityPools(address)":"3c3e613f","owner()":"8da5cb5b","positions()":"ba5b7982","renounceOwnership()":"715018a6","transferOwnership(address)":"f2fde38b"},"id":49}