{"abi":[{"type":"constructor","inputs":[{"name":"_asset","type":"address","internalType":"contract IERC20"},{"name":"_positions","type":"address","internalType":"address"},{"name":"_name","type":"string","internalType":"string"},{"name":"_symbol","type":"string","internalType":"string"}],"stateMutability":"nonpayable"},{"type":"function","name":"allowance","inputs":[{"name":"owner","type":"address","internalType":"address"},{"name":"spender","type":"address","internalType":"address"}],"outputs":[{"name":"","type":"uint256","internalType":"uint256"}],"stateMutability":"view"},{"type":"function","name":"approve","inputs":[{"name":"spender","type":"address","internalType":"address"},{"name":"value","type":"uint256","internalType":"uint256"}],"outputs":[{"name":"","type":"bool","internalType":"bool"}],"stateMutability":"nonpayable"},{"type":"function","name":"asset","inputs":[],"outputs":[{"name":"","type":"address","internalType":"address"}],"stateMutability":"view"},{"type":"function","name":"balanceOf","inputs":[{"name":"account","type":"address","internalType":"address"}],"outputs":[{"name":"","type":"uint256","internalType":"uint256"}],"stateMutability":"view"},{"type":"function","name":"borrow","inputs":[{"name":"_amountToBorrow","type":"uint256","internalType":"uint256"}],"outputs":[],"stateMutability":"nonpayable"},{"type":"function","name":"borrowCapacityLeft","inputs":[],"outputs":[{"name":"","type":"uint256","internalType":"uint256"}],"stateMutability":"view"},{"type":"function","name":"convertToAssets","inputs":[{"name":"shares","type":"uint256","internalType":"uint256"}],"outputs":[{"name":"","type":"uint256","internalType":"uint256"}],"stateMutability":"view"},{"type":"function","name":"convertToShares","inputs":[{"name":"assets","type":"uint256","internalType":"uint256"}],"outputs":[{"name":"","type":"uint256","internalType":"uint256"}],"stateMutability":"view"},{"type":"function","name":"decimals","inputs":[],"outputs":[{"name":"","type":"uint8","internalType":"uint8"}],"stateMutability":"view"},{"type":"function","name":"deposit","inputs":[{"name":"assets","type":"uint256","internalType":"uint256"},{"name":"receiver","type":"address","internalType":"address"}],"outputs":[{"name":"","type":"uint256","internalType":"uint256"}],"stateMutability":"nonpayable"},{"type":"function","name":"getBorrowedFund","inputs":[],"outputs":[{"name":"","type":"uint256","internalType":"uint256"}],"stateMutability":"view"},{"type":"function","name":"maxDeposit","inputs":[{"name":"","type":"address","internalType":"address"}],"outputs":[{"name":"","type":"uint256","internalType":"uint256"}],"stateMutability":"view"},{"type":"function","name":"maxMint","inputs":[{"name":"","type":"address","internalType":"address"}],"outputs":[{"name":"","type":"uint256","internalType":"uint256"}],"stateMutability":"view"},{"type":"function","name":"maxRedeem","inputs":[{"name":"owner","type":"address","internalType":"address"}],"outputs":[{"name":"","type":"uint256","internalType":"uint256"}],"stateMutability":"view"},{"type":"function","name":"maxWithdraw","inputs":[{"name":"owner","type":"address","internalType":"address"}],"outputs":[{"name":"","type":"uint256","internalType":"uint256"}],"stateMutability":"view"},{"type":"function","name":"mint","inputs":[{"name":"shares","type":"uint256","internalType":"uint256"},{"name":"receiver","type":"address","internalType":"address"}],"outputs":[{"name":"","type":"uint256","internalType":"uint256"}],"stateMutability":"nonpayable"},{"type":"function","name":"name","inputs":[],"outputs":[{"name":"","type":"string","internalType":"string"}],"stateMutability":"view"},{"type":"function","name":"owner","inputs":[],"outputs":[{"name":"","type":"address","internalType":"address"}],"stateMutability":"view"},{"type":"function","name":"previewDeposit","inputs":[{"name":"assets","type":"uint256","internalType":"uint256"}],"outputs":[{"name":"","type":"uint256","internalType":"uint256"}],"stateMutability":"view"},{"type":"function","name":"previewMint","inputs":[{"name":"shares","type":"uint256","internalType":"uint256"}],"outputs":[{"name":"","type":"uint256","internalType":"uint256"}],"stateMutability":"view"},{"type":"function","name":"previewRedeem","inputs":[{"name":"shares","type":"uint256","internalType":"uint256"}],"outputs":[{"name":"","type":"uint256","internalType":"uint256"}],"stateMutability":"view"},{"type":"function","name":"previewWithdraw","inputs":[{"name":"assets","type":"uint256","internalType":"uint256"}],"outputs":[{"name":"","type":"uint256","internalType":"uint256"}],"stateMutability":"view"},{"type":"function","name":"rawTotalAsset","inputs":[],"outputs":[{"name":"","type":"uint256","internalType":"uint256"}],"stateMutability":"view"},{"type":"function","name":"redeem","inputs":[{"name":"shares","type":"uint256","internalType":"uint256"},{"name":"receiver","type":"address","internalType":"address"},{"name":"owner","type":"address","internalType":"address"}],"outputs":[{"name":"","type":"uint256","internalType":"uint256"}],"stateMutability":"nonpayable"},{"type":"function","name":"refund","inputs":[{"name":"_amountBorrowed","type":"uint256","internalType":"uint256"},{"name":"_interests","type":"uint256","internalType":"uint256"},{"name":"_losses","type":"uint256","internalType":"uint256"}],"outputs":[],"stateMutability":"nonpayable"},{"type":"function","name":"renounceOwnership","inputs":[],"outputs":[],"stateMutability":"nonpayable"},{"type":"function","name":"symbol","inputs":[],"outputs":[{"name":"","type":"string","internalType":"string"}],"stateMutability":"view"},{"type":"function","name":"totalAssets","inputs":[],"outputs":[{"name":"","type":"uint256","internalType":"uint256"}],"stateMutability":"view"},{"type":"function","name":"totalSupply","inputs":[],"outputs":[{"name":"","type":"uint256","internalType":"uint256"}],"stateMutability":"view"},{"type":"function","name":"transfer","inputs":[{"name":"to","type":"address","internalType":"address"},{"name":"value","type":"uint256","internalType":"uint256"}],"outputs":[{"name":"","type":"bool","internalType":"bool"}],"stateMutability":"nonpayable"},{"type":"function","name":"transferFrom","inputs":[{"name":"from","type":"address","internalType":"address"},{"name":"to","type":"address","internalType":"address"},{"name":"value","type":"uint256","internalType":"uint256"}],"outputs":[{"name":"","type":"bool","internalType":"bool"}],"stateMutability":"nonpayable"},{"type":"function","name":"transferOwnership","inputs":[{"name":"newOwner","type":"address","internalType":"address"}],"outputs":[],"stateMutability":"nonpayable"},{"type":"function","name":"withdraw","inputs":[{"name":"assets","type":"uint256","internalType":"uint256"},{"name":"receiver","type":"address","internalType":"address"},{"name":"owner","type":"address","internalType":"address"}],"outputs":[{"name":"","type":"uint256","internalType":"uint256"}],"stateMutability":"nonpayable"},{"type":"event","name":"Approval","inputs":[{"name":"owner","type":"address","indexed":true,"internalType":"address"},{"name":"spender","type":"address","indexed":true,"internalType":"address"},{"name":"value","type":"uint256","indexed":false,"internalType":"uint256"}],"anonymous":false},{"type":"event","name":"Deposit","inputs":[{"name":"sender","type":"address","indexed":true,"internalType":"address"},{"name":"owner","type":"address","indexed":true,"internalType":"address"},{"name":"assets","type":"uint256","indexed":false,"internalType":"uint256"},{"name":"shares","type":"uint256","indexed":false,"internalType":"uint256"}],"anonymous":false},{"type":"event","name":"OwnershipTransferred","inputs":[{"name":"previousOwner","type":"address","indexed":true,"internalType":"address"},{"name":"newOwner","type":"address","indexed":true,"internalType":"address"}],"anonymous":false},{"type":"event","name":"Transfer","inputs":[{"name":"from","type":"address","indexed":true,"internalType":"address"},{"name":"to","type":"address","indexed":true,"internalType":"address"},{"name":"value","type":"uint256","indexed":false,"internalType":"uint256"}],"anonymous":false},{"type":"event","name":"Withdraw","inputs":[{"name":"sender","type":"address","indexed":true,"internalType":"address"},{"name":"receiver","type":"address","indexed":true,"internalType":"address"},{"name":"owner","type":"address","indexed":true,"internalType":"address"},{"name":"assets","type":"uint256","indexed":false,"internalType":"uint256"},{"name":"shares","type":"uint256","indexed":false,"internalType":"uint256"}],"anonymous":false},{"type":"error","name":"ERC20InsufficientAllowance","inputs":[{"name":"spender","type":"address","internalType":"address"},{"name":"allowance","type":"uint256","internalType":"uint256"},{"name":"needed","type":"uint256","internalType":"uint256"}]},{"type":"error","name":"ERC20InsufficientBalance","inputs":[{"name":"sender","type":"address","internalType":"address"},{"name":"balance","type":"uint256","internalType":"uint256"},{"name":"needed","type":"uint256","internalType":"uint256"}]},{"type":"error","name":"ERC20InvalidApprover","inputs":[{"name":"approver","type":"address","internalType":"address"}]},{"type":"error","name":"ERC20InvalidReceiver","inputs":[{"name":"receiver","type":"address","internalType":"address"}]},{"type":"error","name":"ERC20InvalidSender","inputs":[{"name":"sender","type":"address","internalType":"address"}]},{"type":"error","name":"ERC20InvalidSpender","inputs":[{"name":"spender","type":"address","internalType":"address"}]},{"type":"error","name":"ERC4626ExceededMaxDeposit","inputs":[{"name":"receiver","type":"address","internalType":"address"},{"name":"assets","type":"uint256","internalType":"uint256"},{"name":"max","type":"uint256","internalType":"uint256"}]},{"type":"error","name":"ERC4626ExceededMaxMint","inputs":[{"name":"receiver","type":"address","internalType":"address"},{"name":"shares","type":"uint256","internalType":"uint256"},{"name":"max","type":"uint256","internalType":"uint256"}]},{"type":"error","name":"ERC4626ExceededMaxRedeem","inputs":[{"name":"owner","type":"address","internalType":"address"},{"name":"shares","type":"uint256","internalType":"uint256"},{"name":"max","type":"uint256","internalType":"uint256"}]},{"type":"error","name":"ERC4626ExceededMaxWithdraw","inputs":[{"name":"owner","type":"address","internalType":"address"},{"name":"assets","type":"uint256","internalType":"uint256"},{"name":"max","type":"uint256","internalType":"uint256"}]},{"type":"error","name":"LiquidityPool__NOT_ENOUGH_LIQUIDITY","inputs":[{"name":"tokenSymbol","type":"string","internalType":"string"},{"name":"maxBorrowCapacity","type":"uint256","internalType":"uint256"}]},{"type":"error","name":"OwnableInvalidOwner","inputs":[{"name":"owner","type":"address","internalType":"address"}]},{"type":"error","name":"OwnableUnauthorizedAccount","inputs":[{"name":"account","type":"address","internalType":"address"}]},{"type":"error","name":"SafeERC20FailedOperation","inputs":[{"name":"token","type":"address","internalType":"address"}]}],"bytecode":{"object":"0x60c08060405234620003ef576200195f8038038091620000208285620003f3565b8339810190608081830312620003ef5780516001600160a01b0392908381168103620003ef576020918284015193858516809503620003ef5760408101516001600160401b039190828111620003ef57836200007e91830162000433565b926060820151838111620003ef5762000098920162000433565b8251828111620002fa576003918254916001958684811c94168015620003e4575b89851014620003d0578190601f948581116200037d575b5089908583116001146200031a575f926200030e575b50505f1982861b1c191690861b1783555b8051938411620002fa5760049687548681811c91168015620002ef575b82821014620002dc5783811162000294575b50809285116001146200022a57509383949184925f956200021e575b50501b925f19911b1c19161782555b6200015c816200049b565b901562000215575b60a0526080528115620001fe5750600580546001600160a01b03198116831790915560405192167f8be0079c531659141344cd1fd0a4f28419497f9722a3daafe3b4186f6b6457e05f80a3611f406007556113fe908162000561823960805181818161031b0152818161035f015281816105db0152818161089a01528181610f420152818161107401526112d7015260a051816108e00152f35b6024905f60405191631e4fbdf760e01b8352820152fd5b50601262000164565b015193505f8062000142565b92919084601f198116895f52855f20955f905b898383106200027957505050106200025f575b50505050811b01825562000151565b01519060f8845f19921b161c191690555f80808062000250565b8587015189559097019694850194889350908101906200023d565b885f52815f208480880160051c820192848910620002d2575b0160051c019087905b828110620002c657505062000126565b5f8155018790620002b6565b92508192620002ad565b602289634e487b7160e01b5f525260245ffd5b90607f169062000114565b634e487b7160e01b5f52604160045260245ffd5b015190505f80620000e6565b90889350601f19831691875f528b5f20925f5b8d8282106200036657505084116200034e575b505050811b018355620000f7565b01515f1983881b60f8161c191690555f808062000340565b8385015186558c979095019493840193016200032d565b909150855f52895f208580850160051c8201928c8610620003c6575b918a91869594930160051c01915b828110620003b7575050620000d0565b5f81558594508a9101620003a7565b9250819262000399565b634e487b7160e01b5f52602260045260245ffd5b93607f1693620000b9565b5f80fd5b601f909101601f19168101906001600160401b03821190821017620002fa57604052565b6001600160401b038111620002fa57601f01601f191660200190565b919080601f84011215620003ef578251906200044f8262000417565b916200045f6040519384620003f3565b808352602091828287010111620003ef575f5b818110620004875750825f9394955001015290565b858101830151848201840152820162000472565b6040805163313ce56760e01b60208201908152600482529293929181016001600160401b03811182821017620002fa57604052515f9384928392916001600160a01b03165afa3d1562000557573d90620004f58262000417565b91620005056040519384620003f3565b82523d84602084013e5b806200054a575b62000521575b508190565b60208180518101031262000546576020015160ff81116200051c576001925060ff1690565b8280fd5b5060208151101562000516565b6060906200050f56fe60406080815260049081361015610014575f80fd5b5f91823560e01c806301e1d11414610b2157806306fdde0314610a4b57806307a2d13a14610880578063095ea7b3146109a25780630a28a4771461098257806318160ddd1461096357806323b872dd14610926578063313ce567146108c957806338d52e0f14610885578063402d267d146102cf5780634cdad506146108805780636e553f651461084c57806370a0823114610254578063715018a614610802578063742a16ca146107e55780637b2dc244146107c85780637eeda7c8146107a95780638da5cb5b1461078057806394bf804d1461074c57806395d89b411461064f578063a9059cbb1461061e578063af191a0c1461057a578063b3d7f6b91461055a578063b460af94146104e4578063ba0876521461046e578063c5ebeaec146102d4578063c63d75b6146102cf578063c6e6f59214610202578063ce96cb7714610296578063d905777e14610254578063dd62ed3e14610207578063ef8b30f7146102025763f2fde38b14610189575f80fd5b346101fe5760203660031901126101fe576101a2610bba565b906101ab610c5e565b6001600160a01b039182169283156101e8575050600580546001600160a01b031981168417909155165f805160206113898339815191528380a380f35b51631e4fbdf760e01b8152908101849052602490fd5b8280fd5b610c40565b50503461025057806003193601126102505780602092610225610bba565b61022d610bd0565b6001600160a01b0391821683526001865283832091168252845220549051908152f35b5080fd5b5050346102505760203660031901126102505760209061028f610275610bba565b6001600160a01b03165f9081526020819052604090205490565b9051908152f35b5050346102505760203660031901126102505760209161028f9082906001600160a01b036102c2610bba565b1681528085522054610eff565b610be6565b5090346101fe576020918260031936011261045f578035926102f4610c5e565b6102fc611340565b9081851161034b57856103488661031581600654610d92565b600655337f00000000000000000000000000000000000000000000000000000000000000006001600160a01b03166110d7565b80f35b83516395d89b4160e01b81528690818186817f00000000000000000000000000000000000000000000000000000000000000006001600160a01b03165afa9182156104635780926103c4575b50506103ba91508451948594630e8234cd60e11b86528501526044840190610b6b565b9060248301520390fd5b9091503d8082843e6103d68184610c8a565b82019280838503126102505782516001600160401b039384821161045f57019184601f8401121561044957825193841161044c57875194610420601f8601601f1916840187610c8a565b848652828585010111610449575091610442918385946103ba96019101610b4a565b8580610397565b80fd5b634e487b7160e01b815260418752602490fd5b8380fd5b8651903d90823e3d90fd5b50823461044957829061048036610c0b565b6001600160a01b038116845260208490529590922054909493908086116104c2575050836104bc916104b3602096610eff565b94859133610fdb565b51908152f35b9251632e52afbb60e21b81529485946104e094935090918501610d74565b0390fd5b508290346102505761051a9183916104fb36610c0b565b6001600160a01b03811685526020859052969093205490959490610eff565b80861161053c5750506104bc9084610533602096610e72565b94859233610fdb565b9251633fa733bb60e21b81529485946104e094935090918501610d74565b509134610449576020366003190112610449575061028f60209235610ed1565b83823461025057606036600319011261025057356105b86044359161059d610c5e565b60065481818110610610575050835b60065560243590610d92565b9080821115610608576105ca916112af565b806105d3575080f35b6103489030337f00000000000000000000000000000000000000000000000000000000000000006001600160a01b0316611128565b5050806105ca565b610619916112af565b6105ac565b50503461025057806003193601126102505760209061064861063e610bba565b6024359033610cc1565b5160018152f35b50913461044957806003193601126104495781519181845492600184811c91818616958615610742575b602096878510811461072f579087899a92868b999a9b5291825f146107055750506001146106c7575b85886106c3896106b4848a0385610c8a565b51928284938452830190610b6b565b0390f35b87945081939291528383205b8284106106ed57505050820101816106b46106c35f6106a2565b8054848a0186015288955087949093019281016106d3565b60ff19168882015294151560051b870190940194508593506106b492506106c391505f90506106a2565b634e487b7160e01b835260228a52602483fd5b92607f1692610679565b50346101fe57816003193601126101fe576020925035906104bc61076e610bd0565b9261077881610ed1565b809433610f2d565b50503461025057816003193601126102505760055490516001600160a01b039091168152602090f35b5050346102505781600319360112610250576020906006549051908152f35b50503461025057816003193601126102505760209061028f6112bc565b50503461025057816003193601126102505760209061028f611340565b833461044957806003193601126104495761081b610c5e565b600580546001600160a01b0319811690915581906001600160a01b03165f805160206113898339815191528280a380f35b50346101fe57816003193601126101fe576020925035906104bc61086e610bd0565b61087784610ea3565b93849133610f2d565b610b90565b505034610250578160031936011261025057517f00000000000000000000000000000000000000000000000000000000000000006001600160a01b03168152602090f35b5091903461025057816003193601126102505760ff7f0000000000000000000000000000000000000000000000000000000000000000169160ff8311610913576020838351908152f35b634e487b7160e01b815260118452602490fd5b50503461025057606036600319011261025057602090610648610947610bba565b61094f610bd0565b6044359161095e833383610db3565b610cc1565b5050346102505781600319360112610250576020906002549051908152f35b509134610449576020366003190112610449575061028f60209235610e72565b50346101fe57816003193601126101fe576109bb610bba565b602435903315610a34576001600160a01b0316918215610a1d57508083602095338152600187528181208582528752205582519081527f8c5be1e5ebec7d5bd14f71427d1e84f3dd0314c0f7b2291e5b200ac8c7c3b925843392a35160018152f35b8351634a1406b160e11b8152908101859052602490fd5b835163e602df0560e01b8152808401869052602490fd5b5091346104495780600319360112610449578151918160035492600184811c91818616958615610b17575b602096878510811461072f578899509688969785829a5291825f14610af0575050600114610ab2575b5050506106c392916106b4910385610c8a565b9190869350600383528383205b828410610ad857505050820101816106b46106c3610a9f565b8054848a018601528895508794909301928101610abf565b60ff19168782015293151560051b860190930193508492506106b491506106c39050610a9f565b92607f1692610a76565b50503461025057816003193601126102505760209061028f610b416112bc565b60065490610d92565b5f5b838110610b5b5750505f910152565b8181015183820152602001610b4c565b90602091610b8481518092818552858086019101610b4a565b601f01601f1916010190565b34610bb6576020366003190112610bb6576020610bae600435610eff565b604051908152f35b5f80fd5b600435906001600160a01b0382168203610bb657565b602435906001600160a01b0382168203610bb657565b34610bb6576020366003190112610bb657610bff610bba565b5060206040515f198152f35b6060906003190112610bb657600435906001600160a01b03906024358281168103610bb657916044359081168103610bb65790565b34610bb6576020366003190112610bb6576020610bae600435610ea3565b6005546001600160a01b03163303610c7257565b60405163118cdaa760e01b8152336004820152602490fd5b601f909101601f19168101906001600160401b03821190821017610cad57604052565b634e487b7160e01b5f52604160045260245ffd5b916001600160a01b03808416928315610d5c5716928315610d44575f9083825281602052604082205490838210610d27575091604082825f805160206113a9833981519152958760209652828652038282205586815220818154019055604051908152a3565b6104e08460405193849363391434e360e21b855260048501610d74565b60405163ec442f0560e01b81525f6004820152602490fd5b604051634b637e8f60e11b81525f6004820152602490fd5b604091949392606082019560018060a01b0316825260208201520152565b91908201809211610d9f57565b634e487b7160e01b5f52601160045260245ffd5b9160018060a01b03809316915f9383855260016020526040938486209183169182875260205284862054925f198410610df0575b50505050505050565b848410610e5457508015610e3c578115610e245785526001602052838520908552602052039120555f808080808080610de7565b8451634a1406b160e11b815260048101879052602490fd5b845163e602df0560e01b815260048101879052602490fd5b83906104e0868851938493637dc7a0d960e11b855260048501610d74565b60025460018101809111610d9f57610e8b610b416112bc565b9060018201809211610d9f57610ea0926111e1565b90565b60025460018101809111610d9f57610ebc610b416112bc565b9060018201809211610d9f57610ea092611215565b610edc610b416112bc565b60018101809111610d9f576002549060018201809211610d9f57610ea0926111e1565b610f0a610b416112bc565b60018101809111610d9f576002549060018201809211610d9f57610ea092611215565b6001600160a01b039390918490610f688530867f00000000000000000000000000000000000000000000000000000000000000008616611128565b16938415610d44577fdcbc1c05240f31ff3ad067ef1ee35ce4997762752e3a095284754544f4c709d79282610fa1604094600254610d92565b600255865f525f602052835f20818154019055865f5f805160206113a983398151915260208751858152a3835195865260208601521692a3565b9194936001600160a01b0380871694938181169390838786036110c6575b50508515610d5c575f92868452836020526040938481205499828b106110a857508188999a7ffbde797d201c681b91056529119e0b02407c7bb96a4a2c75c01fc9667232c8db97989983528260205203858220558160025403600255885f805160206113a983398151915260208751858152a36110998783857f0000000000000000000000000000000000000000000000000000000000000000166110d7565b835196875260208701521693a4565b8a906104e084885193849363391434e360e21b855260048501610d74565b6110d0918a610db3565b5f83610ff9565b60405163a9059cbb60e01b60208201526001600160a01b03909216602483015260448083019390935291815260808101916001600160401b03831182841017610cad576111269260405261117c565b565b6040516323b872dd60e01b60208201526001600160a01b03928316602482015292909116604483015260648083019390935291815260a08101918183106001600160401b03841117610cad57611126926040525b905f602091828151910182855af1156111d6575f513d6111cd57506001600160a01b0381163b155b6111ab5750565b604051635274afe760e01b81526001600160a01b039091166004820152602490fd5b600114156111a4565b6040513d5f823e3d90fd5b916111ed818385611215565b91811561120157610ea09309151590610d92565b634e487b7160e01b5f52601260045260245ffd5b90915f1983830992808302928380861095039480860395146112a157848311156112895790829109815f038216809204600280826003021880830282030280830282030280830282030280830282030280830282030280920290030293600183805f03040190848311900302920304170290565b82634e487b715f52156003026011186020526024601cfd5b505080925015611201570490565b91908203918211610d9f57565b6040516370a0823160e01b81523060048201526020816024817f00000000000000000000000000000000000000000000000000000000000000006001600160a01b03165afa9081156111d6575f91611312575090565b906020823d8211611338575b8161132b60209383610c8a565b8101031261044957505190565b3d915061131e565b6113486112bc565b6113556006548092610d92565b60075490818102918183041490151715610d9f575f919061271090048181111561138357610ea092506112af565b50509056fe8be0079c531659141344cd1fd0a4f28419497f9722a3daafe3b4186f6b6457e0ddf252ad1be2c89b69c2b068fc378daa952ba7f163c4a11628f55a4df523b3efa2646970667358221220cb11cba4faf730db3bf9be29ad917446808bda1fb6ed31c20fb374437670e9b664736f6c63430008140033","linkReferences":{}},"methodIdentifiers":{"allowance(address,address)":"dd62ed3e","approve(address,uint256)":"095ea7b3","asset()":"38d52e0f","balanceOf(address)":"70a08231","borrow(uint256)":"c5ebeaec","borrowCapacityLeft()":"742a16ca","convertToAssets(uint256)":"07a2d13a","convertToShares(uint256)":"c6e6f592","decimals()":"313ce567","deposit(uint256,address)":"6e553f65","getBorrowedFund()":"7eeda7c8","maxDeposit(address)":"402d267d","maxMint(address)":"c63d75b6","maxRedeem(address)":"d905777e","maxWithdraw(address)":"ce96cb77","mint(uint256,address)":"94bf804d","name()":"06fdde03","owner()":"8da5cb5b","previewDeposit(uint256)":"ef8b30f7","previewMint(uint256)":"b3d7f6b9","previewRedeem(uint256)":"4cdad506","previewWithdraw(uint256)":"0a28a477","rawTotalAsset()":"7b2dc244","redeem(uint256,address,address)":"ba087652","refund(uint256,uint256,uint256)":"af191a0c","renounceOwnership()":"715018a6","symbol()":"95d89b41","totalAssets()":"01e1d114","totalSupply()":"18160ddd","transfer(address,uint256)":"a9059cbb","transferFrom(address,address,uint256)":"23b872dd","transferOwnership(address)":"f2fde38b","withdraw(uint256,address,address)":"b460af94"},"id":47}