{"abi":[{"type":"constructor","inputs":[],"stateMutability":"nonpayable"},{"type":"function","name":"createLiquidityPool","inputs":[{"name":"_asset","type":"address","internalType":"address"},{"name":"positions","type":"address","internalType":"address"}],"outputs":[{"name":"","type":"address","internalType":"address"}],"stateMutability":"nonpayable"},{"type":"function","name":"getTokenToLiquidityPools","inputs":[{"name":"_token","type":"address","internalType":"address"}],"outputs":[{"name":"","type":"address","internalType":"address"}],"stateMutability":"view"},{"type":"function","name":"owner","inputs":[],"outputs":[{"name":"","type":"address","internalType":"address"}],"stateMutability":"view"},{"type":"function","name":"renounceOwnership","inputs":[],"outputs":[],"stateMutability":"nonpayable"},{"type":"function","name":"transferOwnership","inputs":[{"name":"newOwner","type":"address","internalType":"address"}],"outputs":[],"stateMutability":"nonpayable"},{"type":"event","name":"OwnershipTransferred","inputs":[{"name":"previousOwner","type":"address","indexed":true,"internalType":"address"},{"name":"newOwner","type":"address","indexed":true,"internalType":"address"}],"anonymous":false},{"type":"error","name":"LiquidityPoolFactory__POOL_ALREADY_EXIST","inputs":[{"name":"pool","type":"address","internalType":"address"}]},{"type":"error","name":"OwnableInvalidOwner","inputs":[{"name":"owner","type":"address","internalType":"address"}]},{"type":"error","name":"OwnableUnauthorizedAccount","inputs":[{"name":"account","type":"address","internalType":"address"}]}],"bytecode":{"object":"0x60808060405234610078573315610063575f8054336001600160a01b03198216811783556040519290916001600160a01b0316907f8be0079c531659141344cd1fd0a4f28419497f9722a3daafe3b4186f6b6457e09080a3611f18908161007d8239f35b631e4fbdf760e01b81525f6004820152602490fd5b5f80fdfe6040608081526004908136101562000015575f80fd5b5f91823560e01c80632384d3d014620001b95780633c3e613f146200017a578063715018a614620001195780638da5cb5b14620000eb5763f2fde38b146200005b575f80fd5b34620000e7576020366003190112620000e75762000078620003f8565b906200008362000413565b6001600160a01b03918216928315620000d157505082546001600160a01b0319811683178455167f8be0079c531659141344cd1fd0a4f28419497f9722a3daafe3b4186f6b6457e08380a380f35b51631e4fbdf760e01b8152908101849052602490fd5b8280fd5b5050346200011557816003193601126200011557905490516001600160a01b039091168152602090f35b5080fd5b833462000177578060031936011262000177576200013662000413565b80546001600160a01b03198116825581906001600160a01b03167f8be0079c531659141344cd1fd0a4f28419497f9722a3daafe3b4186f6b6457e08280a380f35b80fd5b5050346200011557602036600319011262000115576020916001600160a01b0390829082620001a8620003f8565b168152600185522054169051908152f35b509190346200011557806003193601126200011557620001d8620003f8565b6001600160a01b03602435818116949290859003620000e7578190620001fd62000413565b16938483526020956001875282858520541680620003e2575084516306fdde0360e01b8152848183818a5afa908115620003d8578591620003ba575b506200027f602d875180936c556e69737761704d61784c502d60981b8c8301526200026e8c8251928391868601910162000476565b810103600d8101845201826200043f565b85516395d89b4160e01b815290858284818b5afa918215620003b057869262000387575b50620002de60228851809461756d60f01b8d830152620002cd8d8251928391868601910162000476565b81010360028101855201836200043f565b8651936119ad8086019486861067ffffffffffffffff87111762000374575085949262000338949262000329926200053688398b85528c85015260808a85015260808401906200050e565b9160608184039101526200050e565b039083f080156200036a57938252600185529082902080546001600160a01b0319169190931690811790925551908152f35b83513d84823e3d90fd5b634e487b7160e01b895260419052602488fd5b620003a89192503d8088833e6200039f81836200043f565b81019062000499565b905f620002a3565b87513d88823e3d90fd5b620003d191503d8087833e6200039f81836200043f565b5f62000239565b86513d87823e3d90fd5b855163a0a49fdb60e01b81529182015260249150fd5b600435906001600160a01b03821682036200040f57565b5f80fd5b5f546001600160a01b031633036200042757565b60405163118cdaa760e01b8152336004820152602490fd5b90601f8019910116810190811067ffffffffffffffff8211176200046257604052565b634e487b7160e01b5f52604160045260245ffd5b5f5b838110620004885750505f910152565b818101518382015260200162000478565b6020818303126200040f57805167ffffffffffffffff918282116200040f57019082601f830112156200040f578151908111620004625760405192620004ea601f8301601f1916602001856200043f565b818452602082840101116200040f576200050b916020808501910162000476565b90565b90602091620005298151809281855285808601910162000476565b601f01601f191601019056fe60c08060405234620003ef57620019ad8038038091620000208285620003f3565b8339810190608081830312620003ef5780516001600160a01b0392908381168103620003ef576020918284015193858516809503620003ef5760408101516001600160401b039190828111620003ef57836200007e91830162000433565b926060820151838111620003ef5762000098920162000433565b8251828111620002fa576003918254916001958684811c94168015620003e4575b89851014620003d0578190601f948581116200037d575b5089908583116001146200031a575f926200030e575b50505f1982861b1c191690861b1783555b8051938411620002fa5760049687548681811c91168015620002ef575b82821014620002dc5783811162000294575b50809285116001146200022a57509383949184925f956200021e575b50501b925f19911b1c19161782555b6200015c816200049b565b901562000215575b60a0526080528115620001fe5750600580546001600160a01b03198116831790915560405192167f8be0079c531659141344cd1fd0a4f28419497f9722a3daafe3b4186f6b6457e05f80a3611f4060075561144c908162000561823960805181818161032e0152818161037201528181610615015281816108e401528181610fa7015281816110ff0152611376015260a0518161092a0152f35b6024905f60405191631e4fbdf760e01b8352820152fd5b50601262000164565b015193505f8062000142565b92919084601f198116895f52855f20955f905b898383106200027957505050106200025f575b50505050811b01825562000151565b01519060f8845f19921b161c191690555f80808062000250565b8587015189559097019694850194889350908101906200023d565b885f52815f208480880160051c820192848910620002d2575b0160051c019087905b828110620002c657505062000126565b5f8155018790620002b6565b92508192620002ad565b602289634e487b7160e01b5f525260245ffd5b90607f169062000114565b634e487b7160e01b5f52604160045260245ffd5b015190505f80620000e6565b90889350601f19831691875f528b5f20925f5b8d8282106200036657505084116200034e575b505050811b018355620000f7565b01515f1983881b60f8161c191690555f808062000340565b8385015186558c979095019493840193016200032d565b909150855f52895f208580850160051c8201928c8610620003c6575b918a91869594930160051c01915b828110620003b7575050620000d0565b5f81558594508a9101620003a7565b9250819262000399565b634e487b7160e01b5f52602260045260245ffd5b93607f1693620000b9565b5f80fd5b601f909101601f19168101906001600160401b03821190821017620002fa57604052565b6001600160401b038111620002fa57601f01601f191660200190565b919080601f84011215620003ef578251906200044f8262000417565b916200045f6040519384620003f3565b808352602091828287010111620003ef575f5b818110620004875750825f9394955001015290565b858101830151848201840152820162000472565b6040805163313ce56760e01b60208201908152600482529293929181016001600160401b03811182821017620002fa57604052515f9384928392916001600160a01b03165afa3d1562000557573d90620004f58262000417565b91620005056040519384620003f3565b82523d84602084013e5b806200054a575b62000521575b508190565b60208180518101031262000546576020015160ff81116200051c576001925060ff1690565b8280fd5b5060208151101562000516565b6060906200050f56fe60406080815260049081361015610014575f80fd5b5f91823560e01c806301e1d11414610b6b57806306fdde0314610a9557806307a2d13a146108ca578063095ea7b3146109ec5780630a28a477146109cc57806318160ddd146109ad57806323b872dd14610970578063313ce5671461091357806338d52e0f146108cf578063402d267d146102e25780634cdad506146108ca5780636e553f651461089657806370a0823114610267578063715018a614610839578063742a16ca1461081c5780637b2dc244146107ff5780637eeda7c8146107e05780638da5cb5b146107b757806394bf804d1461078357806395d89b4114610686578063a9059cbb14610655578063af191a0c146105b8578063b3d7f6b914610598578063b460af941461050b578063ba08765214610482578063c5ebeaec146102e7578063c63d75b6146102e2578063c6e6f59214610215578063ce96cb77146102a9578063d905777e14610267578063dd62ed3e1461021a578063ef8b30f7146102155763f2fde38b14610189575f80fd5b34610211576020366003190112610211576101a2610c04565b906101ab610ca8565b6001600160a01b039182169283156101fb575050600580546001600160a01b031981168417909155167f8be0079c531659141344cd1fd0a4f28419497f9722a3daafe3b4186f6b6457e08380a380f35b51631e4fbdf760e01b8152908101849052602490fd5b8280fd5b610c8a565b50503461026357806003193601126102635780602092610238610c04565b610240610c1a565b6001600160a01b0391821683526001865283832091168252845220549051908152f35b5080fd5b505034610263576020366003190112610263576020906102a2610288610c04565b6001600160a01b03165f9081526020819052604090205490565b9051908152f35b505034610263576020366003190112610263576020916102a29082906001600160a01b036102d5610c04565b1681528085522054610f64565b610c30565b509034610211576020918260031936011261047357803592610307610ca8565b61030f6113df565b9081851161035e578561035b8661032881600654610de5565b600655337f00000000000000000000000000000000000000000000000000000000000000006001600160a01b0316611174565b80f35b83516395d89b4160e01b81528690818186817f00000000000000000000000000000000000000000000000000000000000000006001600160a01b03165afa9182156104775780926103d7575b50506103cd91508451948594630e8234cd60e11b86528501526044840190610bb5565b9060248301520390fd5b9091503d8082843e6103e98184610cd4565b820192808385031261026357825167ffffffffffffffff9384821161047357019184601f8401121561045d57825193841161046057875194610434601f8601601f1916840187610cd4565b84865282858501011161045d575091610456918385946103cd96019101610b94565b85806103aa565b80fd5b634e487b7160e01b815260418752602490fd5b8380fd5b8651903d90823e3d90fd5b50823461045d57829061049436610c55565b6001600160a01b038116845260208490529590922054909493908086116104d6575050836104d0916104c7602096610f64565b94859133611053565b51908152f35b9251632e52afbb60e21b81526001600160a01b0390941690840190815260208101949094525060408301529081906060010390fd5b508290346102635761054191839161052236610c55565b6001600160a01b03811685526020859052969093205490959490610f64565b8086116105635750506104d0908461055a602096610ed7565b94859233611053565b9251633fa733bb60e21b81526001600160a01b0390941690840190815260208101949094525060408301529081906060010390fd5b50913461045d57602036600319011261045d57506102a260209235610f36565b838234610263576060366003190112610263578035906105d6610ca8565b60065482810391908484128015828513169184121617610642575061035b916106119160065561060c6044359160243590610de5565b61134e565b30337f00000000000000000000000000000000000000000000000000000000000000006001600160a01b03166111c6565b634e487b7160e01b845260119052602483fd5b50503461026357806003193601126102635760209061067f610675610c04565b6024359033610d0a565b5160018152f35b50913461045d578060031936011261045d5781519181845492600184811c91818616958615610779575b6020968785108114610766579087899a92868b999a9b5291825f1461073c5750506001146106fe575b85886106fa896106eb848a0385610cd4565b51928284938452830190610bb5565b0390f35b87945081939291528383205b82841061072457505050820101816106eb6106fa5f6106d9565b8054848a01860152889550879490930192810161070a565b60ff19168882015294151560051b870190940194508593506106eb92506106fa91505f90506106d9565b634e487b7160e01b835260228a52602483fd5b92607f16926106b0565b50346102115781600319360112610211576020925035906104d06107a5610c1a565b926107af81610f36565b809433610f92565b50503461026357816003193601126102635760055490516001600160a01b039091168152602090f35b5050346102635781600319360112610263576020906006549051908152f35b5050346102635781600319360112610263576020906102a261135b565b5050346102635781600319360112610263576020906102a26113df565b833461045d578060031936011261045d57610852610ca8565b600580546001600160a01b0319811690915581906001600160a01b03167f8be0079c531659141344cd1fd0a4f28419497f9722a3daafe3b4186f6b6457e08280a380f35b50346102115781600319360112610211576020925035906104d06108b8610c1a565b6108c184610f08565b93849133610f92565b610bda565b505034610263578160031936011261026357517f00000000000000000000000000000000000000000000000000000000000000006001600160a01b03168152602090f35b5091903461026357816003193601126102635760ff7f0000000000000000000000000000000000000000000000000000000000000000169160ff831161095d576020838351908152f35b634e487b7160e01b815260118452602490fd5b5050346102635760603660031901126102635760209061067f610991610c04565b610999610c1a565b604435916109a8833383610e06565b610d0a565b5050346102635781600319360112610263576020906002549051908152f35b50913461045d57602036600319011261045d57506102a260209235610ed7565b5034610211578160031936011261021157610a05610c04565b602435903315610a7e576001600160a01b0316918215610a6757508083602095338152600187528181208582528752205582519081527f8c5be1e5ebec7d5bd14f71427d1e84f3dd0314c0f7b2291e5b200ac8c7c3b925843392a35160018152f35b8351634a1406b160e11b8152908101859052602490fd5b835163e602df0560e01b8152808401869052602490fd5b50913461045d578060031936011261045d578151918160035492600184811c91818616958615610b61575b6020968785108114610766578899509688969785829a5291825f14610b3a575050600114610afc575b5050506106fa92916106eb910385610cd4565b9190869350600383528383205b828410610b2257505050820101816106eb6106fa610ae9565b8054848a018601528895508794909301928101610b09565b60ff19168782015293151560051b860190930193508492506106eb91506106fa9050610ae9565b92607f1692610ac0565b5050346102635781600319360112610263576020906102a2610b8b61135b565b60065490610de5565b5f5b838110610ba55750505f910152565b8181015183820152602001610b96565b90602091610bce81518092818552858086019101610b94565b601f01601f1916010190565b34610c00576020366003190112610c00576020610bf8600435610f64565b604051908152f35b5f80fd5b600435906001600160a01b0382168203610c0057565b602435906001600160a01b0382168203610c0057565b34610c00576020366003190112610c0057610c49610c04565b5060206040515f198152f35b6060906003190112610c0057600435906001600160a01b03906024358281168103610c0057916044359081168103610c005790565b34610c00576020366003190112610c00576020610bf8600435610f08565b6005546001600160a01b03163303610cbc57565b60405163118cdaa760e01b8152336004820152602490fd5b90601f8019910116810190811067ffffffffffffffff821117610cf657604052565b634e487b7160e01b5f52604160045260245ffd5b916001600160a01b03808416928315610dcd5716928315610db5575f9083825281602052604082205490838210610d83575091604082827fddf252ad1be2c89b69c2b068fc378daa952ba7f163c4a11628f55a4df523b3ef958760209652828652038282205586815220818154019055604051908152a3565b60405163391434e360e21b81526001600160a01b03919091166004820152602481019190915260448101839052606490fd5b60405163ec442f0560e01b81525f6004820152602490fd5b604051634b637e8f60e11b81525f6004820152602490fd5b91908201809211610df257565b634e487b7160e01b5f52601160045260245ffd5b9160018060a01b03809316915f9383855260016020526040938486209183169182875260205284862054925f198410610e43575b50505050505050565b848410610ea757508015610e8f578115610e775785526001602052838520908552602052039120555f808080808080610e3a565b8451634a1406b160e11b815260048101879052602490fd5b845163e602df0560e01b815260048101879052602490fd5b8551637dc7a0d960e11b81526001600160a01b039190911660048201526024810184905260448101859052606490fd5b60025460018101809111610df257610ef0610b8b61135b565b9060018201809211610df257610f0592611280565b90565b60025460018101809111610df257610f21610b8b61135b565b9060018201809211610df257610f05926112b4565b610f41610b8b61135b565b60018101809111610df2576002549060018201809211610df257610f0592611280565b610f6f610b8b61135b565b60018101809111610df2576002549060018201809211610df257610f05926112b4565b6001600160a01b039390918490610fcd8530867f000000000000000000000000000000000000000000000000000000000000000086166111c6565b16938415610db5577fdcbc1c05240f31ff3ad067ef1ee35ce4997762752e3a095284754544f4c709d79282611006604094600254610de5565b600255865f525f602052835f20818154019055865f7fddf252ad1be2c89b69c2b068fc378daa952ba7f163c4a11628f55a4df523b3ef60208751858152a3835195865260208601521692a3565b9194936001600160a01b038087169493818116939083878603611163575b50508515610dcd575f92868452836020526040938481205499828b1061113357508188999a7ffbde797d201c681b91056529119e0b02407c7bb96a4a2c75c01fc9667232c8db97989983528260205203858220558160025403600255887fddf252ad1be2c89b69c2b068fc378daa952ba7f163c4a11628f55a4df523b3ef60208751858152a36111248783857f000000000000000000000000000000000000000000000000000000000000000016611174565b835196875260208701521693a4565b855163391434e360e21b81526001600160a01b03919091166004820152602481018b905260448101839052606490fd5b61116d918a610e06565b5f83611071565b60405163a9059cbb60e01b60208201526001600160a01b039092166024830152604480830193909352918152608081019167ffffffffffffffff831182841017610cf6576111c49260405261121b565b565b6040516323b872dd60e01b60208201526001600160a01b03928316602482015292909116604483015260648083019390935291815260a081019181831067ffffffffffffffff841117610cf6576111c4926040525b905f602091828151910182855af115611275575f513d61126c57506001600160a01b0381163b155b61124a5750565b604051635274afe760e01b81526001600160a01b039091166004820152602490fd5b60011415611243565b6040513d5f823e3d90fd5b9161128c8183856112b4565b9181156112a057610f059309151590610de5565b634e487b7160e01b5f52601260045260245ffd5b90915f19838309928083029283808610950394808603951461134057848311156113285790829109815f038216809204600280826003021880830282030280830282030280830282030280830282030280830282030280920290030293600183805f03040190848311900302920304170290565b82634e487b715f52156003026011186020526024601cfd5b5050809250156112a0570490565b91908203918211610df257565b6040516370a0823160e01b81523060048201526020816024817f00000000000000000000000000000000000000000000000000000000000000006001600160a01b03165afa908115611275575f916113b1575090565b906020823d82116113d7575b816113ca60209383610cd4565b8101031261045d57505190565b3d91506113bd565b6113e761135b565b6113f46006548092610de5565b9060075491828102928184041490151715610df257612710610f05920461134e56fea26469706673582212202aa10c8588fc00b318d96902e5de2ddc8d14dbdec2a215e2756fd7d471dbff9364736f6c63430008140033a2646970667358221220d182e8d7cfc9291d1a2f97244fd3803601dda5f9dc5189298efbe3c751f5b7bb64736f6c63430008140033","linkReferences":{}},"methodIdentifiers":{"createLiquidityPool(address,address)":"2384d3d0","getTokenToLiquidityPools(address)":"3c3e613f","owner()":"8da5cb5b","renounceOwnership()":"715018a6","transferOwnership(address)":"f2fde38b"},"id":54}