{"abi":[{"type":"constructor","inputs":[{"name":"_positions","type":"address","internalType":"address"},{"name":"_liquidityPoolFactory","type":"address","internalType":"address"},{"name":"_priceFeed","type":"address","internalType":"address"},{"name":"_owner","type":"address","internalType":"address"}],"stateMutability":"nonpayable"},{"type":"function","name":"addPriceFeed","inputs":[{"name":"_token","type":"address","internalType":"address"},{"name":"_priceFeed","type":"address","internalType":"address"}],"outputs":[],"stateMutability":"nonpayable"},{"type":"function","name":"closePosition","inputs":[{"name":"_posId","type":"uint256","internalType":"uint256"}],"outputs":[],"stateMutability":"nonpayable"},{"type":"function","name":"createLiquidityPool","inputs":[{"name":"_token","type":"address","internalType":"address"}],"outputs":[{"name":"","type":"address","internalType":"address"}],"stateMutability":"nonpayable"},{"type":"function","name":"editPosition","inputs":[{"name":"_posId","type":"uint256","internalType":"uint256"},{"name":"_newLstopLossPrice","type":"uint256","internalType":"uint256"}],"outputs":[],"stateMutability":"nonpayable"},{"type":"function","name":"getLiquidablePositions","inputs":[],"outputs":[{"name":"","type":"uint256[]","internalType":"uint256[]"}],"stateMutability":"view"},{"type":"function","name":"getPositionParams","inputs":[{"name":"_posId","type":"uint256","internalType":"uint256"}],"outputs":[{"name":"baseToken_","type":"address","internalType":"address"},{"name":"quoteToken_","type":"address","internalType":"address"},{"name":"positionSize_","type":"uint128","internalType":"uint128"},{"name":"timestamp_","type":"uint64","internalType":"uint64"},{"name":"isShort_","type":"bool","internalType":"bool"},{"name":"leverage_","type":"uint8","internalType":"uint8"},{"name":"breakEvenLimit_","type":"uint256","internalType":"uint256"},{"name":"limitPrice_","type":"uint160","internalType":"uint160"},{"name":"stopLossPrice_","type":"uint256","internalType":"uint256"},{"name":"currentPnL_","type":"int128","internalType":"int128"},{"name":"collateralLeft_","type":"int128","internalType":"int128"}],"stateMutability":"view"},{"type":"function","name":"getTokenToLiquidityPools","inputs":[{"name":"_token","type":"address","internalType":"address"}],"outputs":[{"name":"","type":"address","internalType":"address"}],"stateMutability":"view"},{"type":"function","name":"getTraderPositions","inputs":[{"name":"_traderAdd","type":"address","internalType":"address"}],"outputs":[{"name":"","type":"uint256[]","internalType":"uint256[]"}],"stateMutability":"view"},{"type":"function","name":"initializeTokens","inputs":[{"name":"_tokens","type":"address[]","internalType":"address[]"},{"name":"_priceFeeds","type":"address[]","internalType":"address[]"}],"outputs":[{"name":"","type":"address[]","internalType":"address[]"}],"stateMutability":"nonpayable"},{"type":"function","name":"liquidatePosition","inputs":[{"name":"_posId","type":"uint256","internalType":"uint256"}],"outputs":[],"stateMutability":"nonpayable"},{"type":"function","name":"liquidatePositions","inputs":[{"name":"_posIds","type":"uint256[]","internalType":"uint256[]"}],"outputs":[],"stateMutability":"nonpayable"},{"type":"function","name":"openLongPosition","inputs":[{"name":"_token0","type":"address","internalType":"address"},{"name":"_token1","type":"address","internalType":"address"},{"name":"_fee","type":"uint24","internalType":"uint24"},{"name":"_leverage","type":"uint8","internalType":"uint8"},{"name":"_amount","type":"uint128","internalType":"uint128"},{"name":"_limitPrice","type":"uint160","internalType":"uint160"},{"name":"_stopLossPrice","type":"uint256","internalType":"uint256"}],"outputs":[],"stateMutability":"nonpayable"},{"type":"function","name":"openShortPosition","inputs":[{"name":"_token0","type":"address","internalType":"address"},{"name":"_token1","type":"address","internalType":"address"},{"name":"_fee","type":"uint24","internalType":"uint24"},{"name":"_leverage","type":"uint8","internalType":"uint8"},{"name":"_amount","type":"uint128","internalType":"uint128"},{"name":"_limitPrice","type":"uint160","internalType":"uint160"},{"name":"_stopLossPrice","type":"uint256","internalType":"uint256"}],"outputs":[],"stateMutability":"nonpayable"},{"type":"function","name":"owner","inputs":[],"outputs":[{"name":"","type":"address","internalType":"address"}],"stateMutability":"view"},{"type":"function","name":"pause","inputs":[],"outputs":[],"stateMutability":"nonpayable"},{"type":"function","name":"paused","inputs":[],"outputs":[{"name":"","type":"bool","internalType":"bool"}],"stateMutability":"view"},{"type":"function","name":"renounceOwnership","inputs":[],"outputs":[],"stateMutability":"nonpayable"},{"type":"function","name":"setStalenessThreshold","inputs":[{"name":"_newThreshold","type":"uint256","internalType":"uint256"}],"outputs":[],"stateMutability":"nonpayable"},{"type":"function","name":"transferOwnership","inputs":[{"name":"newOwner","type":"address","internalType":"address"}],"outputs":[],"stateMutability":"nonpayable"},{"type":"function","name":"unpause","inputs":[],"outputs":[],"stateMutability":"nonpayable"},{"type":"event","name":"LiquidityAdded","inputs":[{"name":"poolAdd","type":"address","indexed":true,"internalType":"address"},{"name":"liquidityProvider","type":"address","indexed":true,"internalType":"address"},{"name":"assets","type":"uint256","indexed":false,"internalType":"uint256"}],"anonymous":false},{"type":"event","name":"LiquidityPoolCreated","inputs":[{"name":"poolAdd","type":"address","indexed":true,"internalType":"address"},{"name":"sender","type":"address","indexed":false,"internalType":"address"}],"anonymous":false},{"type":"event","name":"LiquidityRemoved","inputs":[{"name":"poolAdd","type":"address","indexed":true,"internalType":"address"},{"name":"liquidityProvider","type":"address","indexed":true,"internalType":"address"},{"name":"shares","type":"uint256","indexed":false,"internalType":"uint256"}],"anonymous":false},{"type":"event","name":"OwnershipTransferred","inputs":[{"name":"previousOwner","type":"address","indexed":true,"internalType":"address"},{"name":"newOwner","type":"address","indexed":true,"internalType":"address"}],"anonymous":false},{"type":"event","name":"Paused","inputs":[{"name":"account","type":"address","indexed":false,"internalType":"address"}],"anonymous":false},{"type":"event","name":"PositionClosed","inputs":[{"name":"posId","type":"uint256","indexed":true,"internalType":"uint256"},{"name":"trader","type":"address","indexed":true,"internalType":"address"}],"anonymous":false},{"type":"event","name":"PositionEdited","inputs":[{"name":"posId","type":"uint256","indexed":true,"internalType":"uint256"},{"name":"trader","type":"address","indexed":true,"internalType":"address"},{"name":"newStopLossPrice","type":"uint256","indexed":false,"internalType":"uint256"}],"anonymous":false},{"type":"event","name":"PositionLiquidated","inputs":[{"name":"posId","type":"uint256","indexed":true,"internalType":"uint256"},{"name":"liquidator","type":"address","indexed":true,"internalType":"address"}],"anonymous":false},{"type":"event","name":"PositionOpened","inputs":[{"name":"posId","type":"uint256","indexed":true,"internalType":"uint256"},{"name":"trader","type":"address","indexed":true,"internalType":"address"},{"name":"token0","type":"address","indexed":true,"internalType":"address"},{"name":"token1","type":"address","indexed":false,"internalType":"address"},{"name":"amount","type":"uint256","indexed":false,"internalType":"uint256"},{"name":"isShort","type":"bool","indexed":false,"internalType":"bool"},{"name":"leverage","type":"uint8","indexed":false,"internalType":"uint8"},{"name":"limitPrice","type":"uint256","indexed":false,"internalType":"uint256"},{"name":"stopLossPrice","type":"uint256","indexed":false,"internalType":"uint256"}],"anonymous":false},{"type":"event","name":"PriceFeedAdded","inputs":[{"name":"token","type":"address","indexed":false,"internalType":"address"},{"name":"priceFeed","type":"address","indexed":false,"internalType":"address"}],"anonymous":false},{"type":"event","name":"Unpaused","inputs":[{"name":"account","type":"address","indexed":false,"internalType":"address"}],"anonymous":false},{"type":"error","name":"EnforcedPause","inputs":[]},{"type":"error","name":"ExpectedPause","inputs":[]},{"type":"error","name":"OwnableInvalidOwner","inputs":[{"name":"owner","type":"address","internalType":"address"}]},{"type":"error","name":"OwnableUnauthorizedAccount","inputs":[{"name":"account","type":"address","internalType":"address"}]},{"type":"function","name":"calculatePositionOpening","inputs":[{"name":"_price","type":"uint256","internalType":"uint256"},{"name":"_leverage","type":"uint8","internalType":"uint8"},{"name":"_baseCollateralAmount","type":"uint128","internalType":"uint128"},{"name":"_isShort","type":"bool","internalType":"bool"},{"name":"_baseToken","type":"address","internalType":"address"},{"name":"_quoteToken","type":"address","internalType":"address"}],"outputs":[{"name":"breakEvenLimit","type":"uint256","internalType":"uint256"},{"name":"totalBorrow","type":"uint256","internalType":"uint256"},{"name":"borrowToken","type":"address","internalType":"address"},{"name":"liquidityPoolToken","type":"address","internalType":"address"}],"stateMutability":"view"}],"bytecode":{"object":"0x60e0346200018e57601f6200185c38819003918201601f19168301916001600160401b0383118484101762000192578084926080946040528339810103126200018e5760606200004f82620001a6565b916200005e60208201620001a6565b926200006d60408301620001a6565b6001600160a01b039390928491620000869101620001a6565b1693841562000176575f80546001600160a01b0319811687178255604051968694859390928416907f8be0079c531659141344cd1fd0a4f28419497f9722a3daafe3b4186f6b6457e09080a3166080521660a0521660c0526116a09081620001bc82396080518181816101530152818161045d0152818161061e01528181610704015281816107e7015281816108d401528181610a7a01528181610bc301528181610c8801528181610e9401528181610f5a01526110cb015260a05181818161081701528181610e0101526110fe015260c0518181816102460152818161036d015281816111bc015261121b0152f35b604051631e4fbdf760e01b81525f6004820152602490fd5b5f80fd5b634e487b7160e01b5f52604160045260245ffd5b51906001600160a01b03821682036200018e5756fe60806040526004361015610011575f80fd5b5f3560e01c80631a4f747114610fa15780631ae11bb514610f3657806322e6bce814610e735780633c3e613f14610dc25780633f4ba83a14610d535780634d452ec014610c4d5780635c975abb14610c295780635fbbb2ff14610b8357806362ad948814610a4c578063715018a6146109f55780638456cb59146109955780638da5cb5b1461096e578063a126d601146108b6578063be3cafd21461079e578063cdddd4e5146106e6578063e3868491146105cb578063e63490ce14610423578063e8a97a3e1461032e578063f2fde38b146102ac578063fb01e7f21461022b5763fd02985614610100575f80fd5b346102145761010e366113dc565b91939280969361011c611521565b61013e8484886040519b8c95632bb4e0eb60e21b87528c8b3360048a016114c5565b6001600160a01b0396916020918a919003815f7f00000000000000000000000000000000000000000000000000000000000000008b165af1978815610220575f986101e3575b508592916001600160801b0360ff92856040519a168a521660208901526001604089015216606087015216608085015260a084015216917f83a891786cdb3b57216d67ecf5b97f5e950b694ab400f86019bd3fd4b7a1b99460c03393a4005b9097506020929192813d8211610218575b81610201602093836114a3565b8101031261021457519690919085610184565b5f80fd5b3d91506101f4565b6040513d5f823e3d90fd5b3461021457602036600319011261021457610244611450565b7f00000000000000000000000000000000000000000000000000000000000000006001600160a01b0316803b15610214575f8091602460405180948193637d80f3f960e11b835260043560048401525af18015610220576102a157005b6102aa9061147b565b005b34610214576020366003190112610214576102c56113c6565b6102cd611450565b6001600160a01b03908116908115610316575f548260018060a01b03198216175f55167f8be0079c531659141344cd1fd0a4f28419497f9722a3daafe3b4186f6b6457e05f80a3005b604051631e4fbdf760e01b81525f6004820152602490fd5b34610214576040366003190112610214576103476113c6565b6024356001600160a01b03808216820361021457610363611450565b61036b611521565b7f00000000000000000000000000000000000000000000000000000000000000001691823b1561021457604051637454bd1f60e11b81526001600160a01b03828116600483015283166024820152925f908490604490829084905af1928315610220577f2940c4bfb544a4b0a5b4262767947b0acc0b8f144197528463c4d476658cff7993610414575b50604080516001600160a01b03928316815292909116602083015290a1005b61041d9061147b565b836103f5565b346102145760203660031901126102145760405163731a486760e11b81526004803590820152610160906001600160a01b039082816024817f000000000000000000000000000000000000000000000000000000000000000086165afa908115610220575f925f905f805f805f925f945f975f995f9b610500575b508790816040519d168d521660208c01526001600160801b031660408b015267ffffffffffffffff1660608a01521515608089015260ff1660a088015260c08701521660e0850152610100840152600f0b610120830152600f0b610140820152f35b9b5050505050505050925050508282813d83116105c4575b61052281836114a3565b8101031261021457610533826115d3565b61053f602084016115d3565b9261054c604082016115e7565b92606082015167ffffffffffffffff811681036102145761056f608084016115fb565b61057b60a08501611608565b60c08501519060e08601519285841684036102145761010087015194866105b26101406105ab6101208c01611616565b9a01611616565b999b9a91929394959698999a9061049e565b503d610518565b34610214576105d9366113dc565b9193928096936105e7611521565b6106098484886040519b8c956316c7c1b960e11b87528c8b3360048a016114c5565b6001600160a01b0396916020918a919003815f7f00000000000000000000000000000000000000000000000000000000000000008b165af1978815610220575f986106ad575b508592916001600160801b0360ff92856040519a168a521660208901525f604089015216606087015216608085015260a084015216917f83a891786cdb3b57216d67ecf5b97f5e950b694ab400f86019bd3fd4b7a1b99460c03393a4005b9097506020929192813d82116106de575b816106cb602093836114a3565b810103126102145751969091908561064f565b3d91506106be565b3461021457602036600319011261021457600435610702611521565b7f00000000000000000000000000000000000000000000000000000000000000006001600160a01b0316803b15610214576040516376f8996560e01b815233600482015260248101839052905f908290604490829084905af180156102205761078f575b5033907fa9ae24adea380a0aaa5f1e18bfe4427ac76c27d30a0159971c13f930c4d4e5a35f80a3005b6107989061147b565b81610766565b3461021457602080600319360112610214576107b86113c6565b6107c0611450565b6107c8611521565b6040516302384d3d60e41b81526001600160a01b0382811660048301527f000000000000000000000000000000000000000000000000000000000000000081166024830152909183836044815f7f000000000000000000000000000000000000000000000000000000000000000087165af1928315610220575f9361087f575b507f3366ddec6d22baedae5089cdef368ab66cbf7cc63aec389ca0d4b54e447baa1b8483604051933385521692a260405191168152f35b9092508381813d83116108af575b61089781836114a3565b81010312610214576108a8906115d3565b9184610848565b503d61088d565b34610214576020366003190112610214576004356108d2611521565b7f00000000000000000000000000000000000000000000000000000000000000006001600160a01b0316803b1561021457604051630e85fc3f60e31b815233600482015260248101839052905f908290604490829084905af180156102205761095f575b5033907fcefaf961c5013063cf501ffd9f9382e9b9c4b15741ad032fe93d7e9c7c733b225f80a3005b6109689061147b565b81610936565b34610214575f366003190112610214575f546040516001600160a01b039091168152602090f35b34610214575f366003190112610214576109ad611450565b6109b5611521565b5f805460ff60a01b1916600160a01b1790556040513381527f62e78cea01bee320cd4e420270b5ea74000d11b0c9f74754ebdbfc544b05a25890602090a1005b34610214575f36600319011261021457610a0d611450565b5f80546001600160a01b0319811682556001600160a01b03167f8be0079c531659141344cd1fd0a4f28419497f9722a3daafe3b4186f6b6457e08280a3005b3461021457602036600319011261021457604051630c55b29160e31b8152600480359082015260c0816024817f00000000000000000000000000000000000000000000000000000000000000006001600160a01b03165afa908115610220575f905f805f915f935f96610af7575b50916001600160801b0360ff949260c0979460405197600f0b8852600f0b60208801521660408601526060850152151560808401521660a0820152f35b9550505050505060c0813d8211610b7b575b81610b1660c093836114a3565b81010312610214578060ff610b2c60c093611616565b91610b3960208201611616565b92610b46604083016115e7565b916001600160801b036060820151610b6c60a0610b65608086016115fb565b9401611608565b97509295919450919291610aba565b3d9150610b09565b346102145760203660031901126102145760245f610b9f6113c6565b604051635fbbb2ff60e01b81526001600160a01b03918216600482015292839182907f0000000000000000000000000000000000000000000000000000000000000000165afa801561022057610c03915f91610c07575b506040519182918261138c565b0390f35b610c2391503d805f833e610c1b81836114a3565b810190611559565b82610bf6565b34610214575f36600319011261021457602060ff5f5460a01c166040519015158152f35b346102145760203660031901126102145760043567ffffffffffffffff811161021457610c7e90369060040161135b565b610c86611521565b7f00000000000000000000000000000000000000000000000000000000000000006001600160a01b0316915f5b828110610cbc57005b610cc7818484611646565b3590843b15610214576040516376f8996560e01b81523360048201526024810192909252610d09915f81604481838a5af19081610d44575b50610d0e57611624565b610cb3565b33610d1a828686611646565b357fa9ae24adea380a0aaa5f1e18bfe4427ac76c27d30a0159971c13f930c4d4e5a35f80a3611624565b610d4d9061147b565b86610cff565b34610214575f36600319011261021457610d6b611450565b5f5460ff8160a01c1615610db05760ff60a01b19165f556040513381527f5db9ee0a495bf2e6ff9c91a7834c1ba4fdd244a5e8aa4e537bd38aeae4b073aa90602090a1005b604051638dfc202b60e01b8152600490fd5b346102145760208060031936011261021457610ddc6113c6565b604051633c3e613f60e01b81526001600160a01b0391821660048201529082826024817f000000000000000000000000000000000000000000000000000000000000000085165afa918215610220575f92610e3c575b5060405191168152f35b9091508281813d8311610e6c575b610e5481836114a3565b8101031261021457610e65906115d3565b9083610e32565b503d610e4a565b3461021457604036600319011261021457602435600435610e92611521565b7f00000000000000000000000000000000000000000000000000000000000000006001600160a01b0316803b15610214575f8091606460405180948193631dc04a5f60e21b83523360048401528760248401528860448401525af1801561022057610f27575b506040519182527fed41acd3ce45cae0dceb683570aa2438665ef44a968b3bfc041dcbc40f1d0c9c60203393a3005b610f309061147b565b82610ef8565b34610214575f36600319011261021457604051631ae11bb560e01b81525f816004817f00000000000000000000000000000000000000000000000000000000000000006001600160a01b03165afa801561022057610c03915f91610c0757506040519182918261138c565b346102145760403660031901126102145767ffffffffffffffff60043581811161021457610fd390369060040161135b565b9160243590811161021457610fec90369060040161135b565b9091610ff6611450565b610ffe611521565b8184036112fd5761100e84611541565b9361101c60405195866114a3565b808552601f1961102b82611541565b013660208701375f5b81811061108957856040518091602082016020835281518091526020604084019201905f5b818110611067575050500390f35b82516001600160a01b0316845285945060209384019390920191600101611059565b61109c611097828486611646565b611656565b6110a4611450565b6110ac611521565b6040516302384d3d60e41b81526001600160a01b0380831660048301527f000000000000000000000000000000000000000000000000000000000000000016602482015290602082806044810103815f7f00000000000000000000000000000000000000000000000000000000000000006001600160a01b03165af1918215610220575f926112c1575b506040513381526001600160a01b03909116907f3366ddec6d22baedae5089cdef368ab66cbf7cc63aec389ca0d4b54e447baa1b90602090a286518210156112ad576001600160a01b0316600582901b87016020015261119a611097828486611646565b906111a9611097828789611646565b916111b2611450565b6111ba611521565b7f00000000000000000000000000000000000000000000000000000000000000006001600160a01b03163b1561021457604051637454bd1f60e11b81526001600160a01b03808316600483015284166024820152925f8480604481010381837f00000000000000000000000000000000000000000000000000000000000000006001600160a01b03165af191821561022057611299947f2940c4bfb544a4b0a5b4262767947b0acc0b8f144197528463c4d476658cff799361129e575b50604080516001600160a01b03928316815292909116602083015290a1611624565b611034565b6112a79061147b565b8a611277565b634e487b7160e01b5f52603260045260245ffd5b9091506020813d6020116112f5575b816112dd602093836114a3565b81010312610214576112ee906115d3565b9088611136565b3d91506112d0565b60405162461bcd60e51b815260206004820152603060248201527f546f6b656e20616e642050726963654665656420617272617973206d7573742060448201526f0d0c2ecca40e6c2daca40d8cadccee8d60831b6064820152608490fd5b9181601f840112156102145782359167ffffffffffffffff8311610214576020808501948460051b01011161021457565b602090816040818301928281528551809452019301915f5b8281106113b2575050505090565b8351855293810193928101926001016113a4565b600435906001600160a01b038216820361021457565b60e0906003190112610214576001600160a01b0390600435828116810361021457916024358181168103610214579160443562ffffff81168103610214579160643560ff8116810361021457916084356001600160801b0381168103610214579160a4359081168103610214579060c43590565b5f546001600160a01b0316330361146357565b60405163118cdaa760e01b8152336004820152602490fd5b67ffffffffffffffff811161148f57604052565b634e487b7160e01b5f52604160045260245ffd5b90601f8019910116810190811067ffffffffffffffff82111761148f57604052565b6001600160a01b0391821681529181166020830152918216604082015262ffffff92909216606083015260ff90921660808201526001600160801b039290921660a083015290911660c082015260e08101919091526101000190565b60ff5f5460a01c1661152f57565b60405163d93c066560e01b8152600490fd5b67ffffffffffffffff811161148f5760051b60200190565b60209081818403126102145780519067ffffffffffffffff821161021457019180601f8401121561021457825161158f81611541565b9361159d60405195866114a3565b818552838086019260051b820101928311610214578301905b8282106115c4575050505090565b815181529083019083016115b6565b51906001600160a01b038216820361021457565b51906001600160801b038216820361021457565b5190811515820361021457565b519060ff8216820361021457565b519081600f0b820361021457565b5f1981146116325760010190565b634e487b7160e01b5f52601160045260245ffd5b91908110156112ad5760051b0190565b356001600160a01b0381168103610214579056fea26469706673582212203148a38e04f15f5a5c2f21afe833d14e56eca9c0bdd859a69a3b207ec11db58564736f6c63430008140033","linkReferences":{}},"methodIdentifiers":{"addPriceFeed(address,address)":"e8a97a3e","calculatePositionPnL(uint256)":"62ad9488","closePosition(uint256)":"a126d601","createLiquidityPool(address)":"be3cafd2","editPosition(uint256,uint256)":"22e6bce8","getLiquidablePositions()":"1ae11bb5","getPositionParams(uint256)":"e63490ce","getTokenToLiquidityPools(address)":"3c3e613f","getTraderPositions(address)":"5fbbb2ff","initializeTokens(address[],address[])":"1a4f7471","liquidatePosition(uint256)":"cdddd4e5","liquidatePositions(uint256[])":"4d452ec0","openLongPosition(address,address,uint24,uint8,uint128,uint160,uint256)":"e3868491","openShortPosition(address,address,uint24,uint8,uint128,uint160,uint256)":"fd029856","owner()":"8da5cb5b","pause()":"8456cb59","paused()":"5c975abb","renounceOwnership()":"715018a6","setStalenessThreshold(uint256)":"fb01e7f2","transferOwnership(address)":"f2fde38b","unpause()":"3f4ba83a"},"id":55}