{"abi":[{"type":"constructor","inputs":[{"name":"_positions","type":"address","internalType":"address"},{"name":"_liquidityPoolFactory","type":"address","internalType":"address"},{"name":"_priceFeed","type":"address","internalType":"address"},{"name":"_owner","type":"address","internalType":"address"}],"stateMutability":"nonpayable"},{"type":"function","name":"addPriceFeed","inputs":[{"name":"_token","type":"address","internalType":"address"},{"name":"_priceFeed","type":"address","internalType":"address"}],"outputs":[],"stateMutability":"nonpayable"},{"type":"function","name":"closePosition","inputs":[{"name":"_posId","type":"uint256","internalType":"uint256"}],"outputs":[],"stateMutability":"nonpayable"},{"type":"function","name":"createLiquidityPool","inputs":[{"name":"_token","type":"address","internalType":"address"}],"outputs":[{"name":"","type":"address","internalType":"address"}],"stateMutability":"nonpayable"},{"type":"function","name":"editPosition","inputs":[{"name":"_posId","type":"uint256","internalType":"uint256"},{"name":"_newLstopLossPrice","type":"uint256","internalType":"uint256"}],"outputs":[],"stateMutability":"nonpayable"},{"type":"function","name":"getLiquidablePositions","inputs":[],"outputs":[{"name":"","type":"uint256[]","internalType":"uint256[]"}],"stateMutability":"view"},{"type":"function","name":"getPositionParams","inputs":[{"name":"_posId","type":"uint256","internalType":"uint256"}],"outputs":[{"name":"baseToken_","type":"address","internalType":"address"},{"name":"quoteToken_","type":"address","internalType":"address"},{"name":"positionSize_","type":"uint128","internalType":"uint128"},{"name":"timestamp_","type":"uint64","internalType":"uint64"},{"name":"isShort_","type":"bool","internalType":"bool"},{"name":"leverage_","type":"uint8","internalType":"uint8"},{"name":"breakEvenLimit_","type":"uint256","internalType":"uint256"},{"name":"limitPrice_","type":"uint160","internalType":"uint160"},{"name":"stopLossPrice_","type":"uint256","internalType":"uint256"},{"name":"currentPnL_","type":"int128","internalType":"int128"},{"name":"collateralLeft_","type":"int128","internalType":"int128"}],"stateMutability":"view"},{"type":"function","name":"getTokenToLiquidityPools","inputs":[{"name":"_token","type":"address","internalType":"address"}],"outputs":[{"name":"","type":"address","internalType":"address"}],"stateMutability":"view"},{"type":"function","name":"getTraderPositions","inputs":[{"name":"_traderAdd","type":"address","internalType":"address"}],"outputs":[{"name":"","type":"uint256[]","internalType":"uint256[]"}],"stateMutability":"view"},{"type":"function","name":"initializeTokens","inputs":[{"name":"_tokens","type":"address[]","internalType":"address[]"},{"name":"_priceFeeds","type":"address[]","internalType":"address[]"}],"outputs":[{"name":"","type":"address[]","internalType":"address[]"}],"stateMutability":"nonpayable"},{"type":"function","name":"liquidatePosition","inputs":[{"name":"_posId","type":"uint256","internalType":"uint256"}],"outputs":[],"stateMutability":"nonpayable"},{"type":"function","name":"liquidatePositions","inputs":[{"name":"_posIds","type":"uint256[]","internalType":"uint256[]"}],"outputs":[],"stateMutability":"nonpayable"},{"type":"function","name":"openPosition","inputs":[{"name":"_token0","type":"address","internalType":"address"},{"name":"_token1","type":"address","internalType":"address"},{"name":"_fee","type":"uint24","internalType":"uint24"},{"name":"_isShort","type":"bool","internalType":"bool"},{"name":"_leverage","type":"uint8","internalType":"uint8"},{"name":"_amount","type":"uint128","internalType":"uint128"},{"name":"_limitPrice","type":"uint160","internalType":"uint160"},{"name":"_stopLossPrice","type":"uint256","internalType":"uint256"}],"outputs":[],"stateMutability":"nonpayable"},{"type":"function","name":"owner","inputs":[],"outputs":[{"name":"","type":"address","internalType":"address"}],"stateMutability":"view"},{"type":"function","name":"pause","inputs":[],"outputs":[],"stateMutability":"nonpayable"},{"type":"function","name":"paused","inputs":[],"outputs":[{"name":"","type":"bool","internalType":"bool"}],"stateMutability":"view"},{"type":"function","name":"renounceOwnership","inputs":[],"outputs":[],"stateMutability":"nonpayable"},{"type":"function","name":"transferOwnership","inputs":[{"name":"newOwner","type":"address","internalType":"address"}],"outputs":[],"stateMutability":"nonpayable"},{"type":"function","name":"unpause","inputs":[],"outputs":[],"stateMutability":"nonpayable"},{"type":"event","name":"LiquidityAdded","inputs":[{"name":"poolAdd","type":"address","indexed":true,"internalType":"address"},{"name":"liquidityProvider","type":"address","indexed":true,"internalType":"address"},{"name":"assets","type":"uint256","indexed":false,"internalType":"uint256"}],"anonymous":false},{"type":"event","name":"LiquidityPoolCreated","inputs":[{"name":"poolAdd","type":"address","indexed":true,"internalType":"address"},{"name":"sender","type":"address","indexed":false,"internalType":"address"}],"anonymous":false},{"type":"event","name":"LiquidityRemoved","inputs":[{"name":"poolAdd","type":"address","indexed":true,"internalType":"address"},{"name":"liquidityProvider","type":"address","indexed":true,"internalType":"address"},{"name":"shares","type":"uint256","indexed":false,"internalType":"uint256"}],"anonymous":false},{"type":"event","name":"OwnershipTransferred","inputs":[{"name":"previousOwner","type":"address","indexed":true,"internalType":"address"},{"name":"newOwner","type":"address","indexed":true,"internalType":"address"}],"anonymous":false},{"type":"event","name":"Paused","inputs":[{"name":"account","type":"address","indexed":false,"internalType":"address"}],"anonymous":false},{"type":"event","name":"PositionClosed","inputs":[{"name":"posId","type":"uint256","indexed":true,"internalType":"uint256"},{"name":"trader","type":"address","indexed":true,"internalType":"address"}],"anonymous":false},{"type":"event","name":"PositionEdited","inputs":[{"name":"posId","type":"uint256","indexed":true,"internalType":"uint256"},{"name":"trader","type":"address","indexed":true,"internalType":"address"},{"name":"newStopLossPrice","type":"uint256","indexed":false,"internalType":"uint256"}],"anonymous":false},{"type":"event","name":"PositionLiquidated","inputs":[{"name":"posId","type":"uint256","indexed":true,"internalType":"uint256"},{"name":"liquidator","type":"address","indexed":true,"internalType":"address"}],"anonymous":false},{"type":"event","name":"PositionOpened","inputs":[{"name":"posId","type":"uint256","indexed":true,"internalType":"uint256"},{"name":"trader","type":"address","indexed":true,"internalType":"address"},{"name":"token0","type":"address","indexed":true,"internalType":"address"},{"name":"token1","type":"address","indexed":false,"internalType":"address"},{"name":"amount","type":"uint256","indexed":false,"internalType":"uint256"},{"name":"isShort","type":"bool","indexed":false,"internalType":"bool"},{"name":"leverage","type":"uint8","indexed":false,"internalType":"uint8"},{"name":"limitPrice","type":"uint256","indexed":false,"internalType":"uint256"},{"name":"stopLossPrice","type":"uint256","indexed":false,"internalType":"uint256"}],"anonymous":false},{"type":"event","name":"PriceFeedAdded","inputs":[{"name":"token","type":"address","indexed":false,"internalType":"address"},{"name":"priceFeed","type":"address","indexed":false,"internalType":"address"}],"anonymous":false},{"type":"event","name":"Unpaused","inputs":[{"name":"account","type":"address","indexed":false,"internalType":"address"}],"anonymous":false},{"type":"error","name":"EnforcedPause","inputs":[]},{"type":"error","name":"ExpectedPause","inputs":[]},{"type":"error","name":"OwnableInvalidOwner","inputs":[{"name":"owner","type":"address","internalType":"address"}]},{"type":"error","name":"OwnableUnauthorizedAccount","inputs":[{"name":"account","type":"address","internalType":"address"}]},{"type":"error","name":"SafeERC20FailedOperation","inputs":[{"name":"token","type":"address","internalType":"address"}]}],"bytecode":{"object":"0x60e0346200017957601f6200164b38819003918201601f19168301916001600160401b038311848410176200017d57808492608094604052833981010312620001795760606200004f8262000191565b916200005e6020820162000191565b926200006d6040830162000191565b6001600160a01b03939092849162000086910162000191565b1693841562000161575f80546001600160a01b0319811687178255604051968694859390928416907f8be0079c531659141344cd1fd0a4f28419497f9722a3daafe3b4186f6b6457e09080a3166080521660a0521660c0526114a49081620001a7823960805181818161029b01528181610433015281816105da015281816107e9015281816108da015281816109c801528181610ac001528181610b8401528181610d900152610e56015260a05181818161052101528181610cfd0152610fd5015260c0518181816101980152818161107601526110cf0152f35b604051631e4fbdf760e01b81525f6004820152602490fd5b5f80fd5b634e487b7160e01b5f52604160045260245ffd5b51906001600160a01b0382168203620001795756fe60806040526004361015610011575f80fd5b5f3560e01c80631a4f747114610e9d5780631ae11bb514610e3257806322e6bce814610d6f5780633c3e613f14610cbe5780633f4ba83a14610c4f5780634d452ec014610b4a5780635c975abb14610b265780635fbbb2ff14610a80578063689c09df14610752578063715018a6146106fb5780638456cb591461069b5780638da5cb5b14610674578063a126d601146105bc578063be3cafd2146104cd578063cdddd4e514610415578063e63490ce14610261578063e8a97a3e146101655763f2fde38b146100df575f80fd5b34610161576020366003190112610161576100f8611271565b61010061129d565b6001600160a01b03908116908115610149575f548260018060a01b03198216175f55167f8be0079c531659141344cd1fd0a4f28419497f9722a3daafe3b4186f6b6457e05f80a3005b604051631e4fbdf760e01b81525f6004820152602490fd5b5f80fd5b346101615760403660031901126101615761017e611271565b610186611287565b61018e61129d565b610196611356565b7f00000000000000000000000000000000000000000000000000000000000000006001600160a01b031691823b1561016157604051637454bd1f60e11b81526001600160a01b03828116600483015283166024820152925f908490604490829084905af1928315610256577f2940c4bfb544a4b0a5b4262767947b0acc0b8f144197528463c4d476658cff7993610247575b50604080516001600160a01b03928316815292909116602083015290a1005b610250906112c8565b83610228565b6040513d5f823e3d90fd5b346101615760203660031901126101615760405163731a486760e11b81526004803590820152610160906001600160a01b039082816024817f000000000000000000000000000000000000000000000000000000000000000086165afa908115610256575f925f905f805f805f925f945f975f995f9b61033d575b508790816040519d168d521660208c01526001600160801b031660408b01526001600160401b031660608a01521515608089015260ff1660a088015260c08701521660e0850152610100840152600f0b610120830152600f0b610140820152f35b9b5050505050505050925050508282813d831161040e575b61035f81836112db565b810103126101615761037082611406565b61037c60208401611406565b926040810151926001600160801b03841684036101615760608201516001600160401b038116810361016157608083015180151581036101615760a084015160ff811681036101615760c08501519060e08601519285841684036101615761010087015194866103fc6101406103f56101208c0161141a565b9a0161141a565b999b9a91929394959698999a906102dc565b503d610355565b3461016157602036600319011261016157600435610431611356565b7f00000000000000000000000000000000000000000000000000000000000000006001600160a01b0316803b15610161576040516376f8996560e01b815233600482015260248101839052905f908290604490829084905af18015610256576104be575b5033907fa9ae24adea380a0aaa5f1e18bfe4427ac76c27d30a0159971c13f930c4d4e5a35f80a3005b6104c7906112c8565b81610495565b3461016157602080600319360112610161576104e7611271565b6104ef61129d565b6104f7611356565b604051635f1e57e960e11b81526001600160a01b039182166004820181905290919083836024815f7f000000000000000000000000000000000000000000000000000000000000000087165af1928315610256575f93610585575b507f3366ddec6d22baedae5089cdef368ab66cbf7cc63aec389ca0d4b54e447baa1b84604051338152a260405191168152f35b9092508381813d83116105b5575b61059d81836112db565b81010312610161576105ae90611406565b9184610552565b503d610593565b34610161576020366003190112610161576004356105d8611356565b7f00000000000000000000000000000000000000000000000000000000000000006001600160a01b0316803b1561016157604051630e85fc3f60e31b815233600482015260248101839052905f908290604490829084905af1801561025657610665575b5033907fcefaf961c5013063cf501ffd9f9382e9b9c4b15741ad032fe93d7e9c7c733b225f80a3005b61066e906112c8565b8161063c565b34610161575f366003190112610161575f546040516001600160a01b039091168152602090f35b34610161575f366003190112610161576106b361129d565b6106bb611356565b5f805460ff60a01b1916600160a01b1790556040513381527f62e78cea01bee320cd4e420270b5ea74000d11b0c9f74754ebdbfc544b05a25890602090a1005b34610161575f3660031901126101615761071361129d565b5f80546001600160a01b0319811682556001600160a01b03167f8be0079c531659141344cd1fd0a4f28419497f9722a3daafe3b4186f6b6457e08280a3005b34610161576101003660031901126101615761076c611271565b610774611287565b906044359062ffffff82168203610161576064358015158103610161576084359060ff821682036101615760a435916001600160801b03831683036101615760c435916001600160a01b0383168303610161576107cf611356565b60405163095ea7b360e01b60208201526001600160a01b037f00000000000000000000000000000000000000000000000000000000000000001660248201526001600160801b038516604480830191909152815261082e6064826112db565b80516020905f90838301826001600160a01b038b165af15f513d82610a5b575b5050156109b6575b506040516366ca789b60e11b81523360048201526001600160a01b0386811660248301529788166044820181905262ffffff979097166064820152811515608482015260ff831660a48201526001600160801b03851660c482015283881660e480830191909152356101048201819052909790949060209089906101249082905f907f0000000000000000000000000000000000000000000000000000000000000000165af1978815610256575f98610975575b50604080519788526001600160801b0390911660208801529015159086015260ff1660608501526001600160a01b03908116608085015260a0840191909152169133917f83a891786cdb3b57216d67ecf5b97f5e950b694ab400f86019bd3fd4b7a1b9949060c090a4005b92919097506020833d6020116109ae575b81610993602093836112db565b81010312610161579151969091906001600160801b0361090a565b3d9150610986565b60405163095ea7b360e01b60208201527f00000000000000000000000000000000000000000000000000000000000000006001600160a01b031660248201525f604480830191909152815290608082016001600160401b03811183821017610a4757604052610a4191610a32906001600160a01b0389166112fc565b6001600160a01b0387166112fc565b87610856565b634e487b7160e01b5f52604160045260245ffd5b909150610a7857506001600160a01b0386163b15155b898061084e565b600114610a71565b346101615760203660031901126101615760245f610a9c611271565b604051635fbbb2ff60e01b81526001600160a01b03918216600482015292839182907f0000000000000000000000000000000000000000000000000000000000000000165afa801561025657610b00915f91610b04575b5060405191829182611237565b0390f35b610b2091503d805f833e610b1881836112db565b81019061138d565b82610af3565b34610161575f36600319011261016157602060ff5f5460a01c166040519015158152f35b34610161576020366003190112610161576004356001600160401b03811161016157610b7a903690600401611207565b610b82611356565b7f00000000000000000000000000000000000000000000000000000000000000006001600160a01b0316915f5b828110610bb857005b610bc381848461144a565b3590843b15610161576040516376f8996560e01b81523360048201526024810192909252610c05915f81604481838a5af19081610c40575b50610c0a57611428565b610baf565b33610c1682868661144a565b357fa9ae24adea380a0aaa5f1e18bfe4427ac76c27d30a0159971c13f930c4d4e5a35f80a3611428565b610c49906112c8565b86610bfb565b34610161575f36600319011261016157610c6761129d565b5f5460ff8160a01c1615610cac5760ff60a01b19165f556040513381527f5db9ee0a495bf2e6ff9c91a7834c1ba4fdd244a5e8aa4e537bd38aeae4b073aa90602090a1005b604051638dfc202b60e01b8152600490fd5b346101615760208060031936011261016157610cd8611271565b604051633c3e613f60e01b81526001600160a01b0391821660048201529082826024817f000000000000000000000000000000000000000000000000000000000000000085165afa918215610256575f92610d38575b5060405191168152f35b9091508281813d8311610d68575b610d5081836112db565b8101031261016157610d6190611406565b9083610d2e565b503d610d46565b3461016157604036600319011261016157602435600435610d8e611356565b7f00000000000000000000000000000000000000000000000000000000000000006001600160a01b0316803b15610161575f8091606460405180948193631dc04a5f60e21b83523360048401528760248401528860448401525af1801561025657610e23575b506040519182527fed41acd3ce45cae0dceb683570aa2438665ef44a968b3bfc041dcbc40f1d0c9c60203393a3005b610e2c906112c8565b82610df4565b34610161575f36600319011261016157604051631ae11bb560e01b81525f816004817f00000000000000000000000000000000000000000000000000000000000000006001600160a01b03165afa801561025657610b00915f91610b04575060405191829182611237565b34610161576040366003190112610161576001600160401b0360043581811161016157610ece903690600401611207565b9160243590811161016157610ee7903690600401611207565b92610ef061129d565b610ef8611356565b8381036111a95792610f0984611376565b91610f1760405193846112db565b848352610f2385611376565b602084019490601f19013686376001600160a01b03955f5b818110610f8f57878688604051928392602084019060208552518091526040840192915f905b828210610f7057505050500390f35b8351811685528695506020948501949093019260019190910190610f61565b5f886020816024610fa9610fa487898b61144a565b61145a565b610fb161129d565b610fb9611356565b6040519586938492635f1e57e960e11b845216958660048401527f0000000000000000000000000000000000000000000000000000000000000000165af1918215610256575f9261116d575b507f3366ddec6d22baedae5089cdef368ab66cbf7cc63aec389ca0d4b54e447baa1b6020604051338152a2865182101561115957881660208260051b88010152611053610fa482848661144a565b90611062610fa482888861144a565b9161106b61129d565b611073611356565b897f0000000000000000000000000000000000000000000000000000000000000000163b1561016157604051637454bd1f60e11b81526001600160a01b03808316600483015284166024820152925f848c8183816044810103927f0000000000000000000000000000000000000000000000000000000000000000165af191821561025657611145947f2940c4bfb544a4b0a5b4262767947b0acc0b8f144197528463c4d476658cff799361114a575b50604080516001600160a01b03928316815292909116602083015290a1611428565b610f3b565b611153906112c8565b8c611123565b634e487b7160e01b5f52603260045260245ffd5b9091506020813d6020116111a1575b81611189602093836112db565b810103126101615761119a90611406565b908a611005565b3d915061117c565b60405162461bcd60e51b815260206004820152603060248201527f546f6b656e20616e642050726963654665656420617272617973206d7573742060448201526f0d0c2ecca40e6c2daca40d8cadccee8d60831b6064820152608490fd5b9181601f84011215610161578235916001600160401b038311610161576020808501948460051b01011161016157565b602090816040818301928281528551809452019301915f5b82811061125d575050505090565b83518552938101939281019260010161124f565b600435906001600160a01b038216820361016157565b602435906001600160a01b038216820361016157565b5f546001600160a01b031633036112b057565b60405163118cdaa760e01b8152336004820152602490fd5b6001600160401b038111610a4757604052565b90601f801991011681019081106001600160401b03821117610a4757604052565b905f602091828151910182855af115610256575f513d61134d57506001600160a01b0381163b155b61132b5750565b604051635274afe760e01b81526001600160a01b039091166004820152602490fd5b60011415611324565b60ff5f5460a01c1661136457565b60405163d93c066560e01b8152600490fd5b6001600160401b038111610a475760051b60200190565b6020908181840312610161578051906001600160401b03821161016157019180601f840112156101615782516113c281611376565b936113d060405195866112db565b818552838086019260051b820101928311610161578301905b8282106113f7575050505090565b815181529083019083016113e9565b51906001600160a01b038216820361016157565b519081600f0b820361016157565b5f1981146114365760010190565b634e487b7160e01b5f52601160045260245ffd5b91908110156111595760051b0190565b356001600160a01b0381168103610161579056fea26469706673582212203dcfc94ec38f852bfd05c6773413214c5e1f1cb25044f266c4c2bfa9b5b7a28764736f6c63430008140033","linkReferences":{}},"methodIdentifiers":{"addPriceFeed(address,address)":"e8a97a3e","closePosition(uint256)":"a126d601","createLiquidityPool(address)":"be3cafd2","editPosition(uint256,uint256)":"22e6bce8","getLiquidablePositions()":"1ae11bb5","getPositionParams(uint256)":"e63490ce","getTokenToLiquidityPools(address)":"3c3e613f","getTraderPositions(address)":"5fbbb2ff","initializeTokens(address[],address[])":"1a4f7471","liquidatePosition(uint256)":"cdddd4e5","liquidatePositions(uint256[])":"4d452ec0","openPosition(address,address,uint24,bool,uint8,uint128,uint160,uint256)":"689c09df","owner()":"8da5cb5b","pause()":"8456cb59","paused()":"5c975abb","renounceOwnership()":"715018a6","transferOwnership(address)":"f2fde38b","unpause()":"3f4ba83a"},"id":50}