{"abi":[{"type":"constructor","inputs":[{"name":"_positions","type":"address","internalType":"address"},{"name":"_liquidityPoolFactory","type":"address","internalType":"address"},{"name":"_priceFeed","type":"address","internalType":"address"},{"name":"_owner","type":"address","internalType":"address"}],"stateMutability":"nonpayable"},{"type":"function","name":"addPriceFeed","inputs":[{"name":"_token","type":"address","internalType":"address"},{"name":"_priceFeed","type":"address","internalType":"address"}],"outputs":[],"stateMutability":"nonpayable"},{"type":"function","name":"closePosition","inputs":[{"name":"_posId","type":"uint256","internalType":"uint256"}],"outputs":[],"stateMutability":"nonpayable"},{"type":"function","name":"createLiquidityPool","inputs":[{"name":"_token","type":"address","internalType":"address"}],"outputs":[{"name":"","type":"address","internalType":"address"}],"stateMutability":"nonpayable"},{"type":"function","name":"editPosition","inputs":[{"name":"_posId","type":"uint256","internalType":"uint256"},{"name":"_newLstopLossPrice","type":"uint256","internalType":"uint256"}],"outputs":[],"stateMutability":"nonpayable"},{"type":"function","name":"getLiquidablePositions","inputs":[],"outputs":[{"name":"","type":"uint256[]","internalType":"uint256[]"}],"stateMutability":"view"},{"type":"function","name":"getPositionParams","inputs":[{"name":"_posId","type":"uint256","internalType":"uint256"}],"outputs":[{"name":"baseToken_","type":"address","internalType":"address"},{"name":"quoteToken_","type":"address","internalType":"address"},{"name":"positionSize_","type":"uint128","internalType":"uint128"},{"name":"timestamp_","type":"uint64","internalType":"uint64"},{"name":"isShort_","type":"bool","internalType":"bool"},{"name":"leverage_","type":"uint8","internalType":"uint8"},{"name":"breakEvenLimit_","type":"uint256","internalType":"uint256"},{"name":"limitPrice_","type":"uint160","internalType":"uint160"},{"name":"stopLossPrice_","type":"uint256","internalType":"uint256"},{"name":"currentPnL_","type":"int128","internalType":"int128"},{"name":"collateralLeft_","type":"int128","internalType":"int128"}],"stateMutability":"view"},{"type":"function","name":"getTokenToLiquidityPools","inputs":[{"name":"_token","type":"address","internalType":"address"}],"outputs":[{"name":"","type":"address","internalType":"address"}],"stateMutability":"view"},{"type":"function","name":"getTraderPositions","inputs":[{"name":"_traderAdd","type":"address","internalType":"address"}],"outputs":[{"name":"","type":"uint256[]","internalType":"uint256[]"}],"stateMutability":"view"},{"type":"function","name":"initializeTokens","inputs":[{"name":"_tokens","type":"address[]","internalType":"address[]"},{"name":"_priceFeeds","type":"address[]","internalType":"address[]"}],"outputs":[{"name":"","type":"address[]","internalType":"address[]"}],"stateMutability":"nonpayable"},{"type":"function","name":"liquidatePosition","inputs":[{"name":"_posId","type":"uint256","internalType":"uint256"}],"outputs":[],"stateMutability":"nonpayable"},{"type":"function","name":"liquidatePositions","inputs":[{"name":"_posIds","type":"uint256[]","internalType":"uint256[]"}],"outputs":[],"stateMutability":"nonpayable"},{"type":"function","name":"openLongPosition","inputs":[{"name":"_token0","type":"address","internalType":"address"},{"name":"_token1","type":"address","internalType":"address"},{"name":"_fee","type":"uint24","internalType":"uint24"},{"name":"_leverage","type":"uint8","internalType":"uint8"},{"name":"_amount","type":"uint128","internalType":"uint128"},{"name":"_limitPrice","type":"uint160","internalType":"uint160"},{"name":"_stopLossPrice","type":"uint256","internalType":"uint256"}],"outputs":[],"stateMutability":"nonpayable"},{"type":"function","name":"openShortPosition","inputs":[{"name":"_token0","type":"address","internalType":"address"},{"name":"_token1","type":"address","internalType":"address"},{"name":"_fee","type":"uint24","internalType":"uint24"},{"name":"_leverage","type":"uint8","internalType":"uint8"},{"name":"_amount","type":"uint128","internalType":"uint128"},{"name":"_limitPrice","type":"uint160","internalType":"uint160"},{"name":"_stopLossPrice","type":"uint256","internalType":"uint256"}],"outputs":[],"stateMutability":"nonpayable"},{"type":"function","name":"owner","inputs":[],"outputs":[{"name":"","type":"address","internalType":"address"}],"stateMutability":"view"},{"type":"function","name":"pause","inputs":[],"outputs":[],"stateMutability":"nonpayable"},{"type":"function","name":"paused","inputs":[],"outputs":[{"name":"","type":"bool","internalType":"bool"}],"stateMutability":"view"},{"type":"function","name":"renounceOwnership","inputs":[],"outputs":[],"stateMutability":"nonpayable"},{"type":"function","name":"setStalenessThreshold","inputs":[{"name":"_newThreshold","type":"uint256","internalType":"uint256"}],"outputs":[],"stateMutability":"nonpayable"},{"type":"function","name":"transferOwnership","inputs":[{"name":"newOwner","type":"address","internalType":"address"}],"outputs":[],"stateMutability":"nonpayable"},{"type":"function","name":"unpause","inputs":[],"outputs":[],"stateMutability":"nonpayable"},{"type":"event","name":"LiquidityAdded","inputs":[{"name":"poolAdd","type":"address","indexed":true,"internalType":"address"},{"name":"liquidityProvider","type":"address","indexed":true,"internalType":"address"},{"name":"assets","type":"uint256","indexed":false,"internalType":"uint256"}],"anonymous":false},{"type":"event","name":"LiquidityPoolCreated","inputs":[{"name":"poolAdd","type":"address","indexed":true,"internalType":"address"},{"name":"sender","type":"address","indexed":false,"internalType":"address"}],"anonymous":false},{"type":"event","name":"LiquidityRemoved","inputs":[{"name":"poolAdd","type":"address","indexed":true,"internalType":"address"},{"name":"liquidityProvider","type":"address","indexed":true,"internalType":"address"},{"name":"shares","type":"uint256","indexed":false,"internalType":"uint256"}],"anonymous":false},{"type":"event","name":"OwnershipTransferred","inputs":[{"name":"previousOwner","type":"address","indexed":true,"internalType":"address"},{"name":"newOwner","type":"address","indexed":true,"internalType":"address"}],"anonymous":false},{"type":"event","name":"Paused","inputs":[{"name":"account","type":"address","indexed":false,"internalType":"address"}],"anonymous":false},{"type":"event","name":"PositionClosed","inputs":[{"name":"posId","type":"uint256","indexed":true,"internalType":"uint256"},{"name":"trader","type":"address","indexed":true,"internalType":"address"}],"anonymous":false},{"type":"event","name":"PositionEdited","inputs":[{"name":"posId","type":"uint256","indexed":true,"internalType":"uint256"},{"name":"trader","type":"address","indexed":true,"internalType":"address"},{"name":"newStopLossPrice","type":"uint256","indexed":false,"internalType":"uint256"}],"anonymous":false},{"type":"event","name":"PositionLiquidated","inputs":[{"name":"posId","type":"uint256","indexed":true,"internalType":"uint256"},{"name":"liquidator","type":"address","indexed":true,"internalType":"address"}],"anonymous":false},{"type":"event","name":"PositionOpened","inputs":[{"name":"posId","type":"uint256","indexed":true,"internalType":"uint256"},{"name":"trader","type":"address","indexed":true,"internalType":"address"},{"name":"token0","type":"address","indexed":true,"internalType":"address"},{"name":"token1","type":"address","indexed":false,"internalType":"address"},{"name":"amount","type":"uint256","indexed":false,"internalType":"uint256"},{"name":"isShort","type":"bool","indexed":false,"internalType":"bool"},{"name":"leverage","type":"uint8","indexed":false,"internalType":"uint8"},{"name":"limitPrice","type":"uint256","indexed":false,"internalType":"uint256"},{"name":"stopLossPrice","type":"uint256","indexed":false,"internalType":"uint256"}],"anonymous":false},{"type":"event","name":"PriceFeedAdded","inputs":[{"name":"token","type":"address","indexed":false,"internalType":"address"},{"name":"priceFeed","type":"address","indexed":false,"internalType":"address"}],"anonymous":false},{"type":"event","name":"Unpaused","inputs":[{"name":"account","type":"address","indexed":false,"internalType":"address"}],"anonymous":false},{"type":"error","name":"EnforcedPause","inputs":[]},{"type":"error","name":"ExpectedPause","inputs":[]},{"type":"error","name":"OwnableInvalidOwner","inputs":[{"name":"owner","type":"address","internalType":"address"}]},{"type":"error","name":"OwnableUnauthorizedAccount","inputs":[{"name":"account","type":"address","internalType":"address"}]}],"bytecode":{"object":"0x60e0346200018757601f620016f238819003918201601f19168301916001600160401b038311848410176200018b57808492608094604052833981010312620001875760606200004f826200019f565b916200005e602082016200019f565b926200006d604083016200019f565b6001600160a01b0393909284916200008691016200019f565b169384156200016f575f80546001600160a01b0319811687178255604051968694859390928416907f8be0079c531659141344cd1fd0a4f28419497f9722a3daafe3b4186f6b6457e09080a3166080521660a0521660c05261153d9081620001b58239608051818181610148015281816104520152818161062101528181610707015281816107ea015281816108d701528181610a8f01528181610b5401528181610d6001528181610e260152610f97015260a05181818161081a01528181610ccd0152610fca015260c05181818161023b015281816103620152818161108801526110e70152f35b604051631e4fbdf760e01b81525f6004820152602490fd5b5f80fd5b634e487b7160e01b5f52604160045260245ffd5b51906001600160a01b0382168203620001875756fe60806040526004361015610011575f80fd5b5f3560e01c80631a4f747114610e6d5780631ae11bb514610e0257806322e6bce814610d3f5780633c3e613f14610c8e5780633f4ba83a14610c1f5780634d452ec014610b195780635c975abb14610af55780635fbbb2ff14610a4f578063715018a6146109f85780638456cb59146109985780638da5cb5b14610971578063a126d601146108b9578063be3cafd2146107a1578063cdddd4e5146106e9578063e3868491146105ce578063e63490ce14610418578063e8a97a3e14610323578063f2fde38b146102a1578063fb01e7f2146102205763fd029856146100f5575f80fd5b3461020957610103366112a8565b9193928096936101116113ed565b6101338484886040519b8c95632bb4e0eb60e21b87528c8b3360048a01611391565b6001600160a01b0396916020918a919003815f7f00000000000000000000000000000000000000000000000000000000000000008b165af1978815610215575f986101d8575b508592916001600160801b0360ff92856040519a168a521660208901526001604089015216606087015216608085015260a084015216917f83a891786cdb3b57216d67ecf5b97f5e950b694ab400f86019bd3fd4b7a1b99460c03393a4005b9097506020929192813d821161020d575b816101f66020938361136f565b8101031261020957519690919085610179565b5f80fd5b3d91506101e9565b6040513d5f823e3d90fd5b346102095760203660031901126102095761023961131c565b7f00000000000000000000000000000000000000000000000000000000000000006001600160a01b0316803b15610209575f8091602460405180948193637d80f3f960e11b835260043560048401525af180156102155761029657005b61029f90611347565b005b34610209576020366003190112610209576102ba611292565b6102c261131c565b6001600160a01b0390811690811561030b575f548260018060a01b03198216175f55167f8be0079c531659141344cd1fd0a4f28419497f9722a3daafe3b4186f6b6457e05f80a3005b604051631e4fbdf760e01b81525f6004820152602490fd5b346102095760403660031901126102095761033c611292565b6024356001600160a01b0380821682036102095761035861131c565b6103606113ed565b7f00000000000000000000000000000000000000000000000000000000000000001691823b1561020957604051637454bd1f60e11b81526001600160a01b03828116600483015283166024820152925f908490604490829084905af1928315610215577f2940c4bfb544a4b0a5b4262767947b0acc0b8f144197528463c4d476658cff7993610409575b50604080516001600160a01b03928316815292909116602083015290a1005b61041290611347565b836103ea565b346102095760203660031901126102095760405163731a486760e11b81526004803590820152610160906001600160a01b039082816024817f000000000000000000000000000000000000000000000000000000000000000086165afa908115610215575f925f905f805f805f925f945f975f995f9b6104f5575b508790816040519d168d521660208c01526001600160801b031660408b015267ffffffffffffffff1660608a01521515608089015260ff1660a088015260c08701521660e0850152610100840152600f0b610120830152600f0b610140820152f35b9b5050505050505050925050508282813d83116105c7575b610517818361136f565b81010312610209576105288261149f565b6105346020840161149f565b926040810151926001600160801b038416840361020957606082015167ffffffffffffffff8116810361020957608083015180151581036102095760a084015160ff811681036102095760c08501519060e08601519285841684036102095761010087015194866105b56101406105ae6101208c016114b3565b9a016114b3565b999b9a91929394959698999a90610493565b503d61050d565b34610209576105dc366112a8565b9193928096936105ea6113ed565b61060c8484886040519b8c956316c7c1b960e11b87528c8b3360048a01611391565b6001600160a01b0396916020918a919003815f7f00000000000000000000000000000000000000000000000000000000000000008b165af1978815610215575f986106b0575b508592916001600160801b0360ff92856040519a168a521660208901525f604089015216606087015216608085015260a084015216917f83a891786cdb3b57216d67ecf5b97f5e950b694ab400f86019bd3fd4b7a1b99460c03393a4005b9097506020929192813d82116106e1575b816106ce6020938361136f565b8101031261020957519690919085610652565b3d91506106c1565b34610209576020366003190112610209576004356107056113ed565b7f00000000000000000000000000000000000000000000000000000000000000006001600160a01b0316803b15610209576040516376f8996560e01b815233600482015260248101839052905f908290604490829084905af1801561021557610792575b5033907fa9ae24adea380a0aaa5f1e18bfe4427ac76c27d30a0159971c13f930c4d4e5a35f80a3005b61079b90611347565b81610769565b3461020957602080600319360112610209576107bb611292565b6107c361131c565b6107cb6113ed565b6040516302384d3d60e41b81526001600160a01b0382811660048301527f000000000000000000000000000000000000000000000000000000000000000081166024830152909183836044815f7f000000000000000000000000000000000000000000000000000000000000000087165af1928315610215575f93610882575b507f3366ddec6d22baedae5089cdef368ab66cbf7cc63aec389ca0d4b54e447baa1b8483604051933385521692a260405191168152f35b9092508381813d83116108b2575b61089a818361136f565b81010312610209576108ab9061149f565b918461084b565b503d610890565b34610209576020366003190112610209576004356108d56113ed565b7f00000000000000000000000000000000000000000000000000000000000000006001600160a01b0316803b1561020957604051630e85fc3f60e31b815233600482015260248101839052905f908290604490829084905af1801561021557610962575b5033907fcefaf961c5013063cf501ffd9f9382e9b9c4b15741ad032fe93d7e9c7c733b225f80a3005b61096b90611347565b81610939565b34610209575f366003190112610209575f546040516001600160a01b039091168152602090f35b34610209575f366003190112610209576109b061131c565b6109b86113ed565b5f805460ff60a01b1916600160a01b1790556040513381527f62e78cea01bee320cd4e420270b5ea74000d11b0c9f74754ebdbfc544b05a25890602090a1005b34610209575f36600319011261020957610a1061131c565b5f80546001600160a01b0319811682556001600160a01b03167f8be0079c531659141344cd1fd0a4f28419497f9722a3daafe3b4186f6b6457e08280a3005b346102095760203660031901126102095760245f610a6b611292565b604051635fbbb2ff60e01b81526001600160a01b03918216600482015292839182907f0000000000000000000000000000000000000000000000000000000000000000165afa801561021557610acf915f91610ad3575b5060405191829182611258565b0390f35b610aef91503d805f833e610ae7818361136f565b810190611425565b82610ac2565b34610209575f36600319011261020957602060ff5f5460a01c166040519015158152f35b346102095760203660031901126102095760043567ffffffffffffffff811161020957610b4a903690600401611227565b610b526113ed565b7f00000000000000000000000000000000000000000000000000000000000000006001600160a01b0316915f5b828110610b8857005b610b938184846114e3565b3590843b15610209576040516376f8996560e01b81523360048201526024810192909252610bd5915f81604481838a5af19081610c10575b50610bda576114c1565b610b7f565b33610be68286866114e3565b357fa9ae24adea380a0aaa5f1e18bfe4427ac76c27d30a0159971c13f930c4d4e5a35f80a36114c1565b610c1990611347565b86610bcb565b34610209575f36600319011261020957610c3761131c565b5f5460ff8160a01c1615610c7c5760ff60a01b19165f556040513381527f5db9ee0a495bf2e6ff9c91a7834c1ba4fdd244a5e8aa4e537bd38aeae4b073aa90602090a1005b604051638dfc202b60e01b8152600490fd5b346102095760208060031936011261020957610ca8611292565b604051633c3e613f60e01b81526001600160a01b0391821660048201529082826024817f000000000000000000000000000000000000000000000000000000000000000085165afa918215610215575f92610d08575b5060405191168152f35b9091508281813d8311610d38575b610d20818361136f565b8101031261020957610d319061149f565b9083610cfe565b503d610d16565b3461020957604036600319011261020957602435600435610d5e6113ed565b7f00000000000000000000000000000000000000000000000000000000000000006001600160a01b0316803b15610209575f8091606460405180948193631dc04a5f60e21b83523360048401528760248401528860448401525af1801561021557610df3575b506040519182527fed41acd3ce45cae0dceb683570aa2438665ef44a968b3bfc041dcbc40f1d0c9c60203393a3005b610dfc90611347565b82610dc4565b34610209575f36600319011261020957604051631ae11bb560e01b81525f816004817f00000000000000000000000000000000000000000000000000000000000000006001600160a01b03165afa801561021557610acf915f91610ad3575060405191829182611258565b346102095760403660031901126102095767ffffffffffffffff60043581811161020957610e9f903690600401611227565b9160243590811161020957610eb8903690600401611227565b9091610ec261131c565b610eca6113ed565b8184036111c957610eda8461140d565b93610ee8604051958661136f565b808552601f19610ef78261140d565b013660208701375f5b818110610f5557856040518091602082016020835281518091526020604084019201905f5b818110610f33575050500390f35b82516001600160a01b0316845285945060209384019390920191600101610f25565b610f68610f638284866114e3565b6114f3565b610f7061131c565b610f786113ed565b6040516302384d3d60e41b81526001600160a01b0380831660048301527f000000000000000000000000000000000000000000000000000000000000000016602482015290602082806044810103815f7f00000000000000000000000000000000000000000000000000000000000000006001600160a01b03165af1918215610215575f9261118d575b506040513381526001600160a01b03909116907f3366ddec6d22baedae5089cdef368ab66cbf7cc63aec389ca0d4b54e447baa1b90602090a28651821015611179576001600160a01b0316600582901b870160200152611066610f638284866114e3565b90611075610f638287896114e3565b9161107e61131c565b6110866113ed565b7f00000000000000000000000000000000000000000000000000000000000000006001600160a01b03163b1561020957604051637454bd1f60e11b81526001600160a01b03808316600483015284166024820152925f8480604481010381837f00000000000000000000000000000000000000000000000000000000000000006001600160a01b03165af191821561021557611165947f2940c4bfb544a4b0a5b4262767947b0acc0b8f144197528463c4d476658cff799361116a575b50604080516001600160a01b03928316815292909116602083015290a16114c1565b610f00565b61117390611347565b8a611143565b634e487b7160e01b5f52603260045260245ffd5b9091506020813d6020116111c1575b816111a96020938361136f565b81010312610209576111ba9061149f565b9088611002565b3d915061119c565b60405162461bcd60e51b815260206004820152603060248201527f546f6b656e20616e642050726963654665656420617272617973206d7573742060448201526f0d0c2ecca40e6c2daca40d8cadccee8d60831b6064820152608490fd5b9181601f840112156102095782359167ffffffffffffffff8311610209576020808501948460051b01011161020957565b602090816040818301928281528551809452019301915f5b82811061127e575050505090565b835185529381019392810192600101611270565b600435906001600160a01b038216820361020957565b60e0906003190112610209576001600160a01b0390600435828116810361020957916024358181168103610209579160443562ffffff81168103610209579160643560ff8116810361020957916084356001600160801b0381168103610209579160a4359081168103610209579060c43590565b5f546001600160a01b0316330361132f57565b60405163118cdaa760e01b8152336004820152602490fd5b67ffffffffffffffff811161135b57604052565b634e487b7160e01b5f52604160045260245ffd5b90601f8019910116810190811067ffffffffffffffff82111761135b57604052565b6001600160a01b0391821681529181166020830152918216604082015262ffffff92909216606083015260ff90921660808201526001600160801b039290921660a083015290911660c082015260e08101919091526101000190565b60ff5f5460a01c166113fb57565b60405163d93c066560e01b8152600490fd5b67ffffffffffffffff811161135b5760051b60200190565b60209081818403126102095780519067ffffffffffffffff821161020957019180601f8401121561020957825161145b8161140d565b93611469604051958661136f565b818552838086019260051b820101928311610209578301905b828210611490575050505090565b81518152908301908301611482565b51906001600160a01b038216820361020957565b519081600f0b820361020957565b5f1981146114cf5760010190565b634e487b7160e01b5f52601160045260245ffd5b91908110156111795760051b0190565b356001600160a01b0381168103610209579056fea2646970667358221220fd6a5a6f9ef1fec2a750fff132e1a8212fd42cecbd81dc9614ff9c0fe2cddfe364736f6c63430008140033","linkReferences":{}},"methodIdentifiers":{"addPriceFeed(address,address)":"e8a97a3e","closePosition(uint256)":"a126d601","createLiquidityPool(address)":"be3cafd2","editPosition(uint256,uint256)":"22e6bce8","getLiquidablePositions()":"1ae11bb5","getPositionParams(uint256)":"e63490ce","getTokenToLiquidityPools(address)":"3c3e613f","getTraderPositions(address)":"5fbbb2ff","initializeTokens(address[],address[])":"1a4f7471","liquidatePosition(uint256)":"cdddd4e5","liquidatePositions(uint256[])":"4d452ec0","openLongPosition(address,address,uint24,uint8,uint128,uint160,uint256)":"e3868491","openShortPosition(address,address,uint24,uint8,uint128,uint160,uint256)":"fd029856","owner()":"8da5cb5b","pause()":"8456cb59","paused()":"5c975abb","renounceOwnership()":"715018a6","setStalenessThreshold(uint256)":"fb01e7f2","transferOwnership(address)":"f2fde38b","unpause()":"3f4ba83a"},"id":55}