{"abi":[{"type":"constructor","inputs":[{"name":"_positions","type":"address","internalType":"address"},{"name":"_liquidityPoolFactory","type":"address","internalType":"address"},{"name":"_priceFeed","type":"address","internalType":"address"},{"name":"_owner","type":"address","internalType":"address"}],"stateMutability":"nonpayable"},{"type":"function","name":"addPriceFeed","inputs":[{"name":"_token","type":"address","internalType":"address"},{"name":"_priceFeed","type":"address","internalType":"address"}],"outputs":[],"stateMutability":"nonpayable"},{"type":"function","name":"calculatePositionOpening","inputs":[{"name":"_price","type":"uint256","internalType":"uint256"},{"name":"_leverage","type":"uint8","internalType":"uint8"},{"name":"_baseCollateralAmount","type":"uint128","internalType":"uint128"},{"name":"_isShort","type":"bool","internalType":"bool"},{"name":"_baseToken","type":"address","internalType":"address"},{"name":"_quoteToken","type":"address","internalType":"address"}],"outputs":[{"name":"liquidationFloor","type":"uint256","internalType":"uint256"},{"name":"totalBorrow","type":"uint256","internalType":"uint256"},{"name":"borrowToken","type":"address","internalType":"address"},{"name":"liquidityPoolToken","type":"address","internalType":"address"}],"stateMutability":"view"},{"type":"function","name":"closePosition","inputs":[{"name":"_posId","type":"uint256","internalType":"uint256"}],"outputs":[],"stateMutability":"nonpayable"},{"type":"function","name":"createLiquidityPool","inputs":[{"name":"_token","type":"address","internalType":"address"}],"outputs":[{"name":"","type":"address","internalType":"address"}],"stateMutability":"nonpayable"},{"type":"function","name":"editPosition","inputs":[{"name":"_posId","type":"uint256","internalType":"uint256"},{"name":"_newLstopLossPrice","type":"uint256","internalType":"uint256"}],"outputs":[],"stateMutability":"nonpayable"},{"type":"function","name":"getLiquidablePositions","inputs":[],"outputs":[{"name":"","type":"uint256[]","internalType":"uint256[]"}],"stateMutability":"view"},{"type":"function","name":"getPositionParams","inputs":[{"name":"_posId","type":"uint256","internalType":"uint256"}],"outputs":[{"name":"baseToken_","type":"address","internalType":"address"},{"name":"quoteToken_","type":"address","internalType":"address"},{"name":"positionSize_","type":"uint128","internalType":"uint128"},{"name":"timestamp_","type":"uint64","internalType":"uint64"},{"name":"isShort_","type":"bool","internalType":"bool"},{"name":"leverage_","type":"uint8","internalType":"uint8"},{"name":"liquidationFloor_","type":"uint256","internalType":"uint256"},{"name":"limitPrice_","type":"uint160","internalType":"uint160"},{"name":"stopLossPrice_","type":"uint256","internalType":"uint256"},{"name":"currentPnL_","type":"int128","internalType":"int128"},{"name":"collateralLeft_","type":"int128","internalType":"int128"}],"stateMutability":"view"},{"type":"function","name":"getTokenToLiquidityPools","inputs":[{"name":"_token","type":"address","internalType":"address"}],"outputs":[{"name":"","type":"address","internalType":"address"}],"stateMutability":"view"},{"type":"function","name":"getTraderPositions","inputs":[{"name":"_traderAdd","type":"address","internalType":"address"}],"outputs":[{"name":"","type":"uint256[]","internalType":"uint256[]"}],"stateMutability":"view"},{"type":"function","name":"initializeTokens","inputs":[{"name":"_tokens","type":"address[]","internalType":"address[]"},{"name":"_priceFeeds","type":"address[]","internalType":"address[]"}],"outputs":[{"name":"","type":"address[]","internalType":"address[]"}],"stateMutability":"nonpayable"},{"type":"function","name":"liquidatePosition","inputs":[{"name":"_posId","type":"uint256","internalType":"uint256"}],"outputs":[],"stateMutability":"nonpayable"},{"type":"function","name":"liquidatePositions","inputs":[{"name":"_posIds","type":"uint256[]","internalType":"uint256[]"}],"outputs":[],"stateMutability":"nonpayable"},{"type":"function","name":"openLongPosition","inputs":[{"name":"_token0","type":"address","internalType":"address"},{"name":"_token1","type":"address","internalType":"address"},{"name":"_fee","type":"uint24","internalType":"uint24"},{"name":"_leverage","type":"uint8","internalType":"uint8"},{"name":"_amount","type":"uint128","internalType":"uint128"},{"name":"_limitPrice","type":"uint160","internalType":"uint160"},{"name":"_stopLossPrice","type":"uint256","internalType":"uint256"}],"outputs":[],"stateMutability":"nonpayable"},{"type":"function","name":"openShortPosition","inputs":[{"name":"_token0","type":"address","internalType":"address"},{"name":"_token1","type":"address","internalType":"address"},{"name":"_fee","type":"uint24","internalType":"uint24"},{"name":"_leverage","type":"uint8","internalType":"uint8"},{"name":"_amount","type":"uint128","internalType":"uint128"},{"name":"_limitPrice","type":"uint160","internalType":"uint160"},{"name":"_stopLossPrice","type":"uint256","internalType":"uint256"}],"outputs":[],"stateMutability":"nonpayable"},{"type":"function","name":"owner","inputs":[],"outputs":[{"name":"","type":"address","internalType":"address"}],"stateMutability":"view"},{"type":"function","name":"pause","inputs":[],"outputs":[],"stateMutability":"nonpayable"},{"type":"function","name":"paused","inputs":[],"outputs":[{"name":"","type":"bool","internalType":"bool"}],"stateMutability":"view"},{"type":"function","name":"renounceOwnership","inputs":[],"outputs":[],"stateMutability":"nonpayable"},{"type":"function","name":"setStalenessThreshold","inputs":[{"name":"_newThreshold","type":"uint256","internalType":"uint256"}],"outputs":[],"stateMutability":"nonpayable"},{"type":"function","name":"transferOwnership","inputs":[{"name":"newOwner","type":"address","internalType":"address"}],"outputs":[],"stateMutability":"nonpayable"},{"type":"function","name":"unpause","inputs":[],"outputs":[],"stateMutability":"nonpayable"},{"type":"event","name":"LiquidityAdded","inputs":[{"name":"poolAdd","type":"address","indexed":true,"internalType":"address"},{"name":"liquidityProvider","type":"address","indexed":true,"internalType":"address"},{"name":"assets","type":"uint256","indexed":false,"internalType":"uint256"}],"anonymous":false},{"type":"event","name":"LiquidityPoolCreated","inputs":[{"name":"poolAdd","type":"address","indexed":true,"internalType":"address"},{"name":"sender","type":"address","indexed":false,"internalType":"address"}],"anonymous":false},{"type":"event","name":"LiquidityRemoved","inputs":[{"name":"poolAdd","type":"address","indexed":true,"internalType":"address"},{"name":"liquidityProvider","type":"address","indexed":true,"internalType":"address"},{"name":"shares","type":"uint256","indexed":false,"internalType":"uint256"}],"anonymous":false},{"type":"event","name":"OwnershipTransferred","inputs":[{"name":"previousOwner","type":"address","indexed":true,"internalType":"address"},{"name":"newOwner","type":"address","indexed":true,"internalType":"address"}],"anonymous":false},{"type":"event","name":"Paused","inputs":[{"name":"account","type":"address","indexed":false,"internalType":"address"}],"anonymous":false},{"type":"event","name":"PositionClosed","inputs":[{"name":"posId","type":"uint256","indexed":true,"internalType":"uint256"},{"name":"trader","type":"address","indexed":true,"internalType":"address"}],"anonymous":false},{"type":"event","name":"PositionEdited","inputs":[{"name":"posId","type":"uint256","indexed":true,"internalType":"uint256"},{"name":"trader","type":"address","indexed":true,"internalType":"address"},{"name":"newStopLossPrice","type":"uint256","indexed":false,"internalType":"uint256"}],"anonymous":false},{"type":"event","name":"PositionLiquidated","inputs":[{"name":"posId","type":"uint256","indexed":true,"internalType":"uint256"},{"name":"liquidator","type":"address","indexed":true,"internalType":"address"}],"anonymous":false},{"type":"event","name":"PositionOpened","inputs":[{"name":"posId","type":"uint256","indexed":true,"internalType":"uint256"},{"name":"trader","type":"address","indexed":true,"internalType":"address"},{"name":"token0","type":"address","indexed":true,"internalType":"address"},{"name":"token1","type":"address","indexed":false,"internalType":"address"},{"name":"amount","type":"uint256","indexed":false,"internalType":"uint256"},{"name":"isShort","type":"bool","indexed":false,"internalType":"bool"},{"name":"leverage","type":"uint8","indexed":false,"internalType":"uint8"},{"name":"limitPrice","type":"uint256","indexed":false,"internalType":"uint256"},{"name":"stopLossPrice","type":"uint256","indexed":false,"internalType":"uint256"}],"anonymous":false},{"type":"event","name":"PriceFeedAdded","inputs":[{"name":"token","type":"address","indexed":false,"internalType":"address"},{"name":"priceFeed","type":"address","indexed":false,"internalType":"address"}],"anonymous":false},{"type":"event","name":"Unpaused","inputs":[{"name":"account","type":"address","indexed":false,"internalType":"address"}],"anonymous":false},{"type":"error","name":"EnforcedPause","inputs":[]},{"type":"error","name":"ExpectedPause","inputs":[]},{"type":"error","name":"OwnableInvalidOwner","inputs":[{"name":"owner","type":"address","internalType":"address"}]},{"type":"error","name":"OwnableUnauthorizedAccount","inputs":[{"name":"account","type":"address","internalType":"address"}]}],"bytecode":{"object":"0x60e0346200018757601f62001a4838819003918201601f19168301916001600160401b038311848410176200018b57808492608094604052833981010312620001875760606200004f826200019f565b916200005e602082016200019f565b926200006d604083016200019f565b6001600160a01b0393909284916200008691016200019f565b169384156200016f575f80546001600160a01b0319811687178255604051968694859390928416907f8be0079c531659141344cd1fd0a4f28419497f9722a3daafe3b4186f6b6457e09080a3166080521660a0521660c0526118939081620001b582396080518181816101530152818161045d0152818161062701528181610a4d01528181610b3001528181610c1d01528181610dd501528181610e99015281816110a50152818161116b01526112db015260a051818181610b6001528181611012015261130e015260c0518181816102460152818161036d015281816113cc015261142b0152f35b604051631e4fbdf760e01b81525f6004820152602490fd5b5f80fd5b634e487b7160e01b5f52604160045260245ffd5b51906001600160a01b0382168203620001875756fe60806040526004361015610011575f80fd5b5f3560e01c80631a4f7471146111b25780631ae11bb51461114757806322e6bce8146110845780633c3e613f14610fd35780633f4ba83a14610f645780634d452ec014610e5f5780635c975abb14610e3b5780635fbbb2ff14610d95578063715018a614610d3e5780638456cb5914610cde5780638da5cb5b14610cb7578063a126d60114610bff578063be3cafd214610ae7578063cdddd4e514610a2f578063e3413943146106ef578063e3868491146105d4578063e63490ce14610423578063e8a97a3e1461032e578063f2fde38b146102ac578063fb01e7f21461022b5763fd02985614610100575f80fd5b346102145761010e366115eb565b91939280969361011c61171a565b61013e8484886040519b8c95632bb4e0eb60e21b87528c8b3360048a016116be565b6001600160a01b0396916020918a919003815f7f00000000000000000000000000000000000000000000000000000000000000008b165af1978815610220575f986101e3575b508592916001600160801b0360ff92856040519a168a521660208901526001604089015216606087015216608085015260a084015216917f83a891786cdb3b57216d67ecf5b97f5e950b694ab400f86019bd3fd4b7a1b99460c03393a4005b9097506020929192813d8211610218575b816102016020938361169d565b8101031261021457519690919085610184565b5f80fd5b3d91506101f4565b6040513d5f823e3d90fd5b346102145760203660031901126102145761024461165f565b7f00000000000000000000000000000000000000000000000000000000000000006001600160a01b0316803b15610214575f8091602460405180948193637d80f3f960e11b835260043560048401525af18015610220576102a157005b6102aa9061168a565b005b34610214576020366003190112610214576102c56115d5565b6102cd61165f565b6001600160a01b03908116908115610316575f548260018060a01b03198216175f55167f8be0079c531659141344cd1fd0a4f28419497f9722a3daafe3b4186f6b6457e05f80a3005b604051631e4fbdf760e01b81525f6004820152602490fd5b34610214576040366003190112610214576103476115d5565b6024356001600160a01b0380821682036102145761036361165f565b61036b61171a565b7f00000000000000000000000000000000000000000000000000000000000000001691823b1561021457604051637454bd1f60e11b81526001600160a01b03828116600483015283166024820152925f908490604490829084905af1928315610220577f2940c4bfb544a4b0a5b4262767947b0acc0b8f144197528463c4d476658cff7993610414575b50604080516001600160a01b03928316815292909116602083015290a1005b61041d9061168a565b836103f5565b346102145760203660031901126102145760405163731a486760e11b81526004803590820152610160906001600160a01b039082816024817f000000000000000000000000000000000000000000000000000000000000000086165afa908115610220575f925f905f805f805f925f945f975f995f9b6104ff575b508790816040519d168d521660208c01526001600160801b031660408b01526001600160401b031660608a01521515608089015260ff1660a088015260c08701521660e0850152610100840152600f0b610120830152600f0b610140820152f35b9b5050505050505050925050508282813d83116105cd575b610521818361169d565b8101031261021457610532826117ca565b61053e602084016117ca565b926040810151926001600160801b03841684036102145760608201516001600160401b038116810361021457608083015180151581036102145761058460a085016117de565b60c08501519060e08601519285841684036102145761010087015194866105bb6101406105b46101208c016117ec565b9a016117ec565b999b9a91929394959698999a9061049e565b503d610517565b34610214576105e2366115eb565b9193928096936105f061171a565b6106128484886040519b8c956316c7c1b960e11b87528c8b3360048a016116be565b6001600160a01b0396916020918a919003815f7f00000000000000000000000000000000000000000000000000000000000000008b165af1978815610220575f986106b6575b508592916001600160801b0360ff92856040519a168a521660208901525f604089015216606087015216608085015260a084015216917f83a891786cdb3b57216d67ecf5b97f5e950b694ab400f86019bd3fd4b7a1b99460c03393a4005b9097506020929192813d82116106e7575b816106d46020938361169d565b8101031261021457519690919085610658565b3d91506106c7565b346102145760c03660031901126102145760243560ff81168103610214576044356001600160801b038116810361021457606435801515810361021457608435906001600160a01b03821682036102145760a435926001600160a01b03841684036102145760405163313ce56760e01b81526020816004816001600160a01b0388165afa908115610220575f916109f5575b50604d60ff82161161091a5760405195866101008101106001600160401b03610100890111176109e15760ff92836001600160801b03926101008a016040526004358a52166020890152166040870152818116606087015216600a0a6080850152151560a084015260018060a01b031660c083015260018060a01b031660e0820152604051608081018181106001600160401b038211176109e1576040525f81525f60208201525f60408201525f606082015260a082015115155f1461092e578151916127108084029084820481148515171561091a5760ff60208401511681810291818304149015171561091a576108799161183f565b830180931161091a5760809282526108be6108b66108a86001600160801b03604085015116868501519061182c565b60ff6020850151169061182c565b82519061183f565b602083015260c00180516001600160a01b03908116604084015290511660608201525b80516020808301516040808501516060958601518251958652938501929092526001600160a01b03918216908401521691810191909152f35b634e487b7160e01b5f52601160045260245ffd5b81516127108082029082820481148315171561091a5760ff60208601511681810291818304149015171561091a576109659161183f565b810390811161091a5781526001600160801b03604083015116915f1960ff6020830151160160ff811161091a576109b06109a860809560ff6109ba94169061182c565b83519061182c565b848301519061183f565b602083015260e00180516001600160a01b03908116604084015290511660608201526108e1565b634e487b7160e01b5f52604160045260245ffd5b90506020813d602011610a27575b81610a106020938361169d565b8101031261021457610a21906117de565b86610781565b3d9150610a03565b3461021457602036600319011261021457600435610a4b61171a565b7f00000000000000000000000000000000000000000000000000000000000000006001600160a01b0316803b15610214576040516376f8996560e01b815233600482015260248101839052905f908290604490829084905af1801561022057610ad8575b5033907fa9ae24adea380a0aaa5f1e18bfe4427ac76c27d30a0159971c13f930c4d4e5a35f80a3005b610ae19061168a565b81610aaf565b346102145760208060031936011261021457610b016115d5565b610b0961165f565b610b1161171a565b6040516302384d3d60e41b81526001600160a01b0382811660048301527f000000000000000000000000000000000000000000000000000000000000000081166024830152909183836044815f7f000000000000000000000000000000000000000000000000000000000000000087165af1928315610220575f93610bc8575b507f3366ddec6d22baedae5089cdef368ab66cbf7cc63aec389ca0d4b54e447baa1b8483604051933385521692a260405191168152f35b9092508381813d8311610bf8575b610be0818361169d565b8101031261021457610bf1906117ca565b9184610b91565b503d610bd6565b3461021457602036600319011261021457600435610c1b61171a565b7f00000000000000000000000000000000000000000000000000000000000000006001600160a01b0316803b1561021457604051630e85fc3f60e31b815233600482015260248101839052905f908290604490829084905af1801561022057610ca8575b5033907fcefaf961c5013063cf501ffd9f9382e9b9c4b15741ad032fe93d7e9c7c733b225f80a3005b610cb19061168a565b81610c7f565b34610214575f366003190112610214575f546040516001600160a01b039091168152602090f35b34610214575f36600319011261021457610cf661165f565b610cfe61171a565b5f805460ff60a01b1916600160a01b1790556040513381527f62e78cea01bee320cd4e420270b5ea74000d11b0c9f74754ebdbfc544b05a25890602090a1005b34610214575f36600319011261021457610d5661165f565b5f80546001600160a01b0319811682556001600160a01b03167f8be0079c531659141344cd1fd0a4f28419497f9722a3daafe3b4186f6b6457e08280a3005b346102145760203660031901126102145760245f610db16115d5565b604051635fbbb2ff60e01b81526001600160a01b03918216600482015292839182907f0000000000000000000000000000000000000000000000000000000000000000165afa801561022057610e15915f91610e19575b506040519182918261159b565b0390f35b610e3591503d805f833e610e2d818361169d565b810190611751565b82610e08565b34610214575f36600319011261021457602060ff5f5460a01c166040519015158152f35b34610214576020366003190112610214576004356001600160401b03811161021457610e8f90369060040161156b565b610e9761171a565b7f00000000000000000000000000000000000000000000000000000000000000006001600160a01b0316915f5b828110610ecd57005b610ed8818484611808565b3590843b15610214576040516376f8996560e01b81523360048201526024810192909252610f1a915f81604481838a5af19081610f55575b50610f1f576117fa565b610ec4565b33610f2b828686611808565b357fa9ae24adea380a0aaa5f1e18bfe4427ac76c27d30a0159971c13f930c4d4e5a35f80a36117fa565b610f5e9061168a565b86610f10565b34610214575f36600319011261021457610f7c61165f565b5f5460ff8160a01c1615610fc15760ff60a01b19165f556040513381527f5db9ee0a495bf2e6ff9c91a7834c1ba4fdd244a5e8aa4e537bd38aeae4b073aa90602090a1005b604051638dfc202b60e01b8152600490fd5b346102145760208060031936011261021457610fed6115d5565b604051633c3e613f60e01b81526001600160a01b0391821660048201529082826024817f000000000000000000000000000000000000000000000000000000000000000085165afa918215610220575f9261104d575b5060405191168152f35b9091508281813d831161107d575b611065818361169d565b8101031261021457611076906117ca565b9083611043565b503d61105b565b34610214576040366003190112610214576024356004356110a361171a565b7f00000000000000000000000000000000000000000000000000000000000000006001600160a01b0316803b15610214575f8091606460405180948193631dc04a5f60e21b83523360048401528760248401528860448401525af1801561022057611138575b506040519182527fed41acd3ce45cae0dceb683570aa2438665ef44a968b3bfc041dcbc40f1d0c9c60203393a3005b6111419061168a565b82611109565b34610214575f36600319011261021457604051631ae11bb560e01b81525f816004817f00000000000000000000000000000000000000000000000000000000000000006001600160a01b03165afa801561022057610e15915f91610e1957506040519182918261159b565b34610214576040366003190112610214576001600160401b03600435818111610214576111e390369060040161156b565b91602435908111610214576111fc90369060040161156b565b909161120661165f565b61120e61171a565b81840361150d5761121e8461173a565b9361122c604051958661169d565b808552601f1961123b8261173a565b013660208701375f5b81811061129957856040518091602082016020835281518091526020604084019201905f5b818110611277575050500390f35b82516001600160a01b0316845285945060209384019390920191600101611269565b6112ac6112a7828486611808565b611818565b6112b461165f565b6112bc61171a565b6040516302384d3d60e41b81526001600160a01b0380831660048301527f000000000000000000000000000000000000000000000000000000000000000016602482015290602082806044810103815f7f00000000000000000000000000000000000000000000000000000000000000006001600160a01b03165af1918215610220575f926114d1575b506040513381526001600160a01b03909116907f3366ddec6d22baedae5089cdef368ab66cbf7cc63aec389ca0d4b54e447baa1b90602090a286518210156114bd576001600160a01b0316600582901b8701602001526113aa6112a7828486611808565b906113b96112a7828789611808565b916113c261165f565b6113ca61171a565b7f00000000000000000000000000000000000000000000000000000000000000006001600160a01b03163b1561021457604051637454bd1f60e11b81526001600160a01b03808316600483015284166024820152925f8480604481010381837f00000000000000000000000000000000000000000000000000000000000000006001600160a01b03165af1918215610220576114a9947f2940c4bfb544a4b0a5b4262767947b0acc0b8f144197528463c4d476658cff79936114ae575b50604080516001600160a01b03928316815292909116602083015290a16117fa565b611244565b6114b79061168a565b8a611487565b634e487b7160e01b5f52603260045260245ffd5b9091506020813d602011611505575b816114ed6020938361169d565b81010312610214576114fe906117ca565b9088611346565b3d91506114e0565b60405162461bcd60e51b815260206004820152603060248201527f546f6b656e20616e642050726963654665656420617272617973206d7573742060448201526f0d0c2ecca40e6c2daca40d8cadccee8d60831b6064820152608490fd5b9181601f84011215610214578235916001600160401b038311610214576020808501948460051b01011161021457565b602090816040818301928281528551809452019301915f5b8281106115c1575050505090565b8351855293810193928101926001016115b3565b600435906001600160a01b038216820361021457565b60e0906003190112610214576001600160a01b0390600435828116810361021457916024358181168103610214579160443562ffffff81168103610214579160643560ff8116810361021457916084356001600160801b0381168103610214579160a4359081168103610214579060c43590565b5f546001600160a01b0316330361167257565b60405163118cdaa760e01b8152336004820152602490fd5b6001600160401b0381116109e157604052565b90601f801991011681019081106001600160401b038211176109e157604052565b6001600160a01b0391821681529181166020830152918216604082015262ffffff92909216606083015260ff90921660808201526001600160801b039290921660a083015290911660c082015260e08101919091526101000190565b60ff5f5460a01c1661172857565b60405163d93c066560e01b8152600490fd5b6001600160401b0381116109e15760051b60200190565b6020908181840312610214578051906001600160401b03821161021457019180601f840112156102145782516117868161173a565b93611794604051958661169d565b818552838086019260051b820101928311610214578301905b8282106117bb575050505090565b815181529083019083016117ad565b51906001600160a01b038216820361021457565b519060ff8216820361021457565b519081600f0b820361021457565b5f19811461091a5760010190565b91908110156114bd5760051b0190565b356001600160a01b03811681036102145790565b8181029291811591840414171561091a57565b8115611849570490565b634e487b7160e01b5f52601260045260245ffdfea26469706673582212204465e63cb92e6f26c107099ea68ebd133f852d4cbd606187a668afb02dad288d64736f6c63430008140033","linkReferences":{}},"methodIdentifiers":{"addPriceFeed(address,address)":"e8a97a3e","calculatePositionOpening(uint256,uint8,uint128,bool,address,address)":"e3413943","closePosition(uint256)":"a126d601","createLiquidityPool(address)":"be3cafd2","editPosition(uint256,uint256)":"22e6bce8","getLiquidablePositions()":"1ae11bb5","getPositionParams(uint256)":"e63490ce","getTokenToLiquidityPools(address)":"3c3e613f","getTraderPositions(address)":"5fbbb2ff","initializeTokens(address[],address[])":"1a4f7471","liquidatePosition(uint256)":"cdddd4e5","liquidatePositions(uint256[])":"4d452ec0","openLongPosition(address,address,uint24,uint8,uint128,uint160,uint256)":"e3868491","openShortPosition(address,address,uint24,uint8,uint128,uint160,uint256)":"fd029856","owner()":"8da5cb5b","pause()":"8456cb59","paused()":"5c975abb","renounceOwnership()":"715018a6","setStalenessThreshold(uint256)":"fb01e7f2","transferOwnership(address)":"f2fde38b","unpause()":"3f4ba83a"},"id":55}