{"abi":[{"type":"constructor","inputs":[{"name":"_positions","type":"address","internalType":"address"},{"name":"_liquidityPoolFactory","type":"address","internalType":"address"},{"name":"_priceFeed","type":"address","internalType":"address"},{"name":"_owner","type":"address","internalType":"address"}],"stateMutability":"nonpayable"},{"type":"function","name":"addPriceFeed","inputs":[{"name":"_token","type":"address","internalType":"address"},{"name":"_priceFeed","type":"address","internalType":"address"}],"outputs":[],"stateMutability":"nonpayable"},{"type":"function","name":"closePosition","inputs":[{"name":"_posId","type":"uint256","internalType":"uint256"}],"outputs":[],"stateMutability":"nonpayable"},{"type":"function","name":"createLiquidityPool","inputs":[{"name":"_token","type":"address","internalType":"address"}],"outputs":[{"name":"","type":"address","internalType":"address"}],"stateMutability":"nonpayable"},{"type":"function","name":"editPosition","inputs":[{"name":"_posId","type":"uint256","internalType":"uint256"},{"name":"_newLstopLossPrice","type":"uint256","internalType":"uint256"}],"outputs":[],"stateMutability":"nonpayable"},{"type":"function","name":"getLiquidablePositions","inputs":[],"outputs":[{"name":"","type":"uint256[]","internalType":"uint256[]"}],"stateMutability":"view"},{"type":"function","name":"getPositionParams","inputs":[{"name":"_posId","type":"uint256","internalType":"uint256"}],"outputs":[{"name":"baseToken_","type":"address","internalType":"address"},{"name":"quoteToken_","type":"address","internalType":"address"},{"name":"positionSize_","type":"uint128","internalType":"uint128"},{"name":"timestamp_","type":"uint64","internalType":"uint64"},{"name":"isShort_","type":"bool","internalType":"bool"},{"name":"leverage_","type":"uint8","internalType":"uint8"},{"name":"breakEvenLimit_","type":"uint256","internalType":"uint256"},{"name":"limitPrice_","type":"uint160","internalType":"uint160"},{"name":"stopLossPrice_","type":"uint256","internalType":"uint256"},{"name":"currentPnL_","type":"int128","internalType":"int128"},{"name":"collateralLeft_","type":"int128","internalType":"int128"}],"stateMutability":"view"},{"type":"function","name":"getTokenToLiquidityPools","inputs":[{"name":"_token","type":"address","internalType":"address"}],"outputs":[{"name":"","type":"address","internalType":"address"}],"stateMutability":"view"},{"type":"function","name":"getTraderPositions","inputs":[{"name":"_traderAdd","type":"address","internalType":"address"}],"outputs":[{"name":"","type":"uint256[]","internalType":"uint256[]"}],"stateMutability":"view"},{"type":"function","name":"initializeTokens","inputs":[{"name":"_tokens","type":"address[]","internalType":"address[]"},{"name":"_priceFeeds","type":"address[]","internalType":"address[]"}],"outputs":[{"name":"","type":"address[]","internalType":"address[]"}],"stateMutability":"nonpayable"},{"type":"function","name":"liquidatePosition","inputs":[{"name":"_posId","type":"uint256","internalType":"uint256"}],"outputs":[],"stateMutability":"nonpayable"},{"type":"function","name":"liquidatePositions","inputs":[{"name":"_posIds","type":"uint256[]","internalType":"uint256[]"}],"outputs":[],"stateMutability":"nonpayable"},{"type":"function","name":"openPosition","inputs":[{"name":"_token0","type":"address","internalType":"address"},{"name":"_token1","type":"address","internalType":"address"},{"name":"_fee","type":"uint24","internalType":"uint24"},{"name":"_isShort","type":"bool","internalType":"bool"},{"name":"_leverage","type":"uint8","internalType":"uint8"},{"name":"_amount","type":"uint128","internalType":"uint128"},{"name":"_limitPrice","type":"uint160","internalType":"uint160"},{"name":"_stopLossPrice","type":"uint256","internalType":"uint256"}],"outputs":[],"stateMutability":"nonpayable"},{"type":"function","name":"owner","inputs":[],"outputs":[{"name":"","type":"address","internalType":"address"}],"stateMutability":"view"},{"type":"function","name":"pause","inputs":[],"outputs":[],"stateMutability":"nonpayable"},{"type":"function","name":"paused","inputs":[],"outputs":[{"name":"","type":"bool","internalType":"bool"}],"stateMutability":"view"},{"type":"function","name":"renounceOwnership","inputs":[],"outputs":[],"stateMutability":"nonpayable"},{"type":"function","name":"setStalenessThreshold","inputs":[{"name":"_newThreshold","type":"uint256","internalType":"uint256"}],"outputs":[],"stateMutability":"nonpayable"},{"type":"function","name":"transferOwnership","inputs":[{"name":"newOwner","type":"address","internalType":"address"}],"outputs":[],"stateMutability":"nonpayable"},{"type":"function","name":"unpause","inputs":[],"outputs":[],"stateMutability":"nonpayable"},{"type":"event","name":"LiquidityAdded","inputs":[{"name":"poolAdd","type":"address","indexed":true,"internalType":"address"},{"name":"liquidityProvider","type":"address","indexed":true,"internalType":"address"},{"name":"assets","type":"uint256","indexed":false,"internalType":"uint256"}],"anonymous":false},{"type":"event","name":"LiquidityPoolCreated","inputs":[{"name":"poolAdd","type":"address","indexed":true,"internalType":"address"},{"name":"sender","type":"address","indexed":false,"internalType":"address"}],"anonymous":false},{"type":"event","name":"LiquidityRemoved","inputs":[{"name":"poolAdd","type":"address","indexed":true,"internalType":"address"},{"name":"liquidityProvider","type":"address","indexed":true,"internalType":"address"},{"name":"shares","type":"uint256","indexed":false,"internalType":"uint256"}],"anonymous":false},{"type":"event","name":"OwnershipTransferred","inputs":[{"name":"previousOwner","type":"address","indexed":true,"internalType":"address"},{"name":"newOwner","type":"address","indexed":true,"internalType":"address"}],"anonymous":false},{"type":"event","name":"Paused","inputs":[{"name":"account","type":"address","indexed":false,"internalType":"address"}],"anonymous":false},{"type":"event","name":"PositionClosed","inputs":[{"name":"posId","type":"uint256","indexed":true,"internalType":"uint256"},{"name":"trader","type":"address","indexed":true,"internalType":"address"}],"anonymous":false},{"type":"event","name":"PositionEdited","inputs":[{"name":"posId","type":"uint256","indexed":true,"internalType":"uint256"},{"name":"trader","type":"address","indexed":true,"internalType":"address"},{"name":"newStopLossPrice","type":"uint256","indexed":false,"internalType":"uint256"}],"anonymous":false},{"type":"event","name":"PositionLiquidated","inputs":[{"name":"posId","type":"uint256","indexed":true,"internalType":"uint256"},{"name":"liquidator","type":"address","indexed":true,"internalType":"address"}],"anonymous":false},{"type":"event","name":"PositionOpened","inputs":[{"name":"posId","type":"uint256","indexed":true,"internalType":"uint256"},{"name":"trader","type":"address","indexed":true,"internalType":"address"},{"name":"token0","type":"address","indexed":true,"internalType":"address"},{"name":"token1","type":"address","indexed":false,"internalType":"address"},{"name":"amount","type":"uint256","indexed":false,"internalType":"uint256"},{"name":"isShort","type":"bool","indexed":false,"internalType":"bool"},{"name":"leverage","type":"uint8","indexed":false,"internalType":"uint8"},{"name":"limitPrice","type":"uint256","indexed":false,"internalType":"uint256"},{"name":"stopLossPrice","type":"uint256","indexed":false,"internalType":"uint256"}],"anonymous":false},{"type":"event","name":"PriceFeedAdded","inputs":[{"name":"token","type":"address","indexed":false,"internalType":"address"},{"name":"priceFeed","type":"address","indexed":false,"internalType":"address"}],"anonymous":false},{"type":"event","name":"Unpaused","inputs":[{"name":"account","type":"address","indexed":false,"internalType":"address"}],"anonymous":false},{"type":"error","name":"EnforcedPause","inputs":[]},{"type":"error","name":"ExpectedPause","inputs":[]},{"type":"error","name":"OwnableInvalidOwner","inputs":[{"name":"owner","type":"address","internalType":"address"}]},{"type":"error","name":"OwnableUnauthorizedAccount","inputs":[{"name":"account","type":"address","internalType":"address"}]},{"type":"error","name":"SafeERC20FailedOperation","inputs":[{"name":"token","type":"address","internalType":"address"}]}],"bytecode":{"object":"0x60e0346200018e57601f6200176438819003918201601f19168301916001600160401b0383118484101762000192578084926080946040528339810103126200018e5760606200004f82620001a6565b916200005e60208201620001a6565b926200006d60408301620001a6565b6001600160a01b039390928491620000869101620001a6565b1693841562000176575f80546001600160a01b0319811687178255604051968694859390928416907f8be0079c531659141344cd1fd0a4f28419497f9722a3daafe3b4186f6b6457e09080a3166080521660a0521660c0526115a89081620001bc8239608051818181610327015281816104bf015281816105a20152818161068f0152818161089e0152818161098f01528181610a7d01528181610b7501528181610c3901528181610e4501528181610f0b015261107b015260a0518181816105d201528181610db201526110ae015260c0518181816101050152818161022f0152818161116c01526111cb0152f35b604051631e4fbdf760e01b81525f6004820152602490fd5b5f80fd5b634e487b7160e01b5f52604160045260245ffd5b51906001600160a01b03821682036200018e5756fe60806040526004361015610011575f80fd5b5f3560e01c80631a4f747114610f525780631ae11bb514610ee757806322e6bce814610e245780633c3e613f14610d735780633f4ba83a14610d045780634d452ec014610bff5780635c975abb14610bdb5780635fbbb2ff14610b35578063689c09df14610807578063715018a6146107b05780638456cb59146107505780638da5cb5b14610729578063a126d60114610671578063be3cafd214610559578063cdddd4e5146104a1578063e63490ce146102ed578063e8a97a3e146101fc578063f2fde38b1461017a5763fb01e7f2146100ea575f80fd5b34610176576020366003190112610176576101036113a1565b7f00000000000000000000000000000000000000000000000000000000000000006001600160a01b0316803b15610176575f8091602460405180948193637d80f3f960e11b835260043560048401525af1801561016b5761016057005b610169906113cc565b005b6040513d5f823e3d90fd5b5f80fd5b3461017657602036600319011261017657610193611375565b61019b6113a1565b6001600160a01b039081169081156101e4575f548260018060a01b03198216175f55167f8be0079c531659141344cd1fd0a4f28419497f9722a3daafe3b4186f6b6457e05f80a3005b604051631e4fbdf760e01b81525f6004820152602490fd5b3461017657604036600319011261017657610215611375565b61021d61138b565b6102256113a1565b61022d61145a565b7f00000000000000000000000000000000000000000000000000000000000000006001600160a01b031691823b1561017657604051637454bd1f60e11b81526001600160a01b03828116600483015283166024820152925f908490604490829084905af192831561016b577f2940c4bfb544a4b0a5b4262767947b0acc0b8f144197528463c4d476658cff79936102de575b50604080516001600160a01b03928316815292909116602083015290a1005b6102e7906113cc565b836102bf565b346101765760203660031901126101765760405163731a486760e11b81526004803590820152610160906001600160a01b039082816024817f000000000000000000000000000000000000000000000000000000000000000086165afa90811561016b575f925f905f805f805f925f945f975f995f9b6103c9575b508790816040519d168d521660208c01526001600160801b031660408b01526001600160401b031660608a01521515608089015260ff1660a088015260c08701521660e0850152610100840152600f0b610120830152600f0b610140820152f35b9b5050505050505050925050508282813d831161049a575b6103eb81836113df565b81010312610176576103fc8261150a565b6104086020840161150a565b926040810151926001600160801b03841684036101765760608201516001600160401b038116810361017657608083015180151581036101765760a084015160ff811681036101765760c08501519060e08601519285841684036101765761010087015194866104886101406104816101208c0161151e565b9a0161151e565b999b9a91929394959698999a90610368565b503d6103e1565b34610176576020366003190112610176576004356104bd61145a565b7f00000000000000000000000000000000000000000000000000000000000000006001600160a01b0316803b15610176576040516376f8996560e01b815233600482015260248101839052905f908290604490829084905af1801561016b5761054a575b5033907fa9ae24adea380a0aaa5f1e18bfe4427ac76c27d30a0159971c13f930c4d4e5a35f80a3005b610553906113cc565b81610521565b346101765760208060031936011261017657610573611375565b61057b6113a1565b61058361145a565b6040516302384d3d60e41b81526001600160a01b0382811660048301527f000000000000000000000000000000000000000000000000000000000000000081166024830152909183836044815f7f000000000000000000000000000000000000000000000000000000000000000087165af192831561016b575f9361063a575b507f3366ddec6d22baedae5089cdef368ab66cbf7cc63aec389ca0d4b54e447baa1b8483604051933385521692a260405191168152f35b9092508381813d831161066a575b61065281836113df565b81010312610176576106639061150a565b9184610603565b503d610648565b346101765760203660031901126101765760043561068d61145a565b7f00000000000000000000000000000000000000000000000000000000000000006001600160a01b0316803b1561017657604051630e85fc3f60e31b815233600482015260248101839052905f908290604490829084905af1801561016b5761071a575b5033907fcefaf961c5013063cf501ffd9f9382e9b9c4b15741ad032fe93d7e9c7c733b225f80a3005b610723906113cc565b816106f1565b34610176575f366003190112610176575f546040516001600160a01b039091168152602090f35b34610176575f366003190112610176576107686113a1565b61077061145a565b5f805460ff60a01b1916600160a01b1790556040513381527f62e78cea01bee320cd4e420270b5ea74000d11b0c9f74754ebdbfc544b05a25890602090a1005b34610176575f366003190112610176576107c86113a1565b5f80546001600160a01b0319811682556001600160a01b03167f8be0079c531659141344cd1fd0a4f28419497f9722a3daafe3b4186f6b6457e08280a3005b346101765761010036600319011261017657610821611375565b61082961138b565b906044359062ffffff82168203610176576064358015158103610176576084359060ff821682036101765760a435916001600160801b03831683036101765760c435916001600160a01b03831683036101765761088461145a565b60405163095ea7b360e01b60208201526001600160a01b037f00000000000000000000000000000000000000000000000000000000000000001660248201526001600160801b03851660448083019190915281526108e36064826113df565b80516020905f90838301826001600160a01b038b165af15f513d82610b10575b505015610a6b575b506040516366ca789b60e11b81523360048201526001600160a01b0386811660248301529788166044820181905262ffffff979097166064820152811515608482015260ff831660a48201526001600160801b03851660c482015283881660e480830191909152356101048201819052909790949060209089906101249082905f907f0000000000000000000000000000000000000000000000000000000000000000165af197881561016b575f98610a2a575b50604080519788526001600160801b0390911660208801529015159086015260ff1660608501526001600160a01b03908116608085015260a0840191909152169133917f83a891786cdb3b57216d67ecf5b97f5e950b694ab400f86019bd3fd4b7a1b9949060c090a4005b92919097506020833d602011610a63575b81610a48602093836113df565b81010312610176579151969091906001600160801b036109bf565b3d9150610a3b565b60405163095ea7b360e01b60208201527f00000000000000000000000000000000000000000000000000000000000000006001600160a01b031660248201525f604480830191909152815290608082016001600160401b03811183821017610afc57604052610af691610ae7906001600160a01b038916611400565b6001600160a01b038716611400565b8761090b565b634e487b7160e01b5f52604160045260245ffd5b909150610b2d57506001600160a01b0386163b15155b8980610903565b600114610b26565b346101765760203660031901126101765760245f610b51611375565b604051635fbbb2ff60e01b81526001600160a01b03918216600482015292839182907f0000000000000000000000000000000000000000000000000000000000000000165afa801561016b57610bb5915f91610bb9575b506040519182918261133b565b0390f35b610bd591503d805f833e610bcd81836113df565b810190611491565b82610ba8565b34610176575f36600319011261017657602060ff5f5460a01c166040519015158152f35b34610176576020366003190112610176576004356001600160401b03811161017657610c2f90369060040161130b565b610c3761145a565b7f00000000000000000000000000000000000000000000000000000000000000006001600160a01b0316915f5b828110610c6d57005b610c7881848461154e565b3590843b15610176576040516376f8996560e01b81523360048201526024810192909252610cba915f81604481838a5af19081610cf5575b50610cbf5761152c565b610c64565b33610ccb82868661154e565b357fa9ae24adea380a0aaa5f1e18bfe4427ac76c27d30a0159971c13f930c4d4e5a35f80a361152c565b610cfe906113cc565b86610cb0565b34610176575f36600319011261017657610d1c6113a1565b5f5460ff8160a01c1615610d615760ff60a01b19165f556040513381527f5db9ee0a495bf2e6ff9c91a7834c1ba4fdd244a5e8aa4e537bd38aeae4b073aa90602090a1005b604051638dfc202b60e01b8152600490fd5b346101765760208060031936011261017657610d8d611375565b604051633c3e613f60e01b81526001600160a01b0391821660048201529082826024817f000000000000000000000000000000000000000000000000000000000000000085165afa91821561016b575f92610ded575b5060405191168152f35b9091508281813d8311610e1d575b610e0581836113df565b8101031261017657610e169061150a565b9083610de3565b503d610dfb565b3461017657604036600319011261017657602435600435610e4361145a565b7f00000000000000000000000000000000000000000000000000000000000000006001600160a01b0316803b15610176575f8091606460405180948193631dc04a5f60e21b83523360048401528760248401528860448401525af1801561016b57610ed8575b506040519182527fed41acd3ce45cae0dceb683570aa2438665ef44a968b3bfc041dcbc40f1d0c9c60203393a3005b610ee1906113cc565b82610ea9565b34610176575f36600319011261017657604051631ae11bb560e01b81525f816004817f00000000000000000000000000000000000000000000000000000000000000006001600160a01b03165afa801561016b57610bb5915f91610bb957506040519182918261133b565b34610176576040366003190112610176576001600160401b0360043581811161017657610f8390369060040161130b565b9160243590811161017657610f9c90369060040161130b565b9091610fa66113a1565b610fae61145a565b8184036112ad57610fbe8461147a565b93610fcc60405195866113df565b808552601f19610fdb8261147a565b013660208701375f5b81811061103957856040518091602082016020835281518091526020604084019201905f5b818110611017575050500390f35b82516001600160a01b0316845285945060209384019390920191600101611009565b61104c61104782848661154e565b61155e565b6110546113a1565b61105c61145a565b6040516302384d3d60e41b81526001600160a01b0380831660048301527f000000000000000000000000000000000000000000000000000000000000000016602482015290602082806044810103815f7f00000000000000000000000000000000000000000000000000000000000000006001600160a01b03165af191821561016b575f92611271575b506040513381526001600160a01b03909116907f3366ddec6d22baedae5089cdef368ab66cbf7cc63aec389ca0d4b54e447baa1b90602090a2865182101561125d576001600160a01b0316600582901b87016020015261114a61104782848661154e565b9061115961104782878961154e565b916111626113a1565b61116a61145a565b7f00000000000000000000000000000000000000000000000000000000000000006001600160a01b03163b1561017657604051637454bd1f60e11b81526001600160a01b03808316600483015284166024820152925f8480604481010381837f00000000000000000000000000000000000000000000000000000000000000006001600160a01b03165af191821561016b57611249947f2940c4bfb544a4b0a5b4262767947b0acc0b8f144197528463c4d476658cff799361124e575b50604080516001600160a01b03928316815292909116602083015290a161152c565b610fe4565b611257906113cc565b8a611227565b634e487b7160e01b5f52603260045260245ffd5b9091506020813d6020116112a5575b8161128d602093836113df565b810103126101765761129e9061150a565b90886110e6565b3d9150611280565b60405162461bcd60e51b815260206004820152603060248201527f546f6b656e20616e642050726963654665656420617272617973206d7573742060448201526f0d0c2ecca40e6c2daca40d8cadccee8d60831b6064820152608490fd5b9181601f84011215610176578235916001600160401b038311610176576020808501948460051b01011161017657565b602090816040818301928281528551809452019301915f5b828110611361575050505090565b835185529381019392810192600101611353565b600435906001600160a01b038216820361017657565b602435906001600160a01b038216820361017657565b5f546001600160a01b031633036113b457565b60405163118cdaa760e01b8152336004820152602490fd5b6001600160401b038111610afc57604052565b90601f801991011681019081106001600160401b03821117610afc57604052565b905f602091828151910182855af11561016b575f513d61145157506001600160a01b0381163b155b61142f5750565b604051635274afe760e01b81526001600160a01b039091166004820152602490fd5b60011415611428565b60ff5f5460a01c1661146857565b60405163d93c066560e01b8152600490fd5b6001600160401b038111610afc5760051b60200190565b6020908181840312610176578051906001600160401b03821161017657019180601f840112156101765782516114c68161147a565b936114d460405195866113df565b818552838086019260051b820101928311610176578301905b8282106114fb575050505090565b815181529083019083016114ed565b51906001600160a01b038216820361017657565b519081600f0b820361017657565b5f19811461153a5760010190565b634e487b7160e01b5f52601160045260245ffd5b919081101561125d5760051b0190565b356001600160a01b0381168103610176579056fea264697066735822122011747483cb7faf6a645c91be619e1761eda61a1978e58b3dfcf7469d2bf6f4e664736f6c63430008140033","linkReferences":{}},"methodIdentifiers":{"addPriceFeed(address,address)":"e8a97a3e","closePosition(uint256)":"a126d601","createLiquidityPool(address)":"be3cafd2","editPosition(uint256,uint256)":"22e6bce8","getLiquidablePositions()":"1ae11bb5","getPositionParams(uint256)":"e63490ce","getTokenToLiquidityPools(address)":"3c3e613f","getTraderPositions(address)":"5fbbb2ff","initializeTokens(address[],address[])":"1a4f7471","liquidatePosition(uint256)":"cdddd4e5","liquidatePositions(uint256[])":"4d452ec0","openPosition(address,address,uint24,bool,uint8,uint128,uint160,uint256)":"689c09df","owner()":"8da5cb5b","pause()":"8456cb59","paused()":"5c975abb","renounceOwnership()":"715018a6","setStalenessThreshold(uint256)":"fb01e7f2","transferOwnership(address)":"f2fde38b","unpause()":"3f4ba83a"},"id":47}