{"abi":[{"type":"constructor","inputs":[{"name":"_priceFeed","type":"address","internalType":"address"},{"name":"_liquidityPoolFactory","type":"address","internalType":"address"},{"name":"_liquidityPoolFactoryUniswapV3","type":"address","internalType":"address"},{"name":"_uniswapV3Helper","type":"address","internalType":"address"},{"name":"_treasure","type":"address","internalType":"address"},{"name":"_feeManager","type":"address","internalType":"address"}],"stateMutability":"nonpayable"},{"type":"function","name":"LIQUIDATION_THRESHOLD","inputs":[],"outputs":[{"name":"","type":"uint256","internalType":"uint256"}],"stateMutability":"view"},{"type":"function","name":"LIQUIDITY_POOL_FACTORY","inputs":[],"outputs":[{"name":"","type":"address","internalType":"contract LiquidityPoolFactory"}],"stateMutability":"view"},{"type":"function","name":"LIQUIDITY_POOL_FACTORY_UNISWAP_V3","inputs":[],"outputs":[{"name":"","type":"address","internalType":"address"}],"stateMutability":"view"},{"type":"function","name":"MAX_LEVERAGE","inputs":[],"outputs":[{"name":"","type":"uint256","internalType":"uint256"}],"stateMutability":"view"},{"type":"function","name":"MIN_POSITION_AMOUNT_IN_USD","inputs":[],"outputs":[{"name":"","type":"uint256","internalType":"uint256"}],"stateMutability":"view"},{"type":"function","name":"PRICE_FEED","inputs":[],"outputs":[{"name":"","type":"address","internalType":"contract PriceFeedL1"}],"stateMutability":"view"},{"type":"function","name":"SLIPPAGE_TOLERANCE","inputs":[],"outputs":[{"name":"","type":"uint256","internalType":"uint256"}],"stateMutability":"view"},{"type":"function","name":"UNISWAP_V3_HELPER","inputs":[],"outputs":[{"name":"","type":"address","internalType":"contract UniswapV3Helper"}],"stateMutability":"view"},{"type":"function","name":"USD_DECIMALS","inputs":[],"outputs":[{"name":"","type":"uint256","internalType":"uint256"}],"stateMutability":"view"},{"type":"function","name":"approve","inputs":[{"name":"to","type":"address","internalType":"address"},{"name":"tokenId","type":"uint256","internalType":"uint256"}],"outputs":[],"stateMutability":"nonpayable"},{"type":"function","name":"balanceOf","inputs":[{"name":"owner","type":"address","internalType":"address"}],"outputs":[{"name":"","type":"uint256","internalType":"uint256"}],"stateMutability":"view"},{"type":"function","name":"calculatePositionPnL","inputs":[{"name":"_posId","type":"uint256","internalType":"uint256"}],"outputs":[{"name":"currentPnL_","type":"int128","internalType":"int128"},{"name":"collateralLeft_","type":"int128","internalType":"int128"},{"name":"positionSize_","type":"uint128","internalType":"uint128"},{"name":"breakEvenLimit_","type":"uint256","internalType":"uint256"},{"name":"isShort_","type":"bool","internalType":"bool"},{"name":"leverage_","type":"uint8","internalType":"uint8"}],"stateMutability":"view"},{"type":"function","name":"closePosition","inputs":[{"name":"_trader","type":"address","internalType":"address"},{"name":"_posId","type":"uint256","internalType":"uint256"}],"outputs":[],"stateMutability":"nonpayable"},{"type":"function","name":"editPosition","inputs":[{"name":"_trader","type":"address","internalType":"address"},{"name":"_posId","type":"uint256","internalType":"uint256"},{"name":"_newStopLossPrice","type":"uint256","internalType":"uint256"}],"outputs":[],"stateMutability":"nonpayable"},{"type":"function","name":"feeManager","inputs":[],"outputs":[{"name":"","type":"address","internalType":"contract FeeManager"}],"stateMutability":"view"},{"type":"function","name":"getApproved","inputs":[{"name":"tokenId","type":"uint256","internalType":"uint256"}],"outputs":[{"name":"","type":"address","internalType":"address"}],"stateMutability":"view"},{"type":"function","name":"getLiquidablePositions","inputs":[],"outputs":[{"name":"","type":"uint256[]","internalType":"uint256[]"}],"stateMutability":"view"},{"type":"function","name":"getPositionParams","inputs":[{"name":"_posId","type":"uint256","internalType":"uint256"}],"outputs":[{"name":"baseToken_","type":"address","internalType":"address"},{"name":"quoteToken_","type":"address","internalType":"address"},{"name":"positionSize_","type":"uint128","internalType":"uint128"},{"name":"timestamp_","type":"uint64","internalType":"uint64"},{"name":"isShort_","type":"bool","internalType":"bool"},{"name":"leverage_","type":"uint8","internalType":"uint8"},{"name":"breakEvenLimit_","type":"uint256","internalType":"uint256"},{"name":"limitPrice_","type":"uint160","internalType":"uint160"},{"name":"stopLossPrice_","type":"uint256","internalType":"uint256"},{"name":"currentPnL_","type":"int128","internalType":"int128"},{"name":"collateralLeft_","type":"int128","internalType":"int128"}],"stateMutability":"view"},{"type":"function","name":"getPositionState","inputs":[{"name":"_posId","type":"uint256","internalType":"uint256"}],"outputs":[{"name":"","type":"uint8","internalType":"enum PositionState"}],"stateMutability":"view"},{"type":"function","name":"getTraderPositions","inputs":[{"name":"_traderAdd","type":"address","internalType":"address"}],"outputs":[{"name":"","type":"uint256[]","internalType":"uint256[]"}],"stateMutability":"view"},{"type":"function","name":"isApprovedForAll","inputs":[{"name":"owner","type":"address","internalType":"address"},{"name":"operator","type":"address","internalType":"address"}],"outputs":[{"name":"","type":"bool","internalType":"bool"}],"stateMutability":"view"},{"type":"function","name":"liquidatePosition","inputs":[{"name":"_liquidator","type":"address","internalType":"address"},{"name":"_posId","type":"uint256","internalType":"uint256"}],"outputs":[],"stateMutability":"nonpayable"},{"type":"function","name":"name","inputs":[],"outputs":[{"name":"","type":"string","internalType":"string"}],"stateMutability":"view"},{"type":"function","name":"onERC721Received","inputs":[{"name":"","type":"address","internalType":"address"},{"name":"","type":"address","internalType":"address"},{"name":"","type":"uint256","internalType":"uint256"},{"name":"","type":"bytes","internalType":"bytes"}],"outputs":[{"name":"","type":"bytes4","internalType":"bytes4"}],"stateMutability":"pure"},{"type":"function","name":"openLongPosition","inputs":[{"name":"_trader","type":"address","internalType":"address"},{"name":"_token0","type":"address","internalType":"address"},{"name":"_token1","type":"address","internalType":"address"},{"name":"_fee","type":"uint24","internalType":"uint24"},{"name":"_leverage","type":"uint8","internalType":"uint8"},{"name":"_amount","type":"uint128","internalType":"uint128"},{"name":"_limitPrice","type":"uint160","internalType":"uint160"},{"name":"_stopLossPrice","type":"uint256","internalType":"uint256"}],"outputs":[{"name":"","type":"uint256","internalType":"uint256"}],"stateMutability":"nonpayable"},{"type":"function","name":"openPositions","inputs":[{"name":"","type":"uint256","internalType":"uint256"}],"outputs":[{"name":"initialPrice","type":"uint256","internalType":"uint256"},{"name":"totalBorrow","type":"uint256","internalType":"uint256"},{"name":"breakEvenLimit","type":"uint256","internalType":"uint256"},{"name":"stopLossPrice","type":"uint256","internalType":"uint256"},{"name":"v3Pool","type":"address","internalType":"address"},{"name":"limitPrice","type":"uint160","internalType":"uint160"},{"name":"baseToken","type":"address","internalType":"contract IERC20"},{"name":"quoteToken","type":"address","internalType":"contract IERC20"},{"name":"collateralSize","type":"uint128","internalType":"uint128"},{"name":"positionSize","type":"uint128","internalType":"uint128"},{"name":"liquidationReward","type":"uint128","internalType":"uint128"},{"name":"timestamp","type":"uint64","internalType":"uint64"},{"name":"blockNumber","type":"uint64","internalType":"uint64"},{"name":"isShort","type":"bool","internalType":"bool"},{"name":"isBaseToken0","type":"bool","internalType":"bool"},{"name":"leverage","type":"uint8","internalType":"uint8"},{"name":"initialToken","type":"address","internalType":"contract IERC20"}],"stateMutability":"view"},{"type":"function","name":"openShortPosition","inputs":[{"name":"_trader","type":"address","internalType":"address"},{"name":"_token0","type":"address","internalType":"address"},{"name":"_token1","type":"address","internalType":"address"},{"name":"_fee","type":"uint24","internalType":"uint24"},{"name":"_leverage","type":"uint8","internalType":"uint8"},{"name":"_amount","type":"uint128","internalType":"uint128"},{"name":"_limitPrice","type":"uint160","internalType":"uint160"},{"name":"_stopLossPrice","type":"uint256","internalType":"uint256"}],"outputs":[{"name":"","type":"uint256","internalType":"uint256"}],"stateMutability":"nonpayable"},{"type":"function","name":"owner","inputs":[],"outputs":[{"name":"","type":"address","internalType":"address"}],"stateMutability":"view"},{"type":"function","name":"ownerOf","inputs":[{"name":"tokenId","type":"uint256","internalType":"uint256"}],"outputs":[{"name":"","type":"address","internalType":"address"}],"stateMutability":"view"},{"type":"function","name":"pause","inputs":[],"outputs":[],"stateMutability":"nonpayable"},{"type":"function","name":"paused","inputs":[],"outputs":[{"name":"","type":"bool","internalType":"bool"}],"stateMutability":"view"},{"type":"function","name":"posId","inputs":[],"outputs":[{"name":"","type":"uint256","internalType":"uint256"}],"stateMutability":"view"},{"type":"function","name":"renounceOwnership","inputs":[],"outputs":[],"stateMutability":"nonpayable"},{"type":"function","name":"safeTransferFrom","inputs":[{"name":"from","type":"address","internalType":"address"},{"name":"to","type":"address","internalType":"address"},{"name":"tokenId","type":"uint256","internalType":"uint256"}],"outputs":[],"stateMutability":"nonpayable"},{"type":"function","name":"safeTransferFrom","inputs":[{"name":"from","type":"address","internalType":"address"},{"name":"to","type":"address","internalType":"address"},{"name":"tokenId","type":"uint256","internalType":"uint256"},{"name":"data","type":"bytes","internalType":"bytes"}],"outputs":[],"stateMutability":"nonpayable"},{"type":"function","name":"setApprovalForAll","inputs":[{"name":"operator","type":"address","internalType":"address"},{"name":"approved","type":"bool","internalType":"bool"}],"outputs":[],"stateMutability":"nonpayable"},{"type":"function","name":"supportsInterface","inputs":[{"name":"interfaceId","type":"bytes4","internalType":"bytes4"}],"outputs":[{"name":"","type":"bool","internalType":"bool"}],"stateMutability":"view"},{"type":"function","name":"symbol","inputs":[],"outputs":[{"name":"","type":"string","internalType":"string"}],"stateMutability":"view"},{"type":"function","name":"tokenURI","inputs":[{"name":"tokenId","type":"uint256","internalType":"uint256"}],"outputs":[{"name":"","type":"string","internalType":"string"}],"stateMutability":"view"},{"type":"function","name":"totalNbPos","inputs":[],"outputs":[{"name":"","type":"uint256","internalType":"uint256"}],"stateMutability":"view"},{"type":"function","name":"transferFrom","inputs":[{"name":"from","type":"address","internalType":"address"},{"name":"to","type":"address","internalType":"address"},{"name":"tokenId","type":"uint256","internalType":"uint256"}],"outputs":[],"stateMutability":"nonpayable"},{"type":"function","name":"transferOwnership","inputs":[{"name":"newOwner","type":"address","internalType":"address"}],"outputs":[],"stateMutability":"nonpayable"},{"type":"function","name":"treasure","inputs":[],"outputs":[{"name":"","type":"address","internalType":"address"}],"stateMutability":"view"},{"type":"function","name":"unpause","inputs":[],"outputs":[],"stateMutability":"nonpayable"},{"type":"event","name":"Approval","inputs":[{"name":"owner","type":"address","indexed":true,"internalType":"address"},{"name":"approved","type":"address","indexed":true,"internalType":"address"},{"name":"tokenId","type":"uint256","indexed":true,"internalType":"uint256"}],"anonymous":false},{"type":"event","name":"ApprovalForAll","inputs":[{"name":"owner","type":"address","indexed":true,"internalType":"address"},{"name":"operator","type":"address","indexed":true,"internalType":"address"},{"name":"approved","type":"bool","indexed":false,"internalType":"bool"}],"anonymous":false},{"type":"event","name":"OwnershipTransferred","inputs":[{"name":"previousOwner","type":"address","indexed":true,"internalType":"address"},{"name":"newOwner","type":"address","indexed":true,"internalType":"address"}],"anonymous":false},{"type":"event","name":"Paused","inputs":[{"name":"account","type":"address","indexed":false,"internalType":"address"}],"anonymous":false},{"type":"event","name":"Transfer","inputs":[{"name":"from","type":"address","indexed":true,"internalType":"address"},{"name":"to","type":"address","indexed":true,"internalType":"address"},{"name":"tokenId","type":"uint256","indexed":true,"internalType":"uint256"}],"anonymous":false},{"type":"event","name":"Unpaused","inputs":[{"name":"account","type":"address","indexed":false,"internalType":"address"}],"anonymous":false},{"type":"error","name":"ERC721IncorrectOwner","inputs":[{"name":"sender","type":"address","internalType":"address"},{"name":"tokenId","type":"uint256","internalType":"uint256"},{"name":"owner","type":"address","internalType":"address"}]},{"type":"error","name":"ERC721InsufficientApproval","inputs":[{"name":"operator","type":"address","internalType":"address"},{"name":"tokenId","type":"uint256","internalType":"uint256"}]},{"type":"error","name":"ERC721InvalidApprover","inputs":[{"name":"approver","type":"address","internalType":"address"}]},{"type":"error","name":"ERC721InvalidOperator","inputs":[{"name":"operator","type":"address","internalType":"address"}]},{"type":"error","name":"ERC721InvalidOwner","inputs":[{"name":"owner","type":"address","internalType":"address"}]},{"type":"error","name":"ERC721InvalidReceiver","inputs":[{"name":"receiver","type":"address","internalType":"address"}]},{"type":"error","name":"ERC721InvalidSender","inputs":[{"name":"sender","type":"address","internalType":"address"}]},{"type":"error","name":"ERC721NonexistentToken","inputs":[{"name":"tokenId","type":"uint256","internalType":"uint256"}]},{"type":"error","name":"EnforcedPause","inputs":[]},{"type":"error","name":"ExpectedPause","inputs":[]},{"type":"error","name":"OwnableInvalidOwner","inputs":[{"name":"owner","type":"address","internalType":"address"}]},{"type":"error","name":"OwnableUnauthorizedAccount","inputs":[{"name":"account","type":"address","internalType":"address"}]},{"type":"error","name":"Positions__POSITION_NOT_LIQUIDABLE_YET","inputs":[{"name":"_posId","type":"uint256","internalType":"uint256"}]},{"type":"error","name":"Positions__POSITION_NOT_OPEN","inputs":[{"name":"_posId","type":"uint256","internalType":"uint256"}]},{"type":"error","name":"Positions__POSITION_NOT_OWNED","inputs":[{"name":"_trader","type":"address","internalType":"address"},{"name":"_posId","type":"uint256","internalType":"uint256"}]},{"type":"error","name":"Positions__STOP_LOSS_ORDER_PRICE_NOT_CONCISTENT","inputs":[{"name":"_stopLossPrice","type":"uint256","internalType":"uint256"}]},{"type":"error","name":"Positions__TOKEN_RECEIVED_NOT_CONCISTENT","inputs":[{"name":"tokenBorrowed","type":"address","internalType":"address"},{"name":"tokenReceived","type":"address","internalType":"address"},{"name":"state","type":"uint256","internalType":"uint256"}]},{"type":"error","name":"ReentrancyGuardReentrantCall","inputs":[]},{"type":"error","name":"SafeERC20FailedOperation","inputs":[{"name":"token","type":"address","internalType":"address"}]}],"bytecode":{"object":"0x610100346200055457601f620054d138819003918201601f19168301916001600160401b03831184841017620004715780849260c09460405283398101031262000554576200004e8162000578565b9060206200005e81830162000578565b906200006d6040840162000578565b926200007c6060820162000578565b936200009960a0620000916080850162000578565b930162000578565b92620000a462000558565b600b81526a0aadcd2e6eec2e05a9a82b60ab1b82820152620000c562000558565b60068152650aa9c929a82b60d31b83820152815190916001600160401b03821162000471575f5490600182811c9216801562000549575b85831014620004525781601f849311620004f9575b508490601f831160011462000491575f9262000485575b50508160011b915f199060031b1c1916175f555b8051916001600160401b038311620004715760015491600183811c9316801562000466575b82841014620004525782601f859411620003fc575b5081601f84116001146200039057505f9262000384575b50508160011b915f199060031b1c1916176001555b33156200036c57600680546001600160a01b0319808216339081179093556040519890976001600160a01b03978895919486948593919084167f8be0079c531659141344cd1fd0a4f28419497f9722a3daafe3b4186f6b6457e05f80a360016007819055600a5560e052166080521660a0521660c05260088054610100600160a81b03191691811b610100600160a81b0316919091179055600980549093169116179055614f4390816200058e82396080518181816102bc0152818161095a015281816114c4015281816128270152613640015260a05181818161040f0152818161050a0152818161098301528181610dfb01528181611098015281816113c4015281816114ed0152818161255b0152818161297101528181613ae801528181613eb20152818161408b015281816145f10152614a08015260c0518181816117a1015281816124c90152818161263b015281816128c801528181612a1e01528181612edd0152818161313b01528181613a6d01528181613bb101528181613c9601528181613e3701528181613f7601528181614010015281816141500152818161422501528181614337015261493f015260e05181818161087501528181610932015261149c0152f35b604051631e4fbdf760e01b81525f6004820152602490fd5b015190505f806200018d565b60015f9081528181209450601f198616915b828210620003e3575050908460019594939210620003ca575b505050811b01600155620001a2565b01515f1960f88460031b161c191690555f8080620003bb565b80600186978294978701518155019601940190620003a2565b9091925060015f52825f20601f850160051c81019184861062000447575b90601f86959493920160051c01905b81811062000438575062000176565b5f815585945060010162000429565b90915081906200041a565b634e487b7160e01b5f52602260045260245ffd5b92607f169262000161565b634e487b7160e01b5f52604160045260245ffd5b015190505f8062000128565b5f8080528681209350601f198516905b87828210620004e2575050908460019594939210620004c9575b505050811b015f556200013c565b01515f1960f88460031b161c191690555f8080620004bb565b6001859682939686015181550195019301620004a1565b9091505f8052845f20601f840160051c810186851062000541575b90849392915b601f830160051c820181106200053257505062000111565b5f81558594506001016200051a565b508062000514565b91607f1691620000fc565b5f80fd5b60408051919082016001600160401b038111838210176200047157604052565b51906001600160a01b0382168203620005545756fe60a0806040526004361015610012575f80fd5b5f3560e01c90816301ffc9a71461198b5750806306fdde03146118ed578063081812fc146118b1578063095ea7b3146117d0578063124b15831461178c578063150b7a02146117235780631a055c2b146117015780631ae11bb51461165c57806323b872dd146116455780632d8f83721461140e5780632f6ee695146113f357806331eb318a146113af5780633f4ba83a1461134657806342842e0e1461131f5780634c203786146113035780635c975abb146112e15780635fbbb2ff1461121b57806362ad94881461103f5780636352211e1461100f57806370a0823114610fe4578063715018a614610f89578063742fe1f814610f3c57806376f8996514610ecf5780637701297c14610d635780637841cd9114610d465780638456cb5914610ced5780638da5cb5b14610cc557806390a8ae9b14610ca957806395d89b4114610bc15780639b45ec9714610ba6578063a22cb46514610afc578063aed383ac146108a4578063b2d4c9d914610860578063b88d4fde146107d7578063c87b56dd14610782578063d0fb02031461075a578063d2ec002514610651578063e520fc7e14610628578063e63490ce14610380578063e985e9c51461032e578063eb29dc5e146102eb578063ef3316ce146102a7578063f2fde38b146102215763f5d13da014610200575f80fd5b3461021d575f36600319011261021d576020600a54604051908152f35b5f80fd5b3461021d57602036600319011261021d5761023a611a34565b610242611c3e565b6001600160a01b0390811690811561028f57600680546001600160a01b031981168417909155167f8be0079c531659141344cd1fd0a4f28419497f9722a3daafe3b4186f6b6457e05f80a3005b604051631e4fbdf760e01b81525f6004820152602490fd5b3461021d575f36600319011261021d576040517f00000000000000000000000000000000000000000000000000000000000000006001600160a01b03168152602090f35b3461021d57602036600319011261021d57610307600435614573565b604051600782101561031a576020918152f35b634e487b7160e01b5f52602160045260245ffd5b3461021d57604036600319011261021d57610347611a34565b61034f611a4a565b9060018060a01b038091165f52600560205260405f2091165f52602052602060ff60405f2054166040519015158152f35b3461021d57602036600319011261021d576004355f52600c60205261040b60405f2060018060a01b036006820154169060018060a01b0360078201541690600881015490600981015490600a8101549060028101549060018060a01b036005820154169260038201549482546020898b6040519d8e92839263ad1c481b60e01b845260048401612205565b03817f00000000000000000000000000000000000000000000000000000000000000006001600160a01b03165afa9a8b156105e6575f9b6105f1575b5060048481015460405163ddca3f4360e01b815293929160209185919082906001600160a01b03165afa9081156105e6576101609c8a62ffffff61054d9460ff996001600160401b03985f926105a9575b50600101546009546001600160a01b0316936001600160801b03916104be600435611f67565b96604051986104cc8a611b9c565b895260208901526040880152166060860152601089901c8a166080860152898916151560a08601526001600160a01b0360188a901c811660c08701527f0000000000000000000000000000000000000000000000000000000000000000811660e0870152911661010085015261012084019190915216610140820152614ca8565b9760208951990151996040519b8c5260208c015260801c60408b015260801c1660608901528181161515608089015260101c1660a087015260c086015260e0850152610100840152600f0b610120830152600f0b610140820152f35b6001600160801b039192506105d760019160203d6020116105df575b6105cf8183611c02565b810190612151565b929150610498565b503d6105c5565b6040513d5f823e3d90fd5b91909a506020823d602011610620575b8161060e60209383611c02565b8101031261021d579051996004610447565b3d9150610601565b3461021d575f36600319011261021d5760088054604051911c6001600160a01b03168152602090f35b3461021d57602036600319011261021d576004355f52600c60205261022060405f20805490600181015460028201549160038101549260018060a01b0393846004840154168560058501541686600686015416918760078701541693600887015495600a6009890154980154986040519b8c5260208c015260408b015260608a0152608089015260a088015260c087015260e08601526001600160801b039081811661010087015260801c61012086015281166101408501526001600160401b038160801c1661016085015260c01c61018084015260ff811615156101a084015260ff8160081c1615156101c084015260ff8160101c166101e084015260181c16610200820152f35b3461021d575f36600319011261021d576009546040516001600160a01b039091168152602090f35b3461021d57602036600319011261021d5761079e600435611f67565b505f6040516107ac81611be7565b526107d36040516107bc81611be7565b5f81526040519182916020835260208301906119f6565b0390f35b3461021d57608036600319011261021d576107f0611a34565b6107f8611a4a565b606435916001600160401b03831161021d573660238401121561021d5782600401359161082483611c23565b926108326040519485611c02565b808452366024828701011161021d576020815f92602461085e9801838801378501015260443591611e3e565b005b3461021d575f36600319011261021d576040517f00000000000000000000000000000000000000000000000000000000000000006001600160a01b03168152602090f35b3461021d576109dc60a06108b736611acf565b92946108ca999799989192949698611c3e565b6108d261212e565b6108da611fee565b604051906108e782611b50565b5f196001841b018a81168352908116602083015262ffffff881660408084019190915260ff881660608401526001600160801b03871660808401528482168385015260c083018690527f0000000000000000000000000000000000000000000000000000000000000000821660e08401527f000000000000000000000000000000000000000000000000000000000000000082166101008401527f00000000000000000000000000000000000000000000000000000000000000009091166101208301526005610140830152670de0b6b3a76400006101608301525163c433f0e160e01b815297889182919060048301612095565b038173__$a76c3f6da63d6e520725e3888dec961ed1$__5af49586156105e6575f96610acc575b506020860151604080880151885160808a01516060909a015192519b9215159a6001600160a01b039a8b169a91999282169894909116969392610a458d611b80565b6001600160a01b039081168d5290811660208d015262ffffff9190911660408c015260ff9190911660608b01526001600160801b039190911660808a01521660a088015260c087015260e08601526101008501526101208401526101408301526101608201526001610180820152610abc90612275565b6001600755604051908152602090f35b610aee91965060a03d8111610af5575b610ae68183611c02565b810190612020565b9488610a03565b503d610adc565b3461021d57604036600319011261021d57610b15611a34565b602435908115159081830361021d576001600160a01b0316918215610b8d57610b5f90335f52600560205260405f20845f5260205260405f209060ff801983541691151516179055565b6040519081527f17307eab39ab6107e8899845ad3d59bd9653f200f220920489ca2b5937696c3160203392a3005b604051630b61174360e31b815260048101849052602490fd5b3461021d575f36600319011261021d57602060405160058152f35b3461021d575f36600319011261021d576040515f60019081549182811c91818416918215610c9f575b6020948585108414610c8b5785879486865291825f14610c6b575050600114610c2f575b50610c1b92500383611c02565b6107d36040519282849384528301906119f6565b849150805f52815f20905f915b858310610c53575050610c1b935082010185610c0e565b80548389018501528794508693909201918101610c3c565b60ff191685820152610c1b95151560051b8501019250879150610c0e9050565b634e487b7160e01b5f52602260045260245ffd5b92607f1692610bea565b3461021d575f36600319011261021d5760206040516103e88152f35b3461021d575f36600319011261021d576006546040516001600160a01b039091168152602090f35b3461021d575f36600319011261021d57610d05611c3e565b610d0d611fee565b600160ff1960085416176008557f62e78cea01bee320cd4e420270b5ea74000d11b0c9f74754ebdbfc544b05a2586020604051338152a1005b3461021d575f36600319011261021d576020600b54604051908152f35b3461021d57606036600319011261021d57610d7c611a34565b60443590602435610d8b611c3e565b610d9481611f67565b6001600160a01b03929083821690841603610ea45750610db261212e565b610dba611fee565b5f52600c602052610df7602060405f20928060068501541690806007860154169160405180958194829363ad1c481b60e01b845260048401612205565b03917f0000000000000000000000000000000000000000000000000000000000000000165afa9081156105e6575f91610e73575b50600a82015460ff1615610e65578210610e4c576003905b01556001600755005b6040516371af14eb60e01b815260048101839052602490fd5b8211610e4c57600390610e43565b90506020813d8211610e9c575b81610e8d60209383611c02565b8101031261021d575183610e2b565b3d9150610e80565b60405163c8bbf6d360e01b81526001600160a01b039190911660048201526024810191909152604490fd5b3461021d57604036600319011261021d57610ee8611a34565b602435610ef3611c3e565b610efc81614573565b600781101561031a57600214610f2457610f1d91610f1861212e565b61342f565b6001600755005b6024906040519063b9b3374360e01b82526004820152fd5b3461021d57604036600319011261021d57610f55611a34565b60243590610f61611c3e565b610f6a82611f67565b6001600160a01b03828116911603610ea45790610f1d91610f1861212e565b3461021d575f36600319011261021d57610fa1611c3e565b600680546001600160a01b031981169091555f906001600160a01b03167f8be0079c531659141344cd1fd0a4f28419497f9722a3daafe3b4186f6b6457e08280a3005b3461021d57602036600319011261021d576020611007611002611a34565b611c6a565b604051908152f35b3461021d57602036600319011261021d57602061102d600435611f67565b6040516001600160a01b039091168152f35b3461021d5760208060031936011261021d5760043590815f52600c815260405f2060088101546002820154600a830154916110d460ff8460101c169480549060018060a01b039889600683015416898b6007850154168c7f00000000000000000000000000000000000000000000000000000000000000001692604051978892839263ad1c481b60e01b845260048401612205565b0381845afa9485156105e6575f956111eb575b506004908a8c83860154166040519384809263ddca3f4360e01b82525afa9081156105e65760c09c611199978d9662ffffff955f956111c9575b5060010154908260095416965f52600288528260405f20541697604051996111488b611b9c565b8a5289015260408801526001600160801b03891660608801528b608088015260ff8b1615159a8b60a089015260181c168d87015260e086015216610100840152610120830152610140820152614ca8565b9480865196015160405196600f0b8752600f0b9086015260801c60408501526060840152608083015260a0820152f35b60019195506111e490893d8b116105df576105cf8183611c02565b9490611121565b9094508981813d8311611214575b6112038183611c02565b8101031261021d57519360046110e7565b503d6111f9565b3461021d5760208060031936011261021d57611235611a34565b61123e81611c6a565b9061124882614c12565b915f600a54945f19958681019081116112cd57909390916001600160a01b039182169190835b611281575b604051806107d38982611a60565b835f526002865287838360405f205416145f146112c3575080846112a76001938a614c44565b5201928484146112be57870194855b93909561126e565b611273565b90930194856112b6565b634e487b7160e01b5f52601160045260245ffd5b3461021d575f36600319011261021d57602060ff600854166040519015158152f35b3461021d575f36600319011261021d5760206040516126ac8152f35b3461021d5761085e61133036611a9a565b906040519261133e84611be7565b5f8452611e3e565b3461021d575f36600319011261021d5761135e611c3e565b60085460ff81161561139d5760ff19166008557f5db9ee0a495bf2e6ff9c91a7834c1ba4fdd244a5e8aa4e537bd38aeae4b073aa6020604051338152a1005b604051638dfc202b60e01b8152600490fd5b3461021d575f36600319011261021d576040517f00000000000000000000000000000000000000000000000000000000000000006001600160a01b03168152602090f35b3461021d575f36600319011261021d57602060405160128152f35b3461021d5761154660a061142136611acf565b9294611434999799989192949698611c3e565b61143c61212e565b611444611fee565b6040519061145182611b50565b5f196001841b018a81168352908116602083015262ffffff881660408084019190915260ff881660608401526001600160801b03871660808401528482168385015260c083018690527f0000000000000000000000000000000000000000000000000000000000000000821660e08401527f000000000000000000000000000000000000000000000000000000000000000082166101008401527f00000000000000000000000000000000000000000000000000000000000000009091166101208301526005610140830152670de0b6b3a7640000610160830152516342ed172b60e11b815297889182919060048301612095565b038173__$a76c3f6da63d6e520725e3888dec961ed1$__5af49586156105e6575f96611625575b506020860151604080880151885160808a01516060909a015192519b9215159a6001600160a01b039a8b169a919992821698949091169693926115af8d611b80565b6001600160a01b039081168d5290811660208d015262ffffff9190911660408c015260ff9190911660608b01526001600160801b039190911660808a01521660a088015260c087015260e08601526101008501526101208401526101408301526101608201525f610180820152610abc90612275565b61163e91965060a03d8111610af557610ae68183611c02565b948861156d565b3461021d5761085e61165636611a9a565b91611ca0565b3461021d575f36600319011261021d57600b5461167881614c12565b600a545f19925f918481019081116112cd5791825b6116a0575b604051806107d38682611a60565b6116a983614573565b600781101561031a578060028792141590816116f7575b50156116ed575080836116d560019387614c44565b5201918183146116e8578401918261168d565b611692565b909201918261168d565b90501515876116c0565b3461021d575f36600319011261021d576020604051670de0b6b3a76400008152f35b3461021d57608036600319011261021d5761173c611a34565b50611745611a4a565b506064356001600160401b0380821161021d573660238301121561021d57816004013590811161021d573691016024011161021d57604051630a85bd0160e11b8152602090f35b3461021d575f36600319011261021d576040517f00000000000000000000000000000000000000000000000000000000000000006001600160a01b03168152602090f35b3461021d57604036600319011261021d576117e9611a34565b6024356117f581611f67565b3315158061189e575b80611875575b61185d576001600160a01b039283169282918491167f8c5be1e5ebec7d5bd14f71427d1e84f3dd0314c0f7b2291e5b200ac8c7c3b9255f80a45f90815260046020526040902080546001600160a01b0319169091179055005b60405163a9fbf51f60e01b8152336004820152602490fd5b5060018060a01b0381165f52600560205260405f20335f5260205260ff60405f20541615611804565b506001600160a01b0381163314156117fe565b3461021d57602036600319011261021d576004356118ce81611f67565b505f526004602052602060018060a01b0360405f205416604051908152f35b3461021d575f36600319011261021d576040515f805490600182811c91818416918215611981575b6020948585108414610c8b5785879486865291825f14610c6b5750506001146119455750610c1b92500383611c02565b8491505f8052815f20905f915b858310611969575050610c1b935082010185610c0e565b80548389018501528794508693909201918101611952565b92607f1692611915565b3461021d57602036600319011261021d576004359063ffffffff60e01b821680920361021d576020916380ac58cd60e01b81149081156119e5575b81156119d4575b5015158152f35b6301ffc9a760e01b149050836119cd565b635b5e139f60e01b811491506119c6565b91908251928382525f5b848110611a20575050825f602080949584010152601f8019910116010190565b602081830181015184830182015201611a00565b600435906001600160a01b038216820361021d57565b602435906001600160a01b038216820361021d57565b602090816040818301928281528551809452019301915f5b828110611a86575050505090565b835185529381019392810192600101611a78565b606090600319011261021d576001600160a01b0390600435828116810361021d5791602435908116810361021d579060443590565b61010090600319011261021d576001600160a01b03600435818116810361021d5791602435828116810361021d5791604435818116810361021d579160643562ffffff8116810361021d579160843560ff8116810361021d579160a4356001600160801b038116810361021d579160c435908116810361021d579060e43590565b61018081019081106001600160401b03821117611b6c57604052565b634e487b7160e01b5f52604160045260245ffd5b6101a081019081106001600160401b03821117611b6c57604052565b61016081019081106001600160401b03821117611b6c57604052565b6001600160401b038111611b6c57604052565b61022081019081106001600160401b03821117611b6c57604052565b602081019081106001600160401b03821117611b6c57604052565b90601f801991011681019081106001600160401b03821117611b6c57604052565b6001600160401b038111611b6c57601f01601f191660200190565b6006546001600160a01b03163303611c5257565b60405163118cdaa760e01b8152336004820152602490fd5b6001600160a01b03168015611c88575f52600360205260405f205490565b6040516322718ad960e21b81525f6004820152602490fd5b6001600160a01b039182169290918315611e26575f92828452826020956002875260409684888820541696879133151580611d8d575b509060027fddf252ad1be2c89b69c2b068fc378daa952ba7f163c4a11628f55a4df523b3ef9284611d5c575b858352600381528b8320805460010190558683525289812080546001600160a01b0319168517905580a41692838303611d3b5750505050565b6064945051926364283d7b60e01b8452600484015260248301526044820152fd5b5f87815260046020526040902080546001600160a01b0319169055848352600381528b832080545f19019055611d02565b91939450915080611de5575b15611da95785929187915f611cd6565b878688611dc6576024915190637e27328960e01b82526004820152fd5b905163177e802f60e01b81523360048201526024810191909152604490fd5b503387148015611e0a575b80611d995750858252600481523385898420541614611d99565b5086825260058152878220338352815260ff8883205416611df0565b604051633250574960e11b81525f6004820152602490fd5b9190611e4b828285611ca0565b803b611e58575b50505050565b611e9a60018060a01b0380921694604051938493630a85bd0160e11b9687865233600487015216602485015260448401526080606484015260848301906119f6565b03906020815f938185885af190829082611f18575b5050611ee75782611ebe611fa1565b8051919082611ee057604051633250574960e11b815260048101839052602490fd5b6020915001fd5b6001600160e01b03191603611f0057505f808080611e52565b60249060405190633250574960e11b82526004820152fd5b909192506020813d8211611f5f575b81611f3460209383611c02565b81010312611f5b5751906001600160e01b031982168203611f585750905f80611eaf565b80fd5b5080fd5b3d9150611f27565b5f818152600260205260409020546001600160a01b0316908115611f89575090565b60249060405190637e27328960e01b82526004820152fd5b3d15611fcb573d90611fb282611c23565b91611fc06040519384611c02565b82523d5f602084013e565b606090565b8115611fda570490565b634e487b7160e01b5f52601260045260245ffd5b60ff60085416611ffa57565b60405163d93c066560e01b8152600490fd5b51906001600160a01b038216820361021d57565b908160a091031261021d576040519060a082018281106001600160401b03821117611b6c57604052805182526120586020820161200c565b60208301526120696040820161200c565b60408301526060810151801515810361021d57606083015261208d9060800161200c565b608082015290565b91909161018081019260018060a01b0380825116835280602083015116602084015262ffffff604083015116604084015260ff60608301511660608401526080820151608084015260a082015160a084015260c082015160c08401528060e08301511660e08401526101008181840151169084015261012090818301511690830152610140808201519083015261016080910151910152565b60026007541461213f576002600755565b604051633ee5aeb560e01b8152600490fd5b9081602091031261021d575162ffffff8116810361021d5790565b9081602091031261021d575160ff8116810361021d5790565b60ff16604d81116112cd57600a0a90565b51906001600160801b038216820361021d57565b919082604091031261021d576121cb60206121c484612196565b9301612196565b90565b9190916001600160801b03808094169116029182169182036112cd57565b6001600160801b0391821690821603919082116112cd57565b6001600160a01b0391821681529116602082015260400190565b818102929181159184041417156112cd57565b6001600160a01b0391821681529116602082015262ffffff90911660408201526060810191909152608081019190915260a00190565b919082018092116112cd57565b600a5460208083015160e084015161010085015161014086015160405163ddca3f4360e01b815295965f9690956001600160a01b0395861695938416948416939192909183916004918391165afa90811561329657906004949392918791613277575b5060e086015160405163313ce56760e01b81529560209187919082906001600160a01b03165afa94851561326c57879561324b575b5061231785612185565b61010087015160405163313ce56760e01b815291929190602090829060049082906001600160a01b03165afa908115612e44579061235c918a9161321c575b50612185565b9160018060a01b038851166001600160801b0360808a015116604051916323b872dd60e01b602084015260248301523060448301526064820152606481528060a08101106001600160401b0360a083011117613208578060a06123c39201604052876133d5565b600954885160408051639af608c960e01b81526001600160a01b03928316600482015292909183916024918391165afa9081156131fd576124776001600160801b03612710816124508f968f976124459b9a9998849882936131bd575b50848681612436608095968287870151166121ce565b16049d8e8285850151166121ec565b1691829101526121ce565b16041661246b8160018060a01b0360085460081c168c6132a1565b8260808d0151166121ec565b1660808a018190526101808a0151156131a9576101008a01516001600160a01b0316905b60208b01516001600160a01b038381169116146131a15750604051636eb1769f60e11b8152602081806124fb7f00000000000000000000000000000000000000000000000000000000000000006001600160a01b03163060048401612205565b03818c5afa908115612f68578c9161316f575b506001600160801b0360808c015116809110613135575b5060208a81015160405163ad1c481b60e01b81529190829081906125579086906001600160a01b031660048401612205565b03817f00000000000000000000000000000000000000000000000000000000000000006001600160a01b03165afa908115612f68578b908d926130ff575b506125c2916001600160801b0360806125b09301511661221f565b6101808c0151156130f8578390611fd0565b906126ac8281810204811483151715612e4f5760208c81015160808e01516040516365650ea160e01b81526001600160a01b039283166004820152948216602486015262ffffff881660448601526001600160801b03166064850152612710929094029190910460848301529091829060a49082908f907f0000000000000000000000000000000000000000000000000000000000000000165af180156130ed578b906130b0575b6001600160801b03915016925b6101208a01519860ff60608c015116906101808c015115158c60e060018060a01b0391015116918d61010060018060a01b0391015116936040519d8e6001600160401b0361010082818101109201111761309a579060208f60ff94936101008201604052815201528d60406001600160801b038b169101521660608d01528460808d015260a08c015260c08b015260e08a0152604051988960808101106001600160401b0360808c0111176130865760808a016040528b8a528b60208b01528b60408b01528b60608b015260a081015115155f14612fc9578051806127108102046127101481151715612e4f5760ff602083015116806127108102046127101481151715612fb5579061279561271061279b93026127108302611fd0565b90612268565b8a526127d56127cd6127bf6001600160801b0360408501511660808501519061221f565b60ff6020850151169061221f565b825190611fd0565b60208b015260c00180516001600160a01b0390811660408c015290511660608a01525b6060890151604051633c3e613f60e01b81526001600160a01b03918216600482015290602090829060249082907f0000000000000000000000000000000000000000000000000000000000000000165afa908115612f68578c91612f77575b5060208a01516001600160a01b0382163b15612f735760405163317afabb60e21b81526004810191909152908c908290602490829084906001600160a01b03165af18015612f6857612f55575b506101808a015115612f4f57855b604051636eb1769f60e11b8152602081806128fa7f00000000000000000000000000000000000000000000000000000000000000006001600160a01b03163060048401612205565b03816001600160a01b0386165afa908115612f44578d91612f12575b5060208b0151809110612ed7575b50506101808a015115612eb75760e08a01516101008b01516001600160a01b0390811693911691905b60405163ad1c481b60e01b8152916020838061296d888860048401612205565b03817f00000000000000000000000000000000000000000000000000000000000000006001600160a01b03165afa928315612eaa57908e8d8f94938296612e6b575b506129c46129d596602061018093015161221f565b940151159050612e63575090611fd0565b916126ac938385810204851484151715612e4f57612710949260209492612a1992868e01519160405198899788976365650ea160e01b895202049360048701612232565b03818c7f00000000000000000000000000000000000000000000000000000000000000006001600160a01b03165af1908115612e44579088949392918a91612e07575b506101808501516001600160801b03919015612df45716905b61012085015195602089015198519460c0870151600160a01b6001900361014089015116600160a01b6001900360a08a015116916101808a01511515986101608b015115159a6060015160ff169b6040519e8f91612ad283611bcb565b825260208201526040015260608d015260808c015260a08b015260c08a015260e08901526001600160801b03166101008801526001600160801b03166101208701526001600160801b0316610140860152426001600160401b0316610160860152436001600160401b03166101808601526101a08501526101c08401526101e0830152610200820152838352600c6020526040832081518155602082015160018201556040820151600282015560608201516003820155600160a01b60019003608083015116600160a01b600190031960048301541617600482015560058101600160a01b6001900360a084015116600160a01b600190031982541617905560068101600160a01b6001900360c084015116600160a01b600190031982541617905560078101600160a01b6001900360e084015116600160a01b60019003198254161790556101008201516001600160801b03166001600160801b031961012084015160801b161760088201556101408201516001600160801b03166001600160401b0360801b61016084015160801b166001600160401b0360c01b61018085015160c01b169117176009820155600a01906101a08101511515612ca290839060ff801983541691151516179055565b6101c081015115159082546101e082015160101b62ff00001691600160b81b6301000000900390610200015160181b169260081b61ff001690600160b81b610100900319161717179055600b54600101600b55600a54600101600a55600160a01b600190039051168015612ddb575f838152600260205260409020546001600160a01b031680151591849183612da8575b5f828152600360209081526040808320805460010190558583526002909152812080546001600160a01b031916841790557fddf252ad1be2c89b69c2b068fc378daa952ba7f163c4a11628f55a4df523b3ef9080a4612d90575090565b602490604051906339e3563760e11b82526004820152fd5b5f83815260046020526040902080546001600160a01b0319169055805f52600360205260405f205f198154019055612d33565b604051633250574960e11b815260048101839052602490fd5b612e0090828416612268565b1690612a75565b9450506020843d602011612e3c575b81612e2360209383611c02565b8101031261021d576001600160801b0388945190612a5c565b3d9150612e16565b6040513d8b823e3d90fd5b634e487b7160e01b8d52601160045260248dfd5b905090611fd0565b9450505092506020823d602011612ea2575b81612e8a60209383611c02565b8101031261021d579051918c91908e8d6129c46129af565b3d9150612e7d565b8e604051903d90823e3d90fd5b6101008a015160e08b01516001600160a01b03908116939116919061294d565b612f0b917f00000000000000000000000000000000000000000000000000000000000000006001600160a01b0316906132e4565b5f80612924565b90506020813d602011612f3c575b81612f2d60209383611c02565b8101031261021d57515f612916565b3d9150612f20565b6040513d8f823e3d90fd5b866128b2565b612f61909b919b611bb8565b995f6128a4565b6040513d8e823e3d90fd5b8c80fd5b90506020813d602011612fad575b81612f9260209383611c02565b81010312612fa957612fa39061200c565b5f612857565b8b80fd5b3d9150612f85565b634e487b7160e01b8e52601160045260248efd5b8051806127108102046127101481151715612e4f5760ff602083015116806127108102046127101481151715612fb5579061300f61271061301593026127108302611fd0565b9061451f565b8a526001600160801b036040820151165f1960ff6020840151160160ff8111612fb55761304c61305f9260ff61305493169061221f565b83519061221f565b608083015190611fd0565b60208b015260e00180516001600160a01b0390811660408c015290511660608a01526127f8565b634e487b7160e01b8c52604160045260248cfd5b5050634e487b7160e01b8f52604160045260248ffd5b506020813d6020116130e5575b816130ca60209383611c02565b810103126130e1576001600160801b03905161266a565b8a80fd5b3d91506130bd565b6040513d8d823e3d90fd5b8590611fd0565b9150506020813d60201161312d575b8161311b60209383611c02565b81010312612fa957518a6125b0612595565b3d915061310e565b613169907f00000000000000000000000000000000000000000000000000000000000000006001600160a01b03168a6132e4565b5f612525565b90506020813d602011613199575b8161318a60209383611c02565b81010312612fa957515f61250e565b3d915061317d565b905092612677565b60e08a01516001600160a01b03169061249b565b61243693506080925086866131ea819360403d6040116131f6575b6131e28183611c02565b8101906121aa565b96909550505050612420565b503d6131d8565b6040513d8c823e3d90fd5b634e487b7160e01b8a52604160045260248afd5b61323e915060203d602011613244575b6132368183611c02565b81019061216c565b5f612356565b503d61322c565b61326591955060203d602011613244576132368183611c02565b935f61230d565b6040513d89823e3d90fd5b613290915060203d6020116105df576105cf8183611c02565b5f6122d8565b6040513d88823e3d90fd5b60405163a9059cbb60e01b60208201526001600160a01b039290921660248301526044808301939093529181526132e2916132dd606483611c02565b6133d5565b565b60405163095ea7b360e01b602082018181526001600160a01b038516602484015260448084019690965294825294939092613320606485611c02565b60205f809386519082875af182513d826133b0575b505015613345575b505050509050565b60405160208101969096526001600160a01b031660248601526044808601829052855260808501906001600160401b0382118683101761339c575061339293946132dd91604052826133d5565b805f80808061333d565b634e487b7160e01b81526041600452602490fd5b9091506133cd57506001600160a01b0383163b15155b5f80613335565b6001146133c6565b905f602091828151910182855af1156105e6575f513d61342657506001600160a01b0381163b155b6134045750565b604051635274afe760e01b81526001600160a01b039091166004820152602490fd5b600114156133fd565b91909161343a611fee565b5f838152600260205260408120549091906001600160a01b0316156145065761346284611f67565b91848152600c602052600a6040822061348060405180608052611bcb565b80546080515260018101546020608051015260028101546040608051015260038101546060608051015260018060a01b0360048201541660808051015260018060a01b0360058201541660a0608051015260018060a01b0360068201541660c0608051015260018060a01b0360078201541660e0608051015260088101546001600160801b038116610100608051015260801c610120608051015260098101546001600160801b03811661014060805101526001600160401b038160801c16610160608051015260c01c610180608051015201549260ff8416151590816101a0608051015260ff8560081c1615156101c06080510152600160ff8660101c16806101e060805101526102006080510196828060a01b039060181c16875214918215926144fe575b506135b187614573565b6080805160c081015160e08201519851919092015160405163ddca3f4360e01b81526001600160a01b039283169993831696938316939092909160209184916004918391165afa91821561326c5787926144dd575b506080516101a00151156144d757855b604051633c3e613f60e01b81526001600160a01b03918216600482015290602090829060249082907f0000000000000000000000000000000000000000000000000000000000000000165afa90811561431e578891614499575b5060095460408051639af608c960e01b81526001600160a01b03898116600483015290949285916024918391165afa928315612e4457908995949392918693614477575b506080516101a0810151158015989188918290614434576101c08201511561441957506101c06001600160801b0361012083015116915b831580159b50614404570151156143fe578b5b995b156143f7578b985b156143ef5750955b95998a96906001600160a01b038a1681036143e75750915b60078210156143d35760018214806143cb575b156138c4575050506001600160a01b03948516948616850393506138939250505057506137729291906001600160a01b03166132a1565b5f199081600b5401600b55858152600c602052600a604082208281558260018201558260028201558260038201558260048201558260058201558260068201558260078201558260088201558260098201550155845f526002602052845f60018060a01b036040822054168015938415613860575b5082825260026020526040822080546001600160a01b03191690557fddf252ad1be2c89b69c2b068fc378daa952ba7f163c4a11628f55a4df523b3ef8280a4613847576132e29293506001600160801b03610140608051015116916132a1565b604051637e27328960e01b815260048101859052602490fd5b5f84815260046020526040902080546001600160a01b03191690558183526003602052604083209081540190555f6137e7565b6040516322f48a0560e11b815260048101919091526001600160a01b03909116602482015260016044820152606490fd5b9899959894979693946001600160a01b038086169089161461439a5715613db857506139209596976080516101a0810151613d91575b505084613910918960206080510151918a6148f6565b602060809792975101519061452c565b89811215613d895761393190614544565b915b604051636eb1769f60e11b81526020818061395b6001600160a01b0387163060048401612205565b03816001600160a01b0386165afa9081156130ed578b91613d57575b50613988846020608051015161451f565b11613d2a575b50608051602001516001600160a01b0382163b15613d26578991606483926040519485938492632bc6468360e21b8452600484015281602484015287604484015260018060a01b03165af18015612e4457613d13575b50156139f7575b5050505050505b613772565b82612710613a1f613a41936001600160801b03613a17613a46988861451f565b91169061221f565b0492613a418460018060a01b0360085460081c1660018060a01b0389166132a1565b61451f565b906001600160a01b0381168714613cf957604051636eb1769f60e11b815260208180613a9f7f00000000000000000000000000000000000000000000000000000000000000006001600160a01b03163060048401612205565b03816001600160a01b0386165afa908115613296579083918791613cc4575b5010613c88575b60405163ad1c481b60e01b815260208180613ae48b8660048401612205565b03817f00000000000000000000000000000000000000000000000000000000000000006001600160a01b03165afa8015613296578690613c54575b613b2a91508361221f565b60405163313ce56760e01b81526020816004816001600160a01b0387165afa90811561326c57613b6b9291613b6591899161321c5750612185565b90611fd0565b916126ac938385810204851484151715613c405761271095949260209492613bac928b604051998a9788976365650ea160e01b895202049360048701612232565b0381867f00000000000000000000000000000000000000000000000000000000000000006001600160a01b03165af1908115613c35578391613bff575b613bf49250856132a1565b5f80808080806139eb565b90506020823d602011613c2d575b81613c1a60209383611c02565b8101031261021d57613bf4915190613be9565b3d9150613c0d565b6040513d85823e3d90fd5b634e487b7160e01b87526011600452602487fd5b506020813d602011613c80575b81613c6e60209383611c02565b8101031261021d57613b2a9051613b1f565b3d9150613c61565b613cbf826001600160a01b037f000000000000000000000000000000000000000000000000000000000000000081169084166132e4565b613ac5565b9150506020813d602011613cf1575b81613ce060209383611c02565b8101031261021d578290515f613abe565b3d9150613cd3565b613d0e939192506001600160a01b03166132a1565b613bf4565b613d1f90989198611bb8565b965f6139e4565b8980fd5b613d5190613d3e846020608051015161451f565b906001600160a01b0384811691166132e4565b5f61398e565b90506020813d602011613d81575b81613d7260209383611c02565b810103126130e157515f613977565b3d9150613d65565b508891613933565b613910929650906001600160801b03610100613db09301511690612268565b94905f6138fa565b915092949695935060029150145f14613e1c5750506139f29391612710613deb6001600160801b03613e0d94168361221f565b0490613a418260018060a01b0360085460081c1660018060a01b0388166132a1565b916001600160a01b03166132a1565b604051636eb1769f60e11b8152919490939160208180613e697f00000000000000000000000000000000000000000000000000000000000000006001600160a01b03163060048401612205565b03816001600160a01b0386165afa90811561431e579083918991614365575b5010614329575b60405163ad1c481b60e01b815260208180613eae888660048401612205565b03817f00000000000000000000000000000000000000000000000000000000000000006001600160a01b03165afa801561431e5788906142e6575b613ef491508361221f565b60405163313ce56760e01b81526020816004816001600160a01b0387165afa908115612e4457613f2f9291613b65918b9161321c5750612185565b91826126ac8102046126ac14831517156142d25761271092613f716020936126ac93898960405198899788976365650ea160e01b895202049360048701612232565b0381897f00000000000000000000000000000000000000000000000000000000000000006001600160a01b03165af190811561329657869161429e575b50612710613fc86001600160801b03613fea94168361221f565b0490613a418260018060a01b0360085460081c1660018060a01b0387166132a1565b6001600160a01b038216871461428857604051636eb1769f60e11b8152602081806140427f00000000000000000000000000000000000000000000000000000000000000006001600160a01b03163060048401612205565b03816001600160a01b0387165afa908115613296579082918791614253575b5010614217575b60405163ad1c481b60e01b8152602081806140878b8760048401612205565b03817f00000000000000000000000000000000000000000000000000000000000000006001600160a01b03165afa80156132965786906141df575b6140cd91508261221f565b60405163313ce56760e01b81526020816004816001600160a01b0388165afa90811561326c576141089291613b6591899161321c5750612185565b92836126ac8102046126ac14841517156141cb576040516365650ea160e01b8152936020938593849361414b936127106126ac90910204928c9060048701612232565b0381867f00000000000000000000000000000000000000000000000000000000000000006001600160a01b03165af1908115613c35578391614193575b506139f291856132a1565b90506020813d6020116141c3575b816141ae60209383611c02565b810103126141bf57516139f2614188565b8280fd5b3d91506141a1565b634e487b7160e01b86526011600452602486fd5b506020813d60201161420f575b816141f960209383611c02565b8101031261420b576140cd90516140c2565b8580fd5b3d91506141ec565b61424e816001600160a01b037f000000000000000000000000000000000000000000000000000000000000000081169085166132e4565b614068565b9150506020813d602011614280575b8161426f60209383611c02565b8101031261420b578190515f614061565b3d9150614262565b6139f293909250906001600160a01b03166132a1565b90506020813d6020116142ca575b816142b960209383611c02565b8101031261420b5751612710613fae565b3d91506142ac565b634e487b7160e01b88526011600452602488fd5b506020813d602011614316575b8161430060209383611c02565b8101031261431257613ef49051613ee9565b8780fd5b3d91506142f3565b6040513d8a823e3d90fd5b614360826001600160a01b037f000000000000000000000000000000000000000000000000000000000000000081169084166132e4565b613e8f565b9150506020813d602011614392575b8161438160209383611c02565b81010312614312578290515f613e88565b3d9150614374565b6040516322f48a0560e11b81526001600160a01b038087166004830152891660248201526109296044820152606490fd5b50801561373b565b634e487b7160e01b8c52602160045260248cfd5b905091613728565b905095613710565b8798613708565b876136fe565b01511561441357875b99613700565b8b61440d565b9091506101c06001600160801b0361012084015116926136eb565b6101c0820151919290911561445c57506101c06001600160801b0361012084015116926136eb565b9190506101c06001600160801b0361012083015116916136eb565b61449191935060403d6040116131f6576131e28183611c02565b50915f6136b4565b90506020813d6020116144cf575b816144b460209383611c02565b8101031261431257906144c860249261200c565b9091613670565b3d91506144a7565b82613616565b6144f791925060203d6020116105df576105cf8183611c02565b905f613606565b91505f6135a7565b6040516369c6ab6960e11b815260048101859052602490fd5b919082039182116112cd57565b81810392915f1380158285131691841216176112cd57565b600160ff1b81146112cd575f0390565b9081602091031261021d57516001600160401b038116810361021d5790565b5f81815260026020908152604080832054909392916001600160a01b03918216156148ee57600c815284832092600a84015460ff16946002850154846005870154169660038701549086600689015416928760078a01541699878c5180809763ad1c481b60e01b825260049e8f8301916145ec92612205565b03818c7f0000000000000000000000000000000000000000000000000000000000000000165afa9485156148e45787956148b1575b50821561489357612328808302908382041483151715614880576127109004925b1561480b578015159081614801575b506147f15780151590816147e6575b506147d75780151590816147cc575b506147c05780151591826147b5575b50506147a9575b815260028252828682205416926009541692865195631ce3d24360e31b875281818801528387602481885afa96871561479f578397614779575b509060248492895196879384926367058dad60e01b84528301525afa95861561476f575094614739575b5050600961471b910154916001600160401b0380911661470e828560801c164261451f565b1193169160c01c4361451f565b1181614731575b5061472c57600290565b600690565b90505f614722565b61471b9294506009918161476192903d10614768575b6147598183611c02565b810190614554565b93916146e9565b503d61474f565b51903d90823e3d90fd5b8492919750614796602491843d8611614768576147598183611c02565b979192506146bf565b88513d85823e3d90fd5b50505050505050600390565b101590505f8061467e565b50505050505050905090565b90508210155f61466f565b50505050505050505050600590565b90508310155f614660565b5050505050505050505050600190565b905084105f614651565b8015159081614876575b506147f157801515908161486b575b506147d7578015159081614860575b506147c0578015159182614855575b5050156146855750505050505050600390565b111590505f80614842565b90508211155f614833565b90508311155f614824565b905084115f614815565b634e487b7160e01b885260118c52602488fd5b612af880830290838204148315171561488057612710900492614642565b9094508781813d83116148dd575b6148c98183611c02565b810103126148d95751935f614621565b8680fd5b503d6148bf565b8c513d89823e3d90fd5b505091505090565b6040805163313ce56760e01b81529096959492936020936001600160a01b0380851693600492919087818581895afa8015614bf15761493b915f91614bda5750612185565b91817f000000000000000000000000000000000000000000000000000000000000000016958c51636eb1769f60e11b81528d8a828061497d8c308c8401612205565b0381865afa918215614bd0578d858e938b968f968f95908f915f91614b81575b50948094939291816149ca9710614b70575b50505051968795869563ccdc1e8960e01b87528d8701612232565b03815f8b5af1908115614b66575f91614b39575b5080614b2a575050868b51809263ad1c481b60e01b82528180614a048d8c8a8401612205565b03917f0000000000000000000000000000000000000000000000000000000000000000165afa908115614b20575f91614af1575b5090614a47614a4c928a61221f565b611fd0565b916126ac92838102938185041490151715614ade5785949392614a8b612710938a5f948e519b8c998a9889976365650ea160e01b895204948701612232565b03925af1948515614ad557505f94614aa4575b50509190565b8181959293953d8311614ace575b614abc8183611c02565b81010312611f58575051915f80614a9e565b503d614ab2565b513d5f823e3d90fd5b601182634e487b7160e01b5f525260245ffd5b908782813d8311614b19575b614b078183611c02565b81010312611f58575051614a47614a38565b503d614afd565b8b513d5f823e3d90fd5b9b509998505050505050505050565b908982813d8311614b5f575b614b4f8183611c02565b81010312611f585750515f6149de565b503d614b45565b8d513d5f823e3d90fd5b614b79926132e4565b5f838f6149af565b989650965050965050505082813d8311614bc9575b614ba08183611c02565b81010312611f5857508a898f8e866149ca928f9697838f8f9a829051925050919293949561499d565b503d614b96565b50513d5f823e3d90fd5b61323e9150893d8b11613244576132368183611c02565b8c513d5f823e3d90fd5b6001600160401b038111611b6c5760051b60200190565b90614c1c82614bfb565b614c296040519182611c02565b8281528092614c3a601f1991614bfb565b0190602036910137565b8051821015614c585760209160051b010190565b634e487b7160e01b5f52603260045260245ffd5b8115611fda57600160ff1b81145f198314166112cd570590565b81810292915f8212600160ff1b8214166112cd5781840514901517156112cd57565b90604051604081016001600160401b039082811082821117611b6c576040525f918281526020810192808452819560208101805182518082115f14614ed5575050518151614cf59161451f565b61271090818102918183041490151715614eb1578151614d1491614c6c565b915b60608201916127106001600160801b0394614d3c8686511660ff6080860151169061221f565b60a084015190919015614ec557614d55614d5a92614544565b614c86565b05955b84845116838882019889129112908015821691151617614eb1578683811380614e9e575b614e79575b5082871380614e62575b614db1575b50505090614da59151168361452c565b600f0b9052600f0b9052565b60018060a01b0361014081610120850151169301511690604051906020820192639af608c960e01b8452602483015260248252606082019082821090821117614e4e576040525183929091905afa614e07611fa1565b90614e14575b8080614d95565b829194612710614e3f614da595614e3785602080614e46985183010191016121aa565b501683614c86565b059061452c565b939091614e0d565b634e487b7160e01b85526041600452602485fd5b506101208201516001600160a01b03161515614d90565b614e97919750620f4240614e3f62ffffff6101008601511683614c86565b955f614d86565b5062ffffff610100840151161515614d81565b634e487b7160e01b83526011600452602483fd5b614ece91614c86565b0595614d5d565b614edf925061451f565b61271090818102918183041490151715614eb157614eff614f0791614544565b825190614c6c565b91614d1656fea2646970667358221220c36d278b2e5b17196fb60f58bde810ff0740b4168ceede7644475d8e788e9c0564736f6c63430008140033","linkReferences":{"src/libraries/PositionLogic.sol":{"PositionLogic":[{"start":3950,"length":20},{"start":6872,"length":20}]}}},"methodIdentifiers":{"LIQUIDATION_THRESHOLD()":"90a8ae9b","LIQUIDITY_POOL_FACTORY()":"ef3316ce","LIQUIDITY_POOL_FACTORY_UNISWAP_V3()":"b2d4c9d9","MAX_LEVERAGE()":"9b45ec97","MIN_POSITION_AMOUNT_IN_USD()":"1a055c2b","PRICE_FEED()":"31eb318a","SLIPPAGE_TOLERANCE()":"4c203786","UNISWAP_V3_HELPER()":"124b1583","USD_DECIMALS()":"2f6ee695","approve(address,uint256)":"095ea7b3","balanceOf(address)":"70a08231","calculatePositionPnL(uint256)":"62ad9488","closePosition(address,uint256)":"742fe1f8","editPosition(address,uint256,uint256)":"7701297c","feeManager()":"d0fb0203","getApproved(uint256)":"081812fc","getLiquidablePositions()":"1ae11bb5","getPositionParams(uint256)":"e63490ce","getPositionState(uint256)":"eb29dc5e","getTraderPositions(address)":"5fbbb2ff","isApprovedForAll(address,address)":"e985e9c5","liquidatePosition(address,uint256)":"76f89965","name()":"06fdde03","onERC721Received(address,address,uint256,bytes)":"150b7a02","openLongPosition(address,address,address,uint24,uint8,uint128,uint160,uint256)":"2d8f8372","openPositions(uint256)":"d2ec0025","openShortPosition(address,address,address,uint24,uint8,uint128,uint160,uint256)":"aed383ac","owner()":"8da5cb5b","ownerOf(uint256)":"6352211e","pause()":"8456cb59","paused()":"5c975abb","posId()":"f5d13da0","renounceOwnership()":"715018a6","safeTransferFrom(address,address,uint256)":"42842e0e","safeTransferFrom(address,address,uint256,bytes)":"b88d4fde","setApprovalForAll(address,bool)":"a22cb465","supportsInterface(bytes4)":"01ffc9a7","symbol()":"95d89b41","tokenURI(uint256)":"c87b56dd","totalNbPos()":"7841cd91","transferFrom(address,address,uint256)":"23b872dd","transferOwnership(address)":"f2fde38b","treasure()":"e520fc7e","unpause()":"3f4ba83a"},"id":56}