{"abi":[{"type":"constructor","inputs":[{"name":"_priceFeed","type":"address","internalType":"address"},{"name":"_liquidityPoolFactory","type":"address","internalType":"address"},{"name":"_liquidityPoolFactoryUniswapV3","type":"address","internalType":"address"},{"name":"_uniswapV3Helper","type":"address","internalType":"address"},{"name":"_treasure","type":"address","internalType":"address"},{"name":"_feeManager","type":"address","internalType":"address"}],"stateMutability":"nonpayable"},{"type":"function","name":"LIQUIDATION_THRESHOLD","inputs":[],"outputs":[{"name":"","type":"uint256","internalType":"uint256"}],"stateMutability":"view"},{"type":"function","name":"LIQUIDITY_POOL_FACTORY","inputs":[],"outputs":[{"name":"","type":"address","internalType":"contract LiquidityPoolFactory"}],"stateMutability":"view"},{"type":"function","name":"LIQUIDITY_POOL_FACTORY_UNISWAP_V3","inputs":[],"outputs":[{"name":"","type":"address","internalType":"address"}],"stateMutability":"view"},{"type":"function","name":"MAX_LEVERAGE","inputs":[],"outputs":[{"name":"","type":"uint256","internalType":"uint256"}],"stateMutability":"view"},{"type":"function","name":"MIN_POSITION_AMOUNT_IN_USD","inputs":[],"outputs":[{"name":"","type":"uint256","internalType":"uint256"}],"stateMutability":"view"},{"type":"function","name":"PRICE_FEED","inputs":[],"outputs":[{"name":"","type":"address","internalType":"contract PriceFeedL1"}],"stateMutability":"view"},{"type":"function","name":"SLIPPAGE_TOLERANCE","inputs":[],"outputs":[{"name":"","type":"uint256","internalType":"uint256"}],"stateMutability":"view"},{"type":"function","name":"UNISWAP_V3_HELPER","inputs":[],"outputs":[{"name":"","type":"address","internalType":"contract UniswapV3Helper"}],"stateMutability":"view"},{"type":"function","name":"USD_DECIMALS","inputs":[],"outputs":[{"name":"","type":"uint256","internalType":"uint256"}],"stateMutability":"view"},{"type":"function","name":"approve","inputs":[{"name":"to","type":"address","internalType":"address"},{"name":"tokenId","type":"uint256","internalType":"uint256"}],"outputs":[],"stateMutability":"nonpayable"},{"type":"function","name":"balanceOf","inputs":[{"name":"owner","type":"address","internalType":"address"}],"outputs":[{"name":"","type":"uint256","internalType":"uint256"}],"stateMutability":"view"},{"type":"function","name":"closePosition","inputs":[{"name":"_trader","type":"address","internalType":"address"},{"name":"_posId","type":"uint256","internalType":"uint256"}],"outputs":[],"stateMutability":"nonpayable"},{"type":"function","name":"editPosition","inputs":[{"name":"_trader","type":"address","internalType":"address"},{"name":"_posId","type":"uint256","internalType":"uint256"},{"name":"_newStopLossPrice","type":"uint256","internalType":"uint256"}],"outputs":[],"stateMutability":"nonpayable"},{"type":"function","name":"feeManager","inputs":[],"outputs":[{"name":"","type":"address","internalType":"contract FeeManager"}],"stateMutability":"view"},{"type":"function","name":"getApproved","inputs":[{"name":"tokenId","type":"uint256","internalType":"uint256"}],"outputs":[{"name":"","type":"address","internalType":"address"}],"stateMutability":"view"},{"type":"function","name":"getLiquidablePositions","inputs":[],"outputs":[{"name":"","type":"uint256[]","internalType":"uint256[]"}],"stateMutability":"view"},{"type":"function","name":"getPositionParams","inputs":[{"name":"_posId","type":"uint256","internalType":"uint256"}],"outputs":[{"name":"baseToken_","type":"address","internalType":"address"},{"name":"quoteToken_","type":"address","internalType":"address"},{"name":"positionSize_","type":"uint128","internalType":"uint128"},{"name":"timestamp_","type":"uint64","internalType":"uint64"},{"name":"isShort_","type":"bool","internalType":"bool"},{"name":"leverage_","type":"uint8","internalType":"uint8"},{"name":"liquidationFloor_","type":"uint256","internalType":"uint256"},{"name":"limitPrice_","type":"uint160","internalType":"uint160"},{"name":"stopLossPrice_","type":"uint256","internalType":"uint256"},{"name":"currentPnL_","type":"int128","internalType":"int128"},{"name":"collateralLeft_","type":"int128","internalType":"int128"}],"stateMutability":"view"},{"type":"function","name":"getPositionState","inputs":[{"name":"_posId","type":"uint256","internalType":"uint256"}],"outputs":[{"name":"","type":"uint8","internalType":"enum PositionState"}],"stateMutability":"view"},{"type":"function","name":"getTraderPositions","inputs":[{"name":"_traderAdd","type":"address","internalType":"address"}],"outputs":[{"name":"","type":"uint256[]","internalType":"uint256[]"}],"stateMutability":"view"},{"type":"function","name":"isApprovedForAll","inputs":[{"name":"owner","type":"address","internalType":"address"},{"name":"operator","type":"address","internalType":"address"}],"outputs":[{"name":"","type":"bool","internalType":"bool"}],"stateMutability":"view"},{"type":"function","name":"liquidatePosition","inputs":[{"name":"_liquidator","type":"address","internalType":"address"},{"name":"_posId","type":"uint256","internalType":"uint256"}],"outputs":[],"stateMutability":"nonpayable"},{"type":"function","name":"name","inputs":[],"outputs":[{"name":"","type":"string","internalType":"string"}],"stateMutability":"view"},{"type":"function","name":"onERC721Received","inputs":[{"name":"","type":"address","internalType":"address"},{"name":"","type":"address","internalType":"address"},{"name":"","type":"uint256","internalType":"uint256"},{"name":"","type":"bytes","internalType":"bytes"}],"outputs":[{"name":"","type":"bytes4","internalType":"bytes4"}],"stateMutability":"pure"},{"type":"function","name":"openLongPosition","inputs":[{"name":"_trader","type":"address","internalType":"address"},{"name":"_token0","type":"address","internalType":"address"},{"name":"_token1","type":"address","internalType":"address"},{"name":"_fee","type":"uint24","internalType":"uint24"},{"name":"_leverage","type":"uint8","internalType":"uint8"},{"name":"_amount","type":"uint128","internalType":"uint128"},{"name":"_limitPrice","type":"uint160","internalType":"uint160"},{"name":"_stopLossPrice","type":"uint256","internalType":"uint256"}],"outputs":[{"name":"","type":"uint256","internalType":"uint256"}],"stateMutability":"nonpayable"},{"type":"function","name":"openPositions","inputs":[{"name":"","type":"uint256","internalType":"uint256"}],"outputs":[{"name":"initialPrice","type":"uint256","internalType":"uint256"},{"name":"totalBorrow","type":"uint256","internalType":"uint256"},{"name":"liquidationFloor","type":"uint256","internalType":"uint256"},{"name":"stopLossPrice","type":"uint256","internalType":"uint256"},{"name":"v3Pool","type":"address","internalType":"address"},{"name":"limitPrice","type":"uint160","internalType":"uint160"},{"name":"baseToken","type":"address","internalType":"contract IERC20"},{"name":"quoteToken","type":"address","internalType":"contract IERC20"},{"name":"collateralSize","type":"uint128","internalType":"uint128"},{"name":"positionSize","type":"uint128","internalType":"uint128"},{"name":"liquidationReward","type":"uint128","internalType":"uint128"},{"name":"timestamp","type":"uint64","internalType":"uint64"},{"name":"blockNumber","type":"uint64","internalType":"uint64"},{"name":"isShort","type":"bool","internalType":"bool"},{"name":"isBaseToken0","type":"bool","internalType":"bool"},{"name":"leverage","type":"uint8","internalType":"uint8"},{"name":"initialToken","type":"address","internalType":"contract IERC20"}],"stateMutability":"view"},{"type":"function","name":"openShortPosition","inputs":[{"name":"_trader","type":"address","internalType":"address"},{"name":"_token0","type":"address","internalType":"address"},{"name":"_token1","type":"address","internalType":"address"},{"name":"_fee","type":"uint24","internalType":"uint24"},{"name":"_leverage","type":"uint8","internalType":"uint8"},{"name":"_amount","type":"uint128","internalType":"uint128"},{"name":"_limitPrice","type":"uint160","internalType":"uint160"},{"name":"_stopLossPrice","type":"uint256","internalType":"uint256"}],"outputs":[{"name":"","type":"uint256","internalType":"uint256"}],"stateMutability":"nonpayable"},{"type":"function","name":"owner","inputs":[],"outputs":[{"name":"","type":"address","internalType":"address"}],"stateMutability":"view"},{"type":"function","name":"ownerOf","inputs":[{"name":"tokenId","type":"uint256","internalType":"uint256"}],"outputs":[{"name":"","type":"address","internalType":"address"}],"stateMutability":"view"},{"type":"function","name":"pause","inputs":[],"outputs":[],"stateMutability":"nonpayable"},{"type":"function","name":"paused","inputs":[],"outputs":[{"name":"","type":"bool","internalType":"bool"}],"stateMutability":"view"},{"type":"function","name":"posId","inputs":[],"outputs":[{"name":"","type":"uint256","internalType":"uint256"}],"stateMutability":"view"},{"type":"function","name":"renounceOwnership","inputs":[],"outputs":[],"stateMutability":"nonpayable"},{"type":"function","name":"safeTransferFrom","inputs":[{"name":"from","type":"address","internalType":"address"},{"name":"to","type":"address","internalType":"address"},{"name":"tokenId","type":"uint256","internalType":"uint256"}],"outputs":[],"stateMutability":"nonpayable"},{"type":"function","name":"safeTransferFrom","inputs":[{"name":"from","type":"address","internalType":"address"},{"name":"to","type":"address","internalType":"address"},{"name":"tokenId","type":"uint256","internalType":"uint256"},{"name":"data","type":"bytes","internalType":"bytes"}],"outputs":[],"stateMutability":"nonpayable"},{"type":"function","name":"setApprovalForAll","inputs":[{"name":"operator","type":"address","internalType":"address"},{"name":"approved","type":"bool","internalType":"bool"}],"outputs":[],"stateMutability":"nonpayable"},{"type":"function","name":"supportsInterface","inputs":[{"name":"interfaceId","type":"bytes4","internalType":"bytes4"}],"outputs":[{"name":"","type":"bool","internalType":"bool"}],"stateMutability":"view"},{"type":"function","name":"symbol","inputs":[],"outputs":[{"name":"","type":"string","internalType":"string"}],"stateMutability":"view"},{"type":"function","name":"tokenURI","inputs":[{"name":"tokenId","type":"uint256","internalType":"uint256"}],"outputs":[{"name":"","type":"string","internalType":"string"}],"stateMutability":"view"},{"type":"function","name":"totalNbPos","inputs":[],"outputs":[{"name":"","type":"uint256","internalType":"uint256"}],"stateMutability":"view"},{"type":"function","name":"transferFrom","inputs":[{"name":"from","type":"address","internalType":"address"},{"name":"to","type":"address","internalType":"address"},{"name":"tokenId","type":"uint256","internalType":"uint256"}],"outputs":[],"stateMutability":"nonpayable"},{"type":"function","name":"transferOwnership","inputs":[{"name":"newOwner","type":"address","internalType":"address"}],"outputs":[],"stateMutability":"nonpayable"},{"type":"function","name":"treasure","inputs":[],"outputs":[{"name":"","type":"address","internalType":"address"}],"stateMutability":"view"},{"type":"function","name":"unpause","inputs":[],"outputs":[],"stateMutability":"nonpayable"},{"type":"event","name":"Approval","inputs":[{"name":"owner","type":"address","indexed":true,"internalType":"address"},{"name":"approved","type":"address","indexed":true,"internalType":"address"},{"name":"tokenId","type":"uint256","indexed":true,"internalType":"uint256"}],"anonymous":false},{"type":"event","name":"ApprovalForAll","inputs":[{"name":"owner","type":"address","indexed":true,"internalType":"address"},{"name":"operator","type":"address","indexed":true,"internalType":"address"},{"name":"approved","type":"bool","indexed":false,"internalType":"bool"}],"anonymous":false},{"type":"event","name":"OwnershipTransferred","inputs":[{"name":"previousOwner","type":"address","indexed":true,"internalType":"address"},{"name":"newOwner","type":"address","indexed":true,"internalType":"address"}],"anonymous":false},{"type":"event","name":"Paused","inputs":[{"name":"account","type":"address","indexed":false,"internalType":"address"}],"anonymous":false},{"type":"event","name":"Transfer","inputs":[{"name":"from","type":"address","indexed":true,"internalType":"address"},{"name":"to","type":"address","indexed":true,"internalType":"address"},{"name":"tokenId","type":"uint256","indexed":true,"internalType":"uint256"}],"anonymous":false},{"type":"event","name":"Unpaused","inputs":[{"name":"account","type":"address","indexed":false,"internalType":"address"}],"anonymous":false},{"type":"error","name":"ERC721IncorrectOwner","inputs":[{"name":"sender","type":"address","internalType":"address"},{"name":"tokenId","type":"uint256","internalType":"uint256"},{"name":"owner","type":"address","internalType":"address"}]},{"type":"error","name":"ERC721InsufficientApproval","inputs":[{"name":"operator","type":"address","internalType":"address"},{"name":"tokenId","type":"uint256","internalType":"uint256"}]},{"type":"error","name":"ERC721InvalidApprover","inputs":[{"name":"approver","type":"address","internalType":"address"}]},{"type":"error","name":"ERC721InvalidOperator","inputs":[{"name":"operator","type":"address","internalType":"address"}]},{"type":"error","name":"ERC721InvalidOwner","inputs":[{"name":"owner","type":"address","internalType":"address"}]},{"type":"error","name":"ERC721InvalidReceiver","inputs":[{"name":"receiver","type":"address","internalType":"address"}]},{"type":"error","name":"ERC721InvalidSender","inputs":[{"name":"sender","type":"address","internalType":"address"}]},{"type":"error","name":"ERC721NonexistentToken","inputs":[{"name":"tokenId","type":"uint256","internalType":"uint256"}]},{"type":"error","name":"EnforcedPause","inputs":[]},{"type":"error","name":"ExpectedPause","inputs":[]},{"type":"error","name":"OwnableInvalidOwner","inputs":[{"name":"owner","type":"address","internalType":"address"}]},{"type":"error","name":"OwnableUnauthorizedAccount","inputs":[{"name":"account","type":"address","internalType":"address"}]},{"type":"error","name":"Positions__POSITION_NOT_LIQUIDABLE_YET","inputs":[{"name":"_posId","type":"uint256","internalType":"uint256"}]},{"type":"error","name":"Positions__POSITION_NOT_OPEN","inputs":[{"name":"_posId","type":"uint256","internalType":"uint256"}]},{"type":"error","name":"Positions__POSITION_NOT_OWNED","inputs":[{"name":"_trader","type":"address","internalType":"address"},{"name":"_posId","type":"uint256","internalType":"uint256"}]},{"type":"error","name":"Positions__STOP_LOSS_ORDER_PRICE_NOT_CONCISTENT","inputs":[{"name":"_stopLossPrice","type":"uint256","internalType":"uint256"}]},{"type":"error","name":"Positions__TOKEN_RECEIVED_NOT_CONCISTENT","inputs":[{"name":"tokenBorrowed","type":"address","internalType":"address"},{"name":"tokenReceived","type":"address","internalType":"address"},{"name":"state","type":"uint256","internalType":"uint256"}]},{"type":"error","name":"ReentrancyGuardReentrantCall","inputs":[]},{"type":"error","name":"SafeERC20FailedOperation","inputs":[{"name":"token","type":"address","internalType":"address"}]}],"bytecode":{"object":"0x610100346200054d57601f620052f338819003918201601f19168301916001600160401b038311848410176200046a5780849260c0946040528339810103126200054d576200004e8162000571565b9060206200005e81830162000571565b906200006d6040840162000571565b926200007c6060820162000571565b936200009960a0620000916080850162000571565b930162000571565b92620000a462000551565b600b81526a0aadcd2e6eec2e05a9a82b60ab1b82820152620000c562000551565b60068152650aa9c929a82b60d31b83820152815190916001600160401b0382116200046a575f5490600182811c9216801562000542575b858310146200044b5781601f849311620004f2575b508490601f83116001146200048a575f926200047e575b50508160011b915f199060031b1c1916175f555b8051916001600160401b0383116200046a5760015491600183811c931680156200045f575b828410146200044b5782601f859411620003f5575b5081601f84116001146200038957505f926200037d575b50508160011b915f199060031b1c1916176001555b33156200036557600680546001600160a01b0319808216339081179093556040519890976001600160a01b03978895919486948593919084167f8be0079c531659141344cd1fd0a4f28419497f9722a3daafe3b4186f6b6457e05f80a360016007819055600a5560e052166080521660a0521660c05260088054610100600160a81b03191691811b610100600160a81b0316919091179055600980549093169116179055614d6c90816200058782396080518181816102b101528181610c0801528181611582015281816128b501526136ce015260a051818181610403015281816104ff01528181610c31015281816110a901528181611482015281816115ab015281816125e9015281816129ff01528181613b7601528181613f40015281816141190152818161467f0152614a96015260c05181818161185f01528181612557015281816126c90152818161295601528181612aac01528181612f6b015281816131c901528181613afb01528181613c3f01528181613d2401528181613ec5015281816140040152818161409e015281816141de015281816142b3015281816143c501526149cd015260e051818181610b2301528181610be0015261155a0152f35b604051631e4fbdf760e01b81525f6004820152602490fd5b015190505f806200018d565b60015f9081528181209450601f198616915b828210620003dc575050908460019594939210620003c3575b505050811b01600155620001a2565b01515f1960f88460031b161c191690555f8080620003b4565b806001869782949787015181550196019401906200039b565b9091925060015f52825f20601f850160051c81019184861062000440575b90601f86959493920160051c01905b81811062000431575062000176565b5f815585945060010162000422565b909150819062000413565b634e487b7160e01b5f52602260045260245ffd5b92607f169262000161565b634e487b7160e01b5f52604160045260245ffd5b015190505f8062000128565b5f8080528681209350601f198516905b87828210620004db575050908460019594939210620004c2575b505050811b015f556200013c565b01515f1960f88460031b161c191690555f8080620004b4565b60018596829396860151815501950193016200049a565b9091505f8052845f20601f840160051c81018685106200053a575b90849392915b601f830160051c820181106200052b57505062000111565b5f815585945060010162000513565b50806200050d565b91607f1691620000fc565b5f80fd5b60408051919082016001600160401b038111838210176200046a57604052565b51906001600160a01b03821682036200054d5756fe60a0806040526004361015610012575f80fd5b5f3560e01c90816301ffc9a714611a495750806306fdde03146119ab578063081812fc1461196f578063095ea7b31461188e578063124b15831461184a578063150b7a02146117e15780631a055c2b146117bf5780631ae11bb51461171a57806323b872dd146117035780632d8f8372146114cc5780632f6ee695146114b157806331eb318a1461146d5780633f4ba83a1461140457806342842e0e146113dd5780634c203786146113c15780635c975abb1461139f5780635fbbb2ff146112ed5780636352211e146112bd57806370a0823114611292578063715018a614611237578063742fe1f8146111ea57806376f899651461117d5780637701297c146110115780637841cd9114610ff45780638456cb5914610f9b5780638da5cb5b14610f7357806390a8ae9b14610f5757806395d89b4114610e6f5780639b45ec9714610e54578063a22cb46514610daa578063aed383ac14610b52578063b2d4c9d914610b0e578063b88d4fde14610a85578063c87b56dd14610a30578063d0fb020314610a08578063d2ec0025146108ff578063e520fc7e146108d6578063e63490ce14610375578063e985e9c514610323578063eb29dc5e146102e0578063ef3316ce1461029c578063f2fde38b146102165763f5d13da0146101f5575f80fd5b34610212575f366003190112610212576020600a54604051908152f35b5f80fd5b346102125760203660031901126102125761022f611af2565b610237611ccc565b6001600160a01b0390811690811561028457600680546001600160a01b031981168417909155167f8be0079c531659141344cd1fd0a4f28419497f9722a3daafe3b4186f6b6457e05f80a3005b604051631e4fbdf760e01b81525f6004820152602490fd5b34610212575f366003190112610212576040517f00000000000000000000000000000000000000000000000000000000000000006001600160a01b03168152602090f35b34610212576020366003190112610212576102fc600435614601565b604051600782101561030f576020918152f35b634e487b7160e01b5f52602160045260245ffd5b346102125760403660031901126102125761033c611af2565b610344611b08565b9060018060a01b038091165f52600560205260405f2091165f52602052602060ff60405f2054166040519015158152f35b34610212576020366003190112610212576004355f52600c6020526103ff60405f2060018060a01b036006820154169060018060a01b03600782015416906008810154906009810154600a82015460028301549060018060a01b03600585015416926003850154948054906020898b6040519d8e92839263ad1c481b60e01b845260048401612293565b03817f00000000000000000000000000000000000000000000000000000000000000006001600160a01b03165afa9a8b15610896575f9b6108a1575b5060048181015460405163ddca3f4360e01b8152929160209184919082906001600160a01b03165afa918215610896575f92610862575b50600101549160018060a01b03600954169161048f600435611ff5565b936040519d8e6001600160401b03610160828181011092011117610796576101608f016040908152938f5260208f0152828e01526001600160801b038a1660608e015260ff601087901c811660808f01528616151560a08e01526001600160a01b03601887901c811660c08f01527f0000000000000000000000000000000000000000000000000000000000000000811660e08f015262ffffff919091166101008e01526101208d019290925291166101408b01528051969087018088116001600160401b039091111761079657604087016040525f87525f602088015260208a01518a51908181115f1461082957505061059060208b01518b51906145ad565b61271090818102918183041490151715610805576105b3612710918c5190614cfa565b6105d38c60ff60806001600160801b0360608401511692015116906122ad565b60a08d015190919015610819576105ec6105f1926145d2565b614d14565b05975b6001600160801b0360608c01511689808201125f821290801582169115161761080557808a01998c5f8c13806107f2575b6107c1575b5050505f8913806107aa575b6106c3575b916001600160401b039160ff94936106636001600160801b0360606101609f0151168c6145ba565b600f0b998a815260208c600f0b9101526040519b8c5260208c015260801c60408b015260801c1660608901528181161515608089015260101c1660a087015260c086015260e0850152610100840152610120830152600f0b610140820152f35b6101208b01516101408c0151604051639af608c960e01b60208201526001600160a01b03918216602480830191909152815291169b906001600160401b036060820190811190821117610796575f816101609e6060839401604052602082519201905afa61072f61202f565b9061073d575b509a5061063b565b916106636001600160801b0360606107876001600160401b0397959e612710610780856107788b60ff9f9e9c60208091518301019101612238565b501683614d14565b05906145ba565b9d949650505050919394610735565b634e487b7160e01b5f52604160045260245ffd5b506101208b01516001600160a01b03161515610636565b6107e9939b506107e162ffffff610100620f424093015116838501614d14565b0591016145ba565b978b808c61062a565b5062ffffff610100820151161515610625565b634e487b7160e01b5f52601160045260245ffd5b61082291614d14565b05976105f4565b610832916145ad565b612710908181029181830414901517156108055761085d610855612710926145d2565b8c5190614cfa565b6105b3565b60019192506108889060203d60201161088f575b6108808183611c90565b8101906121df565b9190610472565b503d610876565b6040513d5f823e3d90fd5b909a506020813d6020116108ce575b816108bd60209383611c90565b81010312610212575199600461043b565b3d91506108b0565b34610212575f3660031901126102125760088054604051911c6001600160a01b03168152602090f35b34610212576020366003190112610212576004355f52600c60205261022060405f20805490600181015460028201549160038101549260018060a01b0393846004840154168560058501541686600686015416918760078701541693600887015495600a6009890154980154986040519b8c5260208c015260408b015260608a0152608089015260a088015260c087015260e08601526001600160801b039081811661010087015260801c61012086015281166101408501526001600160401b038160801c1661016085015260c01c61018084015260ff811615156101a084015260ff8160081c1615156101c084015260ff8160101c166101e084015260181c16610200820152f35b34610212575f366003190112610212576009546040516001600160a01b039091168152602090f35b3461021257602036600319011261021257610a4c600435611ff5565b505f604051610a5a81611c75565b52610a81604051610a6a81611c75565b5f8152604051918291602083526020830190611ab4565b0390f35b3461021257608036600319011261021257610a9e611af2565b610aa6611b08565b606435916001600160401b038311610212573660238401121561021257826004013591610ad283611cb1565b92610ae06040519485611c90565b8084523660248287010111610212576020815f926024610b0c9801838801378501015260443591611ecc565b005b34610212575f366003190112610212576040517f00000000000000000000000000000000000000000000000000000000000000006001600160a01b03168152602090f35b3461021257610c8a60a0610b6536611b8d565b9294610b78999799989192949698611ccc565b610b806121bc565b610b8861207c565b60405190610b9582611c0e565b5f196001841b018a81168352908116602083015262ffffff881660408084019190915260ff881660608401526001600160801b03871660808401528482168385015260c083018690527f0000000000000000000000000000000000000000000000000000000000000000821660e08401527f000000000000000000000000000000000000000000000000000000000000000082166101008401527f00000000000000000000000000000000000000000000000000000000000000009091166101208301526005610140830152670de0b6b3a76400006101608301525163c433f0e160e01b815297889182919060048301612123565b038173__$a76c3f6da63d6e520725e3888dec961ed1$__5af4958615610896575f96610d7a575b506020860151604080880151885160808a01516060909a015192519b9215159a6001600160a01b039a8b169a91999282169894909116969392610cf38d611c2a565b6001600160a01b039081168d5290811660208d015262ffffff9190911660408c015260ff9190911660608b01526001600160801b039190911660808a01521660a088015260c087015260e08601526101008501526101208401526101408301526101608201526001610180820152610d6a90612303565b6001600755604051908152602090f35b610d9c91965060a03d8111610da3575b610d948183611c90565b8101906120ae565b9488610cb1565b503d610d8a565b3461021257604036600319011261021257610dc3611af2565b6024359081151590818303610212576001600160a01b0316918215610e3b57610e0d90335f52600560205260405f20845f5260205260405f209060ff801983541691151516179055565b6040519081527f17307eab39ab6107e8899845ad3d59bd9653f200f220920489ca2b5937696c3160203392a3005b604051630b61174360e31b815260048101849052602490fd5b34610212575f36600319011261021257602060405160058152f35b34610212575f366003190112610212576040515f60019081549182811c91818416918215610f4d575b6020948585108414610f395785879486865291825f14610f19575050600114610edd575b50610ec992500383611c90565b610a81604051928284938452830190611ab4565b849150805f52815f20905f915b858310610f01575050610ec9935082010185610ebc565b80548389018501528794508693909201918101610eea565b60ff191685820152610ec995151560051b8501019250879150610ebc9050565b634e487b7160e01b5f52602260045260245ffd5b92607f1692610e98565b34610212575f3660031901126102125760206040516103e88152f35b34610212575f366003190112610212576006546040516001600160a01b039091168152602090f35b34610212575f36600319011261021257610fb3611ccc565b610fbb61207c565b600160ff1960085416176008557f62e78cea01bee320cd4e420270b5ea74000d11b0c9f74754ebdbfc544b05a2586020604051338152a1005b34610212575f366003190112610212576020600b54604051908152f35b346102125760603660031901126102125761102a611af2565b60443590602435611039611ccc565b61104281611ff5565b6001600160a01b0392908382169084160361115257506110606121bc565b61106861207c565b5f52600c6020526110a5602060405f20928060068501541690806007860154169160405180958194829363ad1c481b60e01b845260048401612293565b03917f0000000000000000000000000000000000000000000000000000000000000000165afa908115610896575f91611121575b50600a82015460ff16156111135782106110fa576003905b01556001600755005b6040516371af14eb60e01b815260048101839052602490fd5b82116110fa576003906110f1565b90506020813d821161114a575b8161113b60209383611c90565b810103126102125751836110d9565b3d915061112e565b60405163c8bbf6d360e01b81526001600160a01b039190911660048201526024810191909152604490fd5b3461021257604036600319011261021257611196611af2565b6024356111a1611ccc565b6111aa81614601565b600781101561030f576002146111d2576111cb916111c66121bc565b6134bd565b6001600755005b6024906040519063b9b3374360e01b82526004820152fd5b3461021257604036600319011261021257611203611af2565b6024359061120f611ccc565b61121882611ff5565b6001600160a01b0382811691160361115257906111cb916111c66121bc565b34610212575f3660031901126102125761124f611ccc565b600680546001600160a01b031981169091555f906001600160a01b03167f8be0079c531659141344cd1fd0a4f28419497f9722a3daafe3b4186f6b6457e08280a3005b346102125760203660031901126102125760206112b56112b0611af2565b611cf8565b604051908152f35b346102125760203660031901126102125760206112db600435611ff5565b6040516001600160a01b039091168152f35b346102125760208060031936011261021257611307611af2565b61131081611cf8565b9061131a82614ca0565b915f600a54945f199586810190811161080557909390916001600160a01b039182169190835b611353575b60405180610a818982611b1e565b835f526002865287838360405f205416145f14611395575080846113796001938a614cd2565b52019284841461139057870194855b939095611340565b611345565b9093019485611388565b34610212575f36600319011261021257602060ff600854166040519015158152f35b34610212575f3660031901126102125760206040516126ac8152f35b3461021257610b0c6113ee36611b58565b90604051926113fc84611c75565b5f8452611ecc565b34610212575f3660031901126102125761141c611ccc565b60085460ff81161561145b5760ff19166008557f5db9ee0a495bf2e6ff9c91a7834c1ba4fdd244a5e8aa4e537bd38aeae4b073aa6020604051338152a1005b604051638dfc202b60e01b8152600490fd5b34610212575f366003190112610212576040517f00000000000000000000000000000000000000000000000000000000000000006001600160a01b03168152602090f35b34610212575f36600319011261021257602060405160128152f35b346102125761160460a06114df36611b8d565b92946114f2999799989192949698611ccc565b6114fa6121bc565b61150261207c565b6040519061150f82611c0e565b5f196001841b018a81168352908116602083015262ffffff881660408084019190915260ff881660608401526001600160801b03871660808401528482168385015260c083018690527f0000000000000000000000000000000000000000000000000000000000000000821660e08401527f000000000000000000000000000000000000000000000000000000000000000082166101008401527f00000000000000000000000000000000000000000000000000000000000000009091166101208301526005610140830152670de0b6b3a7640000610160830152516342ed172b60e11b815297889182919060048301612123565b038173__$a76c3f6da63d6e520725e3888dec961ed1$__5af4958615610896575f966116e3575b506020860151604080880151885160808a01516060909a015192519b9215159a6001600160a01b039a8b169a9199928216989490911696939261166d8d611c2a565b6001600160a01b039081168d5290811660208d015262ffffff9190911660408c015260ff9190911660608b01526001600160801b039190911660808a01521660a088015260c087015260e08601526101008501526101208401526101408301526101608201525f610180820152610d6a90612303565b6116fc91965060a03d8111610da357610d948183611c90565b948861162b565b3461021257610b0c61171436611b58565b91611d2e565b34610212575f36600319011261021257600b5461173681614ca0565b600a545f19925f918481019081116108055791825b61175e575b60405180610a818682611b1e565b61176783614601565b600781101561030f578060028792141590816117b5575b50156117ab5750808361179360019387614cd2565b5201918183146117a6578401918261174b565b611750565b909201918261174b565b905015158761177e565b34610212575f366003190112610212576020604051670de0b6b3a76400008152f35b34610212576080366003190112610212576117fa611af2565b50611803611b08565b506064356001600160401b038082116102125736602383011215610212578160040135908111610212573691016024011161021257604051630a85bd0160e11b8152602090f35b34610212575f366003190112610212576040517f00000000000000000000000000000000000000000000000000000000000000006001600160a01b03168152602090f35b34610212576040366003190112610212576118a7611af2565b6024356118b381611ff5565b3315158061195c575b80611933575b61191b576001600160a01b039283169282918491167f8c5be1e5ebec7d5bd14f71427d1e84f3dd0314c0f7b2291e5b200ac8c7c3b9255f80a45f90815260046020526040902080546001600160a01b0319169091179055005b60405163a9fbf51f60e01b8152336004820152602490fd5b5060018060a01b0381165f52600560205260405f20335f5260205260ff60405f205416156118c2565b506001600160a01b0381163314156118bc565b346102125760203660031901126102125760043561198c81611ff5565b505f526004602052602060018060a01b0360405f205416604051908152f35b34610212575f366003190112610212576040515f805490600182811c91818416918215611a3f575b6020948585108414610f395785879486865291825f14610f19575050600114611a035750610ec992500383611c90565b8491505f8052815f20905f915b858310611a27575050610ec9935082010185610ebc565b80548389018501528794508693909201918101611a10565b92607f16926119d3565b34610212576020366003190112610212576004359063ffffffff60e01b8216809203610212576020916380ac58cd60e01b8114908115611aa3575b8115611a92575b5015158152f35b6301ffc9a760e01b14905083611a8b565b635b5e139f60e01b81149150611a84565b91908251928382525f5b848110611ade575050825f602080949584010152601f8019910116010190565b602081830181015184830182015201611abe565b600435906001600160a01b038216820361021257565b602435906001600160a01b038216820361021257565b602090816040818301928281528551809452019301915f5b828110611b44575050505090565b835185529381019392810192600101611b36565b6060906003190112610212576001600160a01b0390600435828116810361021257916024359081168103610212579060443590565b610100906003190112610212576001600160a01b0360043581811681036102125791602435828116810361021257916044358181168103610212579160643562ffffff81168103610212579160843560ff81168103610212579160a4356001600160801b0381168103610212579160c4359081168103610212579060e43590565b61018081019081106001600160401b0382111761079657604052565b6101a081019081106001600160401b0382111761079657604052565b6001600160401b03811161079657604052565b61022081019081106001600160401b0382111761079657604052565b602081019081106001600160401b0382111761079657604052565b90601f801991011681019081106001600160401b0382111761079657604052565b6001600160401b03811161079657601f01601f191660200190565b6006546001600160a01b03163303611ce057565b60405163118cdaa760e01b8152336004820152602490fd5b6001600160a01b03168015611d16575f52600360205260405f205490565b6040516322718ad960e21b81525f6004820152602490fd5b6001600160a01b039182169290918315611eb4575f92828452826020956002875260409684888820541696879133151580611e1b575b509060027fddf252ad1be2c89b69c2b068fc378daa952ba7f163c4a11628f55a4df523b3ef9284611dea575b858352600381528b8320805460010190558683525289812080546001600160a01b0319168517905580a41692838303611dc95750505050565b6064945051926364283d7b60e01b8452600484015260248301526044820152fd5b5f87815260046020526040902080546001600160a01b0319169055848352600381528b832080545f19019055611d90565b91939450915080611e73575b15611e375785929187915f611d64565b878688611e54576024915190637e27328960e01b82526004820152fd5b905163177e802f60e01b81523360048201526024810191909152604490fd5b503387148015611e98575b80611e275750858252600481523385898420541614611e27565b5086825260058152878220338352815260ff8883205416611e7e565b604051633250574960e11b81525f6004820152602490fd5b9190611ed9828285611d2e565b803b611ee6575b50505050565b611f2860018060a01b0380921694604051938493630a85bd0160e11b968786523360048701521660248501526044840152608060648401526084830190611ab4565b03906020815f938185885af190829082611fa6575b5050611f755782611f4c61202f565b8051919082611f6e57604051633250574960e11b815260048101839052602490fd5b6020915001fd5b6001600160e01b03191603611f8e57505f808080611ee0565b60249060405190633250574960e11b82526004820152fd5b909192506020813d8211611fed575b81611fc260209383611c90565b81010312611fe95751906001600160e01b031982168203611fe65750905f80611f3d565b80fd5b5080fd5b3d9150611fb5565b5f818152600260205260409020546001600160a01b0316908115612017575090565b60249060405190637e27328960e01b82526004820152fd5b3d15612059573d9061204082611cb1565b9161204e6040519384611c90565b82523d5f602084013e565b606090565b8115612068570490565b634e487b7160e01b5f52601260045260245ffd5b60ff6008541661208857565b60405163d93c066560e01b8152600490fd5b51906001600160a01b038216820361021257565b908160a0910312610212576040519060a082018281106001600160401b0382111761079657604052805182526120e66020820161209a565b60208301526120f76040820161209a565b60408301526060810151801515810361021257606083015261211b9060800161209a565b608082015290565b91909161018081019260018060a01b0380825116835280602083015116602084015262ffffff604083015116604084015260ff60608301511660608401526080820151608084015260a082015160a084015260c082015160c08401528060e08301511660e08401526101008181840151169084015261012090818301511690830152610140808201519083015261016080910151910152565b6002600754146121cd576002600755565b604051633ee5aeb560e01b8152600490fd5b90816020910312610212575162ffffff811681036102125790565b90816020910312610212575160ff811681036102125790565b60ff16604d811161080557600a0a90565b51906001600160801b038216820361021257565b919082604091031261021257612259602061225284612224565b9301612224565b90565b9190916001600160801b038080941691160291821691820361080557565b6001600160801b03918216908216039190821161080557565b6001600160a01b0391821681529116602082015260400190565b8181029291811591840414171561080557565b6001600160a01b0391821681529116602082015262ffffff90911660408201526060810191909152608081019190915260a00190565b9190820180921161080557565b600a5460208083015160e084015161010085015161014086015160405163ddca3f4360e01b815295965f9690956001600160a01b0395861695938416948416939192909183916004918391165afa90811561332457906004949392918791613305575b5060e086015160405163313ce56760e01b81529560209187919082906001600160a01b03165afa9485156132fa5787956132d9575b506123a585612213565b61010087015160405163313ce56760e01b815291929190602090829060049082906001600160a01b03165afa908115612ed257906123ea918a916132aa575b50612213565b9160018060a01b038851166001600160801b0360808a015116604051916323b872dd60e01b602084015260248301523060448301526064820152606481528060a08101106001600160401b0360a083011117613296578060a0612451920160405287613463565b600954885160408051639af608c960e01b81526001600160a01b03928316600482015292909183916024918391165afa90811561328b576125056001600160801b03612710816124de8f968f976124d39b9a99988498829361324b575b508486816124c46080959682878701511661225c565b16049d8e82858501511661227a565b16918291015261225c565b1604166124f98160018060a01b0360085460081c168c61332f565b8260808d01511661227a565b1660808a018190526101808a015115613237576101008a01516001600160a01b0316905b60208b01516001600160a01b0383811691161461322f5750604051636eb1769f60e11b8152602081806125897f00000000000000000000000000000000000000000000000000000000000000006001600160a01b03163060048401612293565b03818c5afa908115612ff6578c916131fd575b506001600160801b0360808c0151168091106131c3575b5060208a81015160405163ad1c481b60e01b81529190829081906125e59086906001600160a01b031660048401612293565b03817f00000000000000000000000000000000000000000000000000000000000000006001600160a01b03165afa908115612ff6578b908d9261318d575b50612650916001600160801b03608061263e930151166122ad565b6101808c01511561318657839061205e565b906126ac8281810204811483151715612edd5760208c81015160808e01516040516365650ea160e01b81526001600160a01b039283166004820152948216602486015262ffffff881660448601526001600160801b03166064850152612710929094029190910460848301529091829060a49082908f907f0000000000000000000000000000000000000000000000000000000000000000165af1801561317b578b9061313e575b6001600160801b03915016925b6101208a01519860ff60608c015116906101808c015115158c60e060018060a01b0391015116918d61010060018060a01b0391015116936040519d8e6001600160401b03610100828181011092011117613128579060208f60ff94936101008201604052815201528d60406001600160801b038b169101521660608d01528460808d015260a08c015260c08b015260e08a0152604051988960808101106001600160401b0360808c0111176131145760808a016040528b8a528b60208b01528b60408b01528b60608b015260a081015115155f14613057578051806127108102046127101481151715612edd5760ff60208301511680612710810204612710148115171561304357906128236127106128299302612710830261205e565b906122f6565b8a5261286361285b61284d6001600160801b036040850151166080850151906122ad565b60ff602085015116906122ad565b82519061205e565b60208b015260c00180516001600160a01b0390811660408c015290511660608a01525b6060890151604051633c3e613f60e01b81526001600160a01b03918216600482015290602090829060249082907f0000000000000000000000000000000000000000000000000000000000000000165afa908115612ff6578c91613005575b5060208a01516001600160a01b0382163b156130015760405163317afabb60e21b81526004810191909152908c908290602490829084906001600160a01b03165af18015612ff657612fe3575b506101808a015115612fdd57855b604051636eb1769f60e11b8152602081806129887f00000000000000000000000000000000000000000000000000000000000000006001600160a01b03163060048401612293565b03816001600160a01b0386165afa908115612fd2578d91612fa0575b5060208b0151809110612f65575b50506101808a015115612f455760e08a01516101008b01516001600160a01b0390811693911691905b60405163ad1c481b60e01b815291602083806129fb888860048401612293565b03817f00000000000000000000000000000000000000000000000000000000000000006001600160a01b03165afa928315612f3857908e8d8f94938296612ef9575b50612a52612a639660206101809301516122ad565b940151159050612ef157509061205e565b916126ac938385810204851484151715612edd57612710949260209492612aa792868e01519160405198899788976365650ea160e01b8952020493600487016122c0565b03818c7f00000000000000000000000000000000000000000000000000000000000000006001600160a01b03165af1908115612ed2579088949392918a91612e95575b506101808501516001600160801b03919015612e825716905b61012085015195602089015198519460c0870151600160a01b6001900361014089015116600160a01b6001900360a08a015116916101808a01511515986101608b015115159a6060015160ff169b6040519e8f91612b6083611c59565b825260208201526040015260608d015260808c015260a08b015260c08a015260e08901526001600160801b03166101008801526001600160801b03166101208701526001600160801b0316610140860152426001600160401b0316610160860152436001600160401b03166101808601526101a08501526101c08401526101e0830152610200820152838352600c6020526040832081518155602082015160018201556040820151600282015560608201516003820155600160a01b60019003608083015116600160a01b600190031960048301541617600482015560058101600160a01b6001900360a084015116600160a01b600190031982541617905560068101600160a01b6001900360c084015116600160a01b600190031982541617905560078101600160a01b6001900360e084015116600160a01b60019003198254161790556101008201516001600160801b03166001600160801b031961012084015160801b161760088201556101408201516001600160801b03166001600160401b0360801b61016084015160801b166001600160401b0360c01b61018085015160c01b169117176009820155600a01906101a08101511515612d3090839060ff801983541691151516179055565b6101c081015115159082546101e082015160101b62ff00001691600160b81b6301000000900390610200015160181b169260081b61ff001690600160b81b610100900319161717179055600b54600101600b55600a54600101600a55600160a01b600190039051168015612e69575f838152600260205260409020546001600160a01b031680151591849183612e36575b5f828152600360209081526040808320805460010190558583526002909152812080546001600160a01b031916841790557fddf252ad1be2c89b69c2b068fc378daa952ba7f163c4a11628f55a4df523b3ef9080a4612e1e575090565b602490604051906339e3563760e11b82526004820152fd5b5f83815260046020526040902080546001600160a01b0319169055805f52600360205260405f205f198154019055612dc1565b604051633250574960e11b815260048101839052602490fd5b612e8e908284166122f6565b1690612b03565b9450506020843d602011612eca575b81612eb160209383611c90565b81010312610212576001600160801b0388945190612aea565b3d9150612ea4565b6040513d8b823e3d90fd5b634e487b7160e01b8d52601160045260248dfd5b90509061205e565b9450505092506020823d602011612f30575b81612f1860209383611c90565b81010312610212579051918c91908e8d612a52612a3d565b3d9150612f0b565b8e604051903d90823e3d90fd5b6101008a015160e08b01516001600160a01b0390811693911691906129db565b612f99917f00000000000000000000000000000000000000000000000000000000000000006001600160a01b031690613372565b5f806129b2565b90506020813d602011612fca575b81612fbb60209383611c90565b8101031261021257515f6129a4565b3d9150612fae565b6040513d8f823e3d90fd5b86612940565b612fef909b919b611c46565b995f612932565b6040513d8e823e3d90fd5b8c80fd5b90506020813d60201161303b575b8161302060209383611c90565b81010312613037576130319061209a565b5f6128e5565b8b80fd5b3d9150613013565b634e487b7160e01b8e52601160045260248efd5b8051806127108102046127101481151715612edd5760ff602083015116806127108102046127101481151715613043579061309d6127106130a39302612710830261205e565b906145ad565b8a526001600160801b036040820151165f1960ff6020840151160160ff8111613043576130da6130ed9260ff6130e29316906122ad565b8351906122ad565b60808301519061205e565b60208b015260e00180516001600160a01b0390811660408c015290511660608a0152612886565b634e487b7160e01b8c52604160045260248cfd5b5050634e487b7160e01b8f52604160045260248ffd5b506020813d602011613173575b8161315860209383611c90565b8101031261316f576001600160801b0390516126f8565b8a80fd5b3d915061314b565b6040513d8d823e3d90fd5b859061205e565b9150506020813d6020116131bb575b816131a960209383611c90565b8101031261303757518a61263e612623565b3d915061319c565b6131f7907f00000000000000000000000000000000000000000000000000000000000000006001600160a01b03168a613372565b5f6125b3565b90506020813d602011613227575b8161321860209383611c90565b8101031261303757515f61259c565b3d915061320b565b905092612705565b60e08a01516001600160a01b031690612529565b6124c49350608092508686613278819360403d604011613284575b6132708183611c90565b810190612238565b969095505050506124ae565b503d613266565b6040513d8c823e3d90fd5b634e487b7160e01b8a52604160045260248afd5b6132cc915060203d6020116132d2575b6132c48183611c90565b8101906121fa565b5f6123e4565b503d6132ba565b6132f391955060203d6020116132d2576132c48183611c90565b935f61239b565b6040513d89823e3d90fd5b61331e915060203d60201161088f576108808183611c90565b5f612366565b6040513d88823e3d90fd5b60405163a9059cbb60e01b60208201526001600160a01b039290921660248301526044808301939093529181526133709161336b606483611c90565b613463565b565b60405163095ea7b360e01b602082018181526001600160a01b0385166024840152604480840196909652948252949390926133ae606485611c90565b60205f809386519082875af182513d8261343e575b5050156133d3575b505050509050565b60405160208101969096526001600160a01b031660248601526044808601829052855260808501906001600160401b0382118683101761342a5750613420939461336b9160405282613463565b805f8080806133cb565b634e487b7160e01b81526041600452602490fd5b90915061345b57506001600160a01b0383163b15155b5f806133c3565b600114613454565b905f602091828151910182855af115610896575f513d6134b457506001600160a01b0381163b155b6134925750565b604051635274afe760e01b81526001600160a01b039091166004820152602490fd5b6001141561348b565b9190916134c861207c565b5f838152600260205260408120549091906001600160a01b031615614594576134f084611ff5565b91848152600c602052600a6040822061350e60405180608052611c59565b80546080515260018101546020608051015260028101546040608051015260038101546060608051015260018060a01b0360048201541660808051015260018060a01b0360058201541660a0608051015260018060a01b0360068201541660c0608051015260018060a01b0360078201541660e0608051015260088101546001600160801b038116610100608051015260801c610120608051015260098101546001600160801b03811661014060805101526001600160401b038160801c16610160608051015260c01c610180608051015201549260ff8416151590816101a0608051015260ff8560081c1615156101c06080510152600160ff8660101c16806101e060805101526102006080510196828060a01b039060181c168752149182159261458c575b5061363f87614601565b6080805160c081015160e08201519851919092015160405163ddca3f4360e01b81526001600160a01b039283169993831696938316939092909160209184916004918391165afa9182156132fa57879261456b575b506080516101a001511561456557855b604051633c3e613f60e01b81526001600160a01b03918216600482015290602090829060249082907f0000000000000000000000000000000000000000000000000000000000000000165afa9081156143ac578891614527575b5060095460408051639af608c960e01b81526001600160a01b03898116600483015290949285916024918391165afa928315612ed257908995949392918693614505575b506080516101a08101511580159891889182906144c2576101c0820151156144a757506101c06001600160801b0361012083015116915b831580159b506144925701511561448c578b5b995b15614485578b985b1561447d5750955b95998a96906001600160a01b038a1681036144755750915b6007821015614461576001821480614459575b15613952575050506001600160a01b03948516948616850393506139219250505057506138009291906001600160a01b031661332f565b5f199081600b5401600b55858152600c602052600a604082208281558260018201558260028201558260038201558260048201558260058201558260068201558260078201558260088201558260098201550155845f526002602052845f60018060a01b0360408220541680159384156138ee575b5082825260026020526040822080546001600160a01b03191690557fddf252ad1be2c89b69c2b068fc378daa952ba7f163c4a11628f55a4df523b3ef8280a46138d5576133709293506001600160801b036101406080510151169161332f565b604051637e27328960e01b815260048101859052602490fd5b5f84815260046020526040902080546001600160a01b03191690558183526003602052604083209081540190555f613875565b6040516322f48a0560e11b815260048101919091526001600160a01b03909116602482015260016044820152606490fd5b9899959894979693946001600160a01b03808616908916146144285715613e4657506139ae9596976080516101a0810151613e1f575b50508461399e918960206080510151918a614984565b60206080979297510151906145ba565b89811215613e17576139bf906145d2565b915b604051636eb1769f60e11b8152602081806139e96001600160a01b0387163060048401612293565b03816001600160a01b0386165afa90811561317b578b91613de5575b50613a1684602060805101516145ad565b11613db8575b50608051602001516001600160a01b0382163b15613db4578991606483926040519485938492632bc6468360e21b8452600484015281602484015287604484015260018060a01b03165af18015612ed257613da1575b5015613a85575b5050505050505b613800565b82612710613aad613acf936001600160801b03613aa5613ad498886145ad565b9116906122ad565b0492613acf8460018060a01b0360085460081c1660018060a01b03891661332f565b6145ad565b906001600160a01b0381168714613d8757604051636eb1769f60e11b815260208180613b2d7f00000000000000000000000000000000000000000000000000000000000000006001600160a01b03163060048401612293565b03816001600160a01b0386165afa908115613324579083918791613d52575b5010613d16575b60405163ad1c481b60e01b815260208180613b728b8660048401612293565b03817f00000000000000000000000000000000000000000000000000000000000000006001600160a01b03165afa8015613324578690613ce2575b613bb89150836122ad565b60405163313ce56760e01b81526020816004816001600160a01b0387165afa9081156132fa57613bf99291613bf39189916132aa5750612213565b9061205e565b916126ac938385810204851484151715613cce5761271095949260209492613c3a928b604051998a9788976365650ea160e01b8952020493600487016122c0565b0381867f00000000000000000000000000000000000000000000000000000000000000006001600160a01b03165af1908115613cc3578391613c8d575b613c8292508561332f565b5f8080808080613a79565b90506020823d602011613cbb575b81613ca860209383611c90565b8101031261021257613c82915190613c77565b3d9150613c9b565b6040513d85823e3d90fd5b634e487b7160e01b87526011600452602487fd5b506020813d602011613d0e575b81613cfc60209383611c90565b8101031261021257613bb89051613bad565b3d9150613cef565b613d4d826001600160a01b037f00000000000000000000000000000000000000000000000000000000000000008116908416613372565b613b53565b9150506020813d602011613d7f575b81613d6e60209383611c90565b81010312610212578290515f613b4c565b3d9150613d61565b613d9c939192506001600160a01b031661332f565b613c82565b613dad90989198611c46565b965f613a72565b8980fd5b613ddf90613dcc84602060805101516145ad565b906001600160a01b038481169116613372565b5f613a1c565b90506020813d602011613e0f575b81613e0060209383611c90565b8101031261316f57515f613a05565b3d9150613df3565b5088916139c1565b61399e929650906001600160801b03610100613e3e93015116906122f6565b94905f613988565b915092949695935060029150145f14613eaa575050613a809391612710613e796001600160801b03613e9b9416836122ad565b0490613acf8260018060a01b0360085460081c1660018060a01b03881661332f565b916001600160a01b031661332f565b604051636eb1769f60e11b8152919490939160208180613ef77f00000000000000000000000000000000000000000000000000000000000000006001600160a01b03163060048401612293565b03816001600160a01b0386165afa9081156143ac5790839189916143f3575b50106143b7575b60405163ad1c481b60e01b815260208180613f3c888660048401612293565b03817f00000000000000000000000000000000000000000000000000000000000000006001600160a01b03165afa80156143ac578890614374575b613f829150836122ad565b60405163313ce56760e01b81526020816004816001600160a01b0387165afa908115612ed257613fbd9291613bf3918b916132aa5750612213565b91826126ac8102046126ac14831517156143605761271092613fff6020936126ac93898960405198899788976365650ea160e01b8952020493600487016122c0565b0381897f00000000000000000000000000000000000000000000000000000000000000006001600160a01b03165af190811561332457869161432c575b506127106140566001600160801b036140789416836122ad565b0490613acf8260018060a01b0360085460081c1660018060a01b03871661332f565b6001600160a01b038216871461431657604051636eb1769f60e11b8152602081806140d07f00000000000000000000000000000000000000000000000000000000000000006001600160a01b03163060048401612293565b03816001600160a01b0387165afa9081156133245790829187916142e1575b50106142a5575b60405163ad1c481b60e01b8152602081806141158b8760048401612293565b03817f00000000000000000000000000000000000000000000000000000000000000006001600160a01b03165afa801561332457869061426d575b61415b9150826122ad565b60405163313ce56760e01b81526020816004816001600160a01b0388165afa9081156132fa576141969291613bf39189916132aa5750612213565b92836126ac8102046126ac1484151715614259576040516365650ea160e01b815293602093859384936141d9936127106126ac90910204928c90600487016122c0565b0381867f00000000000000000000000000000000000000000000000000000000000000006001600160a01b03165af1908115613cc3578391614221575b50613a80918561332f565b90506020813d602011614251575b8161423c60209383611c90565b8101031261424d5751613a80614216565b8280fd5b3d915061422f565b634e487b7160e01b86526011600452602486fd5b506020813d60201161429d575b8161428760209383611c90565b810103126142995761415b9051614150565b8580fd5b3d915061427a565b6142dc816001600160a01b037f00000000000000000000000000000000000000000000000000000000000000008116908516613372565b6140f6565b9150506020813d60201161430e575b816142fd60209383611c90565b81010312614299578190515f6140ef565b3d91506142f0565b613a8093909250906001600160a01b031661332f565b90506020813d602011614358575b8161434760209383611c90565b81010312614299575161271061403c565b3d915061433a565b634e487b7160e01b88526011600452602488fd5b506020813d6020116143a4575b8161438e60209383611c90565b810103126143a057613f829051613f77565b8780fd5b3d9150614381565b6040513d8a823e3d90fd5b6143ee826001600160a01b037f00000000000000000000000000000000000000000000000000000000000000008116908416613372565b613f1d565b9150506020813d602011614420575b8161440f60209383611c90565b810103126143a0578290515f613f16565b3d9150614402565b6040516322f48a0560e11b81526001600160a01b038087166004830152891660248201526109296044820152606490fd5b5080156137c9565b634e487b7160e01b8c52602160045260248cfd5b9050916137b6565b90509561379e565b8798613796565b8761378c565b0151156144a157875b9961378e565b8b61449b565b9091506101c06001600160801b036101208401511692613779565b6101c082015191929091156144ea57506101c06001600160801b036101208401511692613779565b9190506101c06001600160801b036101208301511691613779565b61451f91935060403d604011613284576132708183611c90565b50915f613742565b90506020813d60201161455d575b8161454260209383611c90565b810103126143a0579061455660249261209a565b90916136fe565b3d9150614535565b826136a4565b61458591925060203d60201161088f576108808183611c90565b905f613694565b91505f613635565b6040516369c6ab6960e11b815260048101859052602490fd5b9190820391821161080557565b81810392915f13801582851316918412161761080557565b600160ff1b8114610805575f0390565b9081602091031261021257516001600160401b03811681036102125790565b5f81815260026020908152604080832054909392916001600160a01b039182161561497c57600c815284832092600a84015460ff16946002850154846005870154169660038701549086600689015416928760078a01541699878c5180809763ad1c481b60e01b825260049e8f83019161467a92612293565b03818c7f0000000000000000000000000000000000000000000000000000000000000000165afa94851561497257879561493f575b5082156149215761232880830290838204148315171561490e576127109004925b1561489957801515908161488f575b5061487f578015159081614874575b5061486557801515908161485a575b5061484e578015159182614843575b5050614837575b815260028252828682205416926009541692865195631ce3d24360e31b875281818801528387602481885afa96871561482d578397614807575b509060248492895196879384926367058dad60e01b84528301525afa9586156147fd5750946147c7575b505060096147a9910154916001600160401b0380911661479c828560801c16426145ad565b1193169160c01c436145ad565b11816147bf575b506147ba57600290565b600690565b90505f6147b0565b6147a9929450600991816147ef92903d106147f6575b6147e78183611c90565b8101906145e2565b9391614777565b503d6147dd565b51903d90823e3d90fd5b8492919750614824602491843d86116147f6576147e78183611c90565b9791925061474d565b88513d85823e3d90fd5b50505050505050600390565b101590505f8061470c565b50505050505050905090565b90508210155f6146fd565b50505050505050505050600590565b90508310155f6146ee565b5050505050505050505050600190565b905084105f6146df565b8015159081614904575b5061487f5780151590816148f9575b506148655780151590816148ee575b5061484e5780151591826148e3575b5050156147135750505050505050600390565b111590505f806148d0565b90508211155f6148c1565b90508311155f6148b2565b905084115f6148a3565b634e487b7160e01b885260118c52602488fd5b612af880830290838204148315171561490e576127109004926146d0565b9094508781813d831161496b575b6149578183611c90565b810103126149675751935f6146af565b8680fd5b503d61494d565b8c513d89823e3d90fd5b505091505090565b6040805163313ce56760e01b81529096959492936020936001600160a01b0380851693600492919087818581895afa8015614c7f576149c9915f91614c685750612213565b91817f000000000000000000000000000000000000000000000000000000000000000016958c51636eb1769f60e11b81528d8a8280614a0b8c308c8401612293565b0381865afa918215614c5e578d858e938b968f968f95908f915f91614c0f575b5094809493929181614a589710614bfe575b50505051968795869563ccdc1e8960e01b87528d87016122c0565b03815f8b5af1908115614bf4575f91614bc7575b5080614bb8575050868b51809263ad1c481b60e01b82528180614a928d8c8a8401612293565b03917f0000000000000000000000000000000000000000000000000000000000000000165afa908115614bae575f91614b7f575b5090614ad5614ada928a6122ad565b61205e565b916126ac92838102938185041490151715614b6c5785949392614b19612710938a5f948e519b8c998a9889976365650ea160e01b8952049487016122c0565b03925af1948515614b6357505f94614b32575b50509190565b8181959293953d8311614b5c575b614b4a8183611c90565b81010312611fe6575051915f80614b2c565b503d614b40565b513d5f823e3d90fd5b601182634e487b7160e01b5f525260245ffd5b908782813d8311614ba7575b614b958183611c90565b81010312611fe6575051614ad5614ac6565b503d614b8b565b8b513d5f823e3d90fd5b9b509998505050505050505050565b908982813d8311614bed575b614bdd8183611c90565b81010312611fe65750515f614a6c565b503d614bd3565b8d513d5f823e3d90fd5b614c0792613372565b5f838f614a3d565b989650965050965050505082813d8311614c57575b614c2e8183611c90565b81010312611fe657508a898f8e86614a58928f9697838f8f9a8290519250509192939495614a2b565b503d614c24565b50513d5f823e3d90fd5b6132cc9150893d8b116132d2576132c48183611c90565b8c513d5f823e3d90fd5b6001600160401b0381116107965760051b60200190565b90614caa82614c89565b614cb76040519182611c90565b8281528092614cc8601f1991614c89565b0190602036910137565b8051821015614ce65760209160051b010190565b634e487b7160e01b5f52603260045260245ffd5b811561206857600160ff1b81145f19831416610805570590565b81810292915f8212600160ff1b8214166108055781840514901517156108055756fea26469706673582212208f58c45183d50b9639dc3cca9997f5ca7d6eda816a23d773d976dfb0d052f69764736f6c63430008140033","linkReferences":{"src/libraries/PositionLogic.sol":{"PositionLogic":[{"start":4629,"length":20},{"start":7055,"length":20}]}}},"methodIdentifiers":{"LIQUIDATION_THRESHOLD()":"90a8ae9b","LIQUIDITY_POOL_FACTORY()":"ef3316ce","LIQUIDITY_POOL_FACTORY_UNISWAP_V3()":"b2d4c9d9","MAX_LEVERAGE()":"9b45ec97","MIN_POSITION_AMOUNT_IN_USD()":"1a055c2b","PRICE_FEED()":"31eb318a","SLIPPAGE_TOLERANCE()":"4c203786","UNISWAP_V3_HELPER()":"124b1583","USD_DECIMALS()":"2f6ee695","approve(address,uint256)":"095ea7b3","balanceOf(address)":"70a08231","closePosition(address,uint256)":"742fe1f8","editPosition(address,uint256,uint256)":"7701297c","feeManager()":"d0fb0203","getApproved(uint256)":"081812fc","getLiquidablePositions()":"1ae11bb5","getPositionParams(uint256)":"e63490ce","getPositionState(uint256)":"eb29dc5e","getTraderPositions(address)":"5fbbb2ff","isApprovedForAll(address,address)":"e985e9c5","liquidatePosition(address,uint256)":"76f89965","name()":"06fdde03","onERC721Received(address,address,uint256,bytes)":"150b7a02","openLongPosition(address,address,address,uint24,uint8,uint128,uint160,uint256)":"2d8f8372","openPositions(uint256)":"d2ec0025","openShortPosition(address,address,address,uint24,uint8,uint128,uint160,uint256)":"aed383ac","owner()":"8da5cb5b","ownerOf(uint256)":"6352211e","pause()":"8456cb59","paused()":"5c975abb","posId()":"f5d13da0","renounceOwnership()":"715018a6","safeTransferFrom(address,address,uint256)":"42842e0e","safeTransferFrom(address,address,uint256,bytes)":"b88d4fde","setApprovalForAll(address,bool)":"a22cb465","supportsInterface(bytes4)":"01ffc9a7","symbol()":"95d89b41","tokenURI(uint256)":"c87b56dd","totalNbPos()":"7841cd91","transferFrom(address,address,uint256)":"23b872dd","transferOwnership(address)":"f2fde38b","treasure()":"e520fc7e","unpause()":"3f4ba83a"},"id":56}