{"abi":[{"type":"constructor","inputs":[{"name":"_priceFeed","type":"address","internalType":"address"},{"name":"_liquidityPoolFactory","type":"address","internalType":"address"},{"name":"_liquidityPoolFactoryUniswapV3","type":"address","internalType":"address"},{"name":"_uniswapV3Helper","type":"address","internalType":"address"},{"name":"_treasure","type":"address","internalType":"address"},{"name":"_feeManager","type":"address","internalType":"address"}],"stateMutability":"nonpayable"},{"type":"function","name":"LIQUIDATION_THRESHOLD","inputs":[],"outputs":[{"name":"","type":"uint256","internalType":"uint256"}],"stateMutability":"view"},{"type":"function","name":"LIQUIDITY_POOL_FACTORY","inputs":[],"outputs":[{"name":"","type":"address","internalType":"contract LiquidityPoolFactory"}],"stateMutability":"view"},{"type":"function","name":"LIQUIDITY_POOL_FACTORY_UNISWAP_V3","inputs":[],"outputs":[{"name":"","type":"address","internalType":"address"}],"stateMutability":"view"},{"type":"function","name":"MAX_LEVERAGE","inputs":[],"outputs":[{"name":"","type":"uint256","internalType":"uint256"}],"stateMutability":"view"},{"type":"function","name":"MIN_POSITION_AMOUNT_IN_USD","inputs":[],"outputs":[{"name":"","type":"uint256","internalType":"uint256"}],"stateMutability":"view"},{"type":"function","name":"PRICE_FEED","inputs":[],"outputs":[{"name":"","type":"address","internalType":"contract PriceFeedL1"}],"stateMutability":"view"},{"type":"function","name":"SLIPPAGE_TOLERANCE","inputs":[],"outputs":[{"name":"","type":"uint256","internalType":"uint256"}],"stateMutability":"view"},{"type":"function","name":"UNISWAP_V3_HELPER","inputs":[],"outputs":[{"name":"","type":"address","internalType":"contract UniswapV3Helper"}],"stateMutability":"view"},{"type":"function","name":"USD_DECIMALS","inputs":[],"outputs":[{"name":"","type":"uint256","internalType":"uint256"}],"stateMutability":"view"},{"type":"function","name":"approve","inputs":[{"name":"to","type":"address","internalType":"address"},{"name":"tokenId","type":"uint256","internalType":"uint256"}],"outputs":[],"stateMutability":"nonpayable"},{"type":"function","name":"balanceOf","inputs":[{"name":"owner","type":"address","internalType":"address"}],"outputs":[{"name":"","type":"uint256","internalType":"uint256"}],"stateMutability":"view"},{"type":"function","name":"closePosition","inputs":[{"name":"_trader","type":"address","internalType":"address"},{"name":"_posId","type":"uint256","internalType":"uint256"}],"outputs":[],"stateMutability":"nonpayable"},{"type":"function","name":"editPosition","inputs":[{"name":"_trader","type":"address","internalType":"address"},{"name":"_posId","type":"uint256","internalType":"uint256"},{"name":"_newStopLossPrice","type":"uint256","internalType":"uint256"}],"outputs":[],"stateMutability":"nonpayable"},{"type":"function","name":"feeManager","inputs":[],"outputs":[{"name":"","type":"address","internalType":"contract FeeManager"}],"stateMutability":"view"},{"type":"function","name":"getApproved","inputs":[{"name":"tokenId","type":"uint256","internalType":"uint256"}],"outputs":[{"name":"","type":"address","internalType":"address"}],"stateMutability":"view"},{"type":"function","name":"getLiquidablePositions","inputs":[],"outputs":[{"name":"","type":"uint256[]","internalType":"uint256[]"}],"stateMutability":"view"},{"type":"function","name":"getPositionParams","inputs":[{"name":"_posId","type":"uint256","internalType":"uint256"}],"outputs":[{"name":"baseToken_","type":"address","internalType":"address"},{"name":"quoteToken_","type":"address","internalType":"address"},{"name":"positionSize_","type":"uint128","internalType":"uint128"},{"name":"timestamp_","type":"uint64","internalType":"uint64"},{"name":"isShort_","type":"bool","internalType":"bool"},{"name":"leverage_","type":"uint8","internalType":"uint8"},{"name":"breakEvenLimit_","type":"uint256","internalType":"uint256"},{"name":"limitPrice_","type":"uint160","internalType":"uint160"},{"name":"stopLossPrice_","type":"uint256","internalType":"uint256"},{"name":"currentPnL_","type":"int128","internalType":"int128"},{"name":"collateralLeft_","type":"int128","internalType":"int128"}],"stateMutability":"view"},{"type":"function","name":"getPositionState","inputs":[{"name":"_posId","type":"uint256","internalType":"uint256"}],"outputs":[{"name":"","type":"uint8","internalType":"enum PositionState"}],"stateMutability":"view"},{"type":"function","name":"getTraderPositions","inputs":[{"name":"_traderAdd","type":"address","internalType":"address"}],"outputs":[{"name":"","type":"uint256[]","internalType":"uint256[]"}],"stateMutability":"view"},{"type":"function","name":"isApprovedForAll","inputs":[{"name":"owner","type":"address","internalType":"address"},{"name":"operator","type":"address","internalType":"address"}],"outputs":[{"name":"","type":"bool","internalType":"bool"}],"stateMutability":"view"},{"type":"function","name":"liquidatePosition","inputs":[{"name":"_liquidator","type":"address","internalType":"address"},{"name":"_posId","type":"uint256","internalType":"uint256"}],"outputs":[],"stateMutability":"nonpayable"},{"type":"function","name":"name","inputs":[],"outputs":[{"name":"","type":"string","internalType":"string"}],"stateMutability":"view"},{"type":"function","name":"onERC721Received","inputs":[{"name":"","type":"address","internalType":"address"},{"name":"","type":"address","internalType":"address"},{"name":"","type":"uint256","internalType":"uint256"},{"name":"","type":"bytes","internalType":"bytes"}],"outputs":[{"name":"","type":"bytes4","internalType":"bytes4"}],"stateMutability":"pure"},{"type":"function","name":"openLongPosition","inputs":[{"name":"_trader","type":"address","internalType":"address"},{"name":"_token0","type":"address","internalType":"address"},{"name":"_token1","type":"address","internalType":"address"},{"name":"_fee","type":"uint24","internalType":"uint24"},{"name":"_leverage","type":"uint8","internalType":"uint8"},{"name":"_amount","type":"uint128","internalType":"uint128"},{"name":"_limitPrice","type":"uint160","internalType":"uint160"},{"name":"_stopLossPrice","type":"uint256","internalType":"uint256"}],"outputs":[{"name":"","type":"uint256","internalType":"uint256"}],"stateMutability":"nonpayable"},{"type":"function","name":"openPositions","inputs":[{"name":"","type":"uint256","internalType":"uint256"}],"outputs":[{"name":"initialPrice","type":"uint256","internalType":"uint256"},{"name":"totalBorrow","type":"uint256","internalType":"uint256"},{"name":"breakEvenLimit","type":"uint256","internalType":"uint256"},{"name":"stopLossPrice","type":"uint256","internalType":"uint256"},{"name":"v3Pool","type":"address","internalType":"address"},{"name":"limitPrice","type":"uint160","internalType":"uint160"},{"name":"baseToken","type":"address","internalType":"contract IERC20"},{"name":"quoteToken","type":"address","internalType":"contract IERC20"},{"name":"collateralSize","type":"uint128","internalType":"uint128"},{"name":"positionSize","type":"uint128","internalType":"uint128"},{"name":"liquidationReward","type":"uint128","internalType":"uint128"},{"name":"timestamp","type":"uint64","internalType":"uint64"},{"name":"blockNumber","type":"uint64","internalType":"uint64"},{"name":"isShort","type":"bool","internalType":"bool"},{"name":"isBaseToken0","type":"bool","internalType":"bool"},{"name":"leverage","type":"uint8","internalType":"uint8"},{"name":"initialToken","type":"address","internalType":"contract IERC20"}],"stateMutability":"view"},{"type":"function","name":"openShortPosition","inputs":[{"name":"_trader","type":"address","internalType":"address"},{"name":"_token0","type":"address","internalType":"address"},{"name":"_token1","type":"address","internalType":"address"},{"name":"_fee","type":"uint24","internalType":"uint24"},{"name":"_leverage","type":"uint8","internalType":"uint8"},{"name":"_amount","type":"uint128","internalType":"uint128"},{"name":"_limitPrice","type":"uint160","internalType":"uint160"},{"name":"_stopLossPrice","type":"uint256","internalType":"uint256"}],"outputs":[{"name":"","type":"uint256","internalType":"uint256"}],"stateMutability":"nonpayable"},{"type":"function","name":"owner","inputs":[],"outputs":[{"name":"","type":"address","internalType":"address"}],"stateMutability":"view"},{"type":"function","name":"ownerOf","inputs":[{"name":"tokenId","type":"uint256","internalType":"uint256"}],"outputs":[{"name":"","type":"address","internalType":"address"}],"stateMutability":"view"},{"type":"function","name":"pause","inputs":[],"outputs":[],"stateMutability":"nonpayable"},{"type":"function","name":"paused","inputs":[],"outputs":[{"name":"","type":"bool","internalType":"bool"}],"stateMutability":"view"},{"type":"function","name":"posId","inputs":[],"outputs":[{"name":"","type":"uint256","internalType":"uint256"}],"stateMutability":"view"},{"type":"function","name":"renounceOwnership","inputs":[],"outputs":[],"stateMutability":"nonpayable"},{"type":"function","name":"safeTransferFrom","inputs":[{"name":"from","type":"address","internalType":"address"},{"name":"to","type":"address","internalType":"address"},{"name":"tokenId","type":"uint256","internalType":"uint256"}],"outputs":[],"stateMutability":"nonpayable"},{"type":"function","name":"safeTransferFrom","inputs":[{"name":"from","type":"address","internalType":"address"},{"name":"to","type":"address","internalType":"address"},{"name":"tokenId","type":"uint256","internalType":"uint256"},{"name":"data","type":"bytes","internalType":"bytes"}],"outputs":[],"stateMutability":"nonpayable"},{"type":"function","name":"setApprovalForAll","inputs":[{"name":"operator","type":"address","internalType":"address"},{"name":"approved","type":"bool","internalType":"bool"}],"outputs":[],"stateMutability":"nonpayable"},{"type":"function","name":"supportsInterface","inputs":[{"name":"interfaceId","type":"bytes4","internalType":"bytes4"}],"outputs":[{"name":"","type":"bool","internalType":"bool"}],"stateMutability":"view"},{"type":"function","name":"symbol","inputs":[],"outputs":[{"name":"","type":"string","internalType":"string"}],"stateMutability":"view"},{"type":"function","name":"tokenURI","inputs":[{"name":"tokenId","type":"uint256","internalType":"uint256"}],"outputs":[{"name":"","type":"string","internalType":"string"}],"stateMutability":"view"},{"type":"function","name":"totalNbPos","inputs":[],"outputs":[{"name":"","type":"uint256","internalType":"uint256"}],"stateMutability":"view"},{"type":"function","name":"transferFrom","inputs":[{"name":"from","type":"address","internalType":"address"},{"name":"to","type":"address","internalType":"address"},{"name":"tokenId","type":"uint256","internalType":"uint256"}],"outputs":[],"stateMutability":"nonpayable"},{"type":"function","name":"transferOwnership","inputs":[{"name":"newOwner","type":"address","internalType":"address"}],"outputs":[],"stateMutability":"nonpayable"},{"type":"function","name":"treasure","inputs":[],"outputs":[{"name":"","type":"address","internalType":"address"}],"stateMutability":"view"},{"type":"function","name":"unpause","inputs":[],"outputs":[],"stateMutability":"nonpayable"},{"type":"event","name":"Approval","inputs":[{"name":"owner","type":"address","indexed":true,"internalType":"address"},{"name":"approved","type":"address","indexed":true,"internalType":"address"},{"name":"tokenId","type":"uint256","indexed":true,"internalType":"uint256"}],"anonymous":false},{"type":"event","name":"ApprovalForAll","inputs":[{"name":"owner","type":"address","indexed":true,"internalType":"address"},{"name":"operator","type":"address","indexed":true,"internalType":"address"},{"name":"approved","type":"bool","indexed":false,"internalType":"bool"}],"anonymous":false},{"type":"event","name":"OwnershipTransferred","inputs":[{"name":"previousOwner","type":"address","indexed":true,"internalType":"address"},{"name":"newOwner","type":"address","indexed":true,"internalType":"address"}],"anonymous":false},{"type":"event","name":"Paused","inputs":[{"name":"account","type":"address","indexed":false,"internalType":"address"}],"anonymous":false},{"type":"event","name":"Transfer","inputs":[{"name":"from","type":"address","indexed":true,"internalType":"address"},{"name":"to","type":"address","indexed":true,"internalType":"address"},{"name":"tokenId","type":"uint256","indexed":true,"internalType":"uint256"}],"anonymous":false},{"type":"event","name":"Unpaused","inputs":[{"name":"account","type":"address","indexed":false,"internalType":"address"}],"anonymous":false},{"type":"error","name":"ERC721IncorrectOwner","inputs":[{"name":"sender","type":"address","internalType":"address"},{"name":"tokenId","type":"uint256","internalType":"uint256"},{"name":"owner","type":"address","internalType":"address"}]},{"type":"error","name":"ERC721InsufficientApproval","inputs":[{"name":"operator","type":"address","internalType":"address"},{"name":"tokenId","type":"uint256","internalType":"uint256"}]},{"type":"error","name":"ERC721InvalidApprover","inputs":[{"name":"approver","type":"address","internalType":"address"}]},{"type":"error","name":"ERC721InvalidOperator","inputs":[{"name":"operator","type":"address","internalType":"address"}]},{"type":"error","name":"ERC721InvalidOwner","inputs":[{"name":"owner","type":"address","internalType":"address"}]},{"type":"error","name":"ERC721InvalidReceiver","inputs":[{"name":"receiver","type":"address","internalType":"address"}]},{"type":"error","name":"ERC721InvalidSender","inputs":[{"name":"sender","type":"address","internalType":"address"}]},{"type":"error","name":"ERC721NonexistentToken","inputs":[{"name":"tokenId","type":"uint256","internalType":"uint256"}]},{"type":"error","name":"EnforcedPause","inputs":[]},{"type":"error","name":"ExpectedPause","inputs":[]},{"type":"error","name":"OwnableInvalidOwner","inputs":[{"name":"owner","type":"address","internalType":"address"}]},{"type":"error","name":"OwnableUnauthorizedAccount","inputs":[{"name":"account","type":"address","internalType":"address"}]},{"type":"error","name":"Positions__POSITION_NOT_LIQUIDABLE_YET","inputs":[{"name":"_posId","type":"uint256","internalType":"uint256"}]},{"type":"error","name":"Positions__POSITION_NOT_OPEN","inputs":[{"name":"_posId","type":"uint256","internalType":"uint256"}]},{"type":"error","name":"Positions__POSITION_NOT_OWNED","inputs":[{"name":"_trader","type":"address","internalType":"address"},{"name":"_posId","type":"uint256","internalType":"uint256"}]},{"type":"error","name":"Positions__STOP_LOSS_ORDER_PRICE_NOT_CONCISTENT","inputs":[{"name":"_stopLossPrice","type":"uint256","internalType":"uint256"}]},{"type":"error","name":"Positions__TOKEN_RECEIVED_NOT_CONCISTENT","inputs":[{"name":"tokenBorrowed","type":"address","internalType":"address"},{"name":"tokenReceived","type":"address","internalType":"address"},{"name":"state","type":"uint256","internalType":"uint256"}]},{"type":"error","name":"ReentrancyGuardReentrantCall","inputs":[]},{"type":"error","name":"SafeERC20FailedOperation","inputs":[{"name":"token","type":"address","internalType":"address"}]}],"bytecode":{"object":"0x610100346200052a57601f62004e8b38819003918201601f19168301916001600160401b03831184841017620004475780849260c0946040528339810103126200052a576200004e816200054e565b9060206200005e8183016200054e565b906200006d604084016200054e565b926200007c606082016200054e565b936200009960a062000091608085016200054e565b93016200054e565b92620000a46200052e565b600b81526a0aadcd2e6eec2e05a9a82b60ab1b82820152620000c56200052e565b60068152650aa9c929a82b60d31b83820152815190916001600160401b03821162000447575f5490600182811c921680156200051f575b85831014620004285781601f849311620004cf575b508490601f831160011462000467575f926200045b575b50508160011b915f199060031b1c1916175f555b8051916001600160401b038311620004475760015491600183811c931680156200043c575b82841014620004285782601f859411620003d2575b5081601f84116001146200036657505f926200035a575b50508160011b915f199060031b1c1916176001555b33156200034257600680546001600160a01b0319808216339081179093556040519890976001600160a01b03978895919486948593919084167f8be0079c531659141344cd1fd0a4f28419497f9722a3daafe3b4186f6b6457e05f80a360016007819055600a5560e052166080521660a0521660c05260088054610100600160a81b03191691811b610100600160a81b031691909117905560098054909316911617905561492790816200056482396080518181816102b101528181610c08015281816115900152818161277101526133ff015260a05181818161040a0152818161050201528181610c31015281816110b701528181611490015281816115b901528181612559015281816128790152818161389901528181613c0c01528181613e06015281816142f401526146d6015260c05181818161186d015281816124f501528181612669015281816127f90152818161295301528181613839015281816139a401528181613bb301528181613d0901528181613da601528181613f0b015261464b015260e051818181610b2301528181610be001526115680152f35b604051631e4fbdf760e01b81525f6004820152602490fd5b015190505f806200018d565b60015f9081528181209450601f198616915b828210620003b9575050908460019594939210620003a0575b505050811b01600155620001a2565b01515f1960f88460031b161c191690555f808062000391565b8060018697829497870151815501960194019062000378565b9091925060015f52825f20601f850160051c8101918486106200041d575b90601f86959493920160051c01905b8181106200040e575062000176565b5f8155859450600101620003ff565b9091508190620003f0565b634e487b7160e01b5f52602260045260245ffd5b92607f169262000161565b634e487b7160e01b5f52604160045260245ffd5b015190505f8062000128565b5f8080528681209350601f198516905b87828210620004b85750509084600195949392106200049f575b505050811b015f556200013c565b01515f1960f88460031b161c191690555f808062000491565b600185968293968601518155019501930162000477565b9091505f8052845f20601f840160051c810186851062000517575b90849392915b601f830160051c820181106200050857505062000111565b5f8155859450600101620004f0565b5080620004ea565b91607f1691620000fc565b5f80fd5b60408051919082016001600160401b038111838210176200044757604052565b51906001600160a01b03821682036200052a5756fe6080806040526004361015610012575f80fd5b5f3560e01c90816301ffc9a714611a575750806306fdde03146119b9578063081812fc1461197d578063095ea7b31461189c578063124b158314611858578063150b7a02146117ef5780631a055c2b146117cd5780631ae11bb51461172857806323b872dd146117115780632d8f8372146114da5780632f6ee695146114bf57806331eb318a1461147b5780633f4ba83a1461141257806342842e0e146113eb5780634c203786146113cf5780635c975abb146113ad5780635fbbb2ff146112fb5780636352211e146112cb57806370a08231146112a0578063715018a614611245578063742fe1f8146111f857806376f899651461118b5780637701297c146110115780637841cd9114610ff45780638456cb5914610f9b5780638da5cb5b14610f7357806390a8ae9b14610f5757806395d89b4114610e6f5780639b45ec9714610e54578063a22cb46514610daa578063aed383ac14610b52578063b2d4c9d914610b0e578063b88d4fde14610a85578063c87b56dd14610a30578063d0fb020314610a08578063d2ec0025146108ff578063e520fc7e146108d6578063e63490ce14610375578063e985e9c514610323578063eb29dc5e146102e0578063ef3316ce1461029c578063f2fde38b146102165763f5d13da0146101f5575f80fd5b34610212575f366003190112610212576020600a54604051908152f35b5f80fd5b346102125760203660031901126102125761022f611b00565b610237611cda565b6001600160a01b0390811690811561028457600680546001600160a01b031981168417909155167f8be0079c531659141344cd1fd0a4f28419497f9722a3daafe3b4186f6b6457e05f80a3005b604051631e4fbdf760e01b81525f6004820152602490fd5b34610212575f366003190112610212576040517f00000000000000000000000000000000000000000000000000000000000000006001600160a01b03168152602090f35b34610212576020366003190112610212576102fc600435614265565b604051600782101561030f576020918152f35b634e487b7160e01b5f52602160045260245ffd5b346102125760403660031901126102125761033c611b00565b610344611b16565b9060018060a01b038091165f52600560205260405f2091165f52602052602060ff60405f2054166040519015158152f35b3461021257602036600319011261021257600480355f908152600c60209081526040918290206006810154600782015460088301546009840154600a85015460028601546005870154600388015488549a5163ad1c481b60e01b81526001600160a01b039889169c81018d905296881660248801819052969b9a9699959890979182169692959394939092918c9060449082907f0000000000000000000000000000000000000000000000000000000000000000165afa9a8b15610896575f9b6108a1575b50600182015460049283015460405163ddca3f4360e01b8152919391929160209184919082906001600160a01b03165afa918215610896575f92610865575b506009546001600160a01b031691610492600435612003565b936040519d8e6001600160401b03610160828181011092011117610799576101608f016040908152938f5260208f0152828e01526001600160801b038a1660608e015260ff601087901c811660808f01528616151560a08e01526001600160a01b03601887901c811660c08f01527f0000000000000000000000000000000000000000000000000000000000000000811660e08f015262ffffff919091166101008e01526101208d019290925291166101408b01528051969087018088116001600160401b039091111761079957604087016040525f87525f602088015260208a01518a51908181115f1461082c57505061059360208b01518b51906122b4565b61271090818102918183041490151715610808576105b6612710918c51906148b5565b6105d68c60ff60806001600160801b036060840151169201511690612286565b60a08d01519091901561081c576105ef6105f492614236565b6148cf565b05975b6001600160801b0360608c01511689808201125f821290801582169115161761080857808a01998c5f8c13806107f5575b6107c4575b5050505f8913806107ad575b6106c6575b916001600160401b039160ff94936106666001600160801b0360606101609f0151168c61421e565b600f0b998a815260208c600f0b9101526040519b8c5260208c015260801c60408b015260801c1660608901528181161515608089015260101c1660a087015260c086015260e0850152610100840152610120830152600f0b610140820152f35b6101208b01516101408c0151604051639af608c960e01b60208201526001600160a01b03918216602480830191909152815291169b906001600160401b036060820190811190821117610799575f816101609e6060839401604052602082519201905afa61073261203d565b90610740575b509a5061063e565b916106666001600160801b03606061078a6001600160401b0397959e6127106107838561077b8b60ff9f9e9c6020809151830101910161222b565b5016836148cf565b059061421e565b9d949650505050919394610738565b634e487b7160e01b5f52604160045260245ffd5b506101208b01516001600160a01b03161515610639565b6107ec939b506107e462ffffff610100620f4240930151168385016148cf565b05910161421e565b978b808c61062d565b5062ffffff610100820151161515610628565b634e487b7160e01b5f52601160045260245ffd5b610825916148cf565b05976105f7565b610835916122b4565b612710908181029181830414901517156108085761086061085861271092614236565b8c51906148b5565b6105b6565b61088891925060203d60201161088f575b6108808183611c9e565b810190612299565b908c610479565b503d610876565b6040513d5f823e3d90fd5b909a506020813d6020116108ce575b816108bd60209383611c9e565b81010312610212575199600461043a565b3d91506108b0565b34610212575f3660031901126102125760088054604051911c6001600160a01b03168152602090f35b34610212576020366003190112610212576004355f52600c60205261022060405f20805490600181015460028201549160038101549260018060a01b0393846004840154168560058501541686600686015416918760078701541693600887015495600a6009890154980154986040519b8c5260208c015260408b015260608a0152608089015260a088015260c087015260e08601526001600160801b039081811661010087015260801c61012086015281166101408501526001600160401b038160801c1661016085015260c01c61018084015260ff811615156101a084015260ff8160081c1615156101c084015260ff8160101c166101e084015260181c16610200820152f35b34610212575f366003190112610212576009546040516001600160a01b039091168152602090f35b3461021257602036600319011261021257610a4c600435612003565b505f604051610a5a81611c83565b52610a81604051610a6a81611c83565b5f8152604051918291602083526020830190611ac2565b0390f35b3461021257608036600319011261021257610a9e611b00565b610aa6611b16565b606435916001600160401b038311610212573660238401121561021257826004013591610ad283611cbf565b92610ae06040519485611c9e565b8084523660248287010111610212576020815f926024610b0c9801838801378501015260443591611eda565b005b34610212575f366003190112610212576040517f00000000000000000000000000000000000000000000000000000000000000006001600160a01b03168152602090f35b3461021257610c8a60a0610b6536611b9b565b9294610b78999799989192949698611cda565b610b806121ca565b610b8861208a565b60405190610b9582611c1c565b5f196001841b018a81168352908116602083015262ffffff881660408084019190915260ff881660608401526001600160801b03871660808401528482168385015260c083018690527f0000000000000000000000000000000000000000000000000000000000000000821660e08401527f000000000000000000000000000000000000000000000000000000000000000082166101008401527f00000000000000000000000000000000000000000000000000000000000000009091166101208301526005610140830152670de0b6b3a76400006101608301525163c433f0e160e01b815297889182919060048301612131565b038173__$a76c3f6da63d6e520725e3888dec961ed1$__5af4958615610896575f96610d7a575b506020860151604080880151885160808a01516060909a015192519b9215159a6001600160a01b039a8b169a91999282169894909116969392610cf38d611c38565b6001600160a01b039081168d5290811660208d015262ffffff9190911660408c015260ff9190911660608b01526001600160801b039190911660808a01521660a088015260c087015260e08601526101008501526101208401526101408301526101608201526001610180820152610d6a90612304565b6001600755604051908152602090f35b610d9c91965060a03d8111610da3575b610d948183611c9e565b8101906120bc565b9488610cb1565b503d610d8a565b3461021257604036600319011261021257610dc3611b00565b6024359081151590818303610212576001600160a01b0316918215610e3b57610e0d90335f52600560205260405f20845f5260205260405f209060ff801983541691151516179055565b6040519081527f17307eab39ab6107e8899845ad3d59bd9653f200f220920489ca2b5937696c3160203392a3005b604051630b61174360e31b815260048101849052602490fd5b34610212575f36600319011261021257602060405160058152f35b34610212575f366003190112610212576040515f60019081549182811c91818416918215610f4d575b6020948585108414610f395785879486865291825f14610f19575050600114610edd575b50610ec992500383611c9e565b610a81604051928284938452830190611ac2565b849150805f52815f20905f915b858310610f01575050610ec9935082010185610ebc565b80548389018501528794508693909201918101610eea565b60ff191685820152610ec995151560051b8501019250879150610ebc9050565b634e487b7160e01b5f52602260045260245ffd5b92607f1692610e98565b34610212575f3660031901126102125760206040516103e88152f35b34610212575f366003190112610212576006546040516001600160a01b039091168152602090f35b34610212575f36600319011261021257610fb3611cda565b610fbb61208a565b600160ff1960085416176008557f62e78cea01bee320cd4e420270b5ea74000d11b0c9f74754ebdbfc544b05a2586020604051338152a1005b34610212575f366003190112610212576020600b54604051908152f35b346102125760603660031901126102125761102a611b00565b60443590602435611039611cda565b61104281612003565b6001600160a01b0392908382169084160361116057506110606121ca565b61106861208a565b5f908152600c602090815260409182902060068101546007820154935163ad1c481b60e01b81526001600160a01b039186168216600482015293851616602484015292829081806044810103917f0000000000000000000000000000000000000000000000000000000000000000165afa908115610896575f9161112f575b50600a82015460ff1615611121578210611108576003905b01556001600755005b6040516371af14eb60e01b815260048101839052602490fd5b8211611108576003906110ff565b90506020813d8211611158575b8161114960209383611c9e565b810103126102125751836110e7565b3d915061113c565b60405163c8bbf6d360e01b81526001600160a01b039190911660048201526024810191909152604490fd5b34610212576040366003190112610212576111a4611b00565b6024356111af611cda565b6111b881614265565b600781101561030f576002146111e0576111d9916111d46121ca565b613258565b6001600755005b6024906040519063b9b3374360e01b82526004820152fd5b3461021257604036600319011261021257611211611b00565b6024359061121d611cda565b61122682612003565b6001600160a01b0382811691160361116057906111d9916111d46121ca565b34610212575f3660031901126102125761125d611cda565b600680546001600160a01b031981169091555f906001600160a01b03167f8be0079c531659141344cd1fd0a4f28419497f9722a3daafe3b4186f6b6457e08280a3005b346102125760203660031901126102125760206112c36112be611b00565b611d06565b604051908152f35b346102125760203660031901126102125760206112e9600435612003565b6040516001600160a01b039091168152f35b346102125760208060031936011261021257611315611b00565b61131e81611d06565b906113288261485b565b915f600a54945f199586810190811161080857909390916001600160a01b039182169190835b611361575b60405180610a818982611b2c565b835f526002865287838360405f205416145f146113a3575080846113876001938a61488d565b52019284841461139e57870194855b93909561134e565b611353565b9093019485611396565b34610212575f36600319011261021257602060ff600854166040519015158152f35b34610212575f3660031901126102125760206040516126ac8152f35b3461021257610b0c6113fc36611b66565b906040519261140a84611c83565b5f8452611eda565b34610212575f3660031901126102125761142a611cda565b60085460ff8116156114695760ff19166008557f5db9ee0a495bf2e6ff9c91a7834c1ba4fdd244a5e8aa4e537bd38aeae4b073aa6020604051338152a1005b604051638dfc202b60e01b8152600490fd5b34610212575f366003190112610212576040517f00000000000000000000000000000000000000000000000000000000000000006001600160a01b03168152602090f35b34610212575f36600319011261021257602060405160128152f35b346102125761161260a06114ed36611b9b565b9294611500999799989192949698611cda565b6115086121ca565b61151061208a565b6040519061151d82611c1c565b5f196001841b018a81168352908116602083015262ffffff881660408084019190915260ff881660608401526001600160801b03871660808401528482168385015260c083018690527f0000000000000000000000000000000000000000000000000000000000000000821660e08401527f000000000000000000000000000000000000000000000000000000000000000082166101008401527f00000000000000000000000000000000000000000000000000000000000000009091166101208301526005610140830152670de0b6b3a7640000610160830152516342ed172b60e11b815297889182919060048301612131565b038173__$a76c3f6da63d6e520725e3888dec961ed1$__5af4958615610896575f966116f1575b506020860151604080880151885160808a01516060909a015192519b9215159a6001600160a01b039a8b169a9199928216989490911696939261167b8d611c38565b6001600160a01b039081168d5290811660208d015262ffffff9190911660408c015260ff9190911660608b01526001600160801b039190911660808a01521660a088015260c087015260e08601526101008501526101208401526101408301526101608201525f610180820152610d6a90612304565b61170a91965060a03d8111610da357610d948183611c9e565b9488611639565b3461021257610b0c61172236611b66565b91611d3c565b34610212575f36600319011261021257600b546117448161485b565b600a545f19925f918481019081116108085791825b61176c575b60405180610a818682611b2c565b61177583614265565b600781101561030f578060028792141590816117c3575b50156117b9575080836117a16001938761488d565b5201918183146117b45784019182611759565b61175e565b9092019182611759565b905015158761178c565b34610212575f366003190112610212576020604051670de0b6b3a76400008152f35b3461021257608036600319011261021257611808611b00565b50611811611b16565b506064356001600160401b038082116102125736602383011215610212578160040135908111610212573691016024011161021257604051630a85bd0160e11b8152602090f35b34610212575f366003190112610212576040517f00000000000000000000000000000000000000000000000000000000000000006001600160a01b03168152602090f35b34610212576040366003190112610212576118b5611b00565b6024356118c181612003565b3315158061196a575b80611941575b611929576001600160a01b039283169282918491167f8c5be1e5ebec7d5bd14f71427d1e84f3dd0314c0f7b2291e5b200ac8c7c3b9255f80a45f90815260046020526040902080546001600160a01b0319169091179055005b60405163a9fbf51f60e01b8152336004820152602490fd5b5060018060a01b0381165f52600560205260405f20335f5260205260ff60405f205416156118d0565b506001600160a01b0381163314156118ca565b346102125760203660031901126102125760043561199a81612003565b505f526004602052602060018060a01b0360405f205416604051908152f35b34610212575f366003190112610212576040515f805490600182811c91818416918215611a4d575b6020948585108414610f395785879486865291825f14610f19575050600114611a115750610ec992500383611c9e565b8491505f8052815f20905f915b858310611a35575050610ec9935082010185610ebc565b80548389018501528794508693909201918101611a1e565b92607f16926119e1565b34610212576020366003190112610212576004359063ffffffff60e01b8216809203610212576020916380ac58cd60e01b8114908115611ab1575b8115611aa0575b5015158152f35b6301ffc9a760e01b14905083611a99565b635b5e139f60e01b81149150611a92565b91908251928382525f5b848110611aec575050825f602080949584010152601f8019910116010190565b602081830181015184830182015201611acc565b600435906001600160a01b038216820361021257565b602435906001600160a01b038216820361021257565b602090816040818301928281528551809452019301915f5b828110611b52575050505090565b835185529381019392810192600101611b44565b6060906003190112610212576001600160a01b0390600435828116810361021257916024359081168103610212579060443590565b610100906003190112610212576001600160a01b0360043581811681036102125791602435828116810361021257916044358181168103610212579160643562ffffff81168103610212579160843560ff81168103610212579160a4356001600160801b0381168103610212579160c4359081168103610212579060e43590565b61018081019081106001600160401b0382111761079957604052565b6101a081019081106001600160401b0382111761079957604052565b6001600160401b03811161079957604052565b61022081019081106001600160401b0382111761079957604052565b602081019081106001600160401b0382111761079957604052565b90601f801991011681019081106001600160401b0382111761079957604052565b6001600160401b03811161079957601f01601f191660200190565b6006546001600160a01b03163303611cee57565b60405163118cdaa760e01b8152336004820152602490fd5b6001600160a01b03168015611d24575f52600360205260405f205490565b6040516322718ad960e21b81525f6004820152602490fd5b6001600160a01b039182169290918315611ec2575f92828452826020956002875260409684888820541696879133151580611e29575b509060027fddf252ad1be2c89b69c2b068fc378daa952ba7f163c4a11628f55a4df523b3ef9284611df8575b858352600381528b8320805460010190558683525289812080546001600160a01b0319168517905580a41692838303611dd75750505050565b6064945051926364283d7b60e01b8452600484015260248301526044820152fd5b5f87815260046020526040902080546001600160a01b0319169055848352600381528b832080545f19019055611d9e565b91939450915080611e81575b15611e455785929187915f611d72565b878688611e62576024915190637e27328960e01b82526004820152fd5b905163177e802f60e01b81523360048201526024810191909152604490fd5b503387148015611ea6575b80611e355750858252600481523385898420541614611e35565b5086825260058152878220338352815260ff8883205416611e8c565b604051633250574960e11b81525f6004820152602490fd5b9190611ee7828285611d3c565b803b611ef4575b50505050565b611f3660018060a01b0380921694604051938493630a85bd0160e11b968786523360048701521660248501526044840152608060648401526084830190611ac2565b03906020815f938185885af190829082611fb4575b5050611f835782611f5a61203d565b8051919082611f7c57604051633250574960e11b815260048101839052602490fd5b6020915001fd5b6001600160e01b03191603611f9c57505f808080611eee565b60249060405190633250574960e11b82526004820152fd5b909192506020813d8211611ffb575b81611fd060209383611c9e565b81010312611ff75751906001600160e01b031982168203611ff45750905f80611f4b565b80fd5b5080fd5b3d9150611fc3565b5f818152600260205260409020546001600160a01b0316908115612025575090565b60249060405190637e27328960e01b82526004820152fd5b3d15612067573d9061204e82611cbf565b9161205c6040519384611c9e565b82523d5f602084013e565b606090565b8115612076570490565b634e487b7160e01b5f52601260045260245ffd5b60ff6008541661209657565b60405163d93c066560e01b8152600490fd5b51906001600160a01b038216820361021257565b908160a0910312610212576040519060a082018281106001600160401b0382111761079957604052805182526120f4602082016120a8565b6020830152612105604082016120a8565b604083015260608101518015158103610212576060830152612129906080016120a8565b608082015290565b91909161018081019260018060a01b0380825116835280602083015116602084015262ffffff604083015116604084015260ff60608301511660608401526080820151608084015260a082015160a084015260c082015160c08401528060e08301511660e08401526101008181840151169084015261012090818301511690830152610140808201519083015261016080910151910152565b6002600754146121db576002600755565b604051633ee5aeb560e01b8152600490fd5b90816020910312610212575160ff811681036102125790565b60ff16604d811161080857600a0a90565b51906001600160801b038216820361021257565b91908260409103126102125761224c602061224584612217565b9301612217565b90565b9190916001600160801b038080941691160291821691820361080857565b6001600160801b03918216908216039190821161080857565b8181029291811591840414171561080857565b90816020910312610212575162ffffff811681036102125790565b9190820391821161080857565b9190820180921161080857565b6001600160a01b0391821681529116602082015262ffffff90911660408201526060810191909152608081019190915260a00190565b600a54905f9060018060a01b0360e08201511660405160208160048163313ce56760e01b958682525afa9081156130bf5790612347918591613090575b50612206565b90602060018060a01b03610100850151169160046040518094819382525afa9081156130bf579061237e9185916130905750612206565b602083810151845160808601516040516323b872dd60e01b948101949094526001600160a01b0391821660248501523060448501526001600160801b03166064808501919091528352929392166001600160401b0360a083019081119083111761307c57906123f39160a082016040526131fe565b600954835160408051639af608c960e01b81526001600160a01b03928316600482015292909183916024918391165afa908115613071576124b16001600160801b036127108161247d8a8a608099988498839161302b575b50818587816124648f958261247197819901511661224f565b16049c8d9201511661226d565b168060808d015261224f565b1604166124a58160018060a01b0360208a01511660018060a01b0360085460081c16906130ca565b8260808801511661226d565b166080850181905261018085015115613017576101008501516001600160a01b0316905b60208601516001600160a01b03908116908316811461300f5761252391907f00000000000000000000000000000000000000000000000000000000000000006001600160a01b03169061310d565b60208581015160405163ad1c481b60e01b81526001600160a01b03918216600482015283821660248201529190829060449082907f0000000000000000000000000000000000000000000000000000000000000000165afa908115612d92578791612fd7575b506125a46125b6916001600160801b03608089015116612286565b61018087015115612fd057839061206c565b6126ac908082810204821481151715612e995760208781015161014089015160405163ddca3f4360e01b81526001600160a01b0392831696939092909183916004918391165afa908115612e50576127109493929162ffffff918c91612fb1575b506001600160801b0360808c01511692604051976365650ea160e01b8952600489015260018060a01b0316602488015216604486015260648501520204608482015260208160a4818960018060a01b037f0000000000000000000000000000000000000000000000000000000000000000165af18015612fa6578690612f69575b6001600160801b039150165b61018085015115612ec157610120850151806127108102046127101481151715612ead5760ff606087015116806127108102046127101481151715612e9957906126f96127106126ff9302612710830261206c565b906122c1565b93612733612727612719856001600160801b038616612286565b60ff60608a01511690612286565b6101208801519061206c565b60e0870151909593906001600160a01b0316805b604051633c3e613f60e01b81526001600160a01b03918216600482015290602090829060249082907f0000000000000000000000000000000000000000000000000000000000000000165afa908115612e50578a91612e5f575b506001600160a01b0381163b15612e5b5760405163317afabb60e21b815260048101899052908a908290602490829084906001600160a01b03165af18015612e5057612e39575b506128219087906001600160a01b037f00000000000000000000000000000000000000000000000000000000000000008116911661310d565b61018087015115612e195760e08701516101008801516001600160a01b0390811693911691905b60405163ad1c481b60e01b81526001600160a01b0380851660048301528516602482015291602083806044810103817f00000000000000000000000000000000000000000000000000000000000000006001600160a01b03165afa928315612dbc578b93612de3575b506128bf6128d4938a612286565b6101808b015190929015612ddb57509061206c565b906126ac928284810204841483151715612dc75761014089015160405163ddca3f4360e01b81529190602090839060049082906001600160a01b03165afa918215612dbc5792896020959361294e9361271098968f92612d9d575b506040516365650ea160e01b81529889978897020493600487016122ce565b03818a7f00000000000000000000000000000000000000000000000000000000000000006001600160a01b03165af1908115612d925790869392918891612d55575b506101808401516001600160801b03919015612d425716935b61012084015160c085015161014086015160a087015160e08801516101008901516101808a01516101608b015160608c01516020909c01516040519e6001600160a01b039182169e60ff909e169d9215159c9315159b9299929894821697958216968216959091169392918f9190612a2083611c67565b825260208201526040015260608d015260808c015260a08b015260c08a015260e08901526001600160801b03166101008801526001600160801b03166101208701526001600160801b0316610140860152426001600160401b0316610160860152436001600160401b03166101808601526101a08501526101c08401526101e0830152610200820152838352600c6020526040832081518155602082015160018201556040820151600282015560608201516003820155600160a01b60019003608083015116600160a01b600190031960048301541617600482015560058101600160a01b6001900360a084015116600160a01b600190031982541617905560068101600160a01b6001900360c084015116600160a01b600190031982541617905560078101600160a01b6001900360e084015116600160a01b60019003198254161790556101008201516001600160801b03166001600160801b031961012084015160801b161760088201556101408201516001600160801b03166001600160401b0360801b61016084015160801b166001600160401b0360c01b61018085015160c01b169117176009820155600a01906101a08101511515612bf090839060ff801983541691151516179055565b6101c081015115159082546101e082015160101b62ff00001691600160b81b6301000000900390610200015160181b169260081b61ff001690600160b81b610100900319161717179055600b54600101600b55600a54600101600a55600160a01b600190039051168015612d29575f838152600260205260409020546001600160a01b031680151591849183612cf6575b5f828152600360209081526040808320805460010190558583526002909152812080546001600160a01b031916841790557fddf252ad1be2c89b69c2b068fc378daa952ba7f163c4a11628f55a4df523b3ef9080a4612cde575090565b602490604051906339e3563760e11b82526004820152fd5b5f83815260046020526040902080546001600160a01b0319169055805f52600360205260405f205f198154019055612c81565b604051633250574960e11b815260048101839052602490fd5b612d4e908284166122c1565b16936129a9565b9350506020833d602011612d8a575b81612d7160209383611c9e565b81010312610212576001600160801b0386935190612990565b3d9150612d64565b6040513d89823e3d90fd5b612db5919250883d8a1161088f576108808183611c9e565b905f61292f565b6040513d8d823e3d90fd5b634e487b7160e01b8a52601160045260248afd5b90509061206c565b92506020833d602011612e11575b81612dfe60209383611c9e565b81010312610212579151916128bf6128b1565b3d9150612df1565b61010087015160e08801516001600160a01b039081169391169190612848565b6128219199612e488992611c54565b9991506127e8565b6040513d8c823e3d90fd5b8980fd5b90506020813d602011612e91575b81612e7a60209383611c9e565b81010312612e5b57612e8b906120a8565b5f6127a1565b3d9150612e6d565b634e487b7160e01b88526011600452602488fd5b634e487b7160e01b87526011600452602487fd5b610120850151936127108502948086046127101481151715612e9957606087019560ff875116906127108202918083046127101490151715612dc757612f119291612f0b9161206c565b906122b4565b9460ff5f199151160160ff8111612e995783612f4b612f3f60ff612f5094166001600160801b038716612286565b6101208a015190612286565b61206c565b610100870151909593906001600160a01b031680612747565b506020813d602011612f9e575b81612f8360209383611c9e565b81010312612f9a576001600160801b039051612698565b8580fd5b3d9150612f76565b6040513d88823e3d90fd5b612fca915060203d60201161088f576108808183611c9e565b5f612617565b859061206c565b90506020813d602011613007575b81612ff260209383611c9e565b8101031261300357516125a4612589565b8680fd5b3d9150612fe5565b5090506126a4565b60e08501516001600160a01b0316906124d5565b612464935061247191509185878161305b819660403d60401161306a575b6130538183611c9e565b81019061222b565b9790979550505050509161244b565b503d613049565b6040513d87823e3d90fd5b634e487b7160e01b86526041600452602486fd5b6130b2915060203d6020116130b8575b6130aa8183611c9e565b8101906121ed565b5f612341565b503d6130a0565b6040513d86823e3d90fd5b60405163a9059cbb60e01b60208201526001600160a01b0392909216602483015260448083019390935291815261310b91613106606483611c9e565b6131fe565b565b60405163095ea7b360e01b602082018181526001600160a01b038516602484015260448084019690965294825294939092613149606485611c9e565b60205f809386519082875af182513d826131d9575b50501561316e575b505050509050565b60405160208101969096526001600160a01b031660248601526044808601829052855260808501906001600160401b038211868310176131c557506131bb939461310691604052826131fe565b805f808080613166565b634e487b7160e01b81526041600452602490fd5b9091506131f657506001600160a01b0383163b15155b5f8061315e565b6001146131ef565b905f602091828151910182855af115610896575f513d61324f57506001600160a01b0381163b155b61322d5750565b604051635274afe760e01b81526001600160a01b039091166004820152602490fd5b60011415613226565b919061326261208a565b5f818152600260205260408120549093906001600160a01b0316156142055761328a82612003565b91808552600c6020526040852094600a604051966132a788611c67565b8054885260018101546020890152600281015460408901526003810154606089015260018060a01b03600482015416608089015260018060a01b0360058201541660a089015260018060a01b0360068201541660c089015260018060a01b0360078201541660e089015260088101546001600160801b0381166101008a015260801c61012089015260098101546001600160801b0381166101408a01526001600160401b038160801c166101608a015260c01c61018089015201549360ff851615156101a088015260ff8560081c1615156101c088015260ff8560101c166101e088015260018060a01b038560181c16610200880152600160ff8660101c1614948515956141f8575b506133ba83614265565b6101a0880151156141e45760c08801516001600160a01b0316905b604051633c3e613f60e01b81526001600160a01b03928316600482015291602090839060249082907f0000000000000000000000000000000000000000000000000000000000000000165afa9182156130bf5784926141a4575b5060095460408051639af608c960e01b81526001600160a01b038681166004830152909283916024918391165afa90811561307157908a949392918691614184575b506101a0850151158015998794918590614147576101c08801511561413057506001600160801b0361012088015116935b85156140fd576101c0880151156140ea5760c08801516001600160a01b03165b955b6102008901516001600160a01b03169c156140d65760c08901516001600160a01b0316955b81156140ce5750905b60c0890151919889926001600160a01b0390811690891681036140c6575060e001516001600160a01b0316925b60078210156140b25760018214806140aa575b15613695575050506001600160a01b03938416949384168503925061366591505057509061356092916130ca565b5f199081600b5401600b55828152600c602052600a604082208281558260018201558260028201558260038201558260048201558260058201558260068201558260078201558260088201558260098201550155815f526002602052815f60018060a01b036040822054168015938415613632575b5082825260026020526040822080546001600160a01b03191690557fddf252ad1be2c89b69c2b068fc378daa952ba7f163c4a11628f55a4df523b3ef8280a461202557506001600160801b0361014061310b9495015116916130ca565b5f84815260046020526040902080546001600160a01b03191690558183526003602052604083209081540190555f6135d5565b6040516322f48a0560e11b815260048101929092526001600160a01b031660248201526001604482015260649150fd5b97989697949593946001600160a01b03808616908a1614614079578f92919015613b3f57506101a0820151613b15575b506080015160405163ddca3f4360e01b81529190602090839060049082906001600160a01b03165afa918215613b0a57926137498f613720898b61372d9b9a99978f9760209a61375c9992613aeb575b508a860151926145f6565b87839b929b01519061421e565b8c811215613ae15761373e90614236565b9586915b01516122b4565b906001600160a01b03848116911661310d565b60208d01516001600160a01b0382163b15613add578891606483926040519485938492632bc6468360e21b8452600484015281602484015287604484015260018060a01b03165af18015613a5f57613aca575b50156137c1575b50505050505b613560565b826127106137e961380b936001600160801b036137e161381098886122b4565b911690612286565b049261380b8460018060a01b0360085460081c1660018060a01b0389166130ca565b6122b4565b6102008901519091906001600160a01b03808316911614613ab257613862826001600160a01b037f0000000000000000000000000000000000000000000000000000000000000000811690841661310d565b61020089015160405163ad1c481b60e01b81526001600160a01b0383811660048301529091166024820152602081806044810103817f00000000000000000000000000000000000000000000000000000000000000006001600160a01b03165afa8015613071578590613a7e575b6138db915083612286565b60405163313ce56760e01b81526020816004816001600160a01b0387165afa908115612fa65761391c92916139169188916130905750612206565b9061206c565b906126ac928284810204841483151715613a6a576102008b015160808c015160405163ddca3f4360e01b8152916001600160a01b039081169160209184916004918391165afa918215613a5f579261399f9261271098979592602097958b92613a40575b506040516365650ea160e01b8152998a978897020493600487016122ce565b0381867f00000000000000000000000000000000000000000000000000000000000000006001600160a01b03165af1908115613a355783916139ff575b6102008901516139f593506001600160a01b03166130ca565b5f808080806137b6565b90506020823d602011613a2d575b81613a1a60209383611c9e565b81010312610212576139f59151906139dc565b3d9150613a0d565b6040513d85823e3d90fd5b613a58919250883d8a1161088f576108808183611c9e565b905f613980565b6040513d8a823e3d90fd5b634e487b7160e01b86526011600452602486fd5b506020813d602011613aaa575b81613a9860209383611c9e565b81010312610212576138db90516138d0565b3d9150613a8b565b613ac592906001600160a01b03166130ca565b6139f5565b613ad690979197611c54565b955f6137af565b8880fd5b508b958691613742565b613b039192508b3d8d1161088f576108808183611c9e565b905f613715565b6040513d8b823e3d90fd5b819650613b366020916001600160801b0361010060049695015116906122c1565b969192506136c5565b929450949795505060029150145f14613ba15750613b9290612710613b706001600160801b036137bc971683612286565b049061380b8260018060a01b0360085460081c1660018060a01b0388166130ca565b916001600160a01b03166130ca565b91939192613bdc826001600160a01b037f0000000000000000000000000000000000000000000000000000000000000000811690841661310d565b60405163ad1c481b60e01b81526001600160a01b03808316600483015285166024820152602081806044810103817f00000000000000000000000000000000000000000000000000000000000000006001600160a01b03165afa8015612d92578790614045575b613c4e915083612286565b60405163313ce56760e01b81526020816004816001600160a01b0387165afa908115613a5f57613c899291613916918a916130905750612206565b91826126ac8102046126ac1483151715612ead5760808c015160405163ddca3f4360e01b815290602090829060049082906001600160a01b03165afa908115613a5f576020936126ac936127109693613d04938c91614028575b506040516365650ea160e01b815297889687960204928a90600487016122ce565b0381887f00000000000000000000000000000000000000000000000000000000000000006001600160a01b03165af1908115613071578591613ff4575b50612710613d5b6001600160801b03613d7d941683612286565b049061380b8260018060a01b0360085460081c1660018060a01b0387166130ca565b6102008901519091906001600160a01b03808316911614613fe157613dcf826001600160a01b037f0000000000000000000000000000000000000000000000000000000000000000811690841661310d565b61020089015160405163ad1c481b60e01b81526001600160a01b0383811660048301529091166024820152602081806044810103817f00000000000000000000000000000000000000000000000000000000000000006001600160a01b03165afa8015613071578590613fa9575b613e48915083612286565b60405163313ce56760e01b81526020816004816001600160a01b0387165afa908115612fa657613e8392916139169188916130905750612206565b91826126ac8102046126ac1483151715613f95576102008a015160808b015160405163ddca3f4360e01b8152916001600160a01b039081169160209184916004918391165afa918215612d9257936126ac936127109693613f06936020978b92612d9d57506040516365650ea160e01b81529889978897020493600487016122ce565b0381867f00000000000000000000000000000000000000000000000000000000000000006001600160a01b03165af1908115613a35578391613f5d575b506102008801516137bc92906001600160a01b03166130ca565b90506020813d602011613f8d575b81613f7860209383611c9e565b81010312613f8957516137bc613f43565b8280fd5b3d9150613f6b565b634e487b7160e01b85526011600452602485fd5b506020813d602011613fd9575b81613fc360209383611c9e565b81010312613fd557613e489051613e3d565b8480fd5b3d9150613fb6565b6137bc92906001600160a01b03166130ca565b90506020813d602011614020575b8161400f60209383611c9e565b81010312613fd55751612710613d41565b3d9150614002565b61403f9150873d891161088f576108808183611c9e565b5f613ce3565b506020813d602011614071575b8161405f60209383611c9e565b8101031261300357613c4e9051613c43565b3d9150614052565b6040516322f48a0560e11b81526001600160a01b0380871660048301528a1660248201526109296044820152606490fd5b508015613532565b634e487b7160e01b8b52602160045260248bfd5b90509261351f565b9050906134f2565b60e08901516001600160a01b0316956134e9565b60e08801516001600160a01b03166134c2565b6101c08801511561411d5760e08801516001600160a01b03165b956134c4565b60c08801516001600160a01b0316614117565b6101208801516001600160801b03169550936134a2565b6101c0880151949590941561416c57506001600160801b0361012088015116946134a2565b9493506001600160801b0361012088015116936134a2565b61419d915060403d60401161306a576130538183611c9e565b505f613471565b9091506020813d6020116141dc575b816141c060209383611c9e565b810103126141d8576141d1906120a8565b905f61342f565b8380fd5b3d91506141b3565b60e08801516001600160a01b0316906133d5565b60ff16151594505f6133b0565b6040516369c6ab6960e11b815260048101839052602490fd5b81810392915f13801582851316918412161761080857565b600160ff1b8114610808575f0390565b9081602091031261021257516001600160401b03811681036102125790565b5f81815260026020908152604080832054909392916001600160a01b03918216156145ee57600c8152848320600a810154600282015460058301546003840154600685015460078601548b5163ad1c481b60e01b81529189166001600160a01b03908116600480850191909152918a1616602483015299959895949093919260ff9091169190881687856044817f00000000000000000000000000000000000000000000000000000000000000008d165afa9485156145e45787956145b5575b50821561459757612328808302908382041483151715614584576127109004925b1561450f578015159081614505575b506144f55780151590816144ea575b506144db5780151590816144d0575b506144c45780151591826144b9575b50506144ad575b815260028252828682205416926009541692865195631ce3d24360e31b875281818801528387602481885afa9687156144a357839761447d575b509060248492895196879384926367058dad60e01b84528301525afa95861561447357509461443d575b5050600961441f910154916001600160401b03809116614412828560801c16426122b4565b1193169160c01c436122b4565b1181614435575b5061443057600290565b600690565b90505f614426565b61441f9294506009918161446592903d1061446c575b61445d8183611c9e565b810190614246565b93916143ed565b503d614453565b51903d90823e3d90fd5b849291975061449a602491843d861161446c5761445d8183611c9e565b979192506143c3565b88513d85823e3d90fd5b50505050505050600390565b101590505f80614382565b50505050505050905090565b90508210155f614373565b50505050505050505050600590565b90508310155f614364565b5050505050505050505050600190565b905084105f614355565b801515908161457a575b506144f557801515908161456f575b506144db578015159081614564575b506144c4578015159182614559575b5050156143895750505050505050600390565b111590505f80614546565b90508211155f614537565b90508311155f614528565b905084115f614519565b634e487b7160e01b885260118c52602488fd5b612af880830290838204148315171561458457612710900492614346565b9094508781813d83116145dd575b6145cd8183611c9e565b810103126130035751935f614325565b503d6145c3565b8c513d89823e3d90fd5b505091505090565b6040805163313ce56760e01b815290969594602093916001600160a01b03808516928a928781600481885afa90811561483a57868861468b8d866146438f978f975f916148235750612206565b99614672838b7f000000000000000000000000000000000000000000000000000000000000000016809e61310d565b5163ccdc1e8960e01b81529687958695600487016122ce565b03815f895af1908115614819575f916147ec575b50806147de575050895163ad1c481b60e01b81526001600160a01b03868116600483015285166024820152908690829060449082907f0000000000000000000000000000000000000000000000000000000000000000165afa9081156147d4575f916147a5575b5090612f4b6147159289612286565b6126ac90818102918183041490151715610808575f6127109161475287968a8d519a8b98899788966365650ea160e01b88520493600487016122ce565b03925af194851561479c57505f9461476b575b50509190565b8181959293953d8311614795575b6147838183611c9e565b81010312611ff4575051915f80614765565b503d614779565b513d5f823e3d90fd5b908682813d83116147cd575b6147bb8183611c9e565b81010312611ff4575051612f4b614706565b503d6147b1565b8a513d5f823e3d90fd5b9a5098975050505050505050565b908882813d8311614812575b6148028183611c9e565b81010312611ff45750515f61469f565b503d6147f8565b8c513d5f823e3d90fd5b6130b29150883d8a116130b8576130aa8183611c9e565b84513d5f823e3d90fd5b6001600160401b0381116107995760051b60200190565b9061486582614844565b6148726040519182611c9e565b8281528092614883601f1991614844565b0190602036910137565b80518210156148a15760209160051b010190565b634e487b7160e01b5f52603260045260245ffd5b811561207657600160ff1b81145f19831416610808570590565b81810292915f8212600160ff1b8214166108085781840514901517156108085756fea2646970667358221220fd6a5fb478c70a0314aa656a5a2131637a40bf32062925e3b9734231e65556f464736f6c63430008140033","linkReferences":{"src/libraries/PositionLogic.sol":{"PositionLogic":[{"start":4594,"length":20},{"start":7034,"length":20}]}}},"methodIdentifiers":{"LIQUIDATION_THRESHOLD()":"90a8ae9b","LIQUIDITY_POOL_FACTORY()":"ef3316ce","LIQUIDITY_POOL_FACTORY_UNISWAP_V3()":"b2d4c9d9","MAX_LEVERAGE()":"9b45ec97","MIN_POSITION_AMOUNT_IN_USD()":"1a055c2b","PRICE_FEED()":"31eb318a","SLIPPAGE_TOLERANCE()":"4c203786","UNISWAP_V3_HELPER()":"124b1583","USD_DECIMALS()":"2f6ee695","approve(address,uint256)":"095ea7b3","balanceOf(address)":"70a08231","closePosition(address,uint256)":"742fe1f8","editPosition(address,uint256,uint256)":"7701297c","feeManager()":"d0fb0203","getApproved(uint256)":"081812fc","getLiquidablePositions()":"1ae11bb5","getPositionParams(uint256)":"e63490ce","getPositionState(uint256)":"eb29dc5e","getTraderPositions(address)":"5fbbb2ff","isApprovedForAll(address,address)":"e985e9c5","liquidatePosition(address,uint256)":"76f89965","name()":"06fdde03","onERC721Received(address,address,uint256,bytes)":"150b7a02","openLongPosition(address,address,address,uint24,uint8,uint128,uint160,uint256)":"2d8f8372","openPositions(uint256)":"d2ec0025","openShortPosition(address,address,address,uint24,uint8,uint128,uint160,uint256)":"aed383ac","owner()":"8da5cb5b","ownerOf(uint256)":"6352211e","pause()":"8456cb59","paused()":"5c975abb","posId()":"f5d13da0","renounceOwnership()":"715018a6","safeTransferFrom(address,address,uint256)":"42842e0e","safeTransferFrom(address,address,uint256,bytes)":"b88d4fde","setApprovalForAll(address,bool)":"a22cb465","supportsInterface(bytes4)":"01ffc9a7","symbol()":"95d89b41","tokenURI(uint256)":"c87b56dd","totalNbPos()":"7841cd91","transferFrom(address,address,uint256)":"23b872dd","transferOwnership(address)":"f2fde38b","treasure()":"e520fc7e","unpause()":"3f4ba83a"},"id":56}