{"abi":[{"type":"constructor","inputs":[{"name":"_priceFeed","type":"address","internalType":"address"},{"name":"_liquidityPoolFactory","type":"address","internalType":"address"},{"name":"_liquidityPoolFactoryUniswapV3","type":"address","internalType":"address"},{"name":"_uniswapV3Helper","type":"address","internalType":"address"},{"name":"_treasure","type":"address","internalType":"address"},{"name":"_feeManager","type":"address","internalType":"address"}],"stateMutability":"nonpayable"},{"type":"function","name":"LIQUIDATION_THRESHOLD","inputs":[],"outputs":[{"name":"","type":"uint256","internalType":"uint256"}],"stateMutability":"view"},{"type":"function","name":"LIQUIDITY_POOL_FACTORY","inputs":[],"outputs":[{"name":"","type":"address","internalType":"contract LiquidityPoolFactory"}],"stateMutability":"view"},{"type":"function","name":"LIQUIDITY_POOL_FACTORY_UNISWAP_V3","inputs":[],"outputs":[{"name":"","type":"address","internalType":"address"}],"stateMutability":"view"},{"type":"function","name":"MAX_LEVERAGE","inputs":[],"outputs":[{"name":"","type":"uint256","internalType":"uint256"}],"stateMutability":"view"},{"type":"function","name":"MIN_POSITION_AMOUNT_IN_USD","inputs":[],"outputs":[{"name":"","type":"uint256","internalType":"uint256"}],"stateMutability":"view"},{"type":"function","name":"PRICE_FEED","inputs":[],"outputs":[{"name":"","type":"address","internalType":"contract PriceFeedL1"}],"stateMutability":"view"},{"type":"function","name":"UNISWAP_V3_HELPER","inputs":[],"outputs":[{"name":"","type":"address","internalType":"contract UniswapV3Helper"}],"stateMutability":"view"},{"type":"function","name":"USD_DECIMALS","inputs":[],"outputs":[{"name":"","type":"uint256","internalType":"uint256"}],"stateMutability":"view"},{"type":"function","name":"approve","inputs":[{"name":"to","type":"address","internalType":"address"},{"name":"tokenId","type":"uint256","internalType":"uint256"}],"outputs":[],"stateMutability":"nonpayable"},{"type":"function","name":"balanceOf","inputs":[{"name":"owner","type":"address","internalType":"address"}],"outputs":[{"name":"","type":"uint256","internalType":"uint256"}],"stateMutability":"view"},{"type":"function","name":"closePosition","inputs":[{"name":"_trader","type":"address","internalType":"address"},{"name":"_posId","type":"uint256","internalType":"uint256"}],"outputs":[],"stateMutability":"nonpayable"},{"type":"function","name":"editPosition","inputs":[{"name":"_trader","type":"address","internalType":"address"},{"name":"_posId","type":"uint256","internalType":"uint256"},{"name":"_newStopLossPrice","type":"uint256","internalType":"uint256"}],"outputs":[],"stateMutability":"nonpayable"},{"type":"function","name":"feeManager","inputs":[],"outputs":[{"name":"","type":"address","internalType":"contract FeeManager"}],"stateMutability":"view"},{"type":"function","name":"getApproved","inputs":[{"name":"tokenId","type":"uint256","internalType":"uint256"}],"outputs":[{"name":"","type":"address","internalType":"address"}],"stateMutability":"view"},{"type":"function","name":"getLiquidablePositions","inputs":[],"outputs":[{"name":"","type":"uint256[]","internalType":"uint256[]"}],"stateMutability":"view"},{"type":"function","name":"getPositionParams","inputs":[{"name":"_posId","type":"uint256","internalType":"uint256"}],"outputs":[{"name":"baseToken_","type":"address","internalType":"address"},{"name":"quoteToken_","type":"address","internalType":"address"},{"name":"positionSize_","type":"uint128","internalType":"uint128"},{"name":"timestamp_","type":"uint64","internalType":"uint64"},{"name":"isShort_","type":"bool","internalType":"bool"},{"name":"leverage_","type":"uint8","internalType":"uint8"},{"name":"breakEvenLimit_","type":"uint256","internalType":"uint256"},{"name":"limitPrice_","type":"uint160","internalType":"uint160"},{"name":"stopLossPrice_","type":"uint256","internalType":"uint256"},{"name":"currentPnL_","type":"int128","internalType":"int128"},{"name":"collateralLeft_","type":"int128","internalType":"int128"}],"stateMutability":"view"},{"type":"function","name":"getPositionState","inputs":[{"name":"_posId","type":"uint256","internalType":"uint256"}],"outputs":[{"name":"","type":"uint8","internalType":"enum PositionState"}],"stateMutability":"view"},{"type":"function","name":"getTraderPositions","inputs":[{"name":"_traderAdd","type":"address","internalType":"address"}],"outputs":[{"name":"","type":"uint256[]","internalType":"uint256[]"}],"stateMutability":"view"},{"type":"function","name":"isApprovedForAll","inputs":[{"name":"owner","type":"address","internalType":"address"},{"name":"operator","type":"address","internalType":"address"}],"outputs":[{"name":"","type":"bool","internalType":"bool"}],"stateMutability":"view"},{"type":"function","name":"liquidatePosition","inputs":[{"name":"_liquidator","type":"address","internalType":"address"},{"name":"_posId","type":"uint256","internalType":"uint256"}],"outputs":[],"stateMutability":"nonpayable"},{"type":"function","name":"name","inputs":[],"outputs":[{"name":"","type":"string","internalType":"string"}],"stateMutability":"view"},{"type":"function","name":"onERC721Received","inputs":[{"name":"","type":"address","internalType":"address"},{"name":"","type":"address","internalType":"address"},{"name":"","type":"uint256","internalType":"uint256"},{"name":"","type":"bytes","internalType":"bytes"}],"outputs":[{"name":"","type":"bytes4","internalType":"bytes4"}],"stateMutability":"pure"},{"type":"function","name":"openLongPosition","inputs":[{"name":"_trader","type":"address","internalType":"address"},{"name":"_token0","type":"address","internalType":"address"},{"name":"_token1","type":"address","internalType":"address"},{"name":"_fee","type":"uint24","internalType":"uint24"},{"name":"_leverage","type":"uint8","internalType":"uint8"},{"name":"_amount","type":"uint128","internalType":"uint128"},{"name":"_limitPrice","type":"uint160","internalType":"uint160"},{"name":"_stopLossPrice","type":"uint256","internalType":"uint256"}],"outputs":[{"name":"","type":"uint256","internalType":"uint256"}],"stateMutability":"nonpayable"},{"type":"function","name":"openPositions","inputs":[{"name":"","type":"uint256","internalType":"uint256"}],"outputs":[{"name":"initialPrice","type":"uint256","internalType":"uint256"},{"name":"totalBorrow","type":"uint256","internalType":"uint256"},{"name":"breakEvenLimit","type":"uint256","internalType":"uint256"},{"name":"stopLossPrice","type":"uint256","internalType":"uint256"},{"name":"v3Pool","type":"address","internalType":"address"},{"name":"limitPrice","type":"uint160","internalType":"uint160"},{"name":"baseToken","type":"address","internalType":"contract IERC20"},{"name":"quoteToken","type":"address","internalType":"contract IERC20"},{"name":"collateralSize","type":"uint128","internalType":"uint128"},{"name":"positionSize","type":"uint128","internalType":"uint128"},{"name":"liquidationReward","type":"uint128","internalType":"uint128"},{"name":"timestamp","type":"uint64","internalType":"uint64"},{"name":"blockNumber","type":"uint64","internalType":"uint64"},{"name":"isShort","type":"bool","internalType":"bool"},{"name":"isBaseToken0","type":"bool","internalType":"bool"},{"name":"leverage","type":"uint8","internalType":"uint8"},{"name":"initialToken","type":"address","internalType":"contract IERC20"}],"stateMutability":"view"},{"type":"function","name":"openShortPosition","inputs":[{"name":"_trader","type":"address","internalType":"address"},{"name":"_token0","type":"address","internalType":"address"},{"name":"_token1","type":"address","internalType":"address"},{"name":"_fee","type":"uint24","internalType":"uint24"},{"name":"_leverage","type":"uint8","internalType":"uint8"},{"name":"_amount","type":"uint128","internalType":"uint128"},{"name":"_limitPrice","type":"uint160","internalType":"uint160"},{"name":"_stopLossPrice","type":"uint256","internalType":"uint256"}],"outputs":[{"name":"","type":"uint256","internalType":"uint256"}],"stateMutability":"nonpayable"},{"type":"function","name":"owner","inputs":[],"outputs":[{"name":"","type":"address","internalType":"address"}],"stateMutability":"view"},{"type":"function","name":"ownerOf","inputs":[{"name":"tokenId","type":"uint256","internalType":"uint256"}],"outputs":[{"name":"","type":"address","internalType":"address"}],"stateMutability":"view"},{"type":"function","name":"pause","inputs":[],"outputs":[],"stateMutability":"nonpayable"},{"type":"function","name":"paused","inputs":[],"outputs":[{"name":"","type":"bool","internalType":"bool"}],"stateMutability":"view"},{"type":"function","name":"posId","inputs":[],"outputs":[{"name":"","type":"uint256","internalType":"uint256"}],"stateMutability":"view"},{"type":"function","name":"renounceOwnership","inputs":[],"outputs":[],"stateMutability":"nonpayable"},{"type":"function","name":"safeTransferFrom","inputs":[{"name":"from","type":"address","internalType":"address"},{"name":"to","type":"address","internalType":"address"},{"name":"tokenId","type":"uint256","internalType":"uint256"}],"outputs":[],"stateMutability":"nonpayable"},{"type":"function","name":"safeTransferFrom","inputs":[{"name":"from","type":"address","internalType":"address"},{"name":"to","type":"address","internalType":"address"},{"name":"tokenId","type":"uint256","internalType":"uint256"},{"name":"data","type":"bytes","internalType":"bytes"}],"outputs":[],"stateMutability":"nonpayable"},{"type":"function","name":"setApprovalForAll","inputs":[{"name":"operator","type":"address","internalType":"address"},{"name":"approved","type":"bool","internalType":"bool"}],"outputs":[],"stateMutability":"nonpayable"},{"type":"function","name":"supportsInterface","inputs":[{"name":"interfaceId","type":"bytes4","internalType":"bytes4"}],"outputs":[{"name":"","type":"bool","internalType":"bool"}],"stateMutability":"view"},{"type":"function","name":"symbol","inputs":[],"outputs":[{"name":"","type":"string","internalType":"string"}],"stateMutability":"view"},{"type":"function","name":"tokenURI","inputs":[{"name":"tokenId","type":"uint256","internalType":"uint256"}],"outputs":[{"name":"","type":"string","internalType":"string"}],"stateMutability":"view"},{"type":"function","name":"totalNbPos","inputs":[],"outputs":[{"name":"","type":"uint256","internalType":"uint256"}],"stateMutability":"view"},{"type":"function","name":"transferFrom","inputs":[{"name":"from","type":"address","internalType":"address"},{"name":"to","type":"address","internalType":"address"},{"name":"tokenId","type":"uint256","internalType":"uint256"}],"outputs":[],"stateMutability":"nonpayable"},{"type":"function","name":"transferOwnership","inputs":[{"name":"newOwner","type":"address","internalType":"address"}],"outputs":[],"stateMutability":"nonpayable"},{"type":"function","name":"treasure","inputs":[],"outputs":[{"name":"","type":"address","internalType":"address"}],"stateMutability":"view"},{"type":"function","name":"unpause","inputs":[],"outputs":[],"stateMutability":"nonpayable"},{"type":"event","name":"Approval","inputs":[{"name":"owner","type":"address","indexed":true,"internalType":"address"},{"name":"approved","type":"address","indexed":true,"internalType":"address"},{"name":"tokenId","type":"uint256","indexed":true,"internalType":"uint256"}],"anonymous":false},{"type":"event","name":"ApprovalForAll","inputs":[{"name":"owner","type":"address","indexed":true,"internalType":"address"},{"name":"operator","type":"address","indexed":true,"internalType":"address"},{"name":"approved","type":"bool","indexed":false,"internalType":"bool"}],"anonymous":false},{"type":"event","name":"OwnershipTransferred","inputs":[{"name":"previousOwner","type":"address","indexed":true,"internalType":"address"},{"name":"newOwner","type":"address","indexed":true,"internalType":"address"}],"anonymous":false},{"type":"event","name":"Paused","inputs":[{"name":"account","type":"address","indexed":false,"internalType":"address"}],"anonymous":false},{"type":"event","name":"Transfer","inputs":[{"name":"from","type":"address","indexed":true,"internalType":"address"},{"name":"to","type":"address","indexed":true,"internalType":"address"},{"name":"tokenId","type":"uint256","indexed":true,"internalType":"uint256"}],"anonymous":false},{"type":"event","name":"Unpaused","inputs":[{"name":"account","type":"address","indexed":false,"internalType":"address"}],"anonymous":false},{"type":"error","name":"ERC721IncorrectOwner","inputs":[{"name":"sender","type":"address","internalType":"address"},{"name":"tokenId","type":"uint256","internalType":"uint256"},{"name":"owner","type":"address","internalType":"address"}]},{"type":"error","name":"ERC721InsufficientApproval","inputs":[{"name":"operator","type":"address","internalType":"address"},{"name":"tokenId","type":"uint256","internalType":"uint256"}]},{"type":"error","name":"ERC721InvalidApprover","inputs":[{"name":"approver","type":"address","internalType":"address"}]},{"type":"error","name":"ERC721InvalidOperator","inputs":[{"name":"operator","type":"address","internalType":"address"}]},{"type":"error","name":"ERC721InvalidOwner","inputs":[{"name":"owner","type":"address","internalType":"address"}]},{"type":"error","name":"ERC721InvalidReceiver","inputs":[{"name":"receiver","type":"address","internalType":"address"}]},{"type":"error","name":"ERC721InvalidSender","inputs":[{"name":"sender","type":"address","internalType":"address"}]},{"type":"error","name":"ERC721NonexistentToken","inputs":[{"name":"tokenId","type":"uint256","internalType":"uint256"}]},{"type":"error","name":"EnforcedPause","inputs":[]},{"type":"error","name":"ExpectedPause","inputs":[]},{"type":"error","name":"OwnableInvalidOwner","inputs":[{"name":"owner","type":"address","internalType":"address"}]},{"type":"error","name":"OwnableUnauthorizedAccount","inputs":[{"name":"account","type":"address","internalType":"address"}]},{"type":"error","name":"Positions__POSITION_NOT_LIQUIDABLE_YET","inputs":[{"name":"_posId","type":"uint256","internalType":"uint256"}]},{"type":"error","name":"Positions__POSITION_NOT_OPEN","inputs":[{"name":"_posId","type":"uint256","internalType":"uint256"}]},{"type":"error","name":"Positions__POSITION_NOT_OWNED","inputs":[{"name":"_trader","type":"address","internalType":"address"},{"name":"_posId","type":"uint256","internalType":"uint256"}]},{"type":"error","name":"Positions__STOP_LOSS_ORDER_PRICE_NOT_CONCISTENT","inputs":[{"name":"_stopLossPrice","type":"uint256","internalType":"uint256"}]},{"type":"error","name":"Positions__TOKEN_RECEIVED_NOT_CONCISTENT","inputs":[{"name":"tokenBorrowed","type":"address","internalType":"address"},{"name":"tokenReceived","type":"address","internalType":"address"},{"name":"state","type":"uint256","internalType":"uint256"}]},{"type":"error","name":"ReentrancyGuardReentrantCall","inputs":[]},{"type":"error","name":"SafeERC20FailedOperation","inputs":[{"name":"token","type":"address","internalType":"address"}]}],"bytecode":{"object":"0x610100346200052357601f62004b8838819003918201601f19168301916001600160401b03831184841017620004405780849260c09460405283398101031262000523576200004e8162000547565b9060206200005e81830162000547565b906200006d6040840162000547565b926200007c6060820162000547565b936200009960a0620000916080850162000547565b930162000547565b92620000a462000527565b600b81526a0aadcd2e6eec2e05a9a82b60ab1b82820152620000c562000527565b60068152650aa9c929a82b60d31b83820152815190916001600160401b03821162000440575f5490600182811c9216801562000518575b85831014620004215781601f849311620004c8575b508490601f831160011462000460575f9262000454575b50508160011b915f199060031b1c1916175f555b8051916001600160401b038311620004405760015491600183811c9316801562000435575b82841014620004215782601f859411620003cb575b5081601f84116001146200035f57505f9262000353575b50508160011b915f199060031b1c1916176001555b33156200033b57600680546001600160a01b0319808216339081179093556040519890976001600160a01b03978895919486948593919084167f8be0079c531659141344cd1fd0a4f28419497f9722a3daafe3b4186f6b6457e05f80a360016007819055600a5560e052166080521660a0521660c05260088054610100600160a81b03191691811b610100600160a81b031691909117905560098054909316911617905561462b90816200055d82396080518181816102a601528181610950015281816112bc015281816124980152613132015260a0518181816104060152818161097901528181610dff015281816111bc015281816112e501528181612280015281816125a0015281816135e20152818161397101528181613b6b015281816140310152614413015260c0518181816115990152818161221c01528181612390015281816125200152818161267a01528181613582015281816136ed0152818161391801528181613a6e01528181613b0b01528181613c700152614388015260e05181818161086b0152818161092801526112940152f35b604051631e4fbdf760e01b81525f6004820152602490fd5b015190505f806200018d565b60015f9081528181209450601f198616915b828210620003b257505090846001959493921062000399575b505050811b01600155620001a2565b01515f1960f88460031b161c191690555f80806200038a565b8060018697829497870151815501960194019062000371565b9091925060015f52825f20601f850160051c81019184861062000416575b90601f86959493920160051c01905b81811062000407575062000176565b5f8155859450600101620003f8565b9091508190620003e9565b634e487b7160e01b5f52602260045260245ffd5b92607f169262000161565b634e487b7160e01b5f52604160045260245ffd5b015190505f8062000128565b5f8080528681209350601f198516905b87828210620004b157505090846001959493921062000498575b505050811b015f556200013c565b01515f1960f88460031b161c191690555f80806200048a565b600185968293968601518155019501930162000470565b9091505f8052845f20601f840160051c810186851062000510575b90849392915b601f830160051c820181106200050157505062000111565b5f8155859450600101620004e9565b5080620004e3565b91607f1691620000fc565b5f80fd5b60408051919082016001600160401b038111838210176200044057604052565b51906001600160a01b0382168203620005235756fe6080806040526004361015610012575f80fd5b5f3560e01c90816301ffc9a7146117835750806306fdde03146116e5578063081812fc146116a9578063095ea7b3146115c8578063124b158314611584578063150b7a021461151b5780631a055c2b146114f95780631ae11bb51461145457806323b872dd1461143d5780632d8f8372146112065780632f6ee695146111eb57806331eb318a146111a75780633f4ba83a1461113e57806342842e0e146111175780635c975abb146110f55780635fbbb2ff146110435780636352211e1461101357806370a0823114610fe8578063715018a614610f8d578063742fe1f814610f4057806376f8996514610ed35780637701297c14610d595780637841cd9114610d3c5780638456cb5914610ce35780638da5cb5b14610cbb57806390a8ae9b14610c9f57806395d89b4114610bb75780639b45ec9714610b9c578063a22cb46514610af2578063aed383ac1461089a578063b2d4c9d914610856578063b88d4fde146107cd578063c87b56dd14610778578063d0fb020314610750578063d2ec002514610647578063e520fc7e1461061e578063e63490ce1461036a578063e985e9c514610318578063eb29dc5e146102d5578063ef3316ce14610291578063f2fde38b1461020b5763f5d13da0146101ea575f80fd5b34610207575f366003190112610207576020600a54604051908152f35b5f80fd5b346102075760203660031901126102075761022461182c565b61022c611a1a565b6001600160a01b0390811690811561027957600680546001600160a01b031981168417909155167f8be0079c531659141344cd1fd0a4f28419497f9722a3daafe3b4186f6b6457e05f80a3005b604051631e4fbdf760e01b81525f6004820152602490fd5b34610207575f366003190112610207576040517f00000000000000000000000000000000000000000000000000000000000000006001600160a01b03168152602090f35b34610207576020366003190112610207576102f1600435613fa2565b6040516007821015610304576020918152f35b634e487b7160e01b5f52602160045260245ffd5b346102075760403660031901126102075761033161182c565b610339611842565b9060018060a01b038091165f52600560205260405f2091165f52602052602060ff60405f2054166040519015158152f35b34610207576020366003190112610207576004355f52600c60205260405f2060018060a01b038060068301541690806007840154166008840154916009850154600a86015490600287015496836005820154169361040260208760038501549454938b60405180958194829363ad1c481b60e01b84526004840190602090939293604083019460018060a01b03809216845216910152565b03917f0000000000000000000000000000000000000000000000000000000000000000165afa908115610613575f916105e1575b5061271091828202918083048414901517156105a25780156105cd57600160ff1b918083145f198314166105a257055f811290830390838212811690848313901516176105a2578860801d600f0b908082029281145f8312166105a25781830514901517156105a25705600f0b60ff8416156105b657935b60016001607f1b03196001600160801b038416600f90810b9087900b0390811260016001607f1b03909113176105a25760016001607f1b036001600160801b03888116600f90810b918616810b88820b03900b0190811360016001607f1b0319909112176105a2576101609860ff6001600160801b03979588966040519b8c5260208c01528960801c60408c01526001600160401b038660801c1660608c0152818116151560808c015260101c1660a08a015260c089015260e0880152610100870152818116600f0b83600f0b03600f0b61012087015216600f0b90600f0b03600f0b9116600f0b01600f0b610140820152f35b634e487b7160e01b5f52601160045260245ffd5b60016001607f1b031981146105a2575f03936104ae565b634e487b7160e01b5f52601260045260245ffd5b90506020813d60201161060b575b816105fc602093836119de565b8101031261020757518a610436565b3d91506105ef565b6040513d5f823e3d90fd5b34610207575f3660031901126102075760088054604051911c6001600160a01b03168152602090f35b34610207576020366003190112610207576004355f52600c60205261022060405f20805490600181015460028201549160038101549260018060a01b0393846004840154168560058501541686600686015416918760078701541693600887015495600a6009890154980154986040519b8c5260208c015260408b015260608a0152608089015260a088015260c087015260e08601526001600160801b039081811661010087015260801c61012086015281166101408501526001600160401b038160801c1661016085015260c01c61018084015260ff811615156101a084015260ff8160081c1615156101c084015260ff8160101c166101e084015260181c16610200820152f35b34610207575f366003190112610207576009546040516001600160a01b039091168152602090f35b3461020757602036600319011261020757610794600435611d6d565b505f6040516107a2816119c3565b526107c96040516107b2816119c3565b5f81526040519182916020835260208301906117ee565b0390f35b34610207576080366003190112610207576107e661182c565b6107ee611842565b606435916001600160401b03831161020757366023840112156102075782600401359161081a836119ff565b9261082860405194856119de565b8084523660248287010111610207576020815f9260246108549801838801378501015260443591611c1a565b005b34610207575f366003190112610207576040517f00000000000000000000000000000000000000000000000000000000000000006001600160a01b03168152602090f35b34610207576109d260a06108ad366118c7565b92946108c0999799989192949698611a1a565b6108c8611ef1565b6108d0611db1565b604051906108dd82611948565b5f196001841b018a81168352908116602083015262ffffff881660408084019190915260ff881660608401526001600160801b03871660808401528482168385015260c083018690527f0000000000000000000000000000000000000000000000000000000000000000821660e08401527f000000000000000000000000000000000000000000000000000000000000000082166101008401527f0000000000000000000000000000000000000000000000000000000000000000909116610120830152600561014083015267016345785d8a00006101608301525163c433f0e160e01b815297889182919060048301611e58565b038173__$a76c3f6da63d6e520725e3888dec961ed1$__5af4958615610613575f96610ac2575b506020860151604080880151885160808a01516060909a015192519b9215159a6001600160a01b039a8b169a91999282169894909116969392610a3b8d611978565b6001600160a01b039081168d5290811660208d015262ffffff9190911660408c015260ff9190911660608b01526001600160801b039190911660808a01521660a088015260c087015260e08601526101008501526101208401526101408301526101608201526001610180820152610ab29061202b565b6001600755604051908152602090f35b610ae491965060a03d8111610aeb575b610adc81836119de565b810190611de3565b94886109f9565b503d610ad2565b3461020757604036600319011261020757610b0b61182c565b6024359081151590818303610207576001600160a01b0316918215610b8357610b5590335f52600560205260405f20845f5260205260405f209060ff801983541691151516179055565b6040519081527f17307eab39ab6107e8899845ad3d59bd9653f200f220920489ca2b5937696c3160203392a3005b604051630b61174360e31b815260048101849052602490fd5b34610207575f36600319011261020757602060405160058152f35b34610207575f366003190112610207576040515f60019081549182811c91818416918215610c95575b6020948585108414610c815785879486865291825f14610c61575050600114610c25575b50610c11925003836119de565b6107c96040519282849384528301906117ee565b849150805f52815f20905f915b858310610c49575050610c11935082010185610c04565b80548389018501528794508693909201918101610c32565b60ff191685820152610c1195151560051b8501019250879150610c049050565b634e487b7160e01b5f52602260045260245ffd5b92607f1692610be0565b34610207575f3660031901126102075760206040516103e88152f35b34610207575f366003190112610207576006546040516001600160a01b039091168152602090f35b34610207575f36600319011261020757610cfb611a1a565b610d03611db1565b600160ff1960085416176008557f62e78cea01bee320cd4e420270b5ea74000d11b0c9f74754ebdbfc544b05a2586020604051338152a1005b34610207575f366003190112610207576020600b54604051908152f35b3461020757606036600319011261020757610d7261182c565b60443590602435610d81611a1a565b610d8a81611d6d565b6001600160a01b03929083821690841603610ea85750610da8611ef1565b610db0611db1565b5f908152600c602090815260409182902060068101546007820154935163ad1c481b60e01b81526001600160a01b039186168216600482015293851616602484015292829081806044810103917f0000000000000000000000000000000000000000000000000000000000000000165afa908115610613575f91610e77575b50600a82015460ff1615610e69578210610e50576003905b01556001600755005b6040516371af14eb60e01b815260048101839052602490fd5b8211610e5057600390610e47565b90506020813d8211610ea0575b81610e91602093836119de565b81010312610207575183610e2f565b3d9150610e84565b60405163c8bbf6d360e01b81526001600160a01b039190911660048201526024810191909152604490fd5b3461020757604036600319011261020757610eec61182c565b602435610ef7611a1a565b610f0081613fa2565b600781101561030457600214610f2857610f2191610f1c611ef1565b612f8b565b6001600755005b6024906040519063b9b3374360e01b82526004820152fd5b3461020757604036600319011261020757610f5961182c565b60243590610f65611a1a565b610f6e82611d6d565b6001600160a01b03828116911603610ea85790610f2191610f1c611ef1565b34610207575f36600319011261020757610fa5611a1a565b600680546001600160a01b031981169091555f906001600160a01b03167f8be0079c531659141344cd1fd0a4f28419497f9722a3daafe3b4186f6b6457e08280a3005b3461020757602036600319011261020757602061100b61100661182c565b611a46565b604051908152f35b34610207576020366003190112610207576020611031600435611d6d565b6040516001600160a01b039091168152f35b34610207576020806003193601126102075761105d61182c565b61106681611a46565b906110708261459b565b915f600a54945f19958681019081116105a257909390916001600160a01b039182169190835b6110a9575b604051806107c98982611858565b835f526002865287838360405f205416145f146110eb575080846110cf6001938a6145cd565b5201928484146110e657870194855b939095611096565b61109b565b90930194856110de565b34610207575f36600319011261020757602060ff600854166040519015158152f35b346102075761085461112836611892565b9060405192611136846119c3565b5f8452611c1a565b34610207575f36600319011261020757611156611a1a565b60085460ff8116156111955760ff19166008557f5db9ee0a495bf2e6ff9c91a7834c1ba4fdd244a5e8aa4e537bd38aeae4b073aa6020604051338152a1005b604051638dfc202b60e01b8152600490fd5b34610207575f366003190112610207576040517f00000000000000000000000000000000000000000000000000000000000000006001600160a01b03168152602090f35b34610207575f36600319011261020757602060405160128152f35b346102075761133e60a0611219366118c7565b929461122c999799989192949698611a1a565b611234611ef1565b61123c611db1565b6040519061124982611948565b5f196001841b018a81168352908116602083015262ffffff881660408084019190915260ff881660608401526001600160801b03871660808401528482168385015260c083018690527f0000000000000000000000000000000000000000000000000000000000000000821660e08401527f000000000000000000000000000000000000000000000000000000000000000082166101008401527f0000000000000000000000000000000000000000000000000000000000000000909116610120830152600561014083015267016345785d8a0000610160830152516342ed172b60e11b815297889182919060048301611e58565b038173__$a76c3f6da63d6e520725e3888dec961ed1$__5af4958615610613575f9661141d575b506020860151604080880151885160808a01516060909a015192519b9215159a6001600160a01b039a8b169a919992821698949091169693926113a78d611978565b6001600160a01b039081168d5290811660208d015262ffffff9190911660408c015260ff9190911660608b01526001600160801b039190911660808a01521660a088015260c087015260e08601526101008501526101208401526101408301526101608201525f610180820152610ab29061202b565b61143691965060a03d8111610aeb57610adc81836119de565b9488611365565b346102075761085461144e36611892565b91611a7c565b34610207575f36600319011261020757600b546114708161459b565b600a545f19925f918481019081116105a25791825b611498575b604051806107c98682611858565b6114a183613fa2565b6007811015610304578060028792141590816114ef575b50156114e5575080836114cd600193876145cd565b5201918183146114e05784019182611485565b61148a565b9092019182611485565b90501515876114b8565b34610207575f36600319011261020757602060405167016345785d8a00008152f35b346102075760803660031901126102075761153461182c565b5061153d611842565b506064356001600160401b038082116102075736602383011215610207578160040135908111610207573691016024011161020757604051630a85bd0160e11b8152602090f35b34610207575f366003190112610207576040517f00000000000000000000000000000000000000000000000000000000000000006001600160a01b03168152602090f35b34610207576040366003190112610207576115e161182c565b6024356115ed81611d6d565b33151580611696575b8061166d575b611655576001600160a01b039283169282918491167f8c5be1e5ebec7d5bd14f71427d1e84f3dd0314c0f7b2291e5b200ac8c7c3b9255f80a45f90815260046020526040902080546001600160a01b0319169091179055005b60405163a9fbf51f60e01b8152336004820152602490fd5b5060018060a01b0381165f52600560205260405f20335f5260205260ff60405f205416156115fc565b506001600160a01b0381163314156115f6565b34610207576020366003190112610207576004356116c681611d6d565b505f526004602052602060018060a01b0360405f205416604051908152f35b34610207575f366003190112610207576040515f805490600182811c91818416918215611779575b6020948585108414610c815785879486865291825f14610c6157505060011461173d5750610c11925003836119de565b8491505f8052815f20905f915b858310611761575050610c11935082010185610c04565b8054838901850152879450869390920191810161174a565b92607f169261170d565b34610207576020366003190112610207576004359063ffffffff60e01b8216809203610207576020916380ac58cd60e01b81149081156117dd575b81156117cc575b5015158152f35b6301ffc9a760e01b149050836117c5565b635b5e139f60e01b811491506117be565b91908251928382525f5b848110611818575050825f602080949584010152601f8019910116010190565b6020818301810151848301820152016117f8565b600435906001600160a01b038216820361020757565b602435906001600160a01b038216820361020757565b602090816040818301928281528551809452019301915f5b82811061187e575050505090565b835185529381019392810192600101611870565b6060906003190112610207576001600160a01b0390600435828116810361020757916024359081168103610207579060443590565b610100906003190112610207576001600160a01b0360043581811681036102075791602435828116810361020757916044358181168103610207579160643562ffffff81168103610207579160843560ff81168103610207579160a4356001600160801b0381168103610207579160c4359081168103610207579060e43590565b61018081019081106001600160401b0382111761196457604052565b634e487b7160e01b5f52604160045260245ffd5b6101a081019081106001600160401b0382111761196457604052565b6001600160401b03811161196457604052565b61022081019081106001600160401b0382111761196457604052565b602081019081106001600160401b0382111761196457604052565b90601f801991011681019081106001600160401b0382111761196457604052565b6001600160401b03811161196457601f01601f191660200190565b6006546001600160a01b03163303611a2e57565b60405163118cdaa760e01b8152336004820152602490fd5b6001600160a01b03168015611a64575f52600360205260405f205490565b6040516322718ad960e21b81525f6004820152602490fd5b6001600160a01b039182169290918315611c02575f92828452826020956002875260409684888820541696879133151580611b69575b509060027fddf252ad1be2c89b69c2b068fc378daa952ba7f163c4a11628f55a4df523b3ef9284611b38575b858352600381528b8320805460010190558683525289812080546001600160a01b0319168517905580a41692838303611b175750505050565b6064945051926364283d7b60e01b8452600484015260248301526044820152fd5b5f87815260046020526040902080546001600160a01b0319169055848352600381528b832080545f19019055611ade565b91939450915080611bc1575b15611b855785929187915f611ab2565b878688611ba2576024915190637e27328960e01b82526004820152fd5b905163177e802f60e01b81523360048201526024810191909152604490fd5b503387148015611be6575b80611b755750858252600481523385898420541614611b75565b5086825260058152878220338352815260ff8883205416611bcc565b604051633250574960e11b81525f6004820152602490fd5b929092611c28838583611a7c565b833b611c35575b50505050565b604051630a85bd0160e11b8082523360048301526001600160a01b0392831660248301526044820194909452608060648201529493169260209290918590611c819060848301906117ee565b039483815f978189895af1869181611d29575b50611cf4575050503d5f14611ceb573d611cad816119ff565b90611cbb60405192836119de565b81528093823d92013e5b82519283611ce657604051633250574960e11b815260048101849052602490fd5b019050fd5b60609250611cc5565b919450915063ffffffff60e01b1603611d1157505f808080611c2f565b60249060405190633250574960e11b82526004820152fd5b9091508481813d8311611d66575b611d4181836119de565b81010312611d6257516001600160e01b031981168103611d6257905f611c94565b8680fd5b503d611d37565b5f818152600260205260409020546001600160a01b0316908115611d8f575090565b60249060405190637e27328960e01b82526004820152fd5b81156105cd570490565b60ff60085416611dbd57565b60405163d93c066560e01b8152600490fd5b51906001600160a01b038216820361020757565b908160a0910312610207576040519060a082018281106001600160401b038211176119645760405280518252611e1b60208201611dcf565b6020830152611e2c60408201611dcf565b604083015260608101518015158103610207576060830152611e5090608001611dcf565b608082015290565b91909161018081019260018060a01b0380825116835280602083015116602084015262ffffff604083015116604084015260ff60608301511660608401526080820151608084015260a082015160a084015260c082015160c08401528060e08301511660e08401526101008181840151169084015261012090818301511690830152610140808201519083015261016080910151910152565b600260075414611f02576002600755565b604051633ee5aeb560e01b8152600490fd5b90816020910312610207575160ff811681036102075790565b60ff16604d81116105a257600a0a90565b51906001600160801b038216820361020757565b919082604091031261020757611f736020611f6c84611f3e565b9301611f3e565b90565b9190916001600160801b03808094169116029182169182036105a257565b6001600160801b0391821690821603919082116105a257565b818102929181159184041417156105a257565b90816020910312610207575162ffffff811681036102075790565b919082039182116105a257565b919082018092116105a257565b6001600160a01b0391821681529116602082015262ffffff90911660408201526060810191909152608081019190915260a00190565b600a54905f9060018060a01b0360e08201511660405160208160048163313ce56760e01b958682525afa908115612df2579061206e918591612dc3575b50611f2d565b90602060018060a01b03610100850151169160046040518094819382525afa908115612df257906120a5918591612dc35750611f2d565b602083810151845160808601516040516323b872dd60e01b948101949094526001600160a01b0391821660248501523060448501526001600160801b03166064808501919091528352929392166001600160401b0360a0830190811190831117612daf579061211a9160a08201604052612f31565b600954835160408051639af608c960e01b81526001600160a01b03928316600482015292909183916024918391165afa908115612da4576121d86001600160801b03612710816121a48a8a6080999884988391612d5e575b508185878161218b8f9582612198978199015116611f76565b16049c8d92015116611f94565b168060808d0152611f76565b1604166121cc8160018060a01b0360208a01511660018060a01b0360085460081c1690612dfd565b82608088015116611f94565b166080850181905261018085015115612d4a576101008501516001600160a01b0316905b60208601516001600160a01b039081169083168114612d425761224a91907f00000000000000000000000000000000000000000000000000000000000000006001600160a01b031690612e40565b60208581015160405163ad1c481b60e01b81526001600160a01b03918216600482015283821660248201529190829060449082907f0000000000000000000000000000000000000000000000000000000000000000165afa908115612ab9578791612d0e575b506122cb6122dd916001600160801b03608089015116611fad565b61018087015115612d07578390611da7565b61251c908082810204821481151715612bd05760208781015161014089015160405163ddca3f4360e01b81526001600160a01b0392831696939092909183916004918391165afa908115612b87576127109493929162ffffff918c91612ce8575b506001600160801b0360808c01511692604051976365650ea160e01b8952600489015260018060a01b0316602488015216604486015260648501520204608482015260208160a4818960018060a01b037f0000000000000000000000000000000000000000000000000000000000000000165af18015612cdd578690612ca0575b6001600160801b039150165b61018085015115612bf857610120850151806127108102046127101481151715612be45760ff606087015116806127108102046127101481151715612bd0579061242061271061242693026127108302611da7565b90611fe8565b9361245a61244e612440856001600160801b038616611fad565b60ff60608a01511690611fad565b61012088015190611da7565b60e0870151909593906001600160a01b0316805b604051633c3e613f60e01b81526001600160a01b03918216600482015290602090829060249082907f0000000000000000000000000000000000000000000000000000000000000000165afa908115612b87578a91612b96575b506001600160a01b0381163b15612b925760405163317afabb60e21b815260048101899052908a908290602490829084906001600160a01b03165af18015612b8757612b70575b506125489087906001600160a01b037f000000000000000000000000000000000000000000000000000000000000000081169116612e40565b61018087015115612b505760e08701516101008801516001600160a01b0390811693911691905b60405163ad1c481b60e01b81526001600160a01b0380851660048301528516602482015291602083806044810103817f00000000000000000000000000000000000000000000000000000000000000006001600160a01b03165afa928315612af3578b93612b1a575b506125e66125fb938a611fad565b6101808b015190929015612b12575090611da7565b9061251c928284810204841483151715612afe5761014089015160405163ddca3f4360e01b81529190602090839060049082906001600160a01b03165afa918215612af3579289602095936126759361271098968f92612ac4575b506040516365650ea160e01b8152988997889702049360048701611ff5565b03818a7f00000000000000000000000000000000000000000000000000000000000000006001600160a01b03165af1908115612ab95790869392918891612a7c575b506101808401516001600160801b03919015612a695716935b61012084015160c085015161014086015160a087015160e08801516101008901516101808a01516101608b015160608c01516020909c01516040519e6001600160a01b039182169e60ff909e169d9215159c9315159b9299929894821697958216968216959091169392918f9190612747836119a7565b825260208201526040015260608d015260808c015260a08b015260c08a015260e08901526001600160801b03166101008801526001600160801b03166101208701526001600160801b0316610140860152426001600160401b0316610160860152436001600160401b03166101808601526101a08501526101c08401526101e0830152610200820152838352600c6020526040832081518155602082015160018201556040820151600282015560608201516003820155600160a01b60019003608083015116600160a01b600190031960048301541617600482015560058101600160a01b6001900360a084015116600160a01b600190031982541617905560068101600160a01b6001900360c084015116600160a01b600190031982541617905560078101600160a01b6001900360e084015116600160a01b60019003198254161790556101008201516001600160801b03166001600160801b031961012084015160801b161760088201556101408201516001600160801b03166001600160401b0360801b61016084015160801b166001600160401b0360c01b61018085015160c01b169117176009820155600a01906101a0810151151561291790839060ff801983541691151516179055565b6101c081015115159082546101e082015160101b62ff00001691600160b81b6301000000900390610200015160181b169260081b61ff001690600160b81b610100900319161717179055600b54600101600b55600a54600101600a55600160a01b600190039051168015612a50575f838152600260205260409020546001600160a01b031680151591849183612a1d575b5f828152600360209081526040808320805460010190558583526002909152812080546001600160a01b031916841790557fddf252ad1be2c89b69c2b068fc378daa952ba7f163c4a11628f55a4df523b3ef9080a4612a05575090565b602490604051906339e3563760e11b82526004820152fd5b5f83815260046020526040902080546001600160a01b0319169055805f52600360205260405f205f1981540190556129a8565b604051633250574960e11b815260048101839052602490fd5b612a7590828416611fe8565b16936126d0565b9350506020833d602011612ab1575b81612a98602093836119de565b81010312610207576001600160801b03869351906126b7565b3d9150612a8b565b6040513d89823e3d90fd5b612ae5919250883d8a11612aec575b612add81836119de565b810190611fc0565b905f612656565b503d612ad3565b6040513d8d823e3d90fd5b634e487b7160e01b8a52601160045260248afd5b905090611da7565b92506020833d602011612b48575b81612b35602093836119de565b81010312610207579151916125e66125d8565b3d9150612b28565b61010087015160e08801516001600160a01b03908116939116919061256f565b6125489199612b7f8992611994565b99915061250f565b6040513d8c823e3d90fd5b8980fd5b90506020813d602011612bc8575b81612bb1602093836119de565b81010312612b9257612bc290611dcf565b5f6124c8565b3d9150612ba4565b634e487b7160e01b88526011600452602488fd5b634e487b7160e01b87526011600452602487fd5b610120850151936127108502948086046127101481151715612bd057606087019560ff875116906127108202918083046127101490151715612afe57612c489291612c4291611da7565b90611fdb565b9460ff5f199151160160ff8111612bd05783612c82612c7660ff612c8794166001600160801b038716611fad565b6101208a015190611fad565b611da7565b610100870151909593906001600160a01b03168061246e565b506020813d602011612cd5575b81612cba602093836119de565b81010312612cd1576001600160801b0390516123bf565b8580fd5b3d9150612cad565b6040513d88823e3d90fd5b612d01915060203d602011612aec57612add81836119de565b5f61233e565b8590611da7565b90506020813d602011612d3a575b81612d29602093836119de565b81010312611d6257516122cb6122b0565b3d9150612d1c565b5090506123cb565b60e08501516001600160a01b0316906121fc565b61218b9350612198915091858781612d8e819660403d604011612d9d575b612d8681836119de565b810190611f52565b97909795505050505091612172565b503d612d7c565b6040513d87823e3d90fd5b634e487b7160e01b86526041600452602486fd5b612de5915060203d602011612deb575b612ddd81836119de565b810190611f14565b5f612068565b503d612dd3565b6040513d86823e3d90fd5b60405163a9059cbb60e01b60208201526001600160a01b03929092166024830152604480830193909352918152612e3e91612e396064836119de565b612f31565b565b60405163095ea7b360e01b602082018181526001600160a01b038516602484015260448084019690965294825294939092612e7c6064856119de565b60205f809386519082875af182513d82612f0c575b505015612ea1575b505050509050565b60405160208101969096526001600160a01b031660248601526044808601829052855260808501906001600160401b03821186831017612ef85750612eee9394612e399160405282612f31565b805f808080612e99565b634e487b7160e01b81526041600452602490fd5b909150612f2957506001600160a01b0383163b15155b5f80612e91565b600114612f22565b905f602091828151910182855af115610613575f513d612f8257506001600160a01b0381163b155b612f605750565b604051635274afe760e01b81526001600160a01b039091166004820152602490fd5b60011415612f59565b9190612f95611db1565b5f818152600260205260408120549093906001600160a01b031615613f6a57612fbd82611d6d565b91808552600c6020526040852094600a60405196612fda886119a7565b8054885260018101546020890152600281015460408901526003810154606089015260018060a01b03600482015416608089015260018060a01b0360058201541660a089015260018060a01b0360068201541660c089015260018060a01b0360078201541660e089015260088101546001600160801b0381166101008a015260801c61012089015260098101546001600160801b0381166101408a01526001600160401b038160801c166101608a015260c01c61018089015201549360ff851615156101a088015260ff8560081c1615156101c088015260ff8560101c166101e088015260018060a01b038560181c16610200880152600160ff8660101c161494851595613f5d575b506130ed83613fa2565b6101a088015115613f495760c08801516001600160a01b0316905b604051633c3e613f60e01b81526001600160a01b03928316600482015291602090839060249082907f0000000000000000000000000000000000000000000000000000000000000000165afa918215612df2578492613f09575b5060095460408051639af608c960e01b81526001600160a01b038681166004830152909283916024918391165afa908115612da457908a949392918691613ee9575b506101a0850151158015998794918590613eac576101c088015115613e9557506001600160801b0361012088015116935b8515613e62576101c088015115613e4f5760c08801516001600160a01b03165b955b6102008901516001600160a01b03169c15613e3b5760c08901516001600160a01b0316955b8115613e335750905b60c0890151919889926001600160a01b039081169089168103613e2b575060e001516001600160a01b0316925b6007821015613e17576001821480613e0f575b156133c8575050506001600160a01b0393841694938416850392506133989150505750906132939291612dfd565b5f199081600b5401600b55828152600c602052600a604082208281558260018201558260028201558260038201558260048201558260058201558260068201558260078201558260088201558260098201550155815f526002602052815f60018060a01b036040822054168015938415613365575b5082825260026020526040822080546001600160a01b03191690557fddf252ad1be2c89b69c2b068fc378daa952ba7f163c4a11628f55a4df523b3ef8280a4611d8f57506001600160801b03610140612e3e949501511691612dfd565b5f84815260046020526040902080546001600160a01b03191690558183526003602052604083209081540190555f613308565b6040516322f48a0560e11b815260048101929092526001600160a01b031660248201526001604482015260649150fd5b97989697949593946001600160a01b03808616908a1614613dde578f929190156138a457506101a082015161387c575b506080015160405163ddca3f4360e01b815290602090829060049082906001600160a01b03165afa90811561387157868f9796959493602093613448938d91613854575b50848a0151918b614333565b91909601519089828203921281831281169183139015161761382a578d8982121561383e5750600160ff1b811461382a57602092916134928f6134a5938c039586915b0151611fdb565b906001600160a01b038481169116612e40565b60208d01516001600160a01b0382163b15613826578891606483926040519485938492632bc6468360e21b8452600484015281602484015287604484015260018060a01b03165af180156137a857613813575b501561350a575b50505050505b613293565b82612710613532613554936001600160801b0361352a6135599888611fdb565b911690611fad565b04926135548460018060a01b0360085460081c1660018060a01b038916612dfd565b611fdb565b6102008901519091906001600160a01b038083169116146137fb576135ab826001600160a01b037f00000000000000000000000000000000000000000000000000000000000000008116908416612e40565b61020089015160405163ad1c481b60e01b81526001600160a01b0383811660048301529091166024820152602081806044810103817f00000000000000000000000000000000000000000000000000000000000000006001600160a01b03165afa8015612da45785906137c7575b613624915083611fad565b60405163313ce56760e01b81526020816004816001600160a01b0387165afa908115612cdd57613665929161365f918891612dc35750611f2d565b90611da7565b9061251c9282848102048414831517156137b3576102008b015160808c015160405163ddca3f4360e01b8152916001600160a01b039081169160209184916004918391165afa9182156137a857926136e89261271098979592602097958b92613789575b506040516365650ea160e01b8152998a97889702049360048701611ff5565b0381867f00000000000000000000000000000000000000000000000000000000000000006001600160a01b03165af190811561377e578391613748575b61020089015161373e93506001600160a01b0316612dfd565b5f808080806134ff565b90506020823d602011613776575b81613763602093836119de565b810103126102075761373e915190613725565b3d9150613756565b6040513d85823e3d90fd5b6137a1919250883d8a11612aec57612add81836119de565b905f6136c9565b6040513d8a823e3d90fd5b634e487b7160e01b86526011600452602486fd5b506020813d6020116137f3575b816137e1602093836119de565b81010312610207576136249051613619565b3d91506137d4565b61380e92906001600160a01b0316612dfd565b61373e565b61381f90979197611994565b955f6134f8565b8880fd5b634e487b7160e01b89526011600452602489fd5b6134a5915091613492602094938b95869161348b565b61386b9150853d8711612aec57612add81836119de565b5f61343c565b6040513d8b823e3d90fd5b81965061389c6020916001600160801b0361010060049501511690611fe8565b9691506133f8565b929450949795505060029150145f1461390657506138f7906127106138d56001600160801b03613505971683611fad565b04906135548260018060a01b0360085460081c1660018060a01b038816612dfd565b916001600160a01b0316612dfd565b91939192613941826001600160a01b037f00000000000000000000000000000000000000000000000000000000000000008116908416612e40565b60405163ad1c481b60e01b81526001600160a01b03808316600483015285166024820152602081806044810103817f00000000000000000000000000000000000000000000000000000000000000006001600160a01b03165afa8015612ab9578790613daa575b6139b3915083611fad565b60405163313ce56760e01b81526020816004816001600160a01b0387165afa9081156137a8576139ee929161365f918a91612dc35750611f2d565b918261251c81020461251c1483151715612be45760808c015160405163ddca3f4360e01b815290602090829060049082906001600160a01b03165afa9081156137a85760209361251c936127109693613a69938c91613d8d575b506040516365650ea160e01b815297889687960204928a9060048701611ff5565b0381887f00000000000000000000000000000000000000000000000000000000000000006001600160a01b03165af1908115612da4578591613d59575b50612710613ac06001600160801b03613ae2941683611fad565b04906135548260018060a01b0360085460081c1660018060a01b038716612dfd565b6102008901519091906001600160a01b03808316911614613d4657613b34826001600160a01b037f00000000000000000000000000000000000000000000000000000000000000008116908416612e40565b61020089015160405163ad1c481b60e01b81526001600160a01b0383811660048301529091166024820152602081806044810103817f00000000000000000000000000000000000000000000000000000000000000006001600160a01b03165afa8015612da4578590613d0e575b613bad915083611fad565b60405163313ce56760e01b81526020816004816001600160a01b0387165afa908115612cdd57613be8929161365f918891612dc35750611f2d565b918261251c81020461251c1483151715613cfa576102008a015160808b015160405163ddca3f4360e01b8152916001600160a01b039081169160209184916004918391165afa918215612ab9579361251c936127109693613c6b936020978b92612ac457506040516365650ea160e01b8152988997889702049360048701611ff5565b0381867f00000000000000000000000000000000000000000000000000000000000000006001600160a01b03165af190811561377e578391613cc2575b5061020088015161350592906001600160a01b0316612dfd565b90506020813d602011613cf2575b81613cdd602093836119de565b81010312613cee5751613505613ca8565b8280fd5b3d9150613cd0565b634e487b7160e01b85526011600452602485fd5b506020813d602011613d3e575b81613d28602093836119de565b81010312613d3a57613bad9051613ba2565b8480fd5b3d9150613d1b565b61350592906001600160a01b0316612dfd565b90506020813d602011613d85575b81613d74602093836119de565b81010312613d3a5751612710613aa6565b3d9150613d67565b613da49150873d8911612aec57612add81836119de565b5f613a48565b506020813d602011613dd6575b81613dc4602093836119de565b81010312611d62576139b390516139a8565b3d9150613db7565b6040516322f48a0560e11b81526001600160a01b0380871660048301528a1660248201526109296044820152606490fd5b508015613265565b634e487b7160e01b8b52602160045260248bfd5b905092613252565b905090613225565b60e08901516001600160a01b03169561321c565b60e08801516001600160a01b03166131f5565b6101c088015115613e825760e08801516001600160a01b03165b956131f7565b60c08801516001600160a01b0316613e7c565b6101208801516001600160801b03169550936131d5565b6101c08801519495909415613ed157506001600160801b0361012088015116946131d5565b9493506001600160801b0361012088015116936131d5565b613f02915060403d604011612d9d57612d8681836119de565b505f6131a4565b9091506020813d602011613f41575b81613f25602093836119de565b81010312613f3d57613f3690611dcf565b905f613162565b8380fd5b3d9150613f18565b60e08801516001600160a01b031690613108565b60ff16151594505f6130e3565b6040516369c6ab6960e11b815260048101839052602490fd5b9081602091031261020757516001600160401b03811681036102075790565b5f81815260026020908152604080832054909392916001600160a01b039182161561432b57600c8152848320600a810154600282015460058301546003840154600685015460078601548b5163ad1c481b60e01b81529189166001600160a01b03908116600480850191909152918a1616602483015299959895949093919260ff9091169190881687856044817f00000000000000000000000000000000000000000000000000000000000000008d165afa9485156143215787956142f2575b5082156142d4576123288083029083820414831517156142c1576127109004925b1561424c578015159081614242575b50614232578015159081614227575b5061421857801515908161420d575b506142015780151591826141f6575b50506141ea575b815260028252828682205416926009541692865195631ce3d24360e31b875281818801528387602481885afa9687156141e05783976141ba575b509060248492895196879384926367058dad60e01b84528301525afa9586156141b057509461417a575b5050600961415c910154916001600160401b0380911661414f828560801c1642611fdb565b1193169160c01c43611fdb565b1181614172575b5061416d57600290565b600690565b90505f614163565b61415c929450600991816141a292903d106141a9575b61419a81836119de565b810190613f83565b939161412a565b503d614190565b51903d90823e3d90fd5b84929197506141d7602491843d86116141a95761419a81836119de565b97919250614100565b88513d85823e3d90fd5b50505050505050600390565b101590505f806140bf565b50505050505050905090565b90508210155f6140b0565b50505050505050505050600590565b90508310155f6140a1565b5050505050505050505050600190565b905084105f614092565b80151590816142b7575b506142325780151590816142ac575b506142185780151590816142a1575b50614201578015159182614296575b5050156140c65750505050505050600390565b111590505f80614283565b90508211155f614274565b90508311155f614265565b905084115f614256565b634e487b7160e01b885260118c52602488fd5b612af88083029083820414831517156142c157612710900492614083565b9094508781813d831161431a575b61430a81836119de565b81010312611d625751935f614062565b503d614300565b8c513d89823e3d90fd5b505091505090565b6040805163313ce56760e01b815290969594602093916001600160a01b03808516928a928781600481885afa90811561457a5786886143c88d866143808f978f975f916145635750611f2d565b996143af838b7f000000000000000000000000000000000000000000000000000000000000000016809e612e40565b5163ccdc1e8960e01b8152968795869560048701611ff5565b03815f895af1908115614559575f9161452c575b508061451e575050895163ad1c481b60e01b81526001600160a01b03868116600483015285166024820152908690829060449082907f0000000000000000000000000000000000000000000000000000000000000000165afa908115614514575f916144e5575b5090612c826144529289611fad565b61251c908181029181830414901517156105a2575f6127109161448f87968a8d519a8b98899788966365650ea160e01b8852049360048701611ff5565b03925af19485156144dc57505f946144a8575b50509190565b8181959293953d83116144d5575b6144c081836119de565b810103126144d2575051915f806144a2565b80fd5b503d6144b6565b513d5f823e3d90fd5b908682813d831161450d575b6144fb81836119de565b810103126144d2575051612c82614443565b503d6144f1565b8a513d5f823e3d90fd5b9a5098975050505050505050565b908882813d8311614552575b61454281836119de565b810103126144d25750515f6143dc565b503d614538565b8c513d5f823e3d90fd5b612de59150883d8a11612deb57612ddd81836119de565b84513d5f823e3d90fd5b6001600160401b0381116119645760051b60200190565b906145a582614584565b6145b260405191826119de565b82815280926145c3601f1991614584565b0190602036910137565b80518210156145e15760209160051b010190565b634e487b7160e01b5f52603260045260245ffdfea2646970667358221220587668f8801140b0400b3edf0c19030cac1931cbc83834f0114a6ccf17740cad64736f6c63430008140033","linkReferences":{"src/libraries/PositionLogic.sol":{"PositionLogic":[{"start":3891,"length":20},{"start":6303,"length":20}]}}},"methodIdentifiers":{"LIQUIDATION_THRESHOLD()":"90a8ae9b","LIQUIDITY_POOL_FACTORY()":"ef3316ce","LIQUIDITY_POOL_FACTORY_UNISWAP_V3()":"b2d4c9d9","MAX_LEVERAGE()":"9b45ec97","MIN_POSITION_AMOUNT_IN_USD()":"1a055c2b","PRICE_FEED()":"31eb318a","UNISWAP_V3_HELPER()":"124b1583","USD_DECIMALS()":"2f6ee695","approve(address,uint256)":"095ea7b3","balanceOf(address)":"70a08231","closePosition(address,uint256)":"742fe1f8","editPosition(address,uint256,uint256)":"7701297c","feeManager()":"d0fb0203","getApproved(uint256)":"081812fc","getLiquidablePositions()":"1ae11bb5","getPositionParams(uint256)":"e63490ce","getPositionState(uint256)":"eb29dc5e","getTraderPositions(address)":"5fbbb2ff","isApprovedForAll(address,address)":"e985e9c5","liquidatePosition(address,uint256)":"76f89965","name()":"06fdde03","onERC721Received(address,address,uint256,bytes)":"150b7a02","openLongPosition(address,address,address,uint24,uint8,uint128,uint160,uint256)":"2d8f8372","openPositions(uint256)":"d2ec0025","openShortPosition(address,address,address,uint24,uint8,uint128,uint160,uint256)":"aed383ac","owner()":"8da5cb5b","ownerOf(uint256)":"6352211e","pause()":"8456cb59","paused()":"5c975abb","posId()":"f5d13da0","renounceOwnership()":"715018a6","safeTransferFrom(address,address,uint256)":"42842e0e","safeTransferFrom(address,address,uint256,bytes)":"b88d4fde","setApprovalForAll(address,bool)":"a22cb465","supportsInterface(bytes4)":"01ffc9a7","symbol()":"95d89b41","tokenURI(uint256)":"c87b56dd","totalNbPos()":"7841cd91","transferFrom(address,address,uint256)":"23b872dd","transferOwnership(address)":"f2fde38b","treasure()":"e520fc7e","unpause()":"3f4ba83a"},"id":48}