{"abi":[{"type":"constructor","inputs":[{"name":"_priceFeed","type":"address","internalType":"address"},{"name":"_liquidityPoolFactory","type":"address","internalType":"address"},{"name":"_liquidityPoolFactoryUniswapV3","type":"address","internalType":"address"},{"name":"_uniswapV3Helper","type":"address","internalType":"address"},{"name":"_treasure","type":"address","internalType":"address"},{"name":"_feeManager","type":"address","internalType":"address"}],"stateMutability":"nonpayable"},{"type":"function","name":"LIQUIDATION_THRESHOLD","inputs":[],"outputs":[{"name":"","type":"uint256","internalType":"uint256"}],"stateMutability":"view"},{"type":"function","name":"LIQUIDITY_POOL_FACTORY","inputs":[],"outputs":[{"name":"","type":"address","internalType":"contract LiquidityPoolFactory"}],"stateMutability":"view"},{"type":"function","name":"LIQUIDITY_POOL_FACTORY_UNISWAP_V3","inputs":[],"outputs":[{"name":"","type":"address","internalType":"address"}],"stateMutability":"view"},{"type":"function","name":"MAX_LEVERAGE","inputs":[],"outputs":[{"name":"","type":"uint256","internalType":"uint256"}],"stateMutability":"view"},{"type":"function","name":"MIN_POSITION_AMOUNT_IN_USD","inputs":[],"outputs":[{"name":"","type":"uint256","internalType":"uint256"}],"stateMutability":"view"},{"type":"function","name":"PRICE_FEED","inputs":[],"outputs":[{"name":"","type":"address","internalType":"contract PriceFeedL1"}],"stateMutability":"view"},{"type":"function","name":"UNISWAP_V3_HELPER","inputs":[],"outputs":[{"name":"","type":"address","internalType":"contract UniswapV3Helper"}],"stateMutability":"view"},{"type":"function","name":"USD_DECIMALS","inputs":[],"outputs":[{"name":"","type":"uint256","internalType":"uint256"}],"stateMutability":"view"},{"type":"function","name":"approve","inputs":[{"name":"to","type":"address","internalType":"address"},{"name":"tokenId","type":"uint256","internalType":"uint256"}],"outputs":[],"stateMutability":"nonpayable"},{"type":"function","name":"balanceOf","inputs":[{"name":"owner","type":"address","internalType":"address"}],"outputs":[{"name":"","type":"uint256","internalType":"uint256"}],"stateMutability":"view"},{"type":"function","name":"closePosition","inputs":[{"name":"_trader","type":"address","internalType":"address"},{"name":"_posId","type":"uint256","internalType":"uint256"}],"outputs":[],"stateMutability":"nonpayable"},{"type":"function","name":"editPosition","inputs":[{"name":"_trader","type":"address","internalType":"address"},{"name":"_posId","type":"uint256","internalType":"uint256"},{"name":"_newStopLossPrice","type":"uint256","internalType":"uint256"}],"outputs":[],"stateMutability":"nonpayable"},{"type":"function","name":"feeManager","inputs":[],"outputs":[{"name":"","type":"address","internalType":"contract FeeManager"}],"stateMutability":"view"},{"type":"function","name":"getApproved","inputs":[{"name":"tokenId","type":"uint256","internalType":"uint256"}],"outputs":[{"name":"","type":"address","internalType":"address"}],"stateMutability":"view"},{"type":"function","name":"getLiquidablePositions","inputs":[],"outputs":[{"name":"","type":"uint256[]","internalType":"uint256[]"}],"stateMutability":"view"},{"type":"function","name":"getPositionParams","inputs":[{"name":"_posId","type":"uint256","internalType":"uint256"}],"outputs":[{"name":"baseToken_","type":"address","internalType":"address"},{"name":"quoteToken_","type":"address","internalType":"address"},{"name":"positionSize_","type":"uint128","internalType":"uint128"},{"name":"timestamp_","type":"uint64","internalType":"uint64"},{"name":"isShort_","type":"bool","internalType":"bool"},{"name":"leverage_","type":"uint8","internalType":"uint8"},{"name":"breakEvenLimit_","type":"uint256","internalType":"uint256"},{"name":"limitPrice_","type":"uint160","internalType":"uint160"},{"name":"stopLossPrice_","type":"uint256","internalType":"uint256"},{"name":"currentPnL_","type":"int128","internalType":"int128"},{"name":"collateralLeft_","type":"int128","internalType":"int128"}],"stateMutability":"view"},{"type":"function","name":"getPositionState","inputs":[{"name":"_posId","type":"uint256","internalType":"uint256"}],"outputs":[{"name":"","type":"uint8","internalType":"enum PositionState"}],"stateMutability":"view"},{"type":"function","name":"getTraderPositions","inputs":[{"name":"_traderAdd","type":"address","internalType":"address"}],"outputs":[{"name":"","type":"uint256[]","internalType":"uint256[]"}],"stateMutability":"view"},{"type":"function","name":"isApprovedForAll","inputs":[{"name":"owner","type":"address","internalType":"address"},{"name":"operator","type":"address","internalType":"address"}],"outputs":[{"name":"","type":"bool","internalType":"bool"}],"stateMutability":"view"},{"type":"function","name":"liquidatePosition","inputs":[{"name":"_liquidator","type":"address","internalType":"address"},{"name":"_posId","type":"uint256","internalType":"uint256"}],"outputs":[],"stateMutability":"nonpayable"},{"type":"function","name":"name","inputs":[],"outputs":[{"name":"","type":"string","internalType":"string"}],"stateMutability":"view"},{"type":"function","name":"onERC721Received","inputs":[{"name":"","type":"address","internalType":"address"},{"name":"","type":"address","internalType":"address"},{"name":"","type":"uint256","internalType":"uint256"},{"name":"","type":"bytes","internalType":"bytes"}],"outputs":[{"name":"","type":"bytes4","internalType":"bytes4"}],"stateMutability":"pure"},{"type":"function","name":"openPosition","inputs":[{"name":"_trader","type":"address","internalType":"address"},{"name":"_token0","type":"address","internalType":"address"},{"name":"_token1","type":"address","internalType":"address"},{"name":"_fee","type":"uint24","internalType":"uint24"},{"name":"_isShort","type":"bool","internalType":"bool"},{"name":"_leverage","type":"uint8","internalType":"uint8"},{"name":"_amount","type":"uint128","internalType":"uint128"},{"name":"_limitPrice","type":"uint160","internalType":"uint160"},{"name":"_stopLossPrice","type":"uint256","internalType":"uint256"}],"outputs":[{"name":"","type":"uint256","internalType":"uint256"}],"stateMutability":"nonpayable"},{"type":"function","name":"openPositions","inputs":[{"name":"","type":"uint256","internalType":"uint256"}],"outputs":[{"name":"initialPrice","type":"uint256","internalType":"uint256"},{"name":"totalBorrow","type":"uint256","internalType":"uint256"},{"name":"breakEvenLimit","type":"uint256","internalType":"uint256"},{"name":"stopLossPrice","type":"uint256","internalType":"uint256"},{"name":"v3Pool","type":"address","internalType":"address"},{"name":"limitPrice","type":"uint160","internalType":"uint160"},{"name":"baseToken","type":"address","internalType":"contract IERC20"},{"name":"quoteToken","type":"address","internalType":"contract IERC20"},{"name":"collateralSize","type":"uint128","internalType":"uint128"},{"name":"positionSize","type":"uint128","internalType":"uint128"},{"name":"liquidationReward","type":"uint128","internalType":"uint128"},{"name":"timestamp","type":"uint64","internalType":"uint64"},{"name":"blockNumber","type":"uint64","internalType":"uint64"},{"name":"isShort","type":"bool","internalType":"bool"},{"name":"isBaseToken0","type":"bool","internalType":"bool"},{"name":"leverage","type":"uint8","internalType":"uint8"}],"stateMutability":"view"},{"type":"function","name":"owner","inputs":[],"outputs":[{"name":"","type":"address","internalType":"address"}],"stateMutability":"view"},{"type":"function","name":"ownerOf","inputs":[{"name":"tokenId","type":"uint256","internalType":"uint256"}],"outputs":[{"name":"","type":"address","internalType":"address"}],"stateMutability":"view"},{"type":"function","name":"pause","inputs":[],"outputs":[],"stateMutability":"nonpayable"},{"type":"function","name":"paused","inputs":[],"outputs":[{"name":"","type":"bool","internalType":"bool"}],"stateMutability":"view"},{"type":"function","name":"posId","inputs":[],"outputs":[{"name":"","type":"uint256","internalType":"uint256"}],"stateMutability":"view"},{"type":"function","name":"renounceOwnership","inputs":[],"outputs":[],"stateMutability":"nonpayable"},{"type":"function","name":"safeTransferFrom","inputs":[{"name":"from","type":"address","internalType":"address"},{"name":"to","type":"address","internalType":"address"},{"name":"tokenId","type":"uint256","internalType":"uint256"}],"outputs":[],"stateMutability":"nonpayable"},{"type":"function","name":"safeTransferFrom","inputs":[{"name":"from","type":"address","internalType":"address"},{"name":"to","type":"address","internalType":"address"},{"name":"tokenId","type":"uint256","internalType":"uint256"},{"name":"data","type":"bytes","internalType":"bytes"}],"outputs":[],"stateMutability":"nonpayable"},{"type":"function","name":"setApprovalForAll","inputs":[{"name":"operator","type":"address","internalType":"address"},{"name":"approved","type":"bool","internalType":"bool"}],"outputs":[],"stateMutability":"nonpayable"},{"type":"function","name":"supportsInterface","inputs":[{"name":"interfaceId","type":"bytes4","internalType":"bytes4"}],"outputs":[{"name":"","type":"bool","internalType":"bool"}],"stateMutability":"view"},{"type":"function","name":"symbol","inputs":[],"outputs":[{"name":"","type":"string","internalType":"string"}],"stateMutability":"view"},{"type":"function","name":"tokenURI","inputs":[{"name":"tokenId","type":"uint256","internalType":"uint256"}],"outputs":[{"name":"","type":"string","internalType":"string"}],"stateMutability":"view"},{"type":"function","name":"totalNbPos","inputs":[],"outputs":[{"name":"","type":"uint256","internalType":"uint256"}],"stateMutability":"view"},{"type":"function","name":"transferFrom","inputs":[{"name":"from","type":"address","internalType":"address"},{"name":"to","type":"address","internalType":"address"},{"name":"tokenId","type":"uint256","internalType":"uint256"}],"outputs":[],"stateMutability":"nonpayable"},{"type":"function","name":"transferOwnership","inputs":[{"name":"newOwner","type":"address","internalType":"address"}],"outputs":[],"stateMutability":"nonpayable"},{"type":"function","name":"treasure","inputs":[],"outputs":[{"name":"","type":"address","internalType":"address"}],"stateMutability":"view"},{"type":"function","name":"unpause","inputs":[],"outputs":[],"stateMutability":"nonpayable"},{"type":"event","name":"Approval","inputs":[{"name":"owner","type":"address","indexed":true,"internalType":"address"},{"name":"approved","type":"address","indexed":true,"internalType":"address"},{"name":"tokenId","type":"uint256","indexed":true,"internalType":"uint256"}],"anonymous":false},{"type":"event","name":"ApprovalForAll","inputs":[{"name":"owner","type":"address","indexed":true,"internalType":"address"},{"name":"operator","type":"address","indexed":true,"internalType":"address"},{"name":"approved","type":"bool","indexed":false,"internalType":"bool"}],"anonymous":false},{"type":"event","name":"OwnershipTransferred","inputs":[{"name":"previousOwner","type":"address","indexed":true,"internalType":"address"},{"name":"newOwner","type":"address","indexed":true,"internalType":"address"}],"anonymous":false},{"type":"event","name":"Paused","inputs":[{"name":"account","type":"address","indexed":false,"internalType":"address"}],"anonymous":false},{"type":"event","name":"Transfer","inputs":[{"name":"from","type":"address","indexed":true,"internalType":"address"},{"name":"to","type":"address","indexed":true,"internalType":"address"},{"name":"tokenId","type":"uint256","indexed":true,"internalType":"uint256"}],"anonymous":false},{"type":"event","name":"Unpaused","inputs":[{"name":"account","type":"address","indexed":false,"internalType":"address"}],"anonymous":false},{"type":"error","name":"ERC721IncorrectOwner","inputs":[{"name":"sender","type":"address","internalType":"address"},{"name":"tokenId","type":"uint256","internalType":"uint256"},{"name":"owner","type":"address","internalType":"address"}]},{"type":"error","name":"ERC721InsufficientApproval","inputs":[{"name":"operator","type":"address","internalType":"address"},{"name":"tokenId","type":"uint256","internalType":"uint256"}]},{"type":"error","name":"ERC721InvalidApprover","inputs":[{"name":"approver","type":"address","internalType":"address"}]},{"type":"error","name":"ERC721InvalidOperator","inputs":[{"name":"operator","type":"address","internalType":"address"}]},{"type":"error","name":"ERC721InvalidOwner","inputs":[{"name":"owner","type":"address","internalType":"address"}]},{"type":"error","name":"ERC721InvalidReceiver","inputs":[{"name":"receiver","type":"address","internalType":"address"}]},{"type":"error","name":"ERC721InvalidSender","inputs":[{"name":"sender","type":"address","internalType":"address"}]},{"type":"error","name":"ERC721NonexistentToken","inputs":[{"name":"tokenId","type":"uint256","internalType":"uint256"}]},{"type":"error","name":"EnforcedPause","inputs":[]},{"type":"error","name":"ExpectedPause","inputs":[]},{"type":"error","name":"OwnableInvalidOwner","inputs":[{"name":"owner","type":"address","internalType":"address"}]},{"type":"error","name":"OwnableUnauthorizedAccount","inputs":[{"name":"account","type":"address","internalType":"address"}]},{"type":"error","name":"Positions__POSITION_NOT_LIQUIDABLE_YET","inputs":[{"name":"_posId","type":"uint256","internalType":"uint256"}]},{"type":"error","name":"Positions__POSITION_NOT_OPEN","inputs":[{"name":"_posId","type":"uint256","internalType":"uint256"}]},{"type":"error","name":"Positions__POSITION_NOT_OWNED","inputs":[{"name":"_trader","type":"address","internalType":"address"},{"name":"_posId","type":"uint256","internalType":"uint256"}]},{"type":"error","name":"Positions__STOP_LOSS_ORDER_PRICE_NOT_CONCISTENT","inputs":[{"name":"_stopLossPrice","type":"uint256","internalType":"uint256"}]},{"type":"error","name":"Positions__TOKEN_RECEIVED_NOT_CONCISTENT","inputs":[{"name":"tokenBorrowed","type":"address","internalType":"address"},{"name":"tokenReceived","type":"address","internalType":"address"},{"name":"state","type":"uint256","internalType":"uint256"}]},{"type":"error","name":"ReentrancyGuardReentrantCall","inputs":[]},{"type":"error","name":"SafeERC20FailedOperation","inputs":[{"name":"token","type":"address","internalType":"address"}]}],"bytecode":{"object":"0x61010034620004e457601f6200433738819003918201601f19168301916001600160401b03831184841017620004015780849260c094604052833981010312620004e4576200004e8162000508565b9060206200005e81830162000508565b906200006d6040840162000508565b926200007c6060820162000508565b936200009960a0620000916080850162000508565b930162000508565b92620000a4620004e8565b600b81526a0aadcd2e6eec2e05a9a82b60ab1b82820152620000c5620004e8565b60068152650aa9c929a82b60d31b83820152815190916001600160401b03821162000401575f5490600182811c92168015620004d9575b85831014620003e25781601f84931162000489575b508490601f831160011462000421575f9262000415575b50508160011b915f199060031b1c1916175f555b8051916001600160401b038311620004015760015491600183811c93168015620003f6575b82841014620003e25782601f8594116200038c575b5081601f84116001146200032057505f9262000314575b50508160011b915f199060031b1c1916176001555b3315620002fc57600680546001600160a01b0319808216339081179093556040519890976001600160a01b03978895919486948593919084167f8be0079c531659141344cd1fd0a4f28419497f9722a3daafe3b4186f6b6457e05f80a360016007819055600a5560e052166080521660a0521660c05260088054610100600160a81b03191691811b610100600160a81b0316919091179055600980549093169116179055613e1990816200051e82396080518181816102b0015281816108f701528181610ce10152612d8d015260a0518181816104140152818161092601528181610dcd0152818161134d01528181611be201528181611fc901528181613340015281816138220152613c04015260c051818181610d6e01528181610e8a015281816112ee0152818161140a01528181612180015281816132e7015281816134480152613b79015260e0518181816108c801526118740152f35b604051631e4fbdf760e01b81525f6004820152602490fd5b015190505f806200018d565b60015f9081528181209450601f198616915b828210620003735750509084600195949392106200035a575b505050811b01600155620001a2565b01515f1960f88460031b161c191690555f80806200034b565b8060018697829497870151815501960194019062000332565b9091925060015f52825f20601f850160051c810191848610620003d7575b90601f86959493920160051c01905b818110620003c8575062000176565b5f8155859450600101620003b9565b9091508190620003aa565b634e487b7160e01b5f52602260045260245ffd5b92607f169262000161565b634e487b7160e01b5f52604160045260245ffd5b015190505f8062000128565b5f8080528681209350601f198516905b878282106200047257505090846001959493921062000459575b505050811b015f556200013c565b01515f1960f88460031b161c191690555f80806200044b565b600185968293968601518155019501930162000431565b9091505f8052845f20601f840160051c8101868510620004d1575b90849392915b601f830160051c82018110620004c257505062000111565b5f8155859450600101620004aa565b5080620004a4565b91607f1691620000fc565b5f80fd5b60408051919082016001600160401b038111838210176200040157604052565b51906001600160a01b0382168203620004e45756fe60c0806040526004361015610012575f80fd5b5f60a0525f3560e01c90816301ffc9a7146123855750806306fdde03146122df578063081812fc1461229f578063095ea7b3146121af578063124b158314612168578063150b7a02146120ff5780631a055c2b146120da5780631ae11bb51461202d57806323b872dd146120165780632f6ee69514611ff857806331eb318a14611fb15780633f4ba83a14611f4157806342842e0e14611f185780635c975abb14611ef35780635fbbb2ff14611e385780636352211e14611e0857806370a0823114611ddd578063715018a614611d7a578063742fe1f814611d2d57806376f8996514611cbc5780637701297c14611b335780637841cd9114611b135780638456cb5914611ab35780638da5cb5b14611a8857806390a8ae9b14611a6957806395d89b41146119765780639b45ec9714611958578063a22cb465146118a3578063b2d4c9d91461185c578063b88d4fde146117cc578063c87b56dd14611772578063cd94f13614610794578063d0fb020314610769578063d2ec00251461066b578063e520fc7e1461063f578063e63490ce1461037c578063e985e9c514610326578063eb29dc5e146102df578063ef3316ce14610298578063f2fde38b1461020c5763f5d13da0146101e3575f80fd5b346102065760a05180600319360112610203576020600a54604051908152f35b80fd5b60a05180fd5b346102065760203660031901126102065761022561242e565b61022d612563565b6001600160a01b0390811690811561027e57600680546001600160a01b031981168417909155167f8be0079c531659141344cd1fd0a4f28419497f9722a3daafe3b4186f6b6457e05f80a360a05180f35b604051631e4fbdf760e01b815260a0516004820152602490fd5b346102065760a05180600319360112610203576040517f00000000000000000000000000000000000000000000000000000000000000006001600160a01b03168152602090f35b34610206576020366003190112610206576102fb600435613793565b604051600782101561030e576020918152f35b634e487b7160e01b60a051526021600452602460a051fd5b346102065760403660031901126102065761033f61242e565b610347612444565b9060018060a01b0380911660a051526005602052604060a0512091165f52602052602060ff60405f2054166040519015158152f35b346102065760203660031901126102065760a0805160048035909152600c602090815291516040908190206006810154600782015460088301546009840154600a8501546002860154600587015460038801549754985163ad1c481b60e01b81526001600160a01b039788169a81018b9052958716602487018190529a949893979296929590831694919392909190829060449082907f0000000000000000000000000000000000000000000000000000000000000000165afa9081156106325760a051916105fc575b50612710918282029180830484149015171561058b5780156105e857600160ff1b918083145f198314166105d457055f8184039112838212811690848313901516176105d4578860801d600f0b908082029260a051908214818412166105bd5750818305149015171561058b5705600f0b60a05160ff86165f146105a35750945b6001600160801b0395868216600f0b90600f0b039460016001607f1b03861360016001607f1b031987121761058b5760016001607f1b0319600f87810b898b1690910b0190811260016001607f1b039091131761058b576001600160401b0360ff926101609b6040519b8c5260208c01528960801c60408c015260801c1660608a0152818116151560808a015260101c1660a088015260c087015260e086015261010085015280600f0b610120850152600f0b9116600f0b01600f0b610140820152f35b634e487b7160e01b60a051526011600452602460a051fd5b60016001607f1b031982146105bd575060a05103946104c7565b634e487b7160e01b9052601160045260a051602490fd5b634e487b7160e01b5f52601160045260245ffd5b634e487b7160e01b5f52601260045260245ffd5b90506020813d60201161062a575b8161061760209383612527565b8101031261062657518a610446565b5f80fd5b3d915061060a565b6040513d60a051823e3d90fd5b346102065760a051806003193601126102035760088054604051911c6001600160a01b03168152602090f35b346102065760203660031901126102065760043560a05152600c602052610200604060a0512060ff8154916001810154906002810154600382015460018060a01b03806004850154168160058601541690826006870154169260078701541693600887015495600a6009890154980154986040519b8c5260208c015260408b015260608a0152608089015260a088015260c087015260e08601526001600160801b039081811661010087015260801c61012086015281166101408501526001600160401b038160801c1661016085015260c01c61018084015281811615156101a0840152818160081c1615156101c084015260101c166101e0820152f35b346102065760a05180600319360112610203576009546040516001600160a01b039091168152602090f35b3461020657610120366003190112610206576107ae61242e565b6080526107b9612444565b604435906001600160a01b03821682036102065760643562ffffff81168103610206576084351515608435036102065760a4359060ff82168203610206576001600160801b0360c4351660c435036102065760e435926001600160a01b038416840361020657610827612563565b61082f612bdc565b6108376128fa565b600a549460405192836101a08101106001600160401b036101a0860111176116585762ffffff916101a0850160405260018060a01b038416855260018060a01b031660208501521660408301526084351515606083015260ff831660808301526001600160801b0360c4351660a083015260018060a01b03841660c08301526101043560e083015260018060a01b037f00000000000000000000000000000000000000000000000000000000000000001661010083015260018060a01b037f00000000000000000000000000000000000000000000000000000000000000001661012083015260018060a01b037f0000000000000000000000000000000000000000000000000000000000000000166101408301526003610160830152670de0b6b3a764000061018083015261018060405192634aa8531760e11b845260018060a01b03815116600485015260018060a01b03602082015116602485015262ffffff604082015116604485015260608101511515606485015260ff608082015116608485015260a081015160a485015260c081015160c485015260e081015160e485015260018060a01b036101008201511661010485015260018060a01b036101208201511661012485015260018060a01b0361014082015116610144850152610160810151610164850152015161018483015260a0826101a48173__$a76c3f6da63d6e520725e3888dec961ed1$__5af49182156106325760a051926116d2575b50602082015160408301518351608085015160609095015190969015159460ff871660011480159485946001600160a01b03908116949181169391929116906116c8575b60405163313ce56760e01b8152602081600481875afa9081156106325760a051916116a9575b5060405163313ce56760e01b815290602082600481895afa9182156106325760a05192611670575b50610af8610afe91612945565b91612945565b966040516323b872dd60e01b602082015260018060a01b036080511660248201523060448201526001600160801b0360c435166064820152606481528060a08101106001600160401b0360a0830111176116585760a08101604052610b6c906001600160a01b038b16612b77565b60a05160095460408051639af608c960e01b81526080516001600160a01b039081166004830152939593869384939183916024918391165afa80156106325760a051918291611627575b50610bc39060c43561298e565b6001600160801b031661271090049c8d60c43590610be0916129ac565b91610beb908361298e565b600880546127106001600160801b039384160490921692610c1b9284921c6001600160a01b039081169116612a43565b610c24916129ac565b99156115a657505060843515611518578c612710810204612710148d15171561058b578b61271060ff808316921602046127101460ff8d1615171561058b578b92610cab8e610ca68b610ca1866001600160801b0360ff610c98610c92612710838f16026127108a026128f0565b886129e5565b9b1693166129c5565b6129c5565b6128f0565b995b6084351561151257875b604051633c3e613f60e01b81526001600160a01b03918216600482015290602090829060249082907f0000000000000000000000000000000000000000000000000000000000000000165afa9081156106325760a051916114d8575b506001600160a01b0381163b156102065760405163317afabb60e21b8152600481018d905260a05190918290602490829084906001600160a01b03165af18015610632576114c9575b50608435156112d55750610d9c9050897f00000000000000000000000000000000000000000000000000000000000000006001600160a01b031688612a86565b60405163ad1c481b60e01b81526001600160a01b0380881660048301528816602482015290602082806044810103817f00000000000000000000000000000000000000000000000000000000000000006001600160a01b03165afa9182156106325760a0519261129f575b50610ca6610e15928b6129c5565b61251c90808281020482148115171561058b5760405163ddca3f4360e01b815291602083600481895afa91821561063257610e7c6020936127109560a05191611272575b506040516365650ea160e01b815295869485940204908e908d8d60048701612a0d565b038160a05160018060a01b037f0000000000000000000000000000000000000000000000000000000000000000165af19081156106325760a05191611240575b50905b6084351561121857506001600160801b0316965b6040519b610ee08d6124f0565b8c5260208c015260408b01526101043560608b015260808a0152600160a01b600190031660a089015260c088015260e08701526001600160801b03166101008601526001600160801b03166101208501526001600160801b0316610140840152426001600160401b0316610160840152436001600160401b031661018084015260843515156101a08401526101c083015260ff166101e08201528160a05152600c60205260a0516040902081518155602082015160018201556040820151600282015560608201516003820155600160a01b60019003608083015116600160a01b600190031960048301541617600482015560058101600160a01b6001900360a084015116600160a01b600190031982541617905560068101600160a01b6001900360c084015116600160a01b600190031982541617905560078101600160a01b6001900360e084015116600160a01b60019003198254161790556101008201516001600160801b03166001600160801b031961012084015160801b161760088201556101408201516001600160801b03166001600160401b0360801b61016084015160801b166001600160401b0360c01b61018085015160c01b169117176009820155600a01906101a081015115156110c690839060ff801983541691151516179055565b6101c08101511515908254906101e0015160101b62ff0000169160081b61ff00169062ffff00191617179055600b54600101600b55600a54600101600a55600160a01b6001900360805116156111fe575f818152600260205260409020546001600160a01b0316801515908290826111cb575b6080516001600160a01b03165f818152600360209081526040808320805460010190558583526002909152812080546001600160a01b031916831790559091907fddf252ad1be2c89b69c2b068fc378daa952ba7f163c4a11628f55a4df523b3ef9080a46111b1576020906001600755604051908152f35b6040516339e3563760e11b815260a0516004820152602490fd5b5f82815260046020526040902080546001600160a01b0319169055805f52600360205260405f205f198154019055611139565b604051633250574960e11b815260a0516004820152602490fd5b15611238576112316001600160801b03918289166129e5565b1696610ed3565b508596610ed3565b90506020813d60201161126a575b8161125b60209383612527565b8101031261062657518e610ebc565b3d915061124e565b6112929150853d8711611298575b61128a8183612527565b8101906129f2565b5f610e59565b503d611280565b91506020823d6020116112cd575b816112ba60209383612527565b8101031261062657905190610ca6610e07565b3d91506112ad565b90928092506112e5575b50610ebf565b90915061131c897f00000000000000000000000000000000000000000000000000000000000000006001600160a01b031689612a86565b60405163ad1c481b60e01b81526001600160a01b0380891660048301528716602482015290602082806044810103817f00000000000000000000000000000000000000000000000000000000000000006001600160a01b03165afa9182156106325760a05192611493575b50610ca6611395928b6129c5565b61251c90808281020482148115171561058b5760405163ddca3f4360e01b815291602083600481895afa918215610632576113fc8a8d6020956127109760a05191611476575b506040516365650ea160e01b815297889687960204928d9060048701612a0d565b038160a05160018060a01b037f0000000000000000000000000000000000000000000000000000000000000000165af19081156106325760a05191611444575b50908e6112df565b90506020813d60201161146e575b8161145f60209383612527565b8101031261062657518e61143c565b3d9150611452565b61148d9150873d89116112985761128a8183612527565b5f6113db565b91506020823d6020116114c1575b816114ae60209383612527565b8101031261062657905190610ca6611387565b3d91506114a1565b6114d2906124c9565b5f610d5c565b90506020813d60201161150a575b816114f360209383612527565b810103126102065761150490612918565b5f610d13565b3d91506114e6565b88610cb7565b8c612710810204612710148d15171561058b578b61271060ff808316921602046127101460ff8d1615171561058b576115668d6115606127108f60ff160261271083026128f0565b906129d8565b9260ff8d81165f19011161058b576115a0828f8f906001600160801b0361159a8e60ff610ca695815f19911601169061298e565b166129c5565b99610cad565b909950929190506001600160a01b03851615610ebf5760405162461bcd60e51b815260206004820152603b60248201527f4c696d6974206f726465727320666f72206e6f6e2d6d617267696e207472616460448201527f6573206172652074656d706f726172696c792064697361626c656400000000006064820152608490fd5b905061164b915060403d604011611651575b6116438183612527565b81019061296a565b5f610bb6565b503d611639565b634e487b7160e01b60a051526041600452602460a051fd5b610afe91925061169a610af89160203d6020116116a2575b6116928183612527565b81019061292c565b929150610aeb565b503d611688565b6116c2915060203d6020116116a2576116928183612527565b8c610ac3565b6084359450610a9d565b90915060a0813d60a01161176a575b816116ee60a09383612527565b8101031261020657604051908160a08101106001600160401b0360a0840111176116585760a082016040528051825261172960208201612918565b602083015261173a60408201612918565b60408301526060810151801515810361020657606083015261175e90608001612918565b60808201529085610a59565b3d91506116e1565b346102065760203660031901126102065761178e6004356128b6565b5060405161179b8161250c565b60a05190526117c86040516117af8161250c565b60a05181526040519182916020835260208301906123f0565b0390f35b34610206576080366003190112610206576117e561242e565b6117ed612444565b606435916001600160401b03831161020657366023840112156102065782600401359161181983612548565b926118276040519485612527565b80845236602482870101116102065780602461185696016020860137602060a051918501015260443591612763565b60a05180f35b346102065760a05180600319360112610203576040517f00000000000000000000000000000000000000000000000000000000000000006001600160a01b03168152602090f35b34610206576040366003190112610206576118bc61242e565b6024359081151590818303610206576001600160a01b031691821561193f5761190d903360a05152600560205260a05184604082209152602052604060a051209060ff801983541691151516179055565b6040519081527f17307eab39ab6107e8899845ad3d59bd9653f200f220920489ca2b5937696c3160203392a360a05180f35b604051630b61174360e31b815260048101849052602490fd5b346102065760a0518060031936011261020357602060405160038152f35b346102065760a0518060031936011261020357604051908060019081549182811c928181168015611a5f575b6020958686108214611a4857508487528693929186908215611a285750506001146119e9575b506119d592500383612527565b6117c86040519282849384528301906123f0565b8491508060a0515260a051908282205b858310611a105750506119d59350820101856119c8565b805483890185015287945086939092019181016119f9565b60ff1916858201526119d595151560051b85010192508791506119c89050565b634e487b7160e01b9052602260045260a051602490fd5b93607f16936119a2565b346102065760a051806003193601126102035760206040516103e88152f35b346102065760a05180600319360112610203576006546040516001600160a01b039091168152602090f35b346102065760a0518060031936011261020357611ace612563565b611ad66128fa565b600160ff1960085416176008557f62e78cea01bee320cd4e420270b5ea74000d11b0c9f74754ebdbfc544b05a2586020604051338152a160a05180f35b346102065760a05180600319360112610203576020600b54604051908152f35b3461020657606036600319011261020657611b4c61242e565b60443590602435611b5b612563565b611b64816128b6565b6001600160a01b03929083821690841603611c915750611b82612bdc565b611b8a6128fa565b60a0805191909152600c6020908152905160409081902060068101546007820154925163ad1c481b60e01b81526001600160a01b039186168216600482015292851616602483015292909190829081806044810103917f0000000000000000000000000000000000000000000000000000000000000000165afa9081156106325760a05191611c60575b50600a82015460ff1615611c52578210611c39576003905b0155600160075560a05180f35b6040516371af14eb60e01b815260048101839052602490fd5b8211611c3957600390611c2c565b90506020813d8211611c89575b81611c7a60209383612527565b81010312610206575183611c14565b3d9150611c6d565b60405163c8bbf6d360e01b81526001600160a01b039190911660048201526024810191909152604490fd5b3461020657604036600319011261020657611cd561242e565b602435611ce0612563565b611ce981613793565b600781101561030e57600214611d1557611d0a91611d05612bdc565b612bff565b600160075560a05180f35b6024906040519063b9b3374360e01b82526004820152fd5b3461020657604036600319011261020657611d4661242e565b60243590611d52612563565b611d5b826128b6565b6001600160a01b03828116911603611c915790611d0a91611d05612bdc565b346102065760a0518060031936011261020357611d95612563565b600680546001600160a01b0319811690915560a0519081906001600160a01b03167f8be0079c531659141344cd1fd0a4f28419497f9722a3daafe3b4186f6b6457e08280a380f35b34610206576020366003190112610206576020611e00611dfb61242e565b61258f565b604051908152f35b34610206576020366003190112610206576020611e266004356128b6565b6040516001600160a01b039091168152f35b346102065760208060031936011261020657611e5261242e565b611e5b8161258f565b90611e6582613d89565b9160a051938490600a545f19968782019182116105bd5750909390916001600160a01b039182169190835b611ea3575b604051806117c8898261245a565b8360a0515260028652878383604060a051205416145f14611ee957508084611ecd6001938a613dbb565b520192848414611ee457870194855b939095611e90565b611e95565b9093019485611edc565b346102065760a0518060031936011261020357602060ff600854166040519015158152f35b3461020657611856611f2936612494565b9060405192611f378461250c565b60a0518452612763565b346102065760a0518060031936011261020357611f5c612563565b60085460ff811615611f9f5760ff19166008557f5db9ee0a495bf2e6ff9c91a7834c1ba4fdd244a5e8aa4e537bd38aeae4b073aa6020604051338152a160a05180f35b604051638dfc202b60e01b8152600490fd5b346102065760a05180600319360112610203576040517f00000000000000000000000000000000000000000000000000000000000000006001600160a01b03168152602090f35b346102065760a0518060031936011261020357602060405160128152f35b346102065761185661202736612494565b916125c5565b346102065760a0518060031936011261020357600b5461204c81613d89565b60a051600a545f19939084810190839082116105bd575091825b612079575b604051806117c8868261245a565b61208283613793565b600781101561030e578060028792141590816120d0575b50156120c6575080836120ae60019387613dbb565b5201918183146120c15784019182612066565b61206b565b9092019182612066565b9050151587612099565b346102065760a05180600319360112610203576020604051670de0b6b3a76400008152f35b346102065760803660031901126102065761211861242e565b50612121612444565b506064356001600160401b038082116102065736602383011215610206578160040135908111610206573691016024011161020657604051630a85bd0160e11b8152602090f35b346102065760a05180600319360112610203576040517f00000000000000000000000000000000000000000000000000000000000000006001600160a01b03168152602090f35b34610206576040366003190112610206576121c861242e565b6024356121d4816128b6565b3315158061228c575b8061225b575b6122435760a0516001600160a01b0393841693909183918591167f8c5be1e5ebec7d5bd14f71427d1e84f3dd0314c0f7b2291e5b200ac8c7c3b9258480a452600460205260a0516040812080546001600160a01b03191690921790915580f35b60405163a9fbf51f60e01b8152336004820152602490fd5b5060018060a01b03811660a05152600560205260a051604081209033905260205260ff604060a051205416156121e3565b506001600160a01b0381163314156121dd565b34610206576020366003190112610206576004356122bc816128b6565b5060a051526004602052602060018060a01b03604060a051205416604051908152f35b346102065760a05180600319360112610203576040519080815490600182811c92818116801561237b575b6020958686108214611a4857508487528693929186908215611a2857505060011461233c57506119d592500383612527565b84915060a051805260a051908282205b8583106123635750506119d59350820101856119c8565b8054838901850152879450869390920191810161234c565b93607f169361230a565b34610626576020366003190112610626576004359063ffffffff60e01b8216809203610626576020916380ac58cd60e01b81149081156123df575b81156123ce575b5015158152f35b6301ffc9a760e01b149050836123c7565b635b5e139f60e01b811491506123c0565b91908251928382525f5b84811061241a575050825f602080949584010152601f8019910116010190565b6020818301810151848301820152016123fa565b600435906001600160a01b038216820361062657565b602435906001600160a01b038216820361062657565b602090816040818301928281528551809452019301915f5b828110612480575050505090565b835185529381019392810192600101612472565b6060906003190112610626576001600160a01b0390600435828116810361062657916024359081168103610626579060443590565b6001600160401b0381116124dc57604052565b634e487b7160e01b5f52604160045260245ffd5b61020081019081106001600160401b038211176124dc57604052565b602081019081106001600160401b038211176124dc57604052565b90601f801991011681019081106001600160401b038211176124dc57604052565b6001600160401b0381116124dc57601f01601f191660200190565b6006546001600160a01b0316330361257757565b60405163118cdaa760e01b8152336004820152602490fd5b6001600160a01b031680156125ad575f52600360205260405f205490565b6040516322718ad960e21b81525f6004820152602490fd5b6001600160a01b03918216929091831561274b575f928284528260209560028752604096848888205416968791331515806126b2575b509060027fddf252ad1be2c89b69c2b068fc378daa952ba7f163c4a11628f55a4df523b3ef9284612681575b858352600381528b8320805460010190558683525289812080546001600160a01b0319168517905580a416928383036126605750505050565b6064945051926364283d7b60e01b8452600484015260248301526044820152fd5b5f87815260046020526040902080546001600160a01b0319169055848352600381528b832080545f19019055612627565b9193945091508061270a575b156126ce5785929187915f6125fb565b8786886126eb576024915190637e27328960e01b82526004820152fd5b905163177e802f60e01b81523360048201526024810191909152604490fd5b50338714801561272f575b806126be57508582526004815233858984205416146126be565b5086825260058152878220338352815260ff8883205416612715565b604051633250574960e11b81525f6004820152602490fd5b9290926127718385836125c5565b833b61277e575b50505050565b604051630a85bd0160e11b8082523360048301526001600160a01b03928316602483015260448201949094526080606482015294931692602092909185906127ca9060848301906123f0565b039483815f978189895af1869181612872575b5061283d575050503d5f14612834573d6127f681612548565b906128046040519283612527565b81528093823d92013e5b8251928361282f57604051633250574960e11b815260048101849052602490fd5b019050fd5b6060925061280e565b919450915063ffffffff60e01b160361285a57505f808080612778565b60249060405190633250574960e11b82526004820152fd5b9091508481813d83116128af575b61288a8183612527565b810103126128ab57516001600160e01b0319811681036128ab57905f6127dd565b8680fd5b503d612880565b5f818152600260205260409020546001600160a01b03169081156128d8575090565b60249060405190637e27328960e01b82526004820152fd5b81156105e8570490565b60ff6008541661290657565b60405163d93c066560e01b8152600490fd5b51906001600160a01b038216820361062657565b90816020910312610626575160ff811681036106265790565b60ff16604d81116105d457600a0a90565b51906001600160801b038216820361062657565b91908260409103126106265761298b602061298484612956565b9301612956565b90565b9190916001600160801b03808094169116029182169182036105d457565b6001600160801b0391821690821603919082116105d457565b818102929181159184041417156105d457565b919082039182116105d457565b919082018092116105d457565b90816020910312610626575162ffffff811681036106265790565b6001600160a01b0391821681529116602082015262ffffff90911660408201526060810191909152608081019190915260a00190565b60405163a9059cbb60e01b60208201526001600160a01b03929092166024830152604480830193909352918152612a8491612a7f606483612527565b612b77565b565b60405163095ea7b360e01b602082018181526001600160a01b038516602484015260448084019690965294825294939092612ac2606485612527565b60205f809386519082875af182513d82612b52575b505015612ae7575b505050509050565b60405160208101969096526001600160a01b031660248601526044808601829052855260808501906001600160401b03821186831017612b3e5750612b349394612a7f9160405282612b77565b805f808080612adf565b634e487b7160e01b81526041600452602490fd5b909150612b6f57506001600160a01b0383163b15155b5f80612ad7565b600114612b68565b905f602091828151910182855af115612bd1575f513d612bc857506001600160a01b0381163b155b612ba65750565b604051635274afe760e01b81526001600160a01b039091166004820152602490fd5b60011415612b9f565b6040513d5f823e3d90fd5b600260075414612bed576002600755565b604051633ee5aeb560e01b8152600490fd5b9190612c096128fa565b5f818152600260205260408120549093906001600160a01b03161561375b57612c31826128b6565b91808552600c6020526040852094600a60405196612c4e886124f0565b8054885260018101546020890152600281015460408901526003810154606089015260018060a01b03600482015416608089015260018060a01b0360058201541660a089015260018060a01b0360068201541660c089015260018060a01b0360078201541660e089015260088101546001600160801b0381166101008a015260801c61012089015260098101546001600160801b0381166101408a01526001600160401b038160801c166101608a015260c01c610180890152015493600160ff808716151596876101a08b0152818160081c1615156101c08b015260101c16806101e08a01521494851595613753575b50612d4883613793565b6101a08801511561373f5760c08801516001600160a01b0316905b604051633c3e613f60e01b81526001600160a01b03928316600482015291602090839060249082907f0000000000000000000000000000000000000000000000000000000000000000165afa9182156137345784926136f4575b5060095460408051639af608c960e01b81526001600160a01b038681166004830152909283916024918391165afa9081156136e957908a9493929186916136c9575b506101a085015115801599879491859061368c576101c08801511561367557506001600160801b0361012088015116935b8515613642576101c08801511561362f5760c08801516001600160a01b03165b955b8c1561361b5760e08901516001600160a01b03169c5b156136075760c08901516001600160a01b0316955b81156135ff5750905b60c0890151919889926001600160a01b0390811690891681036135f7575060e001516001600160a01b0316925b60078210156135e35760018214806135db575b15613031575050506001600160a01b039384169493841685039250613001915050575090612ef49291612a43565b5f199081600b5401600b55828152600c602052600a604082208281558260018201558260028201558260038201558260048201558260058201558260068201558260078201558260088201558260098201550155815f526002602052815f60018060a01b036040822054168015938415612fce575b5082825260026020526040822080546001600160a01b03191690557fddf252ad1be2c89b69c2b068fc378daa952ba7f163c4a11628f55a4df523b3ef8280a46128d857506001600160801b03610140612a8494950151169160018060a01b0316612a43565b5f84815260046020526040902080546001600160a01b03191690558183526003602052604083209081540190555f612f69565b6040516322f48a0560e11b815260048101929092526001600160a01b031660248201526001604482015260649150fd5b94989697969593946001600160a01b03808616908a16146135aa578f9291901561328457506101a082015161325c575b506080015160405163ddca3f4360e01b815290602090829060049082906001600160a01b03165afa90811561325157858f969594936020936130b0938d91613234575b5084890151918b613b24565b9190950151908982128183810312811690828481031390151617613208578e8a838303125f1461321c5750818103600160ff1b1461320857916131038f6131169360209695038c039586915b01516129d8565b906001600160a01b038481169116612a86565b60208d01516001600160a01b0382163b15613204578891606483926040519485938492632bc6468360e21b8452600484015281602484015287604484015260018060a01b03165af180156131f9576131e6575b501561317b575b50505050505b612ef4565b6131c8826127106131a66131dc986001600160801b0361319e6131cd98886129d8565b9116906129c5565b04926131c88460018060a01b0360085460081c1660018060a01b038a16612a43565b6129d8565b916001600160a01b0316612a43565b5f80808080613170565b6131f2909791976124c9565b955f613169565b6040513d8a823e3d90fd5b8880fd5b634e487b7160e01b8a52601160045260248afd5b6131169250602094939150613103908b9586916130fc565b61324b9150853d87116112985761128a8183612527565b5f6130a4565b6040513d8b823e3d90fd5b81955061327c6020916001600160801b03610100600495015116906129e5565b959150613061565b929450959794505060029150145f146132d8575061317693916127106132b66001600160801b036131cd9416836129c5565b04906131c88260018060a01b0360085460081c1660018060a01b038816612a43565b92613310836001600160a01b037f00000000000000000000000000000000000000000000000000000000000000008116908416612a86565b60405163ad1c481b60e01b81526001600160a01b03808316600483015285166024820152602081806044810103817f00000000000000000000000000000000000000000000000000000000000000006001600160a01b03165afa801561359f57879061356b575b6133829150846129c5565b60405163313ce56760e01b81526020816004816001600160a01b0387165afa9081156131f9576133c492916133be918a9161354c575b50612945565b906128f0565b9061251c9382858102048514831517156135385760808d015160405163ddca3f4360e01b81529796959493929190602090899060049082906001600160a01b03165afa97881561325157899861350c575b509161344386926020946040519a8b9586956365650ea160e01b87526127109a8b9102049360048701612a0d565b0381897f00000000000000000000000000000000000000000000000000000000000000006001600160a01b03165af19485156135015786956134c7575b50916134c19161349e6001600160801b0361317697969516866129c5565b600880546001600160a01b039485169793909204936131c89285921c1687612a43565b91612a43565b9094506020813d6020116134f9575b816134e360209383612527565b810103126134f55751936134c1613480565b8580fd5b3d91506134d6565b6040513d88823e3d90fd5b602093919850869261352d61344392863d88116112985761128a8183612527565b999294509250613415565b634e487b7160e01b88526011600452602488fd5b613565915060203d6020116116a2576116928183612527565b5f6133b8565b506020813d602011613597575b8161358560209383612527565b810103126128ab576133829051613377565b3d9150613578565b6040513d89823e3d90fd5b6040516322f48a0560e11b81526001600160a01b0380871660048301528a1660248201526109296044820152606490fd5b508015612ec6565b634e487b7160e01b8b52602160045260248bfd5b905092612eb3565b905090612e86565b60e08901516001600160a01b031695612e7d565b60c08901516001600160a01b03169c612e68565b60e08801516001600160a01b0316612e50565b6101c0880151156136625760e08801516001600160a01b03165b95612e52565b60c08801516001600160a01b031661365c565b6101208801516001600160801b0316955093612e30565b6101c088015194959094156136b157506001600160801b036101208801511694612e30565b9493506001600160801b036101208801511693612e30565b6136e2915060403d604011611651576116438183612527565b505f612dff565b6040513d87823e3d90fd5b9091506020813d60201161372c575b8161371060209383612527565b810103126137285761372190612918565b905f612dbd565b8380fd5b3d9150613703565b6040513d86823e3d90fd5b60e08801516001600160a01b031690612d63565b94505f612d3e565b6040516369c6ab6960e11b815260048101839052602490fd5b9081602091031261062657516001600160401b03811681036106265790565b5f81815260026020908152604080832054909392916001600160a01b0391821615613b1c57600c8152848320600a810154600282015460058301546003840154600685015460078601548b5163ad1c481b60e01b81529189166001600160a01b03908116600480850191909152918a1616602483015299959895949093919260ff9091169190881687856044817f00000000000000000000000000000000000000000000000000000000000000008d165afa948515613b12578795613ae3575b508215613ac557612328808302908382041483151715613ab2576127109004925b15613a3d578015159081613a33575b50613a23578015159081613a18575b50613a095780151590816139fe575b506139f25780151591826139e7575b50506139db575b815260028252828682205416926009541692865195631ce3d24360e31b875281818801528387602481885afa9687156139d15783976139ab575b509060248492895196879384926367058dad60e01b84528301525afa9586156139a157509461396b575b5050600961394d910154916001600160401b03809116613940828560801c16426129d8565b1193169160c01c436129d8565b1181613963575b5061395e57600290565b600690565b90505f613954565b61394d9294506009918161399392903d1061399a575b61398b8183612527565b810190613774565b939161391b565b503d613981565b51903d90823e3d90fd5b84929197506139c8602491843d861161399a5761398b8183612527565b979192506138f1565b88513d85823e3d90fd5b50505050505050600390565b101590505f806138b0565b50505050505050905090565b90508210155f6138a1565b50505050505050505050600590565b90508310155f613892565b5050505050505050505050600190565b905084105f613883565b8015159081613aa8575b50613a23578015159081613a9d575b50613a09578015159081613a92575b506139f2578015159182613a87575b5050156138b75750505050505050600390565b111590505f80613a74565b90508211155f613a65565b90508311155f613a56565b905084115f613a47565b634e487b7160e01b885260118c52602488fd5b612af8808302908382041483151715613ab257612710900492613874565b9094508781813d8311613b0b575b613afb8183612527565b810103126128ab5751935f613853565b503d613af1565b8c513d89823e3d90fd5b505091505090565b6040805163313ce56760e01b815290969594602093916001600160a01b03808516928a928781600481885afa908115613d68578688613bb98d86613b718f978f975f91613d515750612945565b99613ba0838b7f000000000000000000000000000000000000000000000000000000000000000016809e612a86565b5163ccdc1e8960e01b8152968795869560048701612a0d565b03815f895af1908115613d47575f91613d1a575b5080613d0c575050895163ad1c481b60e01b81526001600160a01b03868116600483015285166024820152908690829060449082907f0000000000000000000000000000000000000000000000000000000000000000165afa908115613d02575f91613cd3575b5090610ca6613c4392896129c5565b61251c908181029181830414901517156105d4575f61271091613c8087968a8d519a8b98899788966365650ea160e01b8852049360048701612a0d565b03925af1948515613cca57505f94613c99575b50509190565b8181959293953d8311613cc3575b613cb18183612527565b81010312610203575051915f80613c93565b503d613ca7565b513d5f823e3d90fd5b908682813d8311613cfb575b613ce98183612527565b81010312610203575051610ca6613c34565b503d613cdf565b8a513d5f823e3d90fd5b9a5098975050505050505050565b908882813d8311613d40575b613d308183612527565b810103126102035750515f613bcd565b503d613d26565b8c513d5f823e3d90fd5b6135659150883d8a116116a2576116928183612527565b84513d5f823e3d90fd5b6001600160401b0381116124dc5760051b60200190565b90613d9382613d72565b613da06040519182612527565b8281528092613db1601f1991613d72565b0190602036910137565b8051821015613dcf5760209160051b010190565b634e487b7160e01b5f52603260045260245ffdfea2646970667358221220f3a73a73305c3a91ce31bac6b3b68aeda9f7b59d335def51de90558f99ac84ab64736f6c63430008140033","linkReferences":{"src/libraries/PositionLogic.sol":{"PositionLogic":[{"start":3922,"length":20}]}}},"methodIdentifiers":{"LIQUIDATION_THRESHOLD()":"90a8ae9b","LIQUIDITY_POOL_FACTORY()":"ef3316ce","LIQUIDITY_POOL_FACTORY_UNISWAP_V3()":"b2d4c9d9","MAX_LEVERAGE()":"9b45ec97","MIN_POSITION_AMOUNT_IN_USD()":"1a055c2b","PRICE_FEED()":"31eb318a","UNISWAP_V3_HELPER()":"124b1583","USD_DECIMALS()":"2f6ee695","approve(address,uint256)":"095ea7b3","balanceOf(address)":"70a08231","closePosition(address,uint256)":"742fe1f8","editPosition(address,uint256,uint256)":"7701297c","feeManager()":"d0fb0203","getApproved(uint256)":"081812fc","getLiquidablePositions()":"1ae11bb5","getPositionParams(uint256)":"e63490ce","getPositionState(uint256)":"eb29dc5e","getTraderPositions(address)":"5fbbb2ff","isApprovedForAll(address,address)":"e985e9c5","liquidatePosition(address,uint256)":"76f89965","name()":"06fdde03","onERC721Received(address,address,uint256,bytes)":"150b7a02","openPosition(address,address,address,uint24,bool,uint8,uint128,uint160,uint256)":"cd94f136","openPositions(uint256)":"d2ec0025","owner()":"8da5cb5b","ownerOf(uint256)":"6352211e","pause()":"8456cb59","paused()":"5c975abb","posId()":"f5d13da0","renounceOwnership()":"715018a6","safeTransferFrom(address,address,uint256)":"42842e0e","safeTransferFrom(address,address,uint256,bytes)":"b88d4fde","setApprovalForAll(address,bool)":"a22cb465","supportsInterface(bytes4)":"01ffc9a7","symbol()":"95d89b41","tokenURI(uint256)":"c87b56dd","totalNbPos()":"7841cd91","transferFrom(address,address,uint256)":"23b872dd","transferOwnership(address)":"f2fde38b","treasure()":"e520fc7e","unpause()":"3f4ba83a"},"id":51}