{"abi":[{"type":"constructor","inputs":[{"name":"_priceFeed","type":"address","internalType":"address"},{"name":"_liquidityPoolFactory","type":"address","internalType":"address"},{"name":"_liquidityPoolFactoryUniswapV3","type":"address","internalType":"address"},{"name":"_uniswapV3Helper","type":"address","internalType":"address"},{"name":"_treasure","type":"address","internalType":"address"},{"name":"_feeManager","type":"address","internalType":"address"}],"stateMutability":"nonpayable"},{"type":"function","name":"LIQUIDATION_THRESHOLD","inputs":[],"outputs":[{"name":"","type":"uint256","internalType":"uint256"}],"stateMutability":"view"},{"type":"function","name":"LIQUIDITY_POOL_FACTORY","inputs":[],"outputs":[{"name":"","type":"address","internalType":"contract LiquidityPoolFactory"}],"stateMutability":"view"},{"type":"function","name":"LIQUIDITY_POOL_FACTORY_UNISWAP_V3","inputs":[],"outputs":[{"name":"","type":"address","internalType":"address"}],"stateMutability":"view"},{"type":"function","name":"MAX_LEVERAGE","inputs":[],"outputs":[{"name":"","type":"uint256","internalType":"uint256"}],"stateMutability":"view"},{"type":"function","name":"MIN_POSITION_AMOUNT_IN_USD","inputs":[],"outputs":[{"name":"","type":"uint256","internalType":"uint256"}],"stateMutability":"view"},{"type":"function","name":"PRICE_FEED","inputs":[],"outputs":[{"name":"","type":"address","internalType":"contract PriceFeedL1"}],"stateMutability":"view"},{"type":"function","name":"SLIPPAGE_TOLERANCE","inputs":[],"outputs":[{"name":"","type":"uint256","internalType":"uint256"}],"stateMutability":"view"},{"type":"function","name":"SWAP_DEADLINE_BUFFER","inputs":[],"outputs":[{"name":"","type":"uint256","internalType":"uint256"}],"stateMutability":"view"},{"type":"function","name":"UNISWAP_V3_HELPER","inputs":[],"outputs":[{"name":"","type":"address","internalType":"contract UniswapV3Helper"}],"stateMutability":"view"},{"type":"function","name":"USD_DECIMALS","inputs":[],"outputs":[{"name":"","type":"uint256","internalType":"uint256"}],"stateMutability":"view"},{"type":"function","name":"approve","inputs":[{"name":"to","type":"address","internalType":"address"},{"name":"tokenId","type":"uint256","internalType":"uint256"}],"outputs":[],"stateMutability":"nonpayable"},{"type":"function","name":"balanceOf","inputs":[{"name":"owner","type":"address","internalType":"address"}],"outputs":[{"name":"","type":"uint256","internalType":"uint256"}],"stateMutability":"view"},{"type":"function","name":"closePosition","inputs":[{"name":"_trader","type":"address","internalType":"address"},{"name":"_posId","type":"uint256","internalType":"uint256"}],"outputs":[],"stateMutability":"nonpayable"},{"type":"function","name":"editPosition","inputs":[{"name":"_trader","type":"address","internalType":"address"},{"name":"_posId","type":"uint256","internalType":"uint256"},{"name":"_newStopLossPrice","type":"uint256","internalType":"uint256"}],"outputs":[],"stateMutability":"nonpayable"},{"type":"function","name":"feeManager","inputs":[],"outputs":[{"name":"","type":"address","internalType":"contract FeeManager"}],"stateMutability":"view"},{"type":"function","name":"getApproved","inputs":[{"name":"tokenId","type":"uint256","internalType":"uint256"}],"outputs":[{"name":"","type":"address","internalType":"address"}],"stateMutability":"view"},{"type":"function","name":"getLiquidablePositions","inputs":[],"outputs":[{"name":"","type":"uint256[]","internalType":"uint256[]"}],"stateMutability":"view"},{"type":"function","name":"getPositionParams","inputs":[{"name":"_posId","type":"uint256","internalType":"uint256"}],"outputs":[{"name":"baseToken_","type":"address","internalType":"address"},{"name":"quoteToken_","type":"address","internalType":"address"},{"name":"positionSize_","type":"uint128","internalType":"uint128"},{"name":"timestamp_","type":"uint64","internalType":"uint64"},{"name":"isShort_","type":"bool","internalType":"bool"},{"name":"leverage_","type":"uint8","internalType":"uint8"},{"name":"liquidationFloor_","type":"uint256","internalType":"uint256"},{"name":"limitPrice_","type":"uint160","internalType":"uint160"},{"name":"stopLossPrice_","type":"uint256","internalType":"uint256"},{"name":"currentPnL_","type":"int128","internalType":"int128"},{"name":"collateralLeft_","type":"int128","internalType":"int128"}],"stateMutability":"view"},{"type":"function","name":"getPositionState","inputs":[{"name":"_posId","type":"uint256","internalType":"uint256"}],"outputs":[{"name":"","type":"uint8","internalType":"enum PositionState"}],"stateMutability":"view"},{"type":"function","name":"getTraderPositions","inputs":[{"name":"_traderAdd","type":"address","internalType":"address"}],"outputs":[{"name":"","type":"uint256[]","internalType":"uint256[]"}],"stateMutability":"view"},{"type":"function","name":"isApprovedForAll","inputs":[{"name":"owner","type":"address","internalType":"address"},{"name":"operator","type":"address","internalType":"address"}],"outputs":[{"name":"","type":"bool","internalType":"bool"}],"stateMutability":"view"},{"type":"function","name":"liquidatePosition","inputs":[{"name":"_liquidator","type":"address","internalType":"address"},{"name":"_posId","type":"uint256","internalType":"uint256"}],"outputs":[],"stateMutability":"nonpayable"},{"type":"function","name":"name","inputs":[],"outputs":[{"name":"","type":"string","internalType":"string"}],"stateMutability":"view"},{"type":"function","name":"onERC721Received","inputs":[{"name":"","type":"address","internalType":"address"},{"name":"","type":"address","internalType":"address"},{"name":"","type":"uint256","internalType":"uint256"},{"name":"","type":"bytes","internalType":"bytes"}],"outputs":[{"name":"","type":"bytes4","internalType":"bytes4"}],"stateMutability":"pure"},{"type":"function","name":"openLongPosition","inputs":[{"name":"_trader","type":"address","internalType":"address"},{"name":"_token0","type":"address","internalType":"address"},{"name":"_token1","type":"address","internalType":"address"},{"name":"_fee","type":"uint24","internalType":"uint24"},{"name":"_leverage","type":"uint8","internalType":"uint8"},{"name":"_amount","type":"uint128","internalType":"uint128"},{"name":"_limitPrice","type":"uint160","internalType":"uint160"},{"name":"_stopLossPrice","type":"uint256","internalType":"uint256"}],"outputs":[{"name":"","type":"uint256","internalType":"uint256"}],"stateMutability":"nonpayable"},{"type":"function","name":"openPositions","inputs":[{"name":"","type":"uint256","internalType":"uint256"}],"outputs":[{"name":"initialPrice","type":"uint256","internalType":"uint256"},{"name":"totalBorrow","type":"uint256","internalType":"uint256"},{"name":"liquidationFloor","type":"uint256","internalType":"uint256"},{"name":"stopLossPrice","type":"uint256","internalType":"uint256"},{"name":"v3Pool","type":"address","internalType":"address"},{"name":"limitPrice","type":"uint160","internalType":"uint160"},{"name":"baseToken","type":"address","internalType":"contract IERC20"},{"name":"quoteToken","type":"address","internalType":"contract IERC20"},{"name":"collateralSize","type":"uint128","internalType":"uint128"},{"name":"positionSize","type":"uint128","internalType":"uint128"},{"name":"liquidationReward","type":"uint128","internalType":"uint128"},{"name":"timestamp","type":"uint64","internalType":"uint64"},{"name":"blockNumber","type":"uint64","internalType":"uint64"},{"name":"isShort","type":"bool","internalType":"bool"},{"name":"isBaseToken0","type":"bool","internalType":"bool"},{"name":"leverage","type":"uint8","internalType":"uint8"},{"name":"initialToken","type":"address","internalType":"contract IERC20"}],"stateMutability":"view"},{"type":"function","name":"openShortPosition","inputs":[{"name":"_trader","type":"address","internalType":"address"},{"name":"_token0","type":"address","internalType":"address"},{"name":"_token1","type":"address","internalType":"address"},{"name":"_fee","type":"uint24","internalType":"uint24"},{"name":"_leverage","type":"uint8","internalType":"uint8"},{"name":"_amount","type":"uint128","internalType":"uint128"},{"name":"_limitPrice","type":"uint160","internalType":"uint160"},{"name":"_stopLossPrice","type":"uint256","internalType":"uint256"}],"outputs":[{"name":"","type":"uint256","internalType":"uint256"}],"stateMutability":"nonpayable"},{"type":"function","name":"owner","inputs":[],"outputs":[{"name":"","type":"address","internalType":"address"}],"stateMutability":"view"},{"type":"function","name":"ownerOf","inputs":[{"name":"tokenId","type":"uint256","internalType":"uint256"}],"outputs":[{"name":"","type":"address","internalType":"address"}],"stateMutability":"view"},{"type":"function","name":"pause","inputs":[],"outputs":[],"stateMutability":"nonpayable"},{"type":"function","name":"paused","inputs":[],"outputs":[{"name":"","type":"bool","internalType":"bool"}],"stateMutability":"view"},{"type":"function","name":"posId","inputs":[],"outputs":[{"name":"","type":"uint256","internalType":"uint256"}],"stateMutability":"view"},{"type":"function","name":"renounceOwnership","inputs":[],"outputs":[],"stateMutability":"nonpayable"},{"type":"function","name":"safeTransferFrom","inputs":[{"name":"from","type":"address","internalType":"address"},{"name":"to","type":"address","internalType":"address"},{"name":"tokenId","type":"uint256","internalType":"uint256"}],"outputs":[],"stateMutability":"nonpayable"},{"type":"function","name":"safeTransferFrom","inputs":[{"name":"from","type":"address","internalType":"address"},{"name":"to","type":"address","internalType":"address"},{"name":"tokenId","type":"uint256","internalType":"uint256"},{"name":"data","type":"bytes","internalType":"bytes"}],"outputs":[],"stateMutability":"nonpayable"},{"type":"function","name":"setApprovalForAll","inputs":[{"name":"operator","type":"address","internalType":"address"},{"name":"approved","type":"bool","internalType":"bool"}],"outputs":[],"stateMutability":"nonpayable"},{"type":"function","name":"supportsInterface","inputs":[{"name":"interfaceId","type":"bytes4","internalType":"bytes4"}],"outputs":[{"name":"","type":"bool","internalType":"bool"}],"stateMutability":"view"},{"type":"function","name":"symbol","inputs":[],"outputs":[{"name":"","type":"string","internalType":"string"}],"stateMutability":"view"},{"type":"function","name":"tokenByIndex","inputs":[{"name":"index","type":"uint256","internalType":"uint256"}],"outputs":[{"name":"","type":"uint256","internalType":"uint256"}],"stateMutability":"view"},{"type":"function","name":"tokenOfOwnerByIndex","inputs":[{"name":"owner","type":"address","internalType":"address"},{"name":"index","type":"uint256","internalType":"uint256"}],"outputs":[{"name":"","type":"uint256","internalType":"uint256"}],"stateMutability":"view"},{"type":"function","name":"tokenURI","inputs":[{"name":"tokenId","type":"uint256","internalType":"uint256"}],"outputs":[{"name":"","type":"string","internalType":"string"}],"stateMutability":"view"},{"type":"function","name":"totalNbPos","inputs":[],"outputs":[{"name":"","type":"uint256","internalType":"uint256"}],"stateMutability":"view"},{"type":"function","name":"totalSupply","inputs":[],"outputs":[{"name":"","type":"uint256","internalType":"uint256"}],"stateMutability":"view"},{"type":"function","name":"transferFrom","inputs":[{"name":"from","type":"address","internalType":"address"},{"name":"to","type":"address","internalType":"address"},{"name":"tokenId","type":"uint256","internalType":"uint256"}],"outputs":[],"stateMutability":"nonpayable"},{"type":"function","name":"transferOwnership","inputs":[{"name":"newOwner","type":"address","internalType":"address"}],"outputs":[],"stateMutability":"nonpayable"},{"type":"function","name":"treasure","inputs":[],"outputs":[{"name":"","type":"address","internalType":"address"}],"stateMutability":"view"},{"type":"function","name":"unpause","inputs":[],"outputs":[],"stateMutability":"nonpayable"},{"type":"event","name":"Approval","inputs":[{"name":"owner","type":"address","indexed":true,"internalType":"address"},{"name":"approved","type":"address","indexed":true,"internalType":"address"},{"name":"tokenId","type":"uint256","indexed":true,"internalType":"uint256"}],"anonymous":false},{"type":"event","name":"ApprovalForAll","inputs":[{"name":"owner","type":"address","indexed":true,"internalType":"address"},{"name":"operator","type":"address","indexed":true,"internalType":"address"},{"name":"approved","type":"bool","indexed":false,"internalType":"bool"}],"anonymous":false},{"type":"event","name":"OwnershipTransferred","inputs":[{"name":"previousOwner","type":"address","indexed":true,"internalType":"address"},{"name":"newOwner","type":"address","indexed":true,"internalType":"address"}],"anonymous":false},{"type":"event","name":"Paused","inputs":[{"name":"account","type":"address","indexed":false,"internalType":"address"}],"anonymous":false},{"type":"event","name":"Transfer","inputs":[{"name":"from","type":"address","indexed":true,"internalType":"address"},{"name":"to","type":"address","indexed":true,"internalType":"address"},{"name":"tokenId","type":"uint256","indexed":true,"internalType":"uint256"}],"anonymous":false},{"type":"event","name":"Unpaused","inputs":[{"name":"account","type":"address","indexed":false,"internalType":"address"}],"anonymous":false},{"type":"error","name":"ERC721EnumerableForbiddenBatchMint","inputs":[]},{"type":"error","name":"ERC721IncorrectOwner","inputs":[{"name":"sender","type":"address","internalType":"address"},{"name":"tokenId","type":"uint256","internalType":"uint256"},{"name":"owner","type":"address","internalType":"address"}]},{"type":"error","name":"ERC721InsufficientApproval","inputs":[{"name":"operator","type":"address","internalType":"address"},{"name":"tokenId","type":"uint256","internalType":"uint256"}]},{"type":"error","name":"ERC721InvalidApprover","inputs":[{"name":"approver","type":"address","internalType":"address"}]},{"type":"error","name":"ERC721InvalidOperator","inputs":[{"name":"operator","type":"address","internalType":"address"}]},{"type":"error","name":"ERC721InvalidOwner","inputs":[{"name":"owner","type":"address","internalType":"address"}]},{"type":"error","name":"ERC721InvalidReceiver","inputs":[{"name":"receiver","type":"address","internalType":"address"}]},{"type":"error","name":"ERC721InvalidSender","inputs":[{"name":"sender","type":"address","internalType":"address"}]},{"type":"error","name":"ERC721NonexistentToken","inputs":[{"name":"tokenId","type":"uint256","internalType":"uint256"}]},{"type":"error","name":"ERC721OutOfBoundsIndex","inputs":[{"name":"owner","type":"address","internalType":"address"},{"name":"index","type":"uint256","internalType":"uint256"}]},{"type":"error","name":"EnforcedPause","inputs":[]},{"type":"error","name":"ExpectedPause","inputs":[]},{"type":"error","name":"OwnableInvalidOwner","inputs":[{"name":"owner","type":"address","internalType":"address"}]},{"type":"error","name":"OwnableUnauthorizedAccount","inputs":[{"name":"account","type":"address","internalType":"address"}]},{"type":"error","name":"Positions__POSITION_NOT_LIQUIDABLE_YET","inputs":[{"name":"_posId","type":"uint256","internalType":"uint256"}]},{"type":"error","name":"Positions__POSITION_NOT_OPEN","inputs":[{"name":"_posId","type":"uint256","internalType":"uint256"}]},{"type":"error","name":"Positions__POSITION_NOT_OWNED","inputs":[{"name":"_trader","type":"address","internalType":"address"},{"name":"_posId","type":"uint256","internalType":"uint256"}]},{"type":"error","name":"Positions__STOP_LOSS_ORDER_PRICE_NOT_CONCISTENT","inputs":[{"name":"_stopLossPrice","type":"uint256","internalType":"uint256"}]},{"type":"error","name":"Positions__TOKEN_RECEIVED_NOT_CONCISTENT","inputs":[{"name":"tokenBorrowed","type":"address","internalType":"address"},{"name":"tokenReceived","type":"address","internalType":"address"},{"name":"state","type":"uint256","internalType":"uint256"}]},{"type":"error","name":"ReentrancyGuardReentrantCall","inputs":[]},{"type":"error","name":"SafeERC20FailedOperation","inputs":[{"name":"token","type":"address","internalType":"address"}]}],"bytecode":{"object":"0x610100346200052d57601f620051e438819003918201601f19168301916001600160401b038311848410176200044a5780849260c0946040528339810103126200052d576200004e8162000551565b9060206200005e81830162000551565b906200006d6040840162000551565b926200007c6060820162000551565b936200009960a0620000916080850162000551565b930162000551565b92620000a462000531565b600b81526a0aadcd2e6eec2e05a9a82b60ab1b82820152620000c562000531565b60068152650aa9c929a82b60d31b83820152815190916001600160401b0382116200044a575f5490600182811c9216801562000522575b858310146200042b5781601f849311620004d2575b508490601f83116001146200046a575f926200045e575b50508160011b915f199060031b1c1916175f555b8051916001600160401b0383116200044a5760015491600183811c931680156200043f575b828410146200042b5782601f859411620003d5575b5081601f84116001146200036957505f926200035d575b50508160011b915f199060031b1c1916176001555b33156200034557600a80546001600160a01b0319808216339081179093556040519890976001600160a01b03978895919486948593919084167f8be0079c531659141344cd1fd0a4f28419497f9722a3daafe3b4186f6b6457e05f80a36001600b819055600e5560e052166080521660a0521660c052600c8054610100600160a81b03191660089290921b610100600160a81b0316919091179055600d80549093169116179055614c7d90816200056782396080518181816102ca01528181610bad015281816114b901528181612a9f0152613a99015260a0518181816104180152818161050901528181610bd60152818161103c01528181611396015281816114e2015281816127b001528181612be901528181613d93015281816143fe0152614773015260c0518181816117d80152818161271e015281816128b101528181612b4001528181612ca601528181613256015281816134a201528181613d1801528181613e6701528181613f6d015281816147cc015281816149a501528181614a340152614ac4015260e051818181610acc01528181610b8501526114910152f35b604051631e4fbdf760e01b81525f6004820152602490fd5b015190505f806200018d565b60015f9081528181209450601f198616915b828210620003bc575050908460019594939210620003a3575b505050811b01600155620001a2565b01515f1960f88460031b161c191690555f808062000394565b806001869782949787015181550196019401906200037b565b9091925060015f52825f20601f850160051c81019184861062000420575b90601f86959493920160051c01905b81811062000411575062000176565b5f815585945060010162000402565b9091508190620003f3565b634e487b7160e01b5f52602260045260245ffd5b92607f169262000161565b634e487b7160e01b5f52604160045260245ffd5b015190505f8062000128565b5f8080528681209350601f198516905b87828210620004bb575050908460019594939210620004a2575b505050811b015f556200013c565b01515f1960f88460031b161c191690555f808062000494565b60018596829396860151815501950193016200047a565b9091505f8052845f20601f840160051c81018685106200051a575b90849392915b601f830160051c820181106200050b57505062000111565b5f8155859450600101620004f3565b5080620004ed565b91607f1691620000fc565b5f80fd5b60408051919082016001600160401b038111838210176200044a57604052565b51906001600160a01b03821682036200052d5756fe6080806040526004361015610012575f80fd5b5f3560e01c90816301ffc9a7146119c25750806306fdde0314611924578063081812fc146118e8578063095ea7b314611807578063124b1583146117c3578063150b7a021461175a57806318160ddd1461173d5780631a055c2b1461171b5780631ae11bb51461165257806323b872dd1461163b5780632d8f8372146114075780632f6ee695146113ec5780632f745c59146113c557806331eb318a146113815780633f4ba83a1461131857806342842e0e146112f15780634c203786146112d55780634f6ccce7146112b75780635c975abb146112955780635fbbb2ff1461122f5780636352211e146111ff57806370a08231146111d4578063715018a61461118c578063742fe1f81461115257806376f89965146110e55780637701297c14610fb45780637841cd9114610f975780638456cb5914610f3e5780638da5cb5b14610f1657806390a8ae9b14610efa57806395d89b4114610e125780639b45ec9714610df7578063a22cb46514610d4d578063aed383ac14610afb578063b2d4c9d914610ab7578063b88d4fde14610a2e578063c87b56dd146109d9578063cbb117a3146109be578063d0fb020314610996578063d2ec00251461088f578063e520fc7e14610863578063e63490ce1461038e578063e985e9c51461033c578063eb29dc5e146102f9578063ef3316ce146102b5578063f2fde38b146102425763f5d13da014610221575f80fd5b3461023e575f36600319011261023e576020600e54604051908152f35b5f80fd5b3461023e57602036600319011261023e5761025b611a85565b610263611c61565b6001600160a01b0390811690811561029d57600a80546001600160a01b031981168417909155165f80516020614c088339815191525f80a3005b604051631e4fbdf760e01b81525f6004820152602490fd5b3461023e575f36600319011261023e576040517f00000000000000000000000000000000000000000000000000000000000000006001600160a01b03168152602090f35b3461023e57602036600319011261023e57610315600435614380565b6040516007821015610328576020918152f35b634e487b7160e01b5f52602160045260245ffd5b3461023e57604036600319011261023e57610355611a85565b61035d611a9b565b9060018060a01b038091165f52600560205260405f2091165f52602052602060ff60405f2054166040519015158152f35b3461023e57602036600319011261023e576004355f52601060205260405f2060018060a01b0360068201541660018060a01b0360078301541660088301546009840154600a850154600286015460018060a01b03600588015416916003880154936104148954996020898b604051948592839263ad1c481b60e01b845260048401612431565b03817f00000000000000000000000000000000000000000000000000000000000000006001600160a01b03165afa918215610823575f9261082e575b5060048181015460405163ddca3f4360e01b8152929160209184919082906001600160a01b03165afa918215610823575f926107ef575b5060010154600d546001600160a01b031691906104a56004356120a5565b93604051809e6104b482611ba1565b81526020015260408d81019190915260808a811c60608f01526001600160801b038b16908e0152601086901c60ff90811660a08f01528616151560c08e01526001600160a01b03601887901c811660e08f01527f000000000000000000000000000000000000000000000000000000000000000081166101008f015262ffffff929092166101208e01526101408d0192909252919091166101608b01528051969087018088116001600160401b039091111761073d57604087810190525f808852602088015260808a015160608b015160c08c01518c9a926001600160801b03928316921690156107a1576105be8260206105b56105c6946105cd9661245e565b9d01519061244b565b8d51906121fe565b809a614349565b985b8b5f8b138061078e575b610768575b50505f891380610751575b610679575b6080909a01516101609a60ff94939291610611906001600160801b03168b614349565b600f0b9889815260208b600f0b9101526040519a8b5260208b015260801c60408a015260018060401b039060801c1660608901528181161515608089015260101c1660a087015260c086015260e0850152610100840152610120830152600f0b610140820152f35b6101408b01516101608c0151604051639af608c960e01b60208201526001600160a01b03918216602480830191909152815291169b906001600160401b03606082019081119082111761073d575f816101609e6060839401604052602082519201905afa6106e56121cf565b906106f3575b509a506105ee565b61073160ff96959493929b61271061072a61071a85602080610611985183010191016123d8565b506001600160801b031683614be5565b0590614349565b9a9192939495506106eb565b634e487b7160e01b5f52604160045260245ffd5b506101408b01516001600160a01b031615156105e9565b61072a610786939b9262ffffff610120620f42409401511690614be5565b978b8b6105de565b5062ffffff6101208201511615156105d9565b819a508c8183115f146107da5760206107cb6107c36105c6946107d4966121ae565b83519061244b565b910151906121fe565b986105cf565b6107d492506105c6915060206107cb5f6107c3565b60019192506108159060203d60201161081c575b61080d8183611c23565b81019061237f565b9190610487565b503d610803565b6040513d5f823e3d90fd5b9091506020813d60201161085b575b8161084a60209383611c23565b8101031261023e5751906004610450565b3d915061083d565b3461023e575f36600319011261023e57600c5460405160089190911c6001600160a01b03168152602090f35b3461023e57602036600319011261023e576004355f52601060205261022060405f20805490600181015460028201549160038101549260018060a01b0393846004840154168560058501541686600686015416918760078701541693600887015495600a6009890154980154986040519b8c5260208c015260408b015260608a0152608089015260a088015260c087015260e086015260018060801b039081811661010087015260801c610120860152811661014085015260018060401b038160801c1661016085015260c01c61018084015260ff811615156101a084015260ff8160081c1615156101c084015260ff8160101c166101e084015260181c16610200820152f35b3461023e575f36600319011261023e57600d546040516001600160a01b039091168152602090f35b3461023e575f36600319011261023e57602060405160788152f35b3461023e57602036600319011261023e576109f56004356120a5565b505f604051610a0381611c08565b52610a2a604051610a1381611c08565b5f8152604051918291602083526020830190611a47565b0390f35b3461023e57608036600319011261023e57610a47611a85565b610a4f611a9b565b606435916001600160401b03831161023e573660238401121561023e57826004013591610a7b83611c46565b92610a896040519485611c23565b808452366024828701011161023e576020815f926024610ab59801838801378501015260443591611f5f565b005b3461023e575f36600319011261023e576040517f00000000000000000000000000000000000000000000000000000000000000006001600160a01b03168152602090f35b3461023e5760a0610c2f610b0e36611b20565b94610b1d999199979697611c61565b610b2561235c565b610b2d61221c565b60405190610b3a82611ba1565b5f196001841b018981168352908116602083015262ffffff861660408084019190915260ff861660608401526001600160801b03851660808401528b82168385015260c083018890527f0000000000000000000000000000000000000000000000000000000000000000821660e08401527f000000000000000000000000000000000000000000000000000000000000000082166101008401527f00000000000000000000000000000000000000000000000000000000000000009091166101208301526005610140830152670de0b6b3a76400006101608301525163c433f0e160e01b8152988991829190600483016122c3565b038173__$a76c3f6da63d6e520725e3888dec961ed1$__5af493841561082357602098610d10985f96610d1d575b5060018060a01b038a870151169260ff60018060a01b036040890151169562ffffff895198606060018060a01b0360808d0151169b015115159b8f6040519e8f92610ca784611bbd565b6001600160a01b0390811684529081169190920152911660408d0152911660608b01526001600160801b039190911660808a01521660a088015260c087015260e086015261010085015261012084015261014083015261016082015260016101808201526124a9565b6001600b55604051908152f35b610d3f91965060a03d8111610d46575b610d378183611c23565b81019061224e565b948a610c5d565b503d610d2d565b3461023e57604036600319011261023e57610d66611a85565b602435908115159081830361023e576001600160a01b0316918215610dde57610db090335f52600560205260405f20845f5260205260405f209060ff801983541691151516179055565b6040519081527f17307eab39ab6107e8899845ad3d59bd9653f200f220920489ca2b5937696c3160203392a3005b604051630b61174360e31b815260048101849052602490fd5b3461023e575f36600319011261023e57602060405160058152f35b3461023e575f36600319011261023e576040515f60019081549182811c91818416918215610ef0575b6020948585108414610edc5785879486865291825f14610ebc575050600114610e80575b50610e6c92500383611c23565b610a2a604051928284938452830190611a47565b849150805f52815f20905f915b858310610ea4575050610e6c935082010185610e5f565b80548389018501528794508693909201918101610e8d565b60ff191685820152610e6c95151560051b8501019250879150610e5f9050565b634e487b7160e01b5f52602260045260245ffd5b92607f1692610e3b565b3461023e575f36600319011261023e5760206040516103e88152f35b3461023e575f36600319011261023e57600a546040516001600160a01b039091168152602090f35b3461023e575f36600319011261023e57610f56611c61565b610f5e61221c565b600160ff19600c541617600c557f62e78cea01bee320cd4e420270b5ea74000d11b0c9f74754ebdbfc544b05a2586020604051338152a1005b3461023e575f36600319011261023e576020600f54604051908152f35b3461023e57606036600319011261023e57610fcd611a85565b602435610fe58160443593610fe0611c61565b61430e565b610fed61235c565b610ff561221c565b5f52601060205260405f20611038602060018060a01b038060068501541690806007860154169160405180958194829363ad1c481b60e01b845260048401612431565b03917f0000000000000000000000000000000000000000000000000000000000000000165afa908115610823575f916110b4575b50600a82015460ff16156110a657821061108d576003905b01556001600b55005b6040516371af14eb60e01b815260048101839052602490fd5b821161108d57600390611084565b90506020813d82116110dd575b816110ce60209383611c23565b8101031261023e57518361106c565b3d91506110c1565b3461023e57604036600319011261023e576110fe611a85565b602435611109611c61565b61111281614380565b60078110156103285760021461113a576111339161112e61235c565b61377f565b6001600b55005b6024906040519063b9b3374360e01b82526004820152fd5b3461023e57604036600319011261023e5761113361116e611a85565b6024359061117a611c61565b611184828261430e565b61112e61235c565b3461023e575f36600319011261023e576111a4611c61565b600a80546001600160a01b031981169091555f906001600160a01b03165f80516020614c088339815191528280a3005b3461023e57602036600319011261023e5760206111f76111f2611a85565b611c8d565b604051908152f35b3461023e57602036600319011261023e57602061121d6004356120a5565b6040516001600160a01b039091168152f35b3461023e57602036600319011261023e57611248611a85565b61125181611c8d565b61125a81614b91565b915f5b8281106112725760405180610a2a8682611ab1565b8061128061129092846120fa565b61128a8287614bd1565b52614bc3565b61125d565b3461023e575f36600319011261023e57602060ff600c54166040519015158152f35b3461023e57602036600319011261023e5760206111f7600435612173565b3461023e575f36600319011261023e5760206040516126ac8152f35b3461023e57610ab561130236611aeb565b906040519261131084611c08565b5f8452611f5f565b3461023e575f36600319011261023e57611330611c61565b600c5460ff81161561136f5760ff1916600c557f5db9ee0a495bf2e6ff9c91a7834c1ba4fdd244a5e8aa4e537bd38aeae4b073aa6020604051338152a1005b604051638dfc202b60e01b8152600490fd5b3461023e575f36600319011261023e576040517f00000000000000000000000000000000000000000000000000000000000000006001600160a01b03168152602090f35b3461023e57604036600319011261023e5760206111f76113e3611a85565b602435906120fa565b3461023e575f36600319011261023e57602060405160128152f35b3461023e5760a061153b61141a36611b20565b94611429999199979697611c61565b61143161235c565b61143961221c565b6040519061144682611ba1565b5f196001841b018981168352908116602083015262ffffff861660408084019190915260ff861660608401526001600160801b03851660808401528b82168385015260c083018890527f0000000000000000000000000000000000000000000000000000000000000000821660e08401527f000000000000000000000000000000000000000000000000000000000000000082166101008401527f00000000000000000000000000000000000000000000000000000000000000009091166101208301526005610140830152670de0b6b3a7640000610160830152516342ed172b60e11b8152988991829190600483016122c3565b038173__$a76c3f6da63d6e520725e3888dec961ed1$__5af493841561082357602098610d10985f9661161b575b5060018060a01b038a870151169260ff60018060a01b036040890151169562ffffff895198606060018060a01b0360808d0151169b015115159b8f6040519e8f926115b384611bbd565b6001600160a01b0390811684529081169190920152911660408d0152911660608b01526001600160801b039190911660808a01521660a088015260c087015260e08601526101008501526101208401526101408301526101608201525f6101808201526124a9565b61163491965060a03d8111610d4657610d378183611c23565b948a611569565b3461023e57610ab561164c36611aeb565b91611cc3565b3461023e575f36600319011261023e5760085461166e81614b91565b905f905f5b8181106116bb57505061168581614b91565b915f5b82811061169d5760405180610a2a8682611ab1565b806116ab6116b69284614bd1565b5161128a8287614bd1565b611688565b6116c481612173565b6116cd81614380565b60078110156103285760028114159081611711575b506116f7575b506116f290614bc3565b611673565b8361170a9161128a6116f2949688614bd1565b92906116e8565b90501515866116e2565b3461023e575f36600319011261023e576020604051670de0b6b3a76400008152f35b3461023e575f36600319011261023e576020600854604051908152f35b3461023e57608036600319011261023e57611773611a85565b5061177c611a9b565b506064356001600160401b0380821161023e573660238301121561023e57816004013590811161023e573691016024011161023e57604051630a85bd0160e11b8152602090f35b3461023e575f36600319011261023e576040517f00000000000000000000000000000000000000000000000000000000000000006001600160a01b03168152602090f35b3461023e57604036600319011261023e57611820611a85565b60243561182c816120a5565b331515806118d5575b806118ac575b611894576001600160a01b039283169282918491167f8c5be1e5ebec7d5bd14f71427d1e84f3dd0314c0f7b2291e5b200ac8c7c3b9255f80a45f90815260046020526040902080546001600160a01b0319169091179055005b60405163a9fbf51f60e01b8152336004820152602490fd5b5060018060a01b0381165f52600560205260405f20335f5260205260ff60405f2054161561183b565b506001600160a01b038116331415611835565b3461023e57602036600319011261023e57600435611905816120a5565b505f526004602052602060018060a01b0360405f205416604051908152f35b3461023e575f36600319011261023e576040515f805490600182811c918184169182156119b8575b6020948585108414610edc5785879486865291825f14610ebc57505060011461197c5750610e6c92500383611c23565b8491505f8052815f20905f915b8583106119a0575050610e6c935082010185610e5f565b80548389018501528794508693909201918101611989565b92607f169261194c565b3461023e57602036600319011261023e576004359063ffffffff60e01b821680920361023e5760209163780e9d6360e01b8114908115611a04575b5015158152f35b6380ac58cd60e01b811491508115611a36575b8115611a25575b50836119fd565b6301ffc9a760e01b14905083611a1e565b635b5e139f60e01b81149150611a17565b91908251928382525f5b848110611a71575050825f602080949584010152601f8019910116010190565b602081830181015184830182015201611a51565b600435906001600160a01b038216820361023e57565b602435906001600160a01b038216820361023e57565b602090816040818301928281528551809452019301915f5b828110611ad7575050505090565b835185529381019392810192600101611ac9565b606090600319011261023e576001600160a01b0390600435828116810361023e5791602435908116810361023e579060443590565b61010090600319011261023e576001600160a01b03600435818116810361023e5791602435828116810361023e5791604435818116810361023e579160643562ffffff8116810361023e579160843560ff8116810361023e579160a4356001600160801b038116810361023e579160c435908116810361023e579060e43590565b61018081019081106001600160401b0382111761073d57604052565b6101a081019081106001600160401b0382111761073d57604052565b6001600160401b03811161073d57604052565b61022081019081106001600160401b0382111761073d57604052565b602081019081106001600160401b0382111761073d57604052565b601f909101601f19168101906001600160401b0382119082101761073d57604052565b6001600160401b03811161073d57601f01601f191660200190565b600a546001600160a01b03163303611c7557565b60405163118cdaa760e01b8152336004820152602490fd5b6001600160a01b03168015611cab575f52600360205260405f205490565b6040516322718ad960e21b81525f6004820152602490fd5b6001600160a01b0382811693918415611f47575f94838652602095600287526040968488832054169633151580611eb7575b5087158015611e98575b84845260038352898420805460010190558784526002835289842080546001600160a01b0319168617905587858a5f80516020614c288339815191528780a415611e2c5760085487845260098352898420819055600160401b811015611e185787611d73826001611d8b9401600855612147565b90919082549060031b91821b915f19901b1916179055565b838803611dc7575b505050501692838303611da65750505050565b6064945051926364283d7b60e01b8452600484015260248301526044820152fd5b611dd090611c8d565b5f19810193908411611e045782916007918a945260068152838320858452815287848420558783525220555f808080611d93565b634e487b7160e01b83526011600452602483fd5b634e487b7160e01b84526041600452602484fd5b878414611d8b57611e3c88611c8d565b878452600783528984205490898552600684528a852091818103611e76575b5088855260078452848b812055845282528289812055611d8b565b8186528285528b862054818752808d8820558652600785528b8620555f611e5b565b611ea188612088565b8884526003835289842080545f19019055611cff565b80611f06575b15611ec8575f611cf5565b888789611ee5576024915190637e27328960e01b82526004820152fd5b905163177e802f60e01b8152908190611f029033600484016120df565b0390fd5b503388148015611f2b575b80611ebd57508683526004825233868a8520541614611ebd565b5087835260058252888320338452825260ff8984205416611f11565b604051633250574960e11b81525f6004820152602490fd5b9190611f6c828285611cc3565b803b611f79575b50505050565b611fbb60018060a01b0380921694604051938493630a85bd0160e11b968786523360048701521660248501526044840152608060648401526084830190611a47565b03906020815f938185885af190829082612039575b50506120085782611fdf6121cf565b805191908261200157604051633250574960e11b815260048101839052602490fd5b6020915001fd5b6001600160e01b0319160361202157505f808080611f73565b60249060405190633250574960e11b82526004820152fd5b909192506020813d8211612080575b8161205560209383611c23565b8101031261207c5751906001600160e01b0319821682036120795750905f80611fd0565b80fd5b5080fd5b3d9150612048565b5f90815260046020526040902080546001600160a01b0319169055565b5f818152600260205260409020546001600160a01b03169081156120c7575090565b60249060405190637e27328960e01b82526004820152fd5b6001600160a01b039091168152602081019190915260400190565b61210381611c8d565b82101561212b5760018060a01b03165f52600660205260405f20905f5260205260405f205490565b611f0260405192839263295f44f760e21b8452600484016120df565b60085481101561215f5760085f5260205f2001905f90565b634e487b7160e01b5f52603260045260245ffd5b6008548110156121905761218690612147565b90549060031b1c90565b6044906040519063295f44f760e21b82525f60048301526024820152fd5b919082039182116121bb57565b634e487b7160e01b5f52601160045260245ffd5b3d156121f9573d906121e082611c46565b916121ee6040519384611c23565b82523d5f602084013e565b606090565b8115612208570490565b634e487b7160e01b5f52601260045260245ffd5b60ff600c541661222857565b60405163d93c066560e01b8152600490fd5b51906001600160a01b038216820361023e57565b908160a091031261023e576040519060a082016001600160401b0381118382101761073d57604052805182526122866020820161223a565b60208301526122976040820161223a565b60408301526060810151801515810361023e5760608301526122bb9060800161223a565b608082015290565b91909161018081019260018060a01b0380825116835280602083015116602084015262ffffff604083015116604084015260ff60608301511660608401526080820151608084015260a082015160a084015260c082015160c08401528060e08301511660e08401526101008181840151169084015261012090818301511690830152610140808201519083015261016080910151910152565b6002600b541461236d576002600b55565b604051633ee5aeb560e01b8152600490fd5b9081602091031261023e575162ffffff8116810361023e5790565b9081602091031261023e575160ff8116810361023e5790565b60ff16604d81116121bb57600a0a90565b51906001600160801b038216820361023e57565b919082604091031261023e576123f960206123f2846123c4565b93016123c4565b90565b6001600160801b0391821690821602908116919082036121bb57565b6001600160801b0391821690821603919082116121bb57565b6001600160a01b0391821681529116602082015260400190565b818102929181159184041417156121bb57565b919082018092116121bb57565b6001600160a01b0391821681529116602082015262ffffff90911660408201526060810191909152608081019190915260a081019190915260c00190565b600e5460208083015160e084015161010085015161014086015160405163ddca3f4360e01b815295965f9690956001600160a01b0395861695938416948416939192909183916004918391165afa9081156135f2579060049493929187916135d3575b5060e086015160405163313ce56760e01b81529560209187919082906001600160a01b03165afa9485156135c85787956135a7575b5061254b856123b3565b61010087015160405163313ce56760e01b815290602090829060049082906001600160a01b03165afa9081156131a9579061258d918a91613578575b506123b3565b875160808901516040516323b872dd60e01b60208201526001600160a01b0390921660248301523060448301526001600160801b0316606480830191909152815290919060a081018082116001600160401b0390911117613564578060a06125f9920160405287613725565b600d54885160408051639af608c960e01b81526001600160a01b0392831660048201529592909186916024918391165afa8015613559578a948b91613524575b5060808a0151612710916001600160801b0391612658919083166123fc565b16049361271060018060801b0361267b878d6080600180821b0391015116612418565b1660808c018190526001600160801b0392839161269891906123fc565b1604166126b38160018060a01b03600c5460081c168a6135fd565b60808a01516001600160801b03916126cc918316612418565b1660808a018190526101808a015115613510576101008a01516001600160a01b0316905b60208b01516001600160a01b038381169116146135085750604051636eb1769f60e11b8152602081806127507f00000000000000000000000000000000000000000000000000000000000000006001600160a01b03163060048401612431565b03818c5afa9081156132e1578c916134d6575b5060808b01516001600160801b031690811161349c575b5060208a81015160405163ad1c481b60e01b81529190829081906127ac9086906001600160a01b031660048401612431565b03817f00000000000000000000000000000000000000000000000000000000000000006001600160a01b03165afa9081156132e1578c91613468575b5060808b015161281691612804916001600160801b031661244b565b6101808c0151156134615784906121fe565b906126ac82818102048114831517156131c85760208c015160808d01516001600160801b0316936001600160a01b03909116919042607881011061344d576040516351e820e760e01b815260048101939093526001600160a01b03938416602484015262ffffff86166044840152606483019490945261271093029290920460848301524260780160a4830152602090829060c49082908f907f0000000000000000000000000000000000000000000000000000000000000000165af1908115613442578b9161340c575b506001600160801b0316925b6101208a01519860ff60608c015116906101808c015115158c60e060018060a01b0391015116918d61010060018060a01b0391015116936040519d8e806101008101109061010060018060401b03910111176133f6579060208f60ff94936101008201604052815201528d604060018060801b038b169101521660608d01528560808d015260a08c015260c08b015260e08a01526040519889608081011060018060401b0360808c0111176133e25760808a016040528b8a528b60208b01528b60408b01528b60608b015260a081015115155f1461332e5780518061271081020461271014811517156131c85760ff6020830151168061271081020461271014811517156131b45790612a0b612710612a11930261271083026121fe565b9061245e565b8a5260408101516080820151612a4d91612a4591612a37916001600160801b031661244b565b60ff6020850151169061244b565b8251906121fe565b60208b015260c00180516001600160a01b0390811660408c015290511660608a01525b6060890151604051633c3e613f60e01b81526001600160a01b03918216600482015290602090829060249082907f0000000000000000000000000000000000000000000000000000000000000000165afa9081156132e1578c916132f0575b5060208a01516001600160a01b0382163b156132ec5760405163317afabb60e21b81526004810191909152908c908290602490829084906001600160a01b03165af180156132e1576132ce575b506101808a0151156132c857855b604051636eb1769f60e11b815260208180612b727f00000000000000000000000000000000000000000000000000000000000000006001600160a01b03163060048401612431565b03816001600160a01b0386165afa9081156132bd578d9161328b575b5060208b0151809110613250575b50506101808a0151156132305760e08a01516101008b01516001600160a01b0390811694911691905b60405163ad1c481b60e01b81529160208380612be5898860048401612431565b03817f00000000000000000000000000000000000000000000000000000000000000006001600160a01b03165afa92831561322357908e8d8f949382966131e4575b50612c3c612c4d96602061018093015161244b565b9401511590506131dc5750906121fe565b906126ac9282848102048414831517156131c85760208b0151906078420142116131b4579260209492612ca1926127109560405198899788976351e820e760e01b895260784201960204936004880161246b565b03818c7f00000000000000000000000000000000000000000000000000000000000000006001600160a01b03165af19081156131a9579088949392918a91613174575b5061018085015115613158576001600160801b0316905b61012085015195602089015198519460c0870151600160a01b6001900361014089015116600160a01b6001900360a08a015116916101808a01511515986101608b015115159a6060015160ff169b6040519e8f91612d5883611bec565b825260208201526040015260608d015260808c015260a08b015260c08a015260e0890152600160801b6001900316610100880152600160801b6001900316610120870152600160801b6001900316610140860152600160401b600190034216610160860152600160401b6001900343166101808601526101a08501526101c08401526101e083015261020082015283835260106020526040832081518155602082015160018201556040820151600282015560608201516003820155600160a01b60019003608083015116600160a01b600190031960048301541617600482015560058101600160a01b6001900360a084015116600160a01b600190031982541617905560068101600160a01b6001900360c084015116600160a01b600190031982541617905560078101600160a01b6001900360e084015116600160a01b6001900319825416179055600160801b6001900361010083015116600160801b600190031961012084015160801b16176008820155600160801b6001900361014083015116600160801b600160c01b0361016084015160801b16600160c01b600190031961018085015160c01b169117176009820155600a01906101a08101511515612f2f90839060ff801983541691151516179055565b6101c081015115159082546101e082015160101b62ff00001691600160b81b6301000000900390610200015160181b169260081b61ff001690600160b81b610100900319161717179055600f54600101600f55600e54600101600e55600160a01b60019003905116801561313f575f838152600260205260409020546001600160a01b03168015801592919082908461311e575b815f52600360205260405f2060018154019055865f52600260205260405f208260018060a01b03198254161790558682845f80516020614c288339815191525f80a4156130a4575060085490855f5260096020528160405f2055600160401b82101561073d5761303e86611d73846001879601600855612147565b03613065575b5061304d575090565b602490604051906339e3563760e11b82526004820152fd5b61306e81611c8d565b5f198101919082116121bb575f52600660205260405f20815f526020528360405f2055835f52600760205260405f20555f613044565b9080821461303e576130b581611c8d565b865f52600760205260405f205490825f52600660205260405f20918181036130f7575b50875f5260076020525f60408120555f526020525f604081205561303e565b815f528260205260405f2054815f528060405f20555f52600760205260405f20555f6130d8565b61312787612088565b825f52600360205260405f205f198154019055612fc3565b604051633250574960e11b815260048101839052602490fd5b6001600160801b039061316d9083831661245e565b1690612cfb565b9450506020843d6020116131a1575b8161319060209383611c23565b8101031261023e578793515f612ce4565b3d9150613183565b6040513d8b823e3d90fd5b634e487b7160e01b8e52601160045260248efd5b634e487b7160e01b8d52601160045260248dfd5b9050906121fe565b9450505092506020823d60201161321b575b8161320360209383611c23565b8101031261023e579051918c91908e8d612c3c612c27565b3d91506131f6565b8e604051903d90823e3d90fd5b6101008a015160e08b01516001600160a01b039081169491169190612bc5565b613284917f00000000000000000000000000000000000000000000000000000000000000006001600160a01b031690613639565b5f80612b9c565b90506020813d6020116132b5575b816132a660209383611c23565b8101031261023e57515f612b8e565b3d9150613299565b6040513d8f823e3d90fd5b86612b2a565b6132da909b919b611bd9565b995f612b1c565b6040513d8e823e3d90fd5b8c80fd5b90506020813d602011613326575b8161330b60209383611c23565b810103126133225761331c9061223a565b5f612acf565b8b80fd5b3d91506132fe565b80518061271081020461271014811517156131c85760ff6020830151168061271081020461271014811517156131b4579061337461271061337a930261271083026121fe565b906121ae565b8a5260018060801b036040820151165f1960ff6020840151160160ff81116131b4576107c36133bb9260ff6133b093169061244b565b6080830151906121fe565b60208b015260e00180516001600160a01b0390811660408c015290511660608a0152612a70565b634e487b7160e01b8c52604160045260248cfd5b5050634e487b7160e01b8f52604160045260248ffd5b90506020813d60201161343a575b8161342760209383611c23565b8101031261343657515f6128e1565b8a80fd5b3d915061341a565b6040513d8d823e3d90fd5b634e487b7160e01b8f52601160045260248ffd5b85906121fe565b90506020813d602011613494575b8161348360209383611c23565b8101031261332257516128046127e8565b3d9150613476565b6134d0907f00000000000000000000000000000000000000000000000000000000000000006001600160a01b03168a613639565b5f61277a565b90506020813d602011613500575b816134f160209383611c23565b8101031261332257515f612763565b3d91506134e4565b9050926128ed565b60e08a01516001600160a01b0316906126f0565b612710955061354b915060403d604011613552575b6135438183611c23565b8101906123d8565b9094612639565b503d613539565b6040513d8c823e3d90fd5b634e487b7160e01b8a52604160045260248afd5b61359a915060203d6020116135a0575b6135928183611c23565b81019061239a565b5f612587565b503d613588565b6135c191955060203d6020116135a0576135928183611c23565b935f612541565b6040513d89823e3d90fd5b6135ec915060203d60201161081c5761080d8183611c23565b5f61250c565b6040513d88823e3d90fd5b613632613637939261362460405194859263a9059cbb60e01b6020850152602484016120df565b03601f198101845283611c23565b613725565b565b9291926040519160208301906136708461366263095ea7b360e01b9889865284602484016120df565b03601f198101865285611c23565b60205f809386519082875af182513d82613700575b505015613695575b505050509050565b60405160208101969096526001600160a01b031660248601526044808601829052855260808501906001600160401b038211868310176136ec57506136e293946136329160405282613725565b805f80808061368d565b634e487b7160e01b81526041600452602490fd5b90915061371d57506001600160a01b0383163b15155b5f80613685565b600114613716565b905f602091828151910182855af115610823575f513d61377657506001600160a01b0381163b155b6137545750565b604051635274afe760e01b81526001600160a01b039091166004820152602490fd5b6001141561374d565b61378761221c565b5f828152600260205260408120549091906001600160a01b0316156142f5576137af836120a5565b9280835260106020526040832090600a604051926137cc84611bec565b8054845260018101546020850152600281015460408501526003810154606085015260048101546001600160a01b039081166080808701919091526005830154821660a08701526006830154821660c0808801919091526007840154831660e08801526008808501546001600160801b038082166101008b015290841c6101208a015260098601549081166101408a01529283901c6001600160401b031661016089015291901c610180870152929091015460ff80821615156101a08701529281901c831615156101c0860152601081901c9092166101e085015260189190911c166102008301526138bd81614380565b505f19600f5401600f55808452601060205283600a604082208281558260018201558260028201558260038201558260048201558260058201558260068201558260078201558260088201558260098201550155600260205260018060a01b03604085205416801515806142d4575b82865260026020526040862080546001600160a01b03191690558286835f80516020614c288339815191528280a48161425d5750600854828652600960205260408620819055600160401b8110156142495782611d738260016139929401600855612147565b600854805f19810111613ef85782865260096020526139b86040872054915f1901612147565b90549060031b1c6139cc81611d7384612147565b8652600960205260408620558185528460408120556008548015614235575f19016139f681612147565b8154905f199060031b1b19169055600855156120c7575060c081015160e0820151610200830151608084015160405163ddca3f4360e01b81526001600160a01b0392831697949383169390929081169160209184916004918391165afa91821561422a578492614209575b506101a08501511561420257805b604051633c3e613f60e01b81526001600160a01b03928316600482015291602090839060249082907f0000000000000000000000000000000000000000000000000000000000000000165afa918215613f545785926141c2575b50600d5460408051639af608c960e01b81526001600160a01b038c8116600483015290949285916024918391165afa9283156135f25786936141a0575b506101a0870151158015958792918390614167576101c08a01511561415057506101208901516001600160801b0316925b8015614137576101c08a01511561413157845b975b1561412a5784935b81156141225750905b90938491906001600160a01b038916810361411a5750905b6001600160a01b03848116908916146140e95790613bbc949392916101a08b01516140c4575b5083613bae918860208d0151918b614704565b60208b969296015190614349565b888112156140bc57600160ff1b81146140a8578803915b604051636eb1769f60e11b815260208180613bfb6001600160a01b0387163060048401612431565b03816001600160a01b0386165afa908115613559578a91614072575b50613c268460208d01516121ae565b11614047575b5060208901516001600160a01b0382163b15614043578891606483926040519485938492632bc6468360e21b8452600484015281602484015287604484015260018060a01b03165af1801561403857614025575b5015613ca6575b505050505050613637935061014060018060801b0391015116916135fd565b613ce5613cba613cf19493612710936121ae565b610100890151909388916001600160801b0316808611614012575b506001600160801b03169061244b565b049081613fee576121ae565b916001600160a01b0381168714613fd057604051636eb1769f60e11b815260208180613d4a7f00000000000000000000000000000000000000000000000000000000000000006001600160a01b03163060048401612431565b03816001600160a01b0386165afa908115613f54579084918691613f9b575b5010613f5f575b60405163ad1c481b60e01b815260208180613d8f8b8660048401612431565b03817f00000000000000000000000000000000000000000000000000000000000000006001600160a01b03165afa8015613f54578590613f20575b613dd591508461244b565b60405163313ce56760e01b81526020816004816001600160a01b0387165afa9081156135f257613e169291613e1091889161357857506123b3565b906121fe565b926126ac93848102948186041490151715613f0c576078420192834211613ef857602093612710938a9693613e629360405198899788976351e820e760e01b895204936004880161246b565b0381857f00000000000000000000000000000000000000000000000000000000000000006001600160a01b03165af1918215613eec5791613eb8575b50613ead9061363795856135fd565b5f8080808080613c87565b90506020813d602011613ee4575b81613ed360209383611c23565b8101031261023e5751613637613e9e565b3d9150613ec6565b604051903d90823e3d90fd5b634e487b7160e01b86526011600452602486fd5b634e487b7160e01b85526011600452602485fd5b506020813d602011613f4c575b81613f3a60209383611c23565b8101031261023e57613dd59051613dca565b3d9150613f2d565b6040513d87823e3d90fd5b613f96836001600160a01b037f00000000000000000000000000000000000000000000000000000000000000008116908416613639565b613d70565b9150506020813d602011613fc8575b81613fb760209383611c23565b8101031261023e578390515f613d69565b3d9150613faa565b61363797613fe9945091506001600160a01b03166135fd565b613ead565b600c5461400d90839060081c6001600160a01b039081169088166135fd565b6121ae565b61401e919250856121ae565b905f613cd5565b61403190979197611bd9565b955f613c80565b6040513d8a823e3d90fd5b8880fd5b61406c906140598460208d01516121ae565b906001600160a01b038481169116613639565b5f613c2c565b90506020813d6020116140a0575b8161408d60209383611c23565b8101031261409c57515f613c17565b8980fd5b3d9150614080565b634e487b7160e01b89526011600452602489fd5b508791613bd3565b613bae9194506140e29060018060801b036101008d0151169061245e565b9390613b9b565b6040516322f48a0560e11b81526001600160a01b038086166004830152891660248201526109296044820152606490fd5b905090613b75565b905090613b5d565b8193613b54565b81613b4a565b6101c08a01511561414a57815b97613b4c565b84614144565b6101208a01519093506001600160801b0316613b37565b6101c08a01519093901561418a57506101208901516001600160801b0316613b37565b6101208a01516001600160801b03169350613b37565b6141ba91935060403d604011613552576135438183611c23565b50915f613b06565b9091506020813d6020116141fa575b816141de60209383611c23565b810103126141f6576141ef9061223a565b905f613ac9565b8480fd5b3d91506141d1565b8290613a6f565b61422391925060203d60201161081c5761080d8183611c23565b905f613a61565b6040513d86823e3d90fd5b634e487b7160e01b86526031600452602486fd5b634e487b7160e01b86526041600452602486fd5b156139925761426b81611c8d565b8286526007602052604086205490828752600660205260408720918181036142ad575b5083875260076020528660408120558652602052846040812055613992565b8188528260205260408820548189528060408a20558852600760205260408820555f61428e565b6142dd83612088565b81865260036020526040862080545f1901905561392c565b6040516369c6ab6960e11b815260048101849052602490fd5b614317826120a5565b6001600160a01b0382811691160361432d575050565b611f0260405192839263c8bbf6d360e01b8452600484016120df565b81810392915f1380158285131691841216176121bb57565b9081602091031261023e57516001600160401b038116810361023e5790565b5f81815260026020908152604080832054909392916001600160a01b03918216156146fc576010815284832092600a84015460ff16946002850154846005870154169660038701549086600689015416928760078a01541699878c5180809763ad1c481b60e01b825260049e8f8301916143f992612431565b03818c7f0000000000000000000000000000000000000000000000000000000000000000165afa9485156146f25787956146bf575b5082156146a15761232880830290838204148315171561468e576127109004925b1561461957801515908161460f575b506145ff5780151590816145f4575b506145e55780151590816145da575b506145ce5780151591826145c3575b50506145b7575b81526002825282868220541692600d541692865195631ce3d24360e31b875281818801528387602481885afa9687156145ad578397614587575b509060248492895196879384926367058dad60e01b84528301525afa95861561457d575094614547575b50506009015490614529906001600160401b0390811661451c608085901c8316426121ae565b1193169160c01c436121ae565b118161453f575b5061453a57600290565b600690565b90505f614530565b6145299294506009918161456f92903d10614576575b6145678183611c23565b810190614361565b93916144f6565b503d61455d565b51903d90823e3d90fd5b84929197506145a4602491843d8611614576576145678183611c23565b979192506144cc565b88513d85823e3d90fd5b50505050505050600390565b101590505f8061448b565b50505050505050905090565b90508210155f61447c565b50505050505050505050600590565b90508310155f61446d565b5050505050505050505050600190565b905084105f61445e565b8015159081614684575b506145ff578015159081614679575b506145e557801515908161466e575b506145ce578015159182614663575b5050156144925750505050505050600390565b111590505f80614650565b90508211155f614641565b90508311155f614632565b905084115f614623565b634e487b7160e01b885260118c52602488fd5b612af880830290838204148315171561468e5761271090049261444f565b9094508781813d83116146eb575b6146d78183611c23565b810103126146e75751935f61442e565b8680fd5b503d6146cd565b8c513d89823e3d90fd5b505091505090565b60405163313ce56760e01b815293959493909291906020816004816001600160a01b0388165afa801561082357614741915f9161357857506123b3565b926078420142116121bb5760405163ad1c481b60e01b81525f9490856020828061476f888860048401612431565b03817f00000000000000000000000000000000000000000000000000000000000000006001600160a01b03165afa90918282614b43575b5050614b3857505f975b8880614b2f575b614953575b50604051636eb1769f60e11b81527f00000000000000000000000000000000000000000000000000000000000000006001600160a01b03169590602081806148088a3060048401612431565b03816001600160a01b0388165afa80156108235788915f9161491e575b5010614905575b5f98806148fc575b6148ae575b5050915f6020949261486887956040519a8b97889687956351e820e760e01b875260784201946004880161246b565b03925af1928315610823575f9361487e57509190565b90926020823d6020116148a6575b8161489960209383611c23565b8101031261207957505190565b3d915061488c565b906148bf6148c492889a949a61244b565b6121fe565b906126ac918281029281840414901517156148e857506127109004955f6020614839565b634e487b7160e01b81526011600452602490fd5b50801515614834565b61491987876001600160a01b038616613639565b61482c565b91506020823d60201161494b575b8161493960209383611c23565b8101031261207957508790515f614825565b3d915061492c565b614961866148bf848461244b565b61277481818102048114821517156121bb578861271082840204111580614b25575b61498f575b50506147bc565b604051636eb1769f60e11b8152602081806149d77f00000000000000000000000000000000000000000000000000000000000000006001600160a01b03163060048401612431565b03816001600160a01b038a165afa908115610823575f91614af2575b5081612710918260209486020411614ab1575b614a2f604051948593849363023884b760e01b855260784201920204878c8c8c6004880161246b565b03815f7f00000000000000000000000000000000000000000000000000000000000000006001600160a01b03165af15f9181614a7d575b50614a715780614988565b98509695505050505050565b90916020823d602011614aa9575b81614a9860209383611c23565b81010312612079575051905f614a66565b3d9150614a8b565b614aed8185028390046001600160a01b037f00000000000000000000000000000000000000000000000000000000000000008116908a16613639565b614a06565b906020823d602011614b1d575b81614b0c60209383611c23565b8101031261207957505160206149f3565b3d9150614aff565b5088821115614983565b508515156147b7565b6001989095506147b0565b909192506020823d602011614b72575b81614b6060209383611c23565b81010312612079575051905f806147a6565b3d9150614b53565b6001600160401b03811161073d5760051b60200190565b90614b9b82614b7a565b614ba86040519182611c23565b8281528092614bb9601f1991614b7a565b0190602036910137565b5f1981146121bb5760010190565b805182101561215f5760209160051b010190565b81810292915f8212600160ff1b8214166121bb5781840514901517156121bb5756fe8be0079c531659141344cd1fd0a4f28419497f9722a3daafe3b4186f6b6457e0ddf252ad1be2c89b69c2b068fc378daa952ba7f163c4a11628f55a4df523b3efa2646970667358221220e00416df3b41cf1567f21955e1fba3fcbff1ec3cdcb90f254536f4fe40f385c664736f6c63430008140033","linkReferences":{"src/libraries/PositionLogic.sol":{"PositionLogic":[{"start":4506,"length":20},{"start":6822,"length":20}]}}},"methodIdentifiers":{"LIQUIDATION_THRESHOLD()":"90a8ae9b","LIQUIDITY_POOL_FACTORY()":"ef3316ce","LIQUIDITY_POOL_FACTORY_UNISWAP_V3()":"b2d4c9d9","MAX_LEVERAGE()":"9b45ec97","MIN_POSITION_AMOUNT_IN_USD()":"1a055c2b","PRICE_FEED()":"31eb318a","SLIPPAGE_TOLERANCE()":"4c203786","SWAP_DEADLINE_BUFFER()":"cbb117a3","UNISWAP_V3_HELPER()":"124b1583","USD_DECIMALS()":"2f6ee695","approve(address,uint256)":"095ea7b3","balanceOf(address)":"70a08231","closePosition(address,uint256)":"742fe1f8","editPosition(address,uint256,uint256)":"7701297c","feeManager()":"d0fb0203","getApproved(uint256)":"081812fc","getLiquidablePositions()":"1ae11bb5","getPositionParams(uint256)":"e63490ce","getPositionState(uint256)":"eb29dc5e","getTraderPositions(address)":"5fbbb2ff","isApprovedForAll(address,address)":"e985e9c5","liquidatePosition(address,uint256)":"76f89965","name()":"06fdde03","onERC721Received(address,address,uint256,bytes)":"150b7a02","openLongPosition(address,address,address,uint24,uint8,uint128,uint160,uint256)":"2d8f8372","openPositions(uint256)":"d2ec0025","openShortPosition(address,address,address,uint24,uint8,uint128,uint160,uint256)":"aed383ac","owner()":"8da5cb5b","ownerOf(uint256)":"6352211e","pause()":"8456cb59","paused()":"5c975abb","posId()":"f5d13da0","renounceOwnership()":"715018a6","safeTransferFrom(address,address,uint256)":"42842e0e","safeTransferFrom(address,address,uint256,bytes)":"b88d4fde","setApprovalForAll(address,bool)":"a22cb465","supportsInterface(bytes4)":"01ffc9a7","symbol()":"95d89b41","tokenByIndex(uint256)":"4f6ccce7","tokenOfOwnerByIndex(address,uint256)":"2f745c59","tokenURI(uint256)":"c87b56dd","totalNbPos()":"7841cd91","totalSupply()":"18160ddd","transferFrom(address,address,uint256)":"23b872dd","transferOwnership(address)":"f2fde38b","treasure()":"e520fc7e","unpause()":"3f4ba83a"},"id":50}