{"abi":[{"type":"constructor","inputs":[{"name":"_priceFeed","type":"address","internalType":"address"},{"name":"_liquidityPoolFactory","type":"address","internalType":"address"},{"name":"_liquidityPoolFactoryUniswapV3","type":"address","internalType":"address"},{"name":"_uniswapV3Helper","type":"address","internalType":"address"},{"name":"_treasure","type":"address","internalType":"address"},{"name":"_feeManager","type":"address","internalType":"address"}],"stateMutability":"nonpayable"},{"type":"function","name":"LIQUIDATION_THRESHOLD","inputs":[],"outputs":[{"name":"","type":"uint256","internalType":"uint256"}],"stateMutability":"view"},{"type":"function","name":"LIQUIDITY_POOL_FACTORY","inputs":[],"outputs":[{"name":"","type":"address","internalType":"contract LiquidityPoolFactory"}],"stateMutability":"view"},{"type":"function","name":"LIQUIDITY_POOL_FACTORY_UNISWAP_V3","inputs":[],"outputs":[{"name":"","type":"address","internalType":"address"}],"stateMutability":"view"},{"type":"function","name":"MAX_LEVERAGE","inputs":[],"outputs":[{"name":"","type":"uint256","internalType":"uint256"}],"stateMutability":"view"},{"type":"function","name":"MIN_POSITION_AMOUNT_IN_USD","inputs":[],"outputs":[{"name":"","type":"uint256","internalType":"uint256"}],"stateMutability":"view"},{"type":"function","name":"PRICE_FEED","inputs":[],"outputs":[{"name":"","type":"address","internalType":"contract PriceFeedL1"}],"stateMutability":"view"},{"type":"function","name":"SLIPPAGE_TOLERANCE","inputs":[],"outputs":[{"name":"","type":"uint256","internalType":"uint256"}],"stateMutability":"view"},{"type":"function","name":"SWAP_DEADLINE_BUFFER","inputs":[],"outputs":[{"name":"","type":"uint256","internalType":"uint256"}],"stateMutability":"view"},{"type":"function","name":"UNISWAP_V3_HELPER","inputs":[],"outputs":[{"name":"","type":"address","internalType":"contract UniswapV3Helper"}],"stateMutability":"view"},{"type":"function","name":"USD_DECIMALS","inputs":[],"outputs":[{"name":"","type":"uint256","internalType":"uint256"}],"stateMutability":"view"},{"type":"function","name":"approve","inputs":[{"name":"to","type":"address","internalType":"address"},{"name":"tokenId","type":"uint256","internalType":"uint256"}],"outputs":[],"stateMutability":"nonpayable"},{"type":"function","name":"balanceOf","inputs":[{"name":"owner","type":"address","internalType":"address"}],"outputs":[{"name":"","type":"uint256","internalType":"uint256"}],"stateMutability":"view"},{"type":"function","name":"closePosition","inputs":[{"name":"_trader","type":"address","internalType":"address"},{"name":"_posId","type":"uint256","internalType":"uint256"}],"outputs":[],"stateMutability":"nonpayable"},{"type":"function","name":"editPosition","inputs":[{"name":"_trader","type":"address","internalType":"address"},{"name":"_posId","type":"uint256","internalType":"uint256"},{"name":"_newStopLossPrice","type":"uint256","internalType":"uint256"}],"outputs":[],"stateMutability":"nonpayable"},{"type":"function","name":"feeManager","inputs":[],"outputs":[{"name":"","type":"address","internalType":"contract FeeManager"}],"stateMutability":"view"},{"type":"function","name":"getApproved","inputs":[{"name":"tokenId","type":"uint256","internalType":"uint256"}],"outputs":[{"name":"","type":"address","internalType":"address"}],"stateMutability":"view"},{"type":"function","name":"getLiquidablePositions","inputs":[],"outputs":[{"name":"","type":"uint256[]","internalType":"uint256[]"}],"stateMutability":"view"},{"type":"function","name":"getPositionParams","inputs":[{"name":"_posId","type":"uint256","internalType":"uint256"}],"outputs":[{"name":"baseToken_","type":"address","internalType":"address"},{"name":"quoteToken_","type":"address","internalType":"address"},{"name":"positionSize_","type":"uint128","internalType":"uint128"},{"name":"timestamp_","type":"uint64","internalType":"uint64"},{"name":"isShort_","type":"bool","internalType":"bool"},{"name":"leverage_","type":"uint8","internalType":"uint8"},{"name":"liquidationFloor_","type":"uint256","internalType":"uint256"},{"name":"limitPrice_","type":"uint160","internalType":"uint160"},{"name":"stopLossPrice_","type":"uint256","internalType":"uint256"},{"name":"currentPnL_","type":"int128","internalType":"int128"},{"name":"collateralLeft_","type":"int128","internalType":"int128"}],"stateMutability":"view"},{"type":"function","name":"getPositionState","inputs":[{"name":"_posId","type":"uint256","internalType":"uint256"}],"outputs":[{"name":"","type":"uint8","internalType":"enum PositionState"}],"stateMutability":"view"},{"type":"function","name":"getTraderPositions","inputs":[{"name":"_traderAdd","type":"address","internalType":"address"}],"outputs":[{"name":"","type":"uint256[]","internalType":"uint256[]"}],"stateMutability":"view"},{"type":"function","name":"isApprovedForAll","inputs":[{"name":"owner","type":"address","internalType":"address"},{"name":"operator","type":"address","internalType":"address"}],"outputs":[{"name":"","type":"bool","internalType":"bool"}],"stateMutability":"view"},{"type":"function","name":"liquidatePosition","inputs":[{"name":"_liquidator","type":"address","internalType":"address"},{"name":"_posId","type":"uint256","internalType":"uint256"}],"outputs":[],"stateMutability":"nonpayable"},{"type":"function","name":"name","inputs":[],"outputs":[{"name":"","type":"string","internalType":"string"}],"stateMutability":"view"},{"type":"function","name":"onERC721Received","inputs":[{"name":"","type":"address","internalType":"address"},{"name":"","type":"address","internalType":"address"},{"name":"","type":"uint256","internalType":"uint256"},{"name":"","type":"bytes","internalType":"bytes"}],"outputs":[{"name":"","type":"bytes4","internalType":"bytes4"}],"stateMutability":"pure"},{"type":"function","name":"openLongPosition","inputs":[{"name":"_trader","type":"address","internalType":"address"},{"name":"_token0","type":"address","internalType":"address"},{"name":"_token1","type":"address","internalType":"address"},{"name":"_fee","type":"uint24","internalType":"uint24"},{"name":"_leverage","type":"uint8","internalType":"uint8"},{"name":"_amount","type":"uint128","internalType":"uint128"},{"name":"_limitPrice","type":"uint160","internalType":"uint160"},{"name":"_stopLossPrice","type":"uint256","internalType":"uint256"}],"outputs":[{"name":"","type":"uint256","internalType":"uint256"}],"stateMutability":"nonpayable"},{"type":"function","name":"openPositions","inputs":[{"name":"","type":"uint256","internalType":"uint256"}],"outputs":[{"name":"initialPrice","type":"uint256","internalType":"uint256"},{"name":"totalBorrow","type":"uint256","internalType":"uint256"},{"name":"liquidationFloor","type":"uint256","internalType":"uint256"},{"name":"stopLossPrice","type":"uint256","internalType":"uint256"},{"name":"v3Pool","type":"address","internalType":"address"},{"name":"limitPrice","type":"uint160","internalType":"uint160"},{"name":"baseToken","type":"address","internalType":"contract IERC20"},{"name":"quoteToken","type":"address","internalType":"contract IERC20"},{"name":"collateralSize","type":"uint128","internalType":"uint128"},{"name":"positionSize","type":"uint128","internalType":"uint128"},{"name":"liquidationReward","type":"uint128","internalType":"uint128"},{"name":"timestamp","type":"uint64","internalType":"uint64"},{"name":"blockNumber","type":"uint64","internalType":"uint64"},{"name":"isShort","type":"bool","internalType":"bool"},{"name":"isBaseToken0","type":"bool","internalType":"bool"},{"name":"leverage","type":"uint8","internalType":"uint8"},{"name":"initialToken","type":"address","internalType":"contract IERC20"}],"stateMutability":"view"},{"type":"function","name":"openShortPosition","inputs":[{"name":"_trader","type":"address","internalType":"address"},{"name":"_token0","type":"address","internalType":"address"},{"name":"_token1","type":"address","internalType":"address"},{"name":"_fee","type":"uint24","internalType":"uint24"},{"name":"_leverage","type":"uint8","internalType":"uint8"},{"name":"_amount","type":"uint128","internalType":"uint128"},{"name":"_limitPrice","type":"uint160","internalType":"uint160"},{"name":"_stopLossPrice","type":"uint256","internalType":"uint256"}],"outputs":[{"name":"","type":"uint256","internalType":"uint256"}],"stateMutability":"nonpayable"},{"type":"function","name":"owner","inputs":[],"outputs":[{"name":"","type":"address","internalType":"address"}],"stateMutability":"view"},{"type":"function","name":"ownerOf","inputs":[{"name":"tokenId","type":"uint256","internalType":"uint256"}],"outputs":[{"name":"","type":"address","internalType":"address"}],"stateMutability":"view"},{"type":"function","name":"pause","inputs":[],"outputs":[],"stateMutability":"nonpayable"},{"type":"function","name":"paused","inputs":[],"outputs":[{"name":"","type":"bool","internalType":"bool"}],"stateMutability":"view"},{"type":"function","name":"posId","inputs":[],"outputs":[{"name":"","type":"uint256","internalType":"uint256"}],"stateMutability":"view"},{"type":"function","name":"renounceOwnership","inputs":[],"outputs":[],"stateMutability":"nonpayable"},{"type":"function","name":"safeTransferFrom","inputs":[{"name":"from","type":"address","internalType":"address"},{"name":"to","type":"address","internalType":"address"},{"name":"tokenId","type":"uint256","internalType":"uint256"}],"outputs":[],"stateMutability":"nonpayable"},{"type":"function","name":"safeTransferFrom","inputs":[{"name":"from","type":"address","internalType":"address"},{"name":"to","type":"address","internalType":"address"},{"name":"tokenId","type":"uint256","internalType":"uint256"},{"name":"data","type":"bytes","internalType":"bytes"}],"outputs":[],"stateMutability":"nonpayable"},{"type":"function","name":"setApprovalForAll","inputs":[{"name":"operator","type":"address","internalType":"address"},{"name":"approved","type":"bool","internalType":"bool"}],"outputs":[],"stateMutability":"nonpayable"},{"type":"function","name":"supportsInterface","inputs":[{"name":"interfaceId","type":"bytes4","internalType":"bytes4"}],"outputs":[{"name":"","type":"bool","internalType":"bool"}],"stateMutability":"view"},{"type":"function","name":"symbol","inputs":[],"outputs":[{"name":"","type":"string","internalType":"string"}],"stateMutability":"view"},{"type":"function","name":"tokenByIndex","inputs":[{"name":"index","type":"uint256","internalType":"uint256"}],"outputs":[{"name":"","type":"uint256","internalType":"uint256"}],"stateMutability":"view"},{"type":"function","name":"tokenOfOwnerByIndex","inputs":[{"name":"owner","type":"address","internalType":"address"},{"name":"index","type":"uint256","internalType":"uint256"}],"outputs":[{"name":"","type":"uint256","internalType":"uint256"}],"stateMutability":"view"},{"type":"function","name":"tokenURI","inputs":[{"name":"tokenId","type":"uint256","internalType":"uint256"}],"outputs":[{"name":"","type":"string","internalType":"string"}],"stateMutability":"view"},{"type":"function","name":"totalNbPos","inputs":[],"outputs":[{"name":"","type":"uint256","internalType":"uint256"}],"stateMutability":"view"},{"type":"function","name":"totalSupply","inputs":[],"outputs":[{"name":"","type":"uint256","internalType":"uint256"}],"stateMutability":"view"},{"type":"function","name":"transferFrom","inputs":[{"name":"from","type":"address","internalType":"address"},{"name":"to","type":"address","internalType":"address"},{"name":"tokenId","type":"uint256","internalType":"uint256"}],"outputs":[],"stateMutability":"nonpayable"},{"type":"function","name":"transferOwnership","inputs":[{"name":"newOwner","type":"address","internalType":"address"}],"outputs":[],"stateMutability":"nonpayable"},{"type":"function","name":"treasure","inputs":[],"outputs":[{"name":"","type":"address","internalType":"address"}],"stateMutability":"view"},{"type":"function","name":"unpause","inputs":[],"outputs":[],"stateMutability":"nonpayable"},{"type":"event","name":"Approval","inputs":[{"name":"owner","type":"address","indexed":true,"internalType":"address"},{"name":"approved","type":"address","indexed":true,"internalType":"address"},{"name":"tokenId","type":"uint256","indexed":true,"internalType":"uint256"}],"anonymous":false},{"type":"event","name":"ApprovalForAll","inputs":[{"name":"owner","type":"address","indexed":true,"internalType":"address"},{"name":"operator","type":"address","indexed":true,"internalType":"address"},{"name":"approved","type":"bool","indexed":false,"internalType":"bool"}],"anonymous":false},{"type":"event","name":"OwnershipTransferred","inputs":[{"name":"previousOwner","type":"address","indexed":true,"internalType":"address"},{"name":"newOwner","type":"address","indexed":true,"internalType":"address"}],"anonymous":false},{"type":"event","name":"Paused","inputs":[{"name":"account","type":"address","indexed":false,"internalType":"address"}],"anonymous":false},{"type":"event","name":"Transfer","inputs":[{"name":"from","type":"address","indexed":true,"internalType":"address"},{"name":"to","type":"address","indexed":true,"internalType":"address"},{"name":"tokenId","type":"uint256","indexed":true,"internalType":"uint256"}],"anonymous":false},{"type":"event","name":"Unpaused","inputs":[{"name":"account","type":"address","indexed":false,"internalType":"address"}],"anonymous":false},{"type":"error","name":"ERC721EnumerableForbiddenBatchMint","inputs":[]},{"type":"error","name":"ERC721IncorrectOwner","inputs":[{"name":"sender","type":"address","internalType":"address"},{"name":"tokenId","type":"uint256","internalType":"uint256"},{"name":"owner","type":"address","internalType":"address"}]},{"type":"error","name":"ERC721InsufficientApproval","inputs":[{"name":"operator","type":"address","internalType":"address"},{"name":"tokenId","type":"uint256","internalType":"uint256"}]},{"type":"error","name":"ERC721InvalidApprover","inputs":[{"name":"approver","type":"address","internalType":"address"}]},{"type":"error","name":"ERC721InvalidOperator","inputs":[{"name":"operator","type":"address","internalType":"address"}]},{"type":"error","name":"ERC721InvalidOwner","inputs":[{"name":"owner","type":"address","internalType":"address"}]},{"type":"error","name":"ERC721InvalidReceiver","inputs":[{"name":"receiver","type":"address","internalType":"address"}]},{"type":"error","name":"ERC721InvalidSender","inputs":[{"name":"sender","type":"address","internalType":"address"}]},{"type":"error","name":"ERC721NonexistentToken","inputs":[{"name":"tokenId","type":"uint256","internalType":"uint256"}]},{"type":"error","name":"ERC721OutOfBoundsIndex","inputs":[{"name":"owner","type":"address","internalType":"address"},{"name":"index","type":"uint256","internalType":"uint256"}]},{"type":"error","name":"EnforcedPause","inputs":[]},{"type":"error","name":"ExpectedPause","inputs":[]},{"type":"error","name":"OwnableInvalidOwner","inputs":[{"name":"owner","type":"address","internalType":"address"}]},{"type":"error","name":"OwnableUnauthorizedAccount","inputs":[{"name":"account","type":"address","internalType":"address"}]},{"type":"error","name":"Positions__POSITION_NOT_LIQUIDABLE_YET","inputs":[{"name":"_posId","type":"uint256","internalType":"uint256"}]},{"type":"error","name":"Positions__POSITION_NOT_OPEN","inputs":[{"name":"_posId","type":"uint256","internalType":"uint256"}]},{"type":"error","name":"Positions__POSITION_NOT_OWNED","inputs":[{"name":"_trader","type":"address","internalType":"address"},{"name":"_posId","type":"uint256","internalType":"uint256"}]},{"type":"error","name":"Positions__STOP_LOSS_ORDER_PRICE_NOT_CONCISTENT","inputs":[{"name":"_stopLossPrice","type":"uint256","internalType":"uint256"}]},{"type":"error","name":"Positions__TOKEN_RECEIVED_NOT_CONCISTENT","inputs":[{"name":"tokenBorrowed","type":"address","internalType":"address"},{"name":"tokenReceived","type":"address","internalType":"address"},{"name":"state","type":"uint256","internalType":"uint256"}]},{"type":"error","name":"ReentrancyGuardReentrantCall","inputs":[]},{"type":"error","name":"SafeERC20FailedOperation","inputs":[{"name":"token","type":"address","internalType":"address"}]}],"bytecode":{"object":"0x610100346200052d57601f6200528b38819003918201601f19168301916001600160401b038311848410176200044a5780849260c0946040528339810103126200052d576200004e8162000551565b9060206200005e81830162000551565b906200006d6040840162000551565b926200007c6060820162000551565b936200009960a0620000916080850162000551565b930162000551565b92620000a462000531565b600b81526a0aadcd2e6eec2e05a9a82b60ab1b82820152620000c562000531565b60068152650aa9c929a82b60d31b83820152815190916001600160401b0382116200044a575f5490600182811c9216801562000522575b858310146200042b5781601f849311620004d2575b508490601f83116001146200046a575f926200045e575b50508160011b915f199060031b1c1916175f555b8051916001600160401b0383116200044a5760015491600183811c931680156200043f575b828410146200042b5782601f859411620003d5575b5081601f84116001146200036957505f926200035d575b50508160011b915f199060031b1c1916176001555b33156200034557600a80546001600160a01b0319808216339081179093556040519890976001600160a01b03978895919486948593919084167f8be0079c531659141344cd1fd0a4f28419497f9722a3daafe3b4186f6b6457e05f80a36001600b819055600e5560e052166080521660a0521660c052600c8054610100600160a81b03191660089290921b610100600160a81b0316919091179055600d80549093169116179055614d2490816200056782396080518181816102dd01528181610be60152818161151001528181612aa40152613b0d015260a0518181816104330152818161052701528181610c0f0152818161107c015281816113e901528181611539015281816127c101528181612bfd01528181613e1c015281816144d30152614855015260c05181818161182e01528181612737015281816128b801528181612b4401528181612cba01528181613289015281816134df01528181613d9101528181613ef001528181613ff8015281816148b401528181614a8901528181614b1b0152614bab015260e051818181610b0101528181610bbe01526114e80152f35b604051631e4fbdf760e01b81525f6004820152602490fd5b015190505f806200018d565b60015f9081528181209450601f198616915b828210620003bc575050908460019594939210620003a3575b505050811b01600155620001a2565b01515f1960f88460031b161c191690555f808062000394565b806001869782949787015181550196019401906200037b565b9091925060015f52825f20601f850160051c81019184861062000420575b90601f86959493920160051c01905b81811062000411575062000176565b5f815585945060010162000402565b9091508190620003f3565b634e487b7160e01b5f52602260045260245ffd5b92607f169262000161565b634e487b7160e01b5f52604160045260245ffd5b015190505f8062000128565b5f8080528681209350601f198516905b87828210620004bb575050908460019594939210620004a2575b505050811b015f556200013c565b01515f1960f88460031b161c191690555f808062000494565b60018596829396860151815501950193016200047a565b9091505f8052845f20601f840160051c81018685106200051a575b90849392915b601f830160051c820181106200050b57505062000111565b5f8155859450600101620004f3565b5080620004ed565b91607f1691620000fc565b5f80fd5b60408051919082016001600160401b038111838210176200044a57604052565b51906001600160a01b03821682036200052d5756fe6080806040526004361015610012575f80fd5b5f3560e01c90816301ffc9a714611a185750806306fdde031461197a578063081812fc1461193e578063095ea7b31461185d578063124b158314611819578063150b7a02146117b057806318160ddd146117935780631a055c2b146117715780631ae11bb5146116a857806323b872dd146116915780632d8f83721461145a5780632f6ee6951461143f5780632f745c591461141857806331eb318a146113d45780633f4ba83a1461136b57806342842e0e146113445780634c203786146113285780634f6ccce71461130a5780635c975abb146112e85780635fbbb2ff146112825780636352211e1461125257806370a0823114611227578063715018a6146111cc578063742fe1f81461119257806376f89965146111255780637701297c14610fef5780637841cd9114610fd25780638456cb5914610f795780638da5cb5b14610f5157806390a8ae9b14610f3557806395d89b4114610e4d5780639b45ec9714610e32578063a22cb46514610d88578063aed383ac14610b30578063b2d4c9d914610aec578063b88d4fde14610a63578063c87b56dd14610a0e578063cbb117a3146109f3578063d0fb0203146109cb578063d2ec0025146108c2578063e520fc7e14610896578063e63490ce146103a1578063e985e9c51461034f578063eb29dc5e1461030c578063ef3316ce146102c8578063f2fde38b146102425763f5d13da014610221575f80fd5b3461023e575f36600319011261023e576020600e54604051908152f35b5f80fd5b3461023e57602036600319011261023e5761025b611adb565b610263611cb5565b6001600160a01b039081169081156102b057600a80546001600160a01b031981168417909155167f8be0079c531659141344cd1fd0a4f28419497f9722a3daafe3b4186f6b6457e05f80a3005b604051631e4fbdf760e01b81525f6004820152602490fd5b3461023e575f36600319011261023e576040517f00000000000000000000000000000000000000000000000000000000000000006001600160a01b03168152602090f35b3461023e57602036600319011261023e57610328600435614444565b604051600782101561033b576020918152f35b634e487b7160e01b5f52602160045260245ffd5b3461023e57604036600319011261023e57610368611adb565b610370611af1565b9060018060a01b038091165f52600560205260405f2091165f52602052602060ff60405f2054166040519015158152f35b3461023e57602036600319011261023e57600480355f908152601060209081526040918290206006810154600782015460088301546009840154600a85015460028601546005870154600388015488549a5163ad1c481b60e01b81526001600160a01b039889169c81018d9052968816602488018190529a9b9a999598909790911695919492939282806044810103817f00000000000000000000000000000000000000000000000000000000000000006001600160a01b03165afa918215610856575f92610861575b5060048181015460405163ddca3f4360e01b8152929160209184919082906001600160a01b03165afa918215610856575f92610822575b5060010154600d546001600160a01b031691906104c06004356120ff565b93604051809e6104cf82611bf7565b81526020015260408d01528860801c60608d01526001600160801b03891660808d01528460101c60ff1660a08d015260ff8516151560c08d0152600160a01b600190038560181c1660e08d0152600160a01b600190037f0000000000000000000000000000000000000000000000000000000000000000166101008d015262ffffff166101208c01526101408b0152600160a01b60019003166101608a015260405195866040810110604088016001600160401b031017610770578997604088016040525f88525f60208901526001600160801b0360808a0151166001600160801b0360608b0151169060c08b015115155f146107d4576105e58260206105dc6105ed946105f496612494565b9d015190612481565b8d519061224c565b809a61440d565b985b8b5f8b13806107c1575b61079b575b50505f891380610784575b61069d575b916001600160401b039160ff949361063d6001600160801b0360806101609f0151168c61440d565b600f0b998a815260208c600f0b9101526040519b8c5260208c015260801c60408b015260801c1660608901528181161515608089015260101c1660a087015260c086015260e0850152610100840152610120830152600f0b610140820152f35b6101408b01516101608c0151604051639af608c960e01b60208201526001600160a01b03918216602480830191909152815291169b906001600160401b036060820190811190821117610770575f816101609e6060839401604052602082519201905afa61070961221d565b90610717575b509a50610615565b9161063d6001600160801b0360806107616001600160401b0397959e61271061075a856107528b60ff9f9e9c60208091518301019101612426565b501683614ccc565b059061440d565b9d94965050505091939461070f565b634e487b7160e01b5f52604160045260245ffd5b506101408b01516001600160a01b03161515610610565b61075a6107b9939b9262ffffff610120620f42409401511690614ccc565b978b8b610605565b5062ffffff610120820151161515610600565b819a508c8183115f1461080d5760206107fe6107f66105ed94610807966121fc565b835190612481565b9101519061224c565b986105f6565b61080792506105ed915060206107fe5f6107f6565b60019192506108489060203d60201161084f575b6108408183611c79565b8101906123cd565b91906104a2565b503d610836565b6040513d5f823e3d90fd5b9091506020813d60201161088e575b8161087d60209383611c79565b8101031261023e575190600461046b565b3d9150610870565b3461023e575f36600319011261023e57600c5460405160089190911c6001600160a01b03168152602090f35b3461023e57602036600319011261023e576004355f52601060205261022060405f20805490600181015460028201549160038101549260018060a01b0393846004840154168560058501541686600686015416918760078701541693600887015495600a6009890154980154986040519b8c5260208c015260408b015260608a0152608089015260a088015260c087015260e08601526001600160801b039081811661010087015260801c61012086015281166101408501526001600160401b038160801c1661016085015260c01c61018084015260ff811615156101a084015260ff8160081c1615156101c084015260ff8160101c166101e084015260181c16610200820152f35b3461023e575f36600319011261023e57600d546040516001600160a01b039091168152602090f35b3461023e575f36600319011261023e57602060405160788152f35b3461023e57602036600319011261023e57610a2a6004356120ff565b505f604051610a3881611c5e565b52610a5f604051610a4881611c5e565b5f8152604051918291602083526020830190611a9d565b0390f35b3461023e57608036600319011261023e57610a7c611adb565b610a84611af1565b606435916001600160401b03831161023e573660238401121561023e57826004013591610ab083611c9a565b92610abe6040519485611c79565b808452366024828701011161023e576020815f926024610aea9801838801378501015260443591611fd6565b005b3461023e575f36600319011261023e576040517f00000000000000000000000000000000000000000000000000000000000000006001600160a01b03168152602090f35b3461023e57610c6860a0610b4336611b76565b9294610b56999799989192949698611cb5565b610b5e6123aa565b610b6661226a565b60405190610b7382611bf7565b5f196001841b018a81168352908116602083015262ffffff881660408084019190915260ff881660608401526001600160801b03871660808401528482168385015260c083018690527f0000000000000000000000000000000000000000000000000000000000000000821660e08401527f000000000000000000000000000000000000000000000000000000000000000082166101008401527f00000000000000000000000000000000000000000000000000000000000000009091166101208301526005610140830152670de0b6b3a76400006101608301525163c433f0e160e01b815297889182919060048301612311565b038173__$a76c3f6da63d6e520725e3888dec961ed1$__5af4958615610856575f96610d58575b506020860151604080880151885160808a01516060909a015192519b9215159a6001600160a01b039a8b169a91999282169894909116969392610cd18d611c13565b6001600160a01b039081168d5290811660208d015262ffffff9190911660408c015260ff9190911660608b01526001600160801b039190911660808a01521660a088015260c087015260e08601526101008501526101208401526101408301526101608201526001610180820152610d48906124df565b6001600b55604051908152602090f35b610d7a91965060a03d8111610d81575b610d728183611c79565b81019061229c565b9488610c8f565b503d610d68565b3461023e57604036600319011261023e57610da1611adb565b602435908115159081830361023e576001600160a01b0316918215610e1957610deb90335f52600560205260405f20845f5260205260405f209060ff801983541691151516179055565b6040519081527f17307eab39ab6107e8899845ad3d59bd9653f200f220920489ca2b5937696c3160203392a3005b604051630b61174360e31b815260048101849052602490fd5b3461023e575f36600319011261023e57602060405160058152f35b3461023e575f36600319011261023e576040515f60019081549182811c91818416918215610f2b575b6020948585108414610f175785879486865291825f14610ef7575050600114610ebb575b50610ea792500383611c79565b610a5f604051928284938452830190611a9d565b849150805f52815f20905f915b858310610edf575050610ea7935082010185610e9a565b80548389018501528794508693909201918101610ec8565b60ff191685820152610ea795151560051b8501019250879150610e9a9050565b634e487b7160e01b5f52602260045260245ffd5b92607f1692610e76565b3461023e575f36600319011261023e5760206040516103e88152f35b3461023e575f36600319011261023e57600a546040516001600160a01b039091168152602090f35b3461023e575f36600319011261023e57610f91611cb5565b610f9961226a565b600160ff19600c541617600c557f62e78cea01bee320cd4e420270b5ea74000d11b0c9f74754ebdbfc544b05a2586020604051338152a1005b3461023e575f36600319011261023e576020600f54604051908152f35b3461023e57606036600319011261023e57611008611adb565b602435611020816044359361101b611cb5565b6143c3565b6110286123aa565b61103061226a565b5f9081526010602090815260409182902060068101546007820154935163ad1c481b60e01b81526001600160a01b039182166004820152938116602485015290929190829060449082907f0000000000000000000000000000000000000000000000000000000000000000165afa908115610856575f916110f4575b50600a82015460ff16156110e65782106110cd576003905b01556001600b55005b6040516371af14eb60e01b815260048101839052602490fd5b82116110cd576003906110c4565b90506020813d821161111d575b8161110e60209383611c79565b8101031261023e5751836110ac565b3d9150611101565b3461023e57604036600319011261023e5761113e611adb565b602435611149611cb5565b61115281614444565b600781101561033b5760021461117a576111739161116e6123aa565b6137d3565b6001600b55005b6024906040519063b9b3374360e01b82526004820152fd5b3461023e57604036600319011261023e576111736111ae611adb565b602435906111ba611cb5565b6111c482826143c3565b61116e6123aa565b3461023e575f36600319011261023e576111e4611cb5565b600a80546001600160a01b031981169091555f906001600160a01b03167f8be0079c531659141344cd1fd0a4f28419497f9722a3daafe3b4186f6b6457e08280a3005b3461023e57602036600319011261023e57602061124a611245611adb565b611ce1565b604051908152f35b3461023e57602036600319011261023e5760206112706004356120ff565b6040516001600160a01b039091168152f35b3461023e57602036600319011261023e5761129b611adb565b6112a481611ce1565b6112ad81614c78565b915f5b8281106112c55760405180610a5f8682611b07565b806112d36112e39284612139565b6112dd8287614cb8565b52614caa565b6112b0565b3461023e575f36600319011261023e57602060ff600c54166040519015158152f35b3461023e57602036600319011261023e57602061124a6004356121c1565b3461023e575f36600319011261023e5760206040516126ac8152f35b3461023e57610aea61135536611b41565b906040519261136384611c5e565b5f8452611fd6565b3461023e575f36600319011261023e57611383611cb5565b600c5460ff8116156113c25760ff1916600c557f5db9ee0a495bf2e6ff9c91a7834c1ba4fdd244a5e8aa4e537bd38aeae4b073aa6020604051338152a1005b604051638dfc202b60e01b8152600490fd5b3461023e575f36600319011261023e576040517f00000000000000000000000000000000000000000000000000000000000000006001600160a01b03168152602090f35b3461023e57604036600319011261023e57602061124a611436611adb565b60243590612139565b3461023e575f36600319011261023e57602060405160128152f35b3461023e5761159260a061146d36611b76565b9294611480999799989192949698611cb5565b6114886123aa565b61149061226a565b6040519061149d82611bf7565b5f196001841b018a81168352908116602083015262ffffff881660408084019190915260ff881660608401526001600160801b03871660808401528482168385015260c083018690527f0000000000000000000000000000000000000000000000000000000000000000821660e08401527f000000000000000000000000000000000000000000000000000000000000000082166101008401527f00000000000000000000000000000000000000000000000000000000000000009091166101208301526005610140830152670de0b6b3a7640000610160830152516342ed172b60e11b815297889182919060048301612311565b038173__$a76c3f6da63d6e520725e3888dec961ed1$__5af4958615610856575f96611671575b506020860151604080880151885160808a01516060909a015192519b9215159a6001600160a01b039a8b169a919992821698949091169693926115fb8d611c13565b6001600160a01b039081168d5290811660208d015262ffffff9190911660408c015260ff9190911660608b01526001600160801b039190911660808a01521660a088015260c087015260e08601526101008501526101208401526101408301526101608201525f610180820152610d48906124df565b61168a91965060a03d8111610d8157610d728183611c79565b94886115b9565b3461023e57610aea6116a236611b41565b91611d17565b3461023e575f36600319011261023e576008546116c481614c78565b905f905f5b8181106117115750506116db81614c78565b915f5b8281106116f35760405180610a5f8682611b07565b8061170161170c9284614cb8565b516112dd8287614cb8565b6116de565b61171a816121c1565b61172381614444565b600781101561033b5760028114159081611767575b5061174d575b5061174890614caa565b6116c9565b83611760916112dd611748949688614cb8565b929061173e565b9050151586611738565b3461023e575f36600319011261023e576020604051670de0b6b3a76400008152f35b3461023e575f36600319011261023e576020600854604051908152f35b3461023e57608036600319011261023e576117c9611adb565b506117d2611af1565b506064356001600160401b0380821161023e573660238301121561023e57816004013590811161023e573691016024011161023e57604051630a85bd0160e11b8152602090f35b3461023e575f36600319011261023e576040517f00000000000000000000000000000000000000000000000000000000000000006001600160a01b03168152602090f35b3461023e57604036600319011261023e57611876611adb565b602435611882816120ff565b3315158061192b575b80611902575b6118ea576001600160a01b039283169282918491167f8c5be1e5ebec7d5bd14f71427d1e84f3dd0314c0f7b2291e5b200ac8c7c3b9255f80a45f90815260046020526040902080546001600160a01b0319169091179055005b60405163a9fbf51f60e01b8152336004820152602490fd5b5060018060a01b0381165f52600560205260405f20335f5260205260ff60405f20541615611891565b506001600160a01b03811633141561188b565b3461023e57602036600319011261023e5760043561195b816120ff565b505f526004602052602060018060a01b0360405f205416604051908152f35b3461023e575f36600319011261023e576040515f805490600182811c91818416918215611a0e575b6020948585108414610f175785879486865291825f14610ef75750506001146119d25750610ea792500383611c79565b8491505f8052815f20905f915b8583106119f6575050610ea7935082010185610e9a565b805483890185015287945086939092019181016119df565b92607f16926119a2565b3461023e57602036600319011261023e576004359063ffffffff60e01b821680920361023e5760209163780e9d6360e01b8114908115611a5a575b5015158152f35b6380ac58cd60e01b811491508115611a8c575b8115611a7b575b5083611a53565b6301ffc9a760e01b14905083611a74565b635b5e139f60e01b81149150611a6d565b91908251928382525f5b848110611ac7575050825f602080949584010152601f8019910116010190565b602081830181015184830182015201611aa7565b600435906001600160a01b038216820361023e57565b602435906001600160a01b038216820361023e57565b602090816040818301928281528551809452019301915f5b828110611b2d575050505090565b835185529381019392810192600101611b1f565b606090600319011261023e576001600160a01b0390600435828116810361023e5791602435908116810361023e579060443590565b61010090600319011261023e576001600160a01b03600435818116810361023e5791602435828116810361023e5791604435818116810361023e579160643562ffffff8116810361023e579160843560ff8116810361023e579160a4356001600160801b038116810361023e579160c435908116810361023e579060e43590565b61018081019081106001600160401b0382111761077057604052565b6101a081019081106001600160401b0382111761077057604052565b6001600160401b03811161077057604052565b61022081019081106001600160401b0382111761077057604052565b602081019081106001600160401b0382111761077057604052565b90601f801991011681019081106001600160401b0382111761077057604052565b6001600160401b03811161077057601f01601f191660200190565b600a546001600160a01b03163303611cc957565b60405163118cdaa760e01b8152336004820152602490fd5b6001600160a01b03168015611cff575f52600360205260405f205490565b6040516322718ad960e21b81525f6004820152602490fd5b6001600160a01b0382811693918415611fbe575f94838652602095600287526040968488832054169633151580611f30575b5087158015611eff575b84845260038352898420805460010190558784526002835289842080546001600160a01b0319168617905587858a7fddf252ad1be2c89b69c2b068fc378daa952ba7f163c4a11628f55a4df523b3ef8780a415611e935760085487845260098352898420819055600160401b811015611e7f5787611dda826001611df29401600855612195565b90919082549060031b91821b915f19901b1916179055565b838803611e2e575b505050501692838303611e0d5750505050565b6064945051926364283d7b60e01b8452600484015260248301526044820152fd5b611e3790611ce1565b5f19810193908411611e6b5782916007918a945260068152838320858452815287848420558783525220555f808080611dfa565b634e487b7160e01b83526011600452602483fd5b634e487b7160e01b84526041600452602484fd5b878414611df257611ea388611ce1565b878452600783528984205490898552600684528a852091818103611edd575b5088855260078452848b812055845282528289812055611df2565b8186528285528b862054818752808d8820558652600785528b8620555f611ec2565b5f88815260046020526040902080546001600160a01b03191690558884526003835289842080545f19019055611d53565b80611f7d575b15611f41575f611d49565b888789611f5e576024915190637e27328960e01b82526004820152fd5b905163177e802f60e01b81523360048201526024810191909152604490fd5b503388148015611fa2575b80611f3657508683526004825233868a8520541614611f36565b5087835260058252888320338452825260ff8984205416611f88565b604051633250574960e11b81525f6004820152602490fd5b9190611fe3828285611d17565b803b611ff0575b50505050565b61203260018060a01b0380921694604051938493630a85bd0160e11b968786523360048701521660248501526044840152608060648401526084830190611a9d565b03906020815f938185885af1908290826120b0575b505061207f578261205661221d565b805191908261207857604051633250574960e11b815260048101839052602490fd5b6020915001fd5b6001600160e01b0319160361209857505f808080611fea565b60249060405190633250574960e11b82526004820152fd5b909192506020813d82116120f7575b816120cc60209383611c79565b810103126120f35751906001600160e01b0319821682036120f05750905f80612047565b80fd5b5080fd5b3d91506120bf565b5f818152600260205260409020546001600160a01b0316908115612121575090565b60249060405190637e27328960e01b82526004820152fd5b61214281611ce1565b82101561216a5760018060a01b03165f52600660205260405f20905f5260205260405f205490565b60405163295f44f760e21b81526001600160a01b039190911660048201526024810191909152604490fd5b6008548110156121ad5760085f5260205f2001905f90565b634e487b7160e01b5f52603260045260245ffd5b6008548110156121de576121d490612195565b90549060031b1c90565b6044906040519063295f44f760e21b82525f60048301526024820152fd5b9190820391821161220957565b634e487b7160e01b5f52601160045260245ffd5b3d15612247573d9061222e82611c9a565b9161223c6040519384611c79565b82523d5f602084013e565b606090565b8115612256570490565b634e487b7160e01b5f52601260045260245ffd5b60ff600c541661227657565b60405163d93c066560e01b8152600490fd5b51906001600160a01b038216820361023e57565b908160a091031261023e576040519060a082018281106001600160401b0382111761077057604052805182526122d460208201612288565b60208301526122e560408201612288565b60408301526060810151801515810361023e57606083015261230990608001612288565b608082015290565b91909161018081019260018060a01b0380825116835280602083015116602084015262ffffff604083015116604084015260ff60608301511660608401526080820151608084015260a082015160a084015260c082015160c08401528060e08301511660e08401526101008181840151169084015261012090818301511690830152610140808201519083015261016080910151910152565b6002600b54146123bb576002600b55565b604051633ee5aeb560e01b8152600490fd5b9081602091031261023e575162ffffff8116810361023e5790565b9081602091031261023e575160ff8116810361023e5790565b60ff16604d811161220957600a0a90565b51906001600160801b038216820361023e57565b919082604091031261023e57612447602061244084612412565b9301612412565b90565b9190916001600160801b038080941691160291821691820361220957565b6001600160801b03918216908216039190821161220957565b8181029291811591840414171561220957565b9190820180921161220957565b6001600160a01b0391821681529116602082015262ffffff90911660408201526060810191909152608081019190915260a081019190915260c00190565b600e5460208083015160e084015161010085015161014086015160405163ddca3f4360e01b815295965f9690956001600160a01b0395861695938416948416939192909183916004918391165afa90811561363a5790600494939291879161361b575b5060e086015160405163313ce56760e01b81529560209187919082906001600160a01b03165afa9485156136105787956135ef575b5061258185612401565b61010087015160405163313ce56760e01b815290602090829060049082906001600160a01b03165afa9081156131dc57906125c3918a916135c0575b50612401565b9160018060a01b038851166001600160801b0360808a015116604051916323b872dd60e01b602084015260248301523060448301526064820152606481528060a08101106001600160401b0360a0830111176135ac578060a061262a920160405287613779565b600d54885160408051639af608c960e01b81526001600160a01b03928316600482015292909183916024918391165afa9081156135a1576126de6001600160801b03612710816126b78f968f976126ac9b9a999884988293613561575b5084868161269d6080959682878701511661244a565b16049d8e828585015116612468565b16918291015261244a565b1604166126d28160018060a01b03600c5460081c168c613645565b8260808d015116612468565b1660808a018190526101808a01511561354d576101008a01516001600160a01b0316905b60208b01516001600160a01b038381169116146135455750604051636eb1769f60e11b81523060048201526001600160a01b037f00000000000000000000000000000000000000000000000000000000000000001660248201526020816044818c5afa908115613314578c91613513575b506001600160801b0360808c0151168091106134d9575b5060208a81015160405163ad1c481b60e01b81526001600160a01b03918216600482015283821660248201529190829060449082907f0000000000000000000000000000000000000000000000000000000000000000165afa908115613314578b908d926134a3575b50612820916001600160801b03608061280e93015116612481565b6101808c01511561349c57849061224c565b906126ac82818102048114831517156131fb578b906001600160801b03608060018060a01b036020850151169301511693607842014211613488576040516351e820e760e01b815260048101939093526001600160a01b03938416602484015262ffffff86166044840152606483019490945261271093029290920460848301524260780160a4830152602090829060c49082908f907f0000000000000000000000000000000000000000000000000000000000000000165af1801561347d578b90613440575b6001600160801b03915016925b6101208a01519860ff60608c015116906101808c015115158c60e060018060a01b0391015116918d61010060018060a01b0391015116936040519d8e6001600160401b0361010082818101109201111761342a579060208f60ff94936101008201604052815201528d60406001600160801b038b169101521660608d01528560808d015260a08c015260c08b015260e08a0152604051988960808101106001600160401b0360808c0111176134165760808a016040528b8a528b60208b01528b60408b01528b60608b015260a081015115155f146133615780518061271081020461271014811517156131fb5760ff6020830151168061271081020461271014811517156131e75790612a12612710612a189302612710830261224c565b90612494565b8a52612a52612a4a612a3c6001600160801b03604085015116608085015190612481565b60ff60208501511690612481565b82519061224c565b60208b015260c00180516001600160a01b0390811660408c015290511660608a01525b6060890151604051633c3e613f60e01b81526001600160a01b03918216600482015290602090829060249082907f0000000000000000000000000000000000000000000000000000000000000000165afa908115613314578c91613323575b5060208a01516001600160a01b0382163b1561331f5760405163317afabb60e21b81526004810191909152908c908290602490829084906001600160a01b03165af1801561331457613301575b506101808a0151156132fb57855b604051636eb1769f60e11b81523060048201527f00000000000000000000000000000000000000000000000000000000000000006001600160a01b03166024820152602081806044810103816001600160a01b0386165afa9081156132f0578d916132be575b5060208b0151809110613283575b50506101808a0151156132635760e08a01516101008b01516001600160a01b0390811694911691905b60405163ad1c481b60e01b81526001600160a01b0380851660048301528616602482015291602083806044810103817f00000000000000000000000000000000000000000000000000000000000000006001600160a01b03165afa92831561325657908e8d8f94938296613217575b50612c50612c61966020610180930151612481565b94015115905061320f57509061224c565b906126ac9282848102048414831517156131fb5760208b0151906078420142116131e7579260209492612cb5926127109560405198899788976351e820e760e01b89526078420196020493600488016124a1565b03818c7f00000000000000000000000000000000000000000000000000000000000000006001600160a01b03165af19081156131dc579088949392918a9161319f575b506101808501516001600160801b0391901561318c5716905b61012085015195602089015198519460c0870151600160a01b6001900361014089015116600160a01b6001900360a08a015116916101808a01511515986101608b015115159a6060015160ff169b6040519e8f91612d6e83611c42565b825260208201526040015260608d015260808c015260a08b015260c08a015260e08901526001600160801b03166101008801526001600160801b03166101208701526001600160801b0316610140860152426001600160401b0316610160860152436001600160401b03166101808601526101a08501526101c08401526101e083015261020082015283835260106020526040832081518155602082015160018201556040820151600282015560608201516003820155600160a01b60019003608083015116600160a01b600190031960048301541617600482015560058101600160a01b6001900360a084015116600160a01b600190031982541617905560068101600160a01b6001900360c084015116600160a01b600190031982541617905560078101600160a01b6001900360e084015116600160a01b60019003198254161790556101008201516001600160801b03166001600160801b031961012084015160801b161760088201556101408201516001600160801b03166001600160401b0360801b61016084015160801b166001600160401b0360c01b61018085015160c01b169117176009820155600a01906101a08101511515612f3e90839060ff801983541691151516179055565b6101c081015115159082546101e082015160101b62ff00001691600160b81b6301000000900390610200015160181b169260081b61ff001690600160b81b610100900319161717179055600f54600101600f55600e54600101600e55600160a01b600190039051168015613173575f838152600260205260409020546001600160a01b031680158015929190829084613140575b815f52600360205260405f2060018154019055865f52600260205260405f208260018060a01b03198254161790558682847fddf252ad1be2c89b69c2b068fc378daa952ba7f163c4a11628f55a4df523b3ef5f80a4156130c6575060085490855f5260096020528160405f2055600160401b8210156107705761306086611dda846001879601600855612195565b03613087575b5061306f575090565b602490604051906339e3563760e11b82526004820152fd5b61309081611ce1565b5f19810191908211612209575f52600660205260405f20815f526020528360405f2055835f52600760205260405f20555f613066565b90808214613060576130d781611ce1565b865f52600760205260405f205490825f52600660205260405f2091818103613119575b50875f5260076020525f60408120555f526020525f6040812055613060565b815f528260205260405f2054815f528060405f20555f52600760205260405f20555f6130fa565b5f87815260046020526040902080546001600160a01b0319169055825f52600360205260405f205f198154019055612fd2565b604051633250574960e11b815260048101839052602490fd5b61319890828416612494565b1690612d11565b9450506020843d6020116131d4575b816131bb60209383611c79565b8101031261023e576001600160801b0388945190612cf8565b3d91506131ae565b6040513d8b823e3d90fd5b634e487b7160e01b8e52601160045260248efd5b634e487b7160e01b8d52601160045260248dfd5b90509061224c565b9450505092506020823d60201161324e575b8161323660209383611c79565b8101031261023e579051918c91908e8d612c50612c3b565b3d9150613229565b8e604051903d90823e3d90fd5b6101008a015160e08b01516001600160a01b039081169491169190612bcc565b6132b7917f00000000000000000000000000000000000000000000000000000000000000006001600160a01b031690613688565b5f80612ba3565b90506020813d6020116132e8575b816132d960209383611c79565b8101031261023e57515f612b95565b3d91506132cc565b6040513d8f823e3d90fd5b86612b2f565b61330d909b919b611c2f565b995f612b21565b6040513d8e823e3d90fd5b8c80fd5b90506020813d602011613359575b8161333e60209383611c79565b810103126133555761334f90612288565b5f612ad4565b8b80fd5b3d9150613331565b80518061271081020461271014811517156131fb5760ff6020830151168061271081020461271014811517156131e757906133a76127106133ad9302612710830261224c565b906121fc565b8a526001600160801b036040820151165f1960ff6020840151160160ff81116131e7576107f66133ef9260ff6133e4931690612481565b60808301519061224c565b60208b015260e00180516001600160a01b0390811660408c015290511660608a0152612a75565b634e487b7160e01b8c52604160045260248cfd5b5050634e487b7160e01b8f52604160045260248ffd5b506020813d602011613475575b8161345a60209383611c79565b81010312613471576001600160801b0390516128e7565b8a80fd5b3d915061344d565b6040513d8d823e3d90fd5b634e487b7160e01b8f52601160045260248ffd5b859061224c565b9150506020813d6020116134d1575b816134bf60209383611c79565b8101031261335557518a61280e6127f3565b3d91506134b2565b61350d907f00000000000000000000000000000000000000000000000000000000000000006001600160a01b03168a613688565b5f61278a565b90506020813d60201161353d575b8161352e60209383611c79565b8101031261335557515f612773565b3d9150613521565b9050926128f4565b60e08a01516001600160a01b031690612702565b61269d935060809250868661358e819360403d60401161359a575b6135868183611c79565b810190612426565b96909550505050612687565b503d61357c565b6040513d8c823e3d90fd5b634e487b7160e01b8a52604160045260248afd5b6135e2915060203d6020116135e8575b6135da8183611c79565b8101906123e8565b5f6125bd565b503d6135d0565b61360991955060203d6020116135e8576135da8183611c79565b935f612577565b6040513d89823e3d90fd5b613634915060203d60201161084f576108408183611c79565b5f612542565b6040513d88823e3d90fd5b60405163a9059cbb60e01b60208201526001600160a01b0392909216602483015260448083019390935291815261368691613681606483611c79565b613779565b565b60405163095ea7b360e01b602082018181526001600160a01b0385166024840152604480840196909652948252949390926136c4606485611c79565b60205f809386519082875af182513d82613754575b5050156136e9575b505050509050565b60405160208101969096526001600160a01b031660248601526044808601829052855260808501906001600160401b03821186831017613740575061373693946136819160405282613779565b805f8080806136e1565b634e487b7160e01b81526041600452602490fd5b90915061377157506001600160a01b0383163b15155b5f806136d9565b60011461376a565b905f602091828151910182855af115610856575f513d6137ca57506001600160a01b0381163b155b6137a85750565b604051635274afe760e01b81526001600160a01b039091166004820152602490fd5b600114156137a1565b6137db61226a565b5f828152600260205260408120549091906001600160a01b0316156143aa57613803836120ff565b9183815260106020526040812093600a6040519561382087611c42565b8054875260018101546020880152600281015460408801526003810154606088015260018060a01b03600482015416608088015260018060a01b0360058201541660a088015260018060a01b0360068201541660c088015260018060a01b0360078201541660e088015260088101546001600160801b03811661010089015260801c61012088015260098101546001600160801b0381166101408901526001600160401b038160801c1661016089015260c01c610180880152015460ff811615156101a087015260ff8160081c1615156101c087015260ff8160101c166101e087015260018060a01b039060181c1661020086015261391e81614444565b505f19600f5401600f55808252601060205281600a604082208281558260018201558260028201558260038201558260048201558260058201558260068201558260078201558260088201558260098201550155600260205260018060a01b0360408320541680151580614377575b82845260026020526040842080546001600160a01b03191690558284837fddf252ad1be2c89b69c2b068fc378daa952ba7f163c4a11628f55a4df523b3ef8280a4816143005750600854828452600960205260408420819055600160401b811015611e7f5782611dda826001613a069401600855612195565b600854805f198101116142ec578284526009602052613a2c6040852054915f1901612195565b90549060031b1c613a4081611dda84612195565b84526009602052604084205581835282604081205560085480156142d8575f1901613a6a81612195565b8154905f199060031b1b1916905560085515612121575060c084015160e0850151610200860151608087015160405163ddca3f4360e01b81526001600160a01b0392831697949383169390929081169160209184916004918391165afa9182156142cd5785926142ac575b506101a0880151156142a557805b604051633c3e613f60e01b81526001600160a01b03928316600482015291602090839060249082907f0000000000000000000000000000000000000000000000000000000000000000165afa801561363a578690614265575b600d5460408051639af608c960e01b81526001600160a01b038981166004830152909550909185916024918391165afa928315613610578793614243575b506101a08a015115801595889291839061420a576101c08d0151156141f457506001600160801b036101208d015116925b80156141db576101c08d0151156141d557845b975b156141ce5784935b81156141c65750905b90938491906001600160a01b03891681036141be5750905b6001600160a01b038481169089161461418d57908c949392916101a0860151614160575b506020613c2485613c2f938a848a0151918d6147d9565b91909601519061440d565b8981121561415857600160ff1b8114614144578903915b604051636eb1769f60e11b81523060048201526001600160a01b0383166024820152602081806044810103816001600160a01b0386165afa90811561347d578492918f918d9161410b575b50613ca08460208401516121fc565b116140df575b602001519150506001600160a01b0382163b156140db578991606483926040519485938492632bc6468360e21b8452600484015281602484015287604484015260018060a01b03165af180156131dc576140c8575b5015613d21575b505050505050506001600160801b036101406136869401511691613645565b613d5f8a613d36613d6b9594612710946121fc565b936001600160801b036101008b930151168086116140ac575b506001600160801b031690612481565b049081614088576121fc565b916001600160a01b038116871461405b57604051636eb1769f60e11b81523060048201527f00000000000000000000000000000000000000000000000000000000000000006001600160a01b03166024820152602081806044810103816001600160a01b0386165afa90811561363a579084918791614026575b5010613fea575b60405163ad1c481b60e01b81526001600160a01b03808316600483015288166024820152602081806044810103817f00000000000000000000000000000000000000000000000000000000000000006001600160a01b03165afa801561363a578690613fb6575b613e5e915084612481565b60405163313ce56760e01b81526020816004816001600160a01b0387165afa90811561361057613e9f9291613e999189916135c05750612401565b9061224c565b926126ac93848102948186041490151715613fa2576078420192834211613f8e57602093612710938a9693613eeb9360405198899788976351e820e760e01b89520493600488016124a1565b0381867f00000000000000000000000000000000000000000000000000000000000000006001600160a01b03165af1928315613f825792613f4c575b5061368694613f426001600160801b03936101409387613645565b945f808080613d02565b91506020823d602011613f7a575b81613f6760209383611c79565b8101031261023e57905190613686613f27565b3d9150613f5a565b604051903d90823e3d90fd5b634e487b7160e01b87526011600452602487fd5b634e487b7160e01b86526011600452602486fd5b506020813d602011613fe2575b81613fd060209383611c79565b8101031261023e57613e5e9051613e53565b3d9150613fc3565b614021836001600160a01b037f00000000000000000000000000000000000000000000000000000000000000008116908416613688565b613dec565b9150506020813d602011614053575b8161404260209383611c79565b8101031261023e578390515f613de5565b3d9150614035565b613686976001600160801b0395506101409490936140839350916001600160a01b0316613645565b613f42565b600c546140a790839060081c6001600160a01b03908116908816613645565b6121fc565b6001600160801b039192506140c190866121fc565b9190613d4f565b6140d490989198611c2f565b965f613cfb565b8980fd5b6141039260206140f09201516121fc565b906001600160a01b038481169116613688565b815f8d613ca6565b92935050506020813d60201161413c575b8161412960209383611c79565b8101031261347157908d8492515f613c91565b3d915061411c565b634e487b7160e01b8a52601160045260248afd5b508891613c46565b613c2f919450613c246141846020926001600160801b036101008a01511690612494565b95925050613c0d565b6040516322f48a0560e11b81526001600160a01b038086166004830152891660248201526109296044820152606490fd5b905090613be9565b905090613bd1565b8193613bc8565b81613bbe565b6101c08d0151156141ee57815b97613bc0565b846141e8565b92506001600160801b036101208d015116613bab565b6101c08d01519093901561422d57506001600160801b036101208d015116613bab565b6101208d01516001600160801b03169350613bab565b61425d91935060403d60401161359a576135868183611c79565b50915f613b7a565b50906020813d60201161429d575b8161428060209383611c79565b810103126142995790614294602492612288565b613b3c565b8580fd5b3d9150614273565b8290613ae3565b6142c691925060203d60201161084f576108408183611c79565b905f613ad5565b6040513d87823e3d90fd5b634e487b7160e01b84526031600452602484fd5b634e487b7160e01b84526011600452602484fd5b15613a065761430e81611ce1565b828452600760205260408420549082855260066020526040852091818103614350575b5083855260076020528460408120558452602052826040812055613a06565b8186528260205260408620548187528060408820558652600760205260408620555f614331565b5f83815260046020526040902080546001600160a01b031916905581845260036020526040842080545f1901905561398d565b6040516369c6ab6960e11b815260048101849052602490fd5b6143cc826120ff565b6001600160a01b038281169116036143e2575050565b60405163c8bbf6d360e01b81526001600160a01b039190911660048201526024810191909152604490fd5b81810392915f13801582851316918412161761220957565b9081602091031261023e57516001600160401b038116810361023e5790565b5f81815260026020908152604080832054909392916001600160a01b03918216156147d15760108152848320600a810154600282015460058301546003840154600685015460078601548b5163ad1c481b60e01b81529189166001600160a01b03908116600480850191909152918a1616602483015299959895949093919260ff9091169190881687856044817f00000000000000000000000000000000000000000000000000000000000000008d165afa9485156147c7578795614794575b50821561477657612328808302908382041483151715614763576127109004925b156146ee5780151590816146e4575b506146d45780151590816146c9575b506146ba5780151590816146af575b506146a3578015159182614698575b505061468c575b81526002825282868220541692600d541692865195631ce3d24360e31b875281818801528387602481885afa96871561468257839761465c575b509060248492895196879384926367058dad60e01b84528301525afa95861561465257509461461c575b505060096145fe910154916001600160401b038091166145f1828560801c16426121fc565b1193169160c01c436121fc565b1181614614575b5061460f57600290565b600690565b90505f614605565b6145fe9294506009918161464492903d1061464b575b61463c8183611c79565b810190614425565b93916145cc565b503d614632565b51903d90823e3d90fd5b8492919750614679602491843d861161464b5761463c8183611c79565b979192506145a2565b88513d85823e3d90fd5b50505050505050600390565b101590505f80614561565b50505050505050905090565b90508210155f614552565b50505050505050505050600590565b90508310155f614543565b5050505050505050505050600190565b905084105f614534565b8015159081614759575b506146d457801515908161474e575b506146ba578015159081614743575b506146a3578015159182614738575b5050156145685750505050505050600390565b111590505f80614725565b90508211155f614716565b90508311155f614707565b905084115f6146f8565b634e487b7160e01b885260118c52602488fd5b612af880830290838204148315171561476357612710900492614525565b9094508781813d83116147c0575b6147ac8183611c79565b810103126147bc5751935f614504565b8680fd5b503d6147a2565b8c513d89823e3d90fd5b505091505090565b60405163313ce56760e01b815293959493909291906020816004816001600160a01b0388165afa801561085657614816915f916135c05750612401565b926078420142116122095760405163ad1c481b60e01b81526001600160a01b038083166004830152831660248201525f949085602082806044810103817f00000000000000000000000000000000000000000000000000000000000000006001600160a01b03165afa90918282614c2a575b5050614c1f57505f975b8880614c16575b614a38575b50604051636eb1769f60e11b81523060048201527f00000000000000000000000000000000000000000000000000000000000000006001600160a01b0316602482018190529590602081806044810103816001600160a01b0388165afa80156108565788915f91614a03575b50106149ea575b5f98806149e1575b614993575b5050915f6020949261494d87956040519a8b97889687956351e820e760e01b87526078420194600488016124a1565b03925af1928315610856575f9361496357509190565b90926020823d60201161498b575b8161497e60209383611c79565b810103126120f057505190565b3d9150614971565b906149a46149a992889a949a612481565b61224c565b906126ac918281029281840414901517156149cd57506127109004955f602061491e565b634e487b7160e01b81526011600452602490fd5b50801515614919565b6149fe87876001600160a01b038616613688565b614911565b91506020823d602011614a30575b81614a1e60209383611c79565b810103126120f057508790515f61490a565b3d9150614a11565b614a46866149a48484612481565b6127748181810204811482151715612209578861271082840204111580614c0c575b614a74575b505061489e565b604051636eb1769f60e11b81523060048201527f00000000000000000000000000000000000000000000000000000000000000006001600160a01b03166024820152602081806044810103816001600160a01b038a165afa908115610856575f91614bd9575b5081612710918260209486020411614b98575b614b16604051948593849363023884b760e01b855260784201920204878c8c8c600488016124a1565b03815f7f00000000000000000000000000000000000000000000000000000000000000006001600160a01b03165af15f9181614b64575b50614b585780614a6d565b98509695505050505050565b90916020823d602011614b90575b81614b7f60209383611c79565b810103126120f0575051905f614b4d565b3d9150614b72565b614bd48185028390046001600160a01b037f00000000000000000000000000000000000000000000000000000000000000008116908a16613688565b614aed565b906020823d602011614c04575b81614bf360209383611c79565b810103126120f05750516020614ada565b3d9150614be6565b5088821115614a68565b50851515614899565b600198909550614892565b909192506020823d602011614c59575b81614c4760209383611c79565b810103126120f0575051905f80614888565b3d9150614c3a565b6001600160401b0381116107705760051b60200190565b90614c8282614c61565b614c8f6040519182611c79565b8281528092614ca0601f1991614c61565b0190602036910137565b5f1981146122095760010190565b80518210156121ad5760209160051b010190565b81810292915f8212600160ff1b8214166122095781840514901517156122095756fea26469706673582212206f1eb4e69774d62df21e93e468e21bf384b3eb52a5c1e064644b20ba38219f6964736f6c63430008140033","linkReferences":{"src/libraries/PositionLogic.sol":{"PositionLogic":[{"start":4563,"length":20},{"start":6909,"length":20}]}}},"methodIdentifiers":{"LIQUIDATION_THRESHOLD()":"90a8ae9b","LIQUIDITY_POOL_FACTORY()":"ef3316ce","LIQUIDITY_POOL_FACTORY_UNISWAP_V3()":"b2d4c9d9","MAX_LEVERAGE()":"9b45ec97","MIN_POSITION_AMOUNT_IN_USD()":"1a055c2b","PRICE_FEED()":"31eb318a","SLIPPAGE_TOLERANCE()":"4c203786","SWAP_DEADLINE_BUFFER()":"cbb117a3","UNISWAP_V3_HELPER()":"124b1583","USD_DECIMALS()":"2f6ee695","approve(address,uint256)":"095ea7b3","balanceOf(address)":"70a08231","closePosition(address,uint256)":"742fe1f8","editPosition(address,uint256,uint256)":"7701297c","feeManager()":"d0fb0203","getApproved(uint256)":"081812fc","getLiquidablePositions()":"1ae11bb5","getPositionParams(uint256)":"e63490ce","getPositionState(uint256)":"eb29dc5e","getTraderPositions(address)":"5fbbb2ff","isApprovedForAll(address,address)":"e985e9c5","liquidatePosition(address,uint256)":"76f89965","name()":"06fdde03","onERC721Received(address,address,uint256,bytes)":"150b7a02","openLongPosition(address,address,address,uint24,uint8,uint128,uint160,uint256)":"2d8f8372","openPositions(uint256)":"d2ec0025","openShortPosition(address,address,address,uint24,uint8,uint128,uint160,uint256)":"aed383ac","owner()":"8da5cb5b","ownerOf(uint256)":"6352211e","pause()":"8456cb59","paused()":"5c975abb","posId()":"f5d13da0","renounceOwnership()":"715018a6","safeTransferFrom(address,address,uint256)":"42842e0e","safeTransferFrom(address,address,uint256,bytes)":"b88d4fde","setApprovalForAll(address,bool)":"a22cb465","supportsInterface(bytes4)":"01ffc9a7","symbol()":"95d89b41","tokenByIndex(uint256)":"4f6ccce7","tokenOfOwnerByIndex(address,uint256)":"2f745c59","tokenURI(uint256)":"c87b56dd","totalNbPos()":"7841cd91","totalSupply()":"18160ddd","transferFrom(address,address,uint256)":"23b872dd","transferOwnership(address)":"f2fde38b","treasure()":"e520fc7e","unpause()":"3f4ba83a"},"id":52}