{"abi":[{"type":"constructor","inputs":[],"stateMutability":"nonpayable"},{"type":"function","name":"DEFAULT_TWAP_WINDOW","inputs":[],"outputs":[{"name":"","type":"uint32","internalType":"uint32"}],"stateMutability":"view"},{"type":"function","name":"GRACE_PERIOD","inputs":[],"outputs":[{"name":"","type":"uint256","internalType":"uint256"}],"stateMutability":"view"},{"type":"function","name":"addPriceFeed","inputs":[{"name":"_token","type":"address","internalType":"address"},{"name":"_priceFeed","type":"address","internalType":"address"}],"outputs":[],"stateMutability":"nonpayable"},{"type":"function","name":"getAmountInUsd","inputs":[{"name":"_token","type":"address","internalType":"address"},{"name":"_amount","type":"uint256","internalType":"uint256"}],"outputs":[{"name":"","type":"uint256","internalType":"uint256"}],"stateMutability":"view"},{"type":"function","name":"getPairLatestPrice","inputs":[{"name":"_token0","type":"address","internalType":"address"},{"name":"_token1","type":"address","internalType":"address"}],"outputs":[{"name":"","type":"uint256","internalType":"uint256"}],"stateMutability":"view"},{"type":"function","name":"getTokenLatestPriceInUsd","inputs":[{"name":"_token","type":"address","internalType":"address"}],"outputs":[{"name":"","type":"uint256","internalType":"uint256"}],"stateMutability":"view"},{"type":"function","name":"getTwapPrice","inputs":[{"name":"_token","type":"address","internalType":"address"}],"outputs":[{"name":"twapPrice18","type":"uint256","internalType":"uint256"}],"stateMutability":"view"},{"type":"function","name":"isPairSupported","inputs":[{"name":"_token0","type":"address","internalType":"address"},{"name":"_token1","type":"address","internalType":"address"}],"outputs":[{"name":"","type":"bool","internalType":"bool"}],"stateMutability":"view"},{"type":"function","name":"maxDeviationBps","inputs":[],"outputs":[{"name":"","type":"uint256","internalType":"uint256"}],"stateMutability":"view"},{"type":"function","name":"owner","inputs":[],"outputs":[{"name":"","type":"address","internalType":"address"}],"stateMutability":"view"},{"type":"function","name":"removeTwapConfig","inputs":[{"name":"_token","type":"address","internalType":"address"}],"outputs":[],"stateMutability":"nonpayable"},{"type":"function","name":"renounceOwnership","inputs":[],"outputs":[],"stateMutability":"nonpayable"},{"type":"function","name":"sequencerUptimeFeed","inputs":[],"outputs":[{"name":"","type":"address","internalType":"contract AggregatorV3Interface"}],"stateMutability":"view"},{"type":"function","name":"setMaxDeviationBps","inputs":[{"name":"_bps","type":"uint256","internalType":"uint256"}],"outputs":[],"stateMutability":"nonpayable"},{"type":"function","name":"setSequencerFeed","inputs":[{"name":"_feed","type":"address","internalType":"address"}],"outputs":[],"stateMutability":"nonpayable"},{"type":"function","name":"setStalenessThreshold","inputs":[{"name":"_newThreshold","type":"uint256","internalType":"uint256"}],"outputs":[],"stateMutability":"nonpayable"},{"type":"function","name":"setTwapConfig","inputs":[{"name":"_token","type":"address","internalType":"address"},{"name":"_pool","type":"address","internalType":"address"},{"name":"_intermediateToken","type":"address","internalType":"address"},{"name":"_intermediateIsUsd","type":"bool","internalType":"bool"},{"name":"_twapWindow","type":"uint32","internalType":"uint32"}],"outputs":[],"stateMutability":"nonpayable"},{"type":"function","name":"stalenessThreshold","inputs":[],"outputs":[{"name":"","type":"uint256","internalType":"uint256"}],"stateMutability":"view"},{"type":"function","name":"tokenToPriceFeedUsd","inputs":[{"name":"","type":"address","internalType":"address"}],"outputs":[{"name":"","type":"address","internalType":"contract AggregatorV3Interface"}],"stateMutability":"view"},{"type":"function","name":"tokenToTwapConfig","inputs":[{"name":"","type":"address","internalType":"address"}],"outputs":[{"name":"pool","type":"address","internalType":"address"},{"name":"intermediateToken","type":"address","internalType":"address"},{"name":"intermediateIsUsd","type":"bool","internalType":"bool"},{"name":"twapWindow","type":"uint32","internalType":"uint32"}],"stateMutability":"view"},{"type":"function","name":"transferOwnership","inputs":[{"name":"newOwner","type":"address","internalType":"address"}],"outputs":[],"stateMutability":"nonpayable"},{"type":"event","name":"MaxDeviationBpsUpdated","inputs":[{"name":"oldBps","type":"uint256","indexed":false,"internalType":"uint256"},{"name":"newBps","type":"uint256","indexed":false,"internalType":"uint256"}],"anonymous":false},{"type":"event","name":"OwnershipTransferred","inputs":[{"name":"previousOwner","type":"address","indexed":true,"internalType":"address"},{"name":"newOwner","type":"address","indexed":true,"internalType":"address"}],"anonymous":false},{"type":"event","name":"SequencerFeedUpdated","inputs":[{"name":"oldFeed","type":"address","indexed":true,"internalType":"address"},{"name":"newFeed","type":"address","indexed":true,"internalType":"address"}],"anonymous":false},{"type":"event","name":"StalenessThresholdUpdated","inputs":[{"name":"oldThreshold","type":"uint256","indexed":false,"internalType":"uint256"},{"name":"newThreshold","type":"uint256","indexed":false,"internalType":"uint256"}],"anonymous":false},{"type":"event","name":"TwapConfigRemoved","inputs":[{"name":"token","type":"address","indexed":true,"internalType":"address"}],"anonymous":false},{"type":"event","name":"TwapConfigSet","inputs":[{"name":"token","type":"address","indexed":true,"internalType":"address"},{"name":"pool","type":"address","indexed":true,"internalType":"address"},{"name":"intermediateToken","type":"address","indexed":false,"internalType":"address"},{"name":"twapWindow","type":"uint32","indexed":false,"internalType":"uint32"}],"anonymous":false},{"type":"error","name":"OwnableInvalidOwner","inputs":[{"name":"owner","type":"address","internalType":"address"}]},{"type":"error","name":"OwnableUnauthorizedAccount","inputs":[{"name":"account","type":"address","internalType":"address"}]},{"type":"error","name":"PriceFeedL1__ANSWER_IN_ROUND_INVALID","inputs":[{"name":"token","type":"address","internalType":"address"}]},{"type":"error","name":"PriceFeedL1__INVALID_PRICE","inputs":[{"name":"token","type":"address","internalType":"address"},{"name":"price","type":"int256","internalType":"int256"}]},{"type":"error","name":"PriceFeedL1__INVALID_PRICE_FEED","inputs":[{"name":"feed","type":"address","internalType":"address"}]},{"type":"error","name":"PriceFeedL1__PRICE_TOO_OLD","inputs":[{"name":"token","type":"address","internalType":"address"},{"name":"age","type":"uint256","internalType":"uint256"}]},{"type":"error","name":"PriceFeedL1__SEQUENCER_DOWN","inputs":[]},{"type":"error","name":"PriceFeedL1__SEQUENCER_GRACE_PERIOD_NOT_OVER","inputs":[{"name":"secondsSinceUp","type":"uint256","internalType":"uint256"},{"name":"gracePeriod","type":"uint256","internalType":"uint256"}]},{"type":"error","name":"PriceFeedL1__STALE_PRICE","inputs":[{"name":"token","type":"address","internalType":"address"}]},{"type":"error","name":"PriceFeedL1__TOKEN_NOT_SUPPORTED","inputs":[{"name":"token","type":"address","internalType":"address"}]},{"type":"error","name":"PriceFeedL1__TWAP_DEVIATION_TOO_HIGH","inputs":[{"name":"token","type":"address","internalType":"address"},{"name":"chainlinkPrice","type":"uint256","internalType":"uint256"},{"name":"twapPrice","type":"uint256","internalType":"uint256"},{"name":"deviationBps","type":"uint256","internalType":"uint256"}]}],"bytecode":{"object":"0x6080806040523461008457331561006f575f8054336001600160a01b03198216811783556040519290916001600160a01b0316907f8be0079c531659141344cd1fd0a4f28419497f9722a3daafe3b4186f6b6457e09080a3610e106002556101f460055561186390816100898239f35b631e4fbdf760e01b81525f6004820152602490fd5b5f80fdfe604060808152600480361015610013575f80fd5b5f91823560e01c8063321f82b1146108775780633ee7a701146108585780635fcb21201461083b57806363cde84b14610815578063715018a6146107ce57838163735fce811461076b575080638068e42c146106ce5780638a45d536146106605780638da5cb5b1461063857806392cc1471146105d25780639446994a1461056b5780639838b92a14610545578063a72647051461051c578063a84f6ebb146104fd578063a94a0aac14610363578063ad1c481b1461029e578063c1a287e214610281578063df05a2c414610242578063e8a97a3e146101d0578063f2fde38b1461015c5763fb01e7f214610106575f80fd5b34610158576020366003190112610158577f2cfed7ac4be4a0009ef1af32ea2de149e0122938cb9aa4b3f7df3be6da1055e9913561014261094b565b600254908060025582519182526020820152a180f35b8280fd5b5090346101585760203660031901126101585761017761091b565b9061018061094b565b6001600160a01b039182169283156101ba57505082546001600160a01b0319811683178455165f8051602061180e8339815191528380a380f35b51631e4fbdf760e01b8152908101849052602490fd5b50346101585780600319360112610158576101e961091b565b6101f1610935565b906101fa61094b565b6001600160a01b0391821693841561022b57501683526001602052822080546001600160a01b031916909117905580f35b835163c7edcc7f60e01b8152908101859052602490fd5b83823461027d57602036600319011261027d576020916001600160a01b039082908261026c61091b565b168152600185522054169051908152f35b5080fd5b83823461027d578160031936011261027d5760209051610e108152f35b5090346101585781600319360112610158576102b861091b565b906102ca6102c4610935565b92610b26565b835163313ce56760e01b815290916020908290816001600160a01b0387165afa90811561035957610325939261031360ff61031f946103199460209a9161032c575b50166109e1565b90610a03565b91610b26565b90610a16565b9051908152f35b61034c91508a3d8111610352575b61034481836109a5565b8101906109c8565b5f61030c565b503d61033a565b84513d87823e3d90fd5b5090346101585760a03660031901126101585761037e61091b565b91610387610935565b6001600160a01b03936044358581169291908390036104f957606435908115158092036104f5576084359263ffffffff84168094036104f15787906103ca61094b565b169687156104bc57603c8410610484579188918695949360017f86a489324fd1668f959ad7d42c766539ae3559002ddbdbf5e8093684a850e2c0985161040f81610976565b8b8152828960208301978a89528184019788528260608501978b8952169d8e825260205220915116828060a01b03198254161781550193511683549260ff60a01b9051151560a01b169163ffffffff60a81b905160a81b169260018060c81b031916171717905582519182526020820152a380f35b855162461bcd60e51b81526020818901526012602482015271545741503a2077696e646f77203c2036307360701b6044820152606490fd5b855162461bcd60e51b8152602081890152600f60248201526e1515d0540e881e995c9bc81c1bdbdb608a1b6044820152606490fd5b8880fd5b8780fd5b8680fd5b83823461027d578160031936011261027d576020906002549051908152f35b83823461027d578160031936011261027d5760035490516001600160a01b039091168152602090f35b83823461027d57602036600319011261027d5760209061032561056661091b565b610b26565b83823461027d578060031936011261027d579060209161058961091b565b610591610935565b6001600160a01b0391821684526001855282842054821615159390846105bd575b505050519015158152f35b821681528290205416151591508380806105b2565b5090346101585760203660031901126101585760809263ffffffff916001600160a01b039184918361060261091b565b16825260205220926001828554169401549181519485528216602085015260ff8260a01c1615159084015260a81c166060820152f35b83823461027d578160031936011261027d57905490516001600160a01b039091168152602090f35b83346106cb5760203660031901126106cb5761067a61091b565b61068261094b565b600380546001600160a01b039283166001600160a01b0319821681179092559091167fdeeb900bbf668ecfb5b0e8ac194a21d2863cb490fcad85aab8c04a96dc9904068380a380f35b80fd5b509034610158576020366003190112610158578035906106ec61094b565b611388821161072f5750907ff3a8ca9ac2e089954dd8bc7de06df739c73f582a878b4d972c4026c5b147b55a91600554908060055582519182526020820152a180f35b606490602084519162461bcd60e51b83528201526016602482015275646576696174696f6e206361703a206d61782035302560501b6044820152fd5b9190503461027d57602036600319011261027d5760019061078a61091b565b61079261094b565b828060a01b031693848452602052822082815501557f666bfe353392323ac804feea2982e5ff9aca3068b54091fb8848ca05060c0fb98280a280f35b83346106cb57806003193601126106cb576107e761094b565b80546001600160a01b03198116825581906001600160a01b03165f8051602061180e8339815191528280a380f35b83823461027d57602036600319011261027d5760209061032561083661091b565b610e37565b83823461027d578160031936011261027d57602090516107088152f35b83823461027d578160031936011261027d576020906005549051908152f35b50903461015857816003193601126101585761089161091b565b602061089c82610b26565b845163313ce56760e01b815293909284919082906001600160a01b03165afa91821561090e57906103259291602095926108e7575b506108e161031f91602435610a03565b91610b15565b61031f9192506109066108e191873d81116103525761034481836109a5565b9291506108d1565b50505051903d90823e3d90fd5b600435906001600160a01b038216820361093157565b5f80fd5b602435906001600160a01b038216820361093157565b5f546001600160a01b0316330361095e57565b60405163118cdaa760e01b8152336004820152602490fd5b608081019081106001600160401b0382111761099157604052565b634e487b7160e01b5f52604160045260245ffd5b601f909101601f19168101906001600160401b0382119082101761099157604052565b90816020910312610931575160ff811681036109315790565b604d81116109ef57600a0a90565b634e487b7160e01b5f52601160045260245ffd5b818102929181159184041417156109ef57565b8115610a20570490565b634e487b7160e01b5f52601260045260245ffd5b51906001600160501b038216820361093157565b908160a091031261093157610a5c81610a34565b91602082015191604081015191610a7a608060608401519301610a34565b90565b6001600160a01b039091168152602081019190915260400190565b9081602091031261093157516001600160a01b03811681036109315790565b9081602091031261093157518060170b81036109315790565b919082039182116109ef57565b60ff6011199116019060ff82116109ef57565b60ff166012039060ff82116109ef57565b9060ff8091169116039060ff82116109ef57565b60ff16604d81116109ef57600a0a90565b90610b2f610e9d565b60018060a01b03918281165f93818552602094600186526040928284832054168015610e1f578451633fabe5a360e21b81526004929060a0818581865afa8015610e155785869787938893610ddc575b5087891315610d6f5789516309169eff60e21b815287918e91828185818c5afa8b9181610dad575b50610da85750875b168b51630455b78f60e31b815282818581855afa8b9181610d89575b50610d58575b5081908c51938480926370da2f6760e01b82525afa9182918a93610d29575b5050610cfb575b508215610ce4576001600160501b03908116911610610ccd57610c1a9042610ad0565b906002548211610cb2575050879085519283809263313ce56760e01b82525afa938415610ca75750610a7a9495968294610c88575b5050601260ff8416119050610c7957610313610c6d610c7293610af0565b610b15565b8092610f56565b61031f610c6d610c7293610add565b610c9f929450803d106103525761034481836109a5565b915f80610c4f565b51913d9150823e3d90fd5b8651630f63ce4160e41b815293840152602483015250604490fd5b8651630387e14b60e31b8152808501839052602490fd5b885163ebec6a5960e01b8152808701859052602490fd5b60170b881215610d0b575f610bf7565b8851631850cf5f60e11b815280610d258a8d838b01610a7d565b0390fd5b610d49929350803d10610d51575b610d4181836109a5565b810190610ab7565b905f8e610bf0565b503d610d37565b9150915060170b891315610d6f578c87915f610bd1565b8951631850cf5f60e11b815280610d258b8e838c01610a7d565b610da1919250843d8611610d5157610d4181836109a5565b905f610bcb565b610baf565b610dce919250843d8611610dd5575b610dc681836109a5565b810190610a98565b905f610ba7565b503d610dbc565b9250975050610e02915060a03d8111610e0e575b610dfa81836109a5565b810190610a48565b9298909391505f610b7f565b503d610df0565b87513d87823e3d90fd5b845163038a01b360e51b815260048101839052602490fd5b60018060a01b038082165f52600460205260405f2063ffffffff60405192610e5e84610976565b600181845416938486520154908116602085015260ff8160a01c161515604085015260a81c16606083015215610e9757610a7a916110d4565b50505f90565b6003546001600160a01b03168015610f535760a060049160405192838092633fabe5a360e21b82525afa908115610f48575f908192610f24575b50610f1257610ee69042610ad0565b610e10808210610ef4575050565b6044925060405191630f6f4b4b60e21b835260048301526024820152fd5b604051639fe30d3560e01b8152600490fd5b9050610f3e915060a03d8111610e0e57610dfa81836109a5565b505091505f610ed7565b6040513d5f823e3d90fd5b50565b906005549081156110875760018060a01b0390818416935f9285845260046020526040842063ffffffff60405192610f8d84610976565b600181845416938486520154908116602085015260ff8160a01c161515604085015260a81c1660608301521561107f57610fc6916110d4565b9182156110785782821061104857610fde8383610ad0565b9061271091828102928184041490151715611034575082610ffe91610a16565b925b831161100c5750505050565b6084945060405193639d74544760e01b85526004850152602484015260448301526064820152fd5b634e487b7160e01b81526011600452602490fd5b6110528284610ad0565b906127109182810292818404149015171561103457508161107291610a16565b92611000565b5050505050565b505050505050565b505050565b6001600160401b0381116109915760051b60200190565b8051156110b05760200190565b634e487b7160e01b5f52603260045260245ffd5b8051600110156110b05760400190565b8151604051630dfe168160e01b8152919291906001600160a01b0316602082600481845afa918215610f48575f9261171c575b5060405163d21220a760e01b815290602082600481845afa918215610f48575f926116fb575b5060405163313ce56760e01b8152906020826004816001600160a01b0388165afa918215610f48575f926116d8575b5060405163313ce56760e01b81529192602090839060049082906001600160a01b03165afa918215610f48575f926116b7575b50604051606081016001600160401b0381118282101761099157604092919252600282526020820190604036833763ffffffff6060880151166111d1846110a3565b525f6111dc846110c4565b5260405163883bdbfd60e01b8152602060048201529251602484018190525f93928492849290916044840191855b8181106116955750505082809103915afa90829082611551575b5050611234575050505050505f90565b91611248611241846110c4565b51936110a3565b51600693667fffffffffffff1991850b90850b03818112667fffffffffffff8213176109ef5763ffffffff606088015116850b90850b908015610a20575f19928214818414166109ef57810560020b945f8212918261152e575b5050611519575b505f8360020b81811294855f1461150c5750627fffff1981146114f857810362ffffff16935b600160801b94700100068db8bac710cb295e9e1b089a027590805b6114c35750506110345760ff8381169083161061148d57506113116113179260ff92610b01565b166109e1565b670de0b6b3a7640000908181029181830414901517156109ef5761133a9161173d565b925b6001600160a01b039182169116141580611484575b611467575b604081015115611364575090565b6020908101516001600160a01b039081165f9081526001909252604090912054168015610e9757604051633fabe5a360e21b81529160a083600481855afa928315610f48575f93611442575b505f83131561143b5760206004926040519384809263313ce56760e01b82525afa8015610f4857670de0b6b3a764000093611407935f9261141a575b50601260ff83161161140b57610313610c6d61031393610af0565b0490565b61031f610c6d61031393610add565b61143491925060203d6020116103525761034481836109a5565b905f6113ec565b5050505f90565b61145b91935060a03d8111610e0e57610dfa81836109a5565b5050509050915f6113b0565b908015610a20576a0c097ce7bc90715b34b9f160241b0490611356565b50811515611351565b9161131161149d9260ff92610b01565b906001600160801b03821682036110345750906114bd9160801b90611781565b9261133c565b60019182808316146114e2575b806114da9161173d565b911c806112ea565b966114f0886114da9261173d565b9790506114d0565b634e487b7160e01b82526011600452602482fd5b62ffffff915016936112cf565b9092627fffff1981146109ef5701915f6112a9565b90915063ffffffff606089015116820b908115610a205707900b15155f806112a2565b909192503d8083833e61156481836109a5565b6040828281010312610158578151926001600160401b0384116106cb57818301601f8585010112156106cb57838301519361159e8561108c565b946115ac60405196876109a5565b808652602086019184860160208360051b83890101011161169157602081870101925b60208360051b83890101018410611673575050505060208301516001600160401b03811161027d57828401601f82860101121561027d5780840151936020806116178761108c565b61162460405191826109a5565b878152019560051b838301010193810184116101585701602001925b8284106116535750505050905f80611224565b83516001600160a01b038116810361015857815260209384019301611640565b83518060060b810361168d578152602093840193016115cf565b8580fd5b8380fd5b825163ffffffff1684528896508795506020938401939092019160010161120a565b6116d191925060203d6020116103525761034481836109a5565b905f61118f565b600492506116f4602091823d84116103525761034481836109a5565b925061115c565b61171591925060203d602011610dd557610dc681836109a5565b905f61112d565b61173691925060203d602011610dd557610dc681836109a5565b905f611107565b5f19828209908281029283808410930392808403931461177857600160801b9183831115610931570990828211900360801b910360801c1790565b50505060801c90565b90670de0b6b3a7640000905f1982840992828102928380861095039480860395146117ff57848311156109315782910960018219018216809204600280826003021880830282030280830282030280830282030280830282030280830282030280920290030293600183805f03040190848311900302920304170290565b50508092501561093157049056fe8be0079c531659141344cd1fd0a4f28419497f9722a3daafe3b4186f6b6457e0a26469706673582212204af1499cbacc573148266e23a57fb67375ac0877a359ed5c317a998c7b5a912d64736f6c63430008140033","linkReferences":{}},"methodIdentifiers":{"DEFAULT_TWAP_WINDOW()":"5fcb2120","GRACE_PERIOD()":"c1a287e2","addPriceFeed(address,address)":"e8a97a3e","getAmountInUsd(address,uint256)":"321f82b1","getPairLatestPrice(address,address)":"ad1c481b","getTokenLatestPriceInUsd(address)":"9838b92a","getTwapPrice(address)":"63cde84b","isPairSupported(address,address)":"9446994a","maxDeviationBps()":"3ee7a701","owner()":"8da5cb5b","removeTwapConfig(address)":"735fce81","renounceOwnership()":"715018a6","sequencerUptimeFeed()":"a7264705","setMaxDeviationBps(uint256)":"8068e42c","setSequencerFeed(address)":"8a45d536","setStalenessThreshold(uint256)":"fb01e7f2","setTwapConfig(address,address,address,bool,uint32)":"a94a0aac","stalenessThreshold()":"a84f6ebb","tokenToPriceFeedUsd(address)":"df05a2c4","tokenToTwapConfig(address)":"92cc1471","transferOwnership(address)":"f2fde38b"},"id":51}