{"abi":[{"type":"constructor","inputs":[],"stateMutability":"nonpayable"},{"type":"function","name":"addPriceFeed","inputs":[{"name":"_token","type":"address","internalType":"address"},{"name":"_priceFeed","type":"address","internalType":"address"}],"outputs":[],"stateMutability":"nonpayable"},{"type":"function","name":"getAmountInUsd","inputs":[{"name":"_token","type":"address","internalType":"address"},{"name":"_amount","type":"uint256","internalType":"uint256"}],"outputs":[{"name":"","type":"uint256","internalType":"uint256"}],"stateMutability":"view"},{"type":"function","name":"getPairLatestPrice","inputs":[{"name":"_token0","type":"address","internalType":"address"},{"name":"_token1","type":"address","internalType":"address"}],"outputs":[{"name":"","type":"uint256","internalType":"uint256"}],"stateMutability":"view"},{"type":"function","name":"getTokenLatestPriceInUsd","inputs":[{"name":"_token","type":"address","internalType":"address"}],"outputs":[{"name":"","type":"uint256","internalType":"uint256"}],"stateMutability":"view"},{"type":"function","name":"isPairSupported","inputs":[{"name":"_token0","type":"address","internalType":"address"},{"name":"_token1","type":"address","internalType":"address"}],"outputs":[{"name":"","type":"bool","internalType":"bool"}],"stateMutability":"view"},{"type":"function","name":"owner","inputs":[],"outputs":[{"name":"","type":"address","internalType":"address"}],"stateMutability":"view"},{"type":"function","name":"renounceOwnership","inputs":[],"outputs":[],"stateMutability":"nonpayable"},{"type":"function","name":"setStalenessThreshold","inputs":[{"name":"_newThreshold","type":"uint256","internalType":"uint256"}],"outputs":[],"stateMutability":"nonpayable"},{"type":"function","name":"stalenessThreshold","inputs":[],"outputs":[{"name":"","type":"uint256","internalType":"uint256"}],"stateMutability":"view"},{"type":"function","name":"tokenToPriceFeedUsd","inputs":[{"name":"","type":"address","internalType":"address"}],"outputs":[{"name":"","type":"address","internalType":"contract AggregatorV3Interface"}],"stateMutability":"view"},{"type":"function","name":"transferOwnership","inputs":[{"name":"newOwner","type":"address","internalType":"address"}],"outputs":[],"stateMutability":"nonpayable"},{"type":"event","name":"OwnershipTransferred","inputs":[{"name":"previousOwner","type":"address","indexed":true,"internalType":"address"},{"name":"newOwner","type":"address","indexed":true,"internalType":"address"}],"anonymous":false},{"type":"error","name":"OwnableInvalidOwner","inputs":[{"name":"owner","type":"address","internalType":"address"}]},{"type":"error","name":"OwnableUnauthorizedAccount","inputs":[{"name":"account","type":"address","internalType":"address"}]},{"type":"error","name":"PriceFeedL1__ANSWER_IN_ROUND_INVALID","inputs":[{"name":"token","type":"address","internalType":"address"}]},{"type":"error","name":"PriceFeedL1__INVALID_PRICE","inputs":[{"name":"token","type":"address","internalType":"address"},{"name":"price","type":"int256","internalType":"int256"}]},{"type":"error","name":"PriceFeedL1__PRICE_TOO_OLD","inputs":[{"name":"token","type":"address","internalType":"address"},{"name":"age","type":"uint256","internalType":"uint256"}]},{"type":"error","name":"PriceFeedL1__STALE_PRICE","inputs":[{"name":"token","type":"address","internalType":"address"}]},{"type":"error","name":"PriceFeedL1__TOKEN_NOT_SUPPORTED","inputs":[{"name":"token","type":"address","internalType":"address"}]}],"bytecode":{"object":"0x6080806040523461007e573315610069575f8054336001600160a01b03198216811783556040519290916001600160a01b0316907f8be0079c531659141344cd1fd0a4f28419497f9722a3daafe3b4186f6b6457e09080a3610e1060025561080390816100838239f35b631e4fbdf760e01b81525f6004820152602490fd5b5f80fdfe604060808152600480361015610013575f80fd5b5f91823560e01c908163321f82b1146103ec578163715018a6146103925781638da5cb5b1461036a5781639446994a146103035781639838b92a146102dd578163a84f6ebb146102be578163ad1c481b146101db578163df05a2c4146101a0578163e8a97a3e14610148578163f2fde38b146100bc575063fb01e7f214610098575f80fd5b346100b85760203660031901126100b8576100b16104c1565b3560025580f35b5080fd5b91905034610144576020366003190112610144576100d8610491565b906100e16104c1565b6001600160a01b0391821692831561012e57505082546001600160a01b0319811683178455167f8be0079c531659141344cd1fd0a4f28419497f9722a3daafe3b4186f6b6457e08380a380f35b51631e4fbdf760e01b8152908101849052602490fd5b8280fd5b8390346100b857806003193601126100b857610162610491565b61016a6104ab565b916101736104c1565b6001600160a01b0391821684526001602052832080546001600160a01b0319169290911691909117905580f35b8390346100b85760203660031901126100b8576020916001600160a01b03908290826101ca610491565b168152600185522054169051908152f35b905082346102bb57816003193601126102bb576101f6610491565b906102086102026104ab565b926105a8565b835163313ce56760e01b815290919060208187816001600160a01b0388165afa9081156102b1579060ff918391610283575b501690604d8211610270576020856102698661026361025d8888600a0a9061053b565b916105a8565b90610562565b9051908152f35b634e487b7160e01b815260118652602490fd5b6102a4915060203d81116102aa575b61029c81836104ec565b810190610522565b8761023a565b503d610292565b85513d84823e3d90fd5b80fd5b8390346100b857816003193601126100b8576020906002549051908152f35b8390346100b85760203660031901126100b8576020906102696102fe610491565b6105a8565b8390346100b857806003193601126100b85790602091610321610491565b6103296104ab565b6001600160a01b039182168452600185528284205482161515939084610355575b505050519015158152f35b8216815282902054161515915083808061034a565b8390346100b857816003193601126100b857905490516001600160a01b039091168152602090f35b83346102bb57806003193601126102bb576103ab6104c1565b80546001600160a01b03198116825581906001600160a01b03167f8be0079c531659141344cd1fd0a4f28419497f9722a3daafe3b4186f6b6457e08280a380f35b91905034610144578160031936011261014457610407610491565b6020610412826105a8565b845163313ce56760e01b815293909284919082906001600160a01b03165afa918215610484579061026992916020959261045d575b506104576102639160243561053b565b91610597565b61026391925061047c61045791873d81116102aa5761029c81836104ec565b929150610447565b50505051903d90823e3d90fd5b600435906001600160a01b03821682036104a757565b5f80fd5b602435906001600160a01b03821682036104a757565b5f546001600160a01b031633036104d457565b60405163118cdaa760e01b8152336004820152602490fd5b90601f8019910116810190811067ffffffffffffffff82111761050e57604052565b634e487b7160e01b5f52604160045260245ffd5b908160209103126104a7575160ff811681036104a75790565b8181029291811591840414171561054e57565b634e487b7160e01b5f52601160045260245ffd5b811561056c570490565b634e487b7160e01b5f52601260045260245ffd5b519069ffffffffffffffffffff821682036104a757565b60ff16604d811161054e57600a0a90565b6001600160a01b039081165f8181526001602052604080822054929493929092169182156107b657805192633fabe5a360e21b845260049560a0858881855afa94851561048457849585968692879261075d575b508688131561074157821561072a5769ffffffffffffffffffff809116911610610713574203904282116107005760025482116106e45750506020869183519283809263313ce56760e01b82525afa9182156106db57509060ff9183916106bd575b5016601281116106a0576012039060ff821161068d575061068a92935061068490610597565b9061053b565b90565b634e487b7160e01b815260118552602490fd5b601119019060ff821161068d575061068a92935061026390610597565b6106d5915060203d81116102aa5761029c81836104ec565b5f61065e565b513d84823e3d90fd5b8792506044935192630f63ce4160e41b84528301526024820152fd5b634e487b7160e01b855260118852602485fd5b8351630387e14b60e31b8152808901839052602490fd5b855163ebec6a5960e01b8152808b01859052602490fd5b60448a8986895192631850cf5f60e11b84528301526024820152fd5b975050505060a0853d82116107ae575b8161077a60a093836104ec565b810103126107aa5761078b85610580565b60208601516107a1608060608901519801610580565b9096915f6105fc565b8380fd5b3d915061076d565b5163038a01b360e51b815260048101859052602490fdfea2646970667358221220ce0edd87d4f07e04d4cbc2dc858c8138c76e67d956934bcf76946a7e49b29ead64736f6c63430008140033","linkReferences":{}},"methodIdentifiers":{"addPriceFeed(address,address)":"e8a97a3e","getAmountInUsd(address,uint256)":"321f82b1","getPairLatestPrice(address,address)":"ad1c481b","getTokenLatestPriceInUsd(address)":"9838b92a","isPairSupported(address,address)":"9446994a","owner()":"8da5cb5b","renounceOwnership()":"715018a6","setStalenessThreshold(uint256)":"fb01e7f2","stalenessThreshold()":"a84f6ebb","tokenToPriceFeedUsd(address)":"df05a2c4","transferOwnership(address)":"f2fde38b"},"id":52}