{"abi":[{"type":"constructor","inputs":[{"name":"_swapRouter","type":"address","internalType":"address"}],"stateMutability":"nonpayable"},{"type":"receive","stateMutability":"payable"},{"type":"function","name":"SWAP_ROUTER","inputs":[],"outputs":[{"name":"","type":"address","internalType":"contract IUniswapV3SwapRouter"}],"stateMutability":"view"},{"type":"function","name":"swapExactInputSingle","inputs":[{"name":"_tokenIn","type":"address","internalType":"address"},{"name":"_tokenOut","type":"address","internalType":"address"},{"name":"_fee","type":"uint24","internalType":"uint24"},{"name":"_amountIn","type":"uint256","internalType":"uint256"},{"name":"_amountOutMinimum","type":"uint256","internalType":"uint256"}],"outputs":[{"name":"amountOut","type":"uint256","internalType":"uint256"}],"stateMutability":"nonpayable"},{"type":"function","name":"swapExactOutputSingle","inputs":[{"name":"_tokenIn","type":"address","internalType":"address"},{"name":"_tokenOut","type":"address","internalType":"address"},{"name":"_fee","type":"uint24","internalType":"uint24"},{"name":"_amountOut","type":"uint256","internalType":"uint256"},{"name":"_amountInMaximum","type":"uint256","internalType":"uint256"}],"outputs":[{"name":"amountIn","type":"uint256","internalType":"uint256"}],"stateMutability":"nonpayable"},{"type":"error","name":"SafeERC20FailedOperation","inputs":[{"name":"token","type":"address","internalType":"address"}]}],"bytecode":{"object":"0x60a03461007957601f61069a38819003918201601f19168301916001600160401b0383118484101761007d5780849260209460405283398101031261007957516001600160a01b038116908190036100795760805260405161060890816100928239608051818181607f015281816101da015261024b0152f35b5f80fd5b634e487b7160e01b5f52604160045260245ffdfe604060808152600436101561001c575b50361561001a575f80fd5b005b5f803560e01c806365650ea11461020d578063c6005893146101c55763ccdc1e8914610048575061000f565b346101c25761005636610321565b6001600160a01b0396919591948716939092610106906101049061007c8630338a610420565b897f000000000000000000000000000000000000000000000000000000000000000016986100ab878b8a61047b565b62ffffff8951926100bb8461036e565b89845260209c8d971687850152168983015233606083015242608083015260a08201528560c08201528460e0820152848851998a948593631b67c43360e31b855260048501906103c1565b5af19485156101b6578195610183575b50818510610128575b50505051908152f35b84820391821161016f5750825163a9059cbb60e01b868201523360248201526044808201929092529081526101679161016260648361039f565b61056d565b5f808061011f565b634e487b7160e01b81526011600452602490fd5b9094508581813d83116101af575b61019b818361039f565b810103126101ab5751935f610116565b8480fd5b503d610191565b508351903d90823e3d90fd5b80fd5b509034610209578160031936011261020957517f00000000000000000000000000000000000000000000000000000000000000006001600160a01b03168152602090f35b5080fd5b50903461020957906102cc9161010461022536610321565b6001600160a01b03989295939492939289169161024481303386610420565b62ffffff8a7f00000000000000000000000000000000000000000000000000000000000000001697610277838a8761047b565b8951946102838661036e565b855260209b8c981688860152168884015233606084015242608084015260a083015260c08201528660e0820152868651958694859363414bf38960e01b855260048501906103c1565b5af19283156103165780936102e4575b505051908152f35b909192508382813d831161030f575b6102fd818361039f565b810103126101c2575051905f806102dc565b503d6102f3565b8251903d90823e3d90fd5b60a090600319011261036a576001600160a01b0390600435828116810361036a5791602435908116810361036a579060443562ffffff8116810361036a57906064359060843590565b5f80fd5b610100810190811067ffffffffffffffff82111761038b57604052565b634e487b7160e01b5f52604160045260245ffd5b90601f8019910116810190811067ffffffffffffffff82111761038b57604052565b60e0908160018060a01b039182815116855282602082015116602086015262ffffff60408201511660408601528260608201511660608601526080810151608086015260a081015160a086015260c081015160c0860152015116910152565b6040516323b872dd60e01b60208201526001600160a01b03928316602482015292909116604483015260648083019390935291815260a081019181831067ffffffffffffffff84111761038b576104799260405261056d565b565b60405163095ea7b360e01b602082018181526001600160a01b0385166024840152604480840196909652948252949390926104b760648561039f565b60205f809386519082875af182513d82610548575b5050156104dc575b505050509050565b60405160208101969096526001600160a01b0316602486015260448086018290528552608085019067ffffffffffffffff821186831017610534575061052a9394610162916040528261056d565b805f8080806104d4565b634e487b7160e01b81526041600452602490fd5b90915061056557506001600160a01b0383163b15155b5f806104cc565b60011461055e565b905f602091828151910182855af1156105c7575f513d6105be57506001600160a01b0381163b155b61059c5750565b604051635274afe760e01b81526001600160a01b039091166004820152602490fd5b60011415610595565b6040513d5f823e3d90fdfea2646970667358221220e4c4e3979a10286d4ae3bc9785ca36583ce31027ed944a8df1d9660c48b5e68e64736f6c63430008140033","linkReferences":{}},"methodIdentifiers":{"SWAP_ROUTER()":"c6005893","swapExactInputSingle(address,address,uint24,uint256,uint256)":"65650ea1","swapExactOutputSingle(address,address,uint24,uint256,uint256)":"ccdc1e89"},"id":53}