{"abi":[{"type":"constructor","inputs":[{"name":"_swapRouter","type":"address","internalType":"address"}],"stateMutability":"nonpayable"},{"type":"receive","stateMutability":"payable"},{"type":"function","name":"SWAP_ROUTER","inputs":[],"outputs":[{"name":"","type":"address","internalType":"contract IUniswapV3SwapRouter"}],"stateMutability":"view"},{"type":"function","name":"swapExactInputSingle","inputs":[{"name":"_tokenIn","type":"address","internalType":"address"},{"name":"_tokenOut","type":"address","internalType":"address"},{"name":"_fee","type":"uint24","internalType":"uint24"},{"name":"_amountIn","type":"uint256","internalType":"uint256"},{"name":"_amountOutMinimum","type":"uint256","internalType":"uint256"},{"name":"_deadline","type":"uint256","internalType":"uint256"}],"outputs":[{"name":"amountOut","type":"uint256","internalType":"uint256"}],"stateMutability":"nonpayable"},{"type":"function","name":"swapExactOutputSingle","inputs":[{"name":"_tokenIn","type":"address","internalType":"address"},{"name":"_tokenOut","type":"address","internalType":"address"},{"name":"_fee","type":"uint24","internalType":"uint24"},{"name":"_amountOut","type":"uint256","internalType":"uint256"},{"name":"_amountInMaximum","type":"uint256","internalType":"uint256"},{"name":"_deadline","type":"uint256","internalType":"uint256"}],"outputs":[{"name":"amountIn","type":"uint256","internalType":"uint256"}],"stateMutability":"nonpayable"},{"type":"error","name":"SafeERC20FailedOperation","inputs":[{"name":"token","type":"address","internalType":"address"}]}],"bytecode":{"object":"0x60a03461007857601f61069e38819003918201601f19168301916001600160401b0383118484101761007c5780849260209460405283398101031261007857516001600160a01b038116908190036100785760805260405161060d90816100918239608051818181605c0152818160cd01526101e00152f35b5f80fd5b634e487b7160e01b5f52604160045260245ffdfe604060808152600436101561001c575b50361561001a575f80fd5b005b5f90813560e01c8063023884b7146101a557806351e820e71461008f5763c600589314610049575061000f565b3461008b578160031936011261008b57517f00000000000000000000000000000000000000000000000000000000000000006001600160a01b03168152602090f35b5080fd5b503461008b579061014d916101046100a636610322565b6001600160a01b0399939694959394938a1692906100c682303387610425565b62ffffff8b7f000000000000000000000000000000000000000000000000000000000000000016986100f9848b88610480565b8a519561010587610373565b865260209c8d9916898701521689850152336060850152608084015260a083015260c08201528660e0820152868651958694859363414bf38960e01b855260048501906103c6565b5af192831561019a578093610165575b505051908152f35b909192508382813d8311610193575b61017e81836103a4565b81010312610190575051905f8061015d565b80fd5b503d610174565b8251903d90823e3d90fd5b503461008b5790610266916101046101bc36610322565b6001600160a01b03999098958a16969195949390926101dd8730338b610425565b8a7f0000000000000000000000000000000000000000000000000000000000000000169961020c888c8b610480565b62ffffff8a519361021c85610373565b8a855260209d8e981688860152168a840152336060840152608083015260a08201528560c08201528460e0820152848851998a948593631b67c43360e31b855260048501906103c6565b5af19485156103165781956102e3575b50818510610288575b50505051908152f35b8482039182116102cf5750825163a9059cbb60e01b868201523360248201526044808201929092529081526102c7916102c26064836103a4565b610572565b5f808061027f565b634e487b7160e01b81526011600452602490fd5b9094508581813d831161030f575b6102fb81836103a4565b8101031261030b5751935f610276565b8480fd5b503d6102f1565b508351903d90823e3d90fd5b60c090600319011261036f576001600160a01b0390600435828116810361036f5791602435908116810361036f579060443562ffffff8116810361036f5790606435906084359060a43590565b5f80fd5b610100810190811067ffffffffffffffff82111761039057604052565b634e487b7160e01b5f52604160045260245ffd5b90601f8019910116810190811067ffffffffffffffff82111761039057604052565b60e0908160018060a01b039182815116855282602082015116602086015262ffffff60408201511660408601528260608201511660608601526080810151608086015260a081015160a086015260c081015160c0860152015116910152565b6040516323b872dd60e01b60208201526001600160a01b03928316602482015292909116604483015260648083019390935291815260a081019181831067ffffffffffffffff8411176103905761047e92604052610572565b565b60405163095ea7b360e01b602082018181526001600160a01b0385166024840152604480840196909652948252949390926104bc6064856103a4565b60205f809386519082875af182513d8261054d575b5050156104e1575b505050509050565b60405160208101969096526001600160a01b0316602486015260448086018290528552608085019067ffffffffffffffff821186831017610539575061052f93946102c29160405282610572565b805f8080806104d9565b634e487b7160e01b81526041600452602490fd5b90915061056a57506001600160a01b0383163b15155b5f806104d1565b600114610563565b905f602091828151910182855af1156105cc575f513d6105c357506001600160a01b0381163b155b6105a15750565b604051635274afe760e01b81526001600160a01b039091166004820152602490fd5b6001141561059a565b6040513d5f823e3d90fdfea264697066735822122005638ca64f68ee719d61924b6abade2655773641d5980994087045d90af7875c64736f6c63430008140033","linkReferences":{}},"methodIdentifiers":{"SWAP_ROUTER()":"c6005893","swapExactInputSingle(address,address,uint24,uint256,uint256,uint256)":"51e820e7","swapExactOutputSingle(address,address,uint24,uint256,uint256,uint256)":"023884b7"},"id":60}